:100000000C9469000C9486000C9486000C94860075
:100010000C9486000C9486000C9486000C94860048
:100020000C9486000C9486000C949F030C94EA12A6
:100030000C9486000C9488000C9486000C94860026
:100040000C9449160C9486000C9486000C9486003F
:100050000C9486000C94BE020C9486000C948600CE
:100060000C9486000C94860060077F0738086007B0
:100070007F0738088808F2080000000024002700E5
:100080002A0000000000250028002B0000000000CE
:1000900023002600290004040404040404040202CA
:1000A00002020202030303030303010204081020F7
:1000B0004080010204081020010204081020000002
:1000C0000007000201000003040600000000000019
:1000D000000011241FBECFEFD8E0DEBFCDBF11E07E
:1000E000A0E0B1E0E0EFF0E302C005900D92A83986
:1000F000B107D9F712E0A8E9B1E001C01D92AC3D0B
:10010000B107E1F70E943A160C9476180C9400009F
:100110001F920F920FB60F9211248F939F9380918D
:100120005002909151020196909351028093500297
:100130008091500290915102892B29F480915202B2
:100140008F5F809352029F918F910F900FBE0F90FF
:100150001F90189560918400709185002091500245
:1001600030915102E091520280918400909185007B
:100170008627972797FDEECF8091500290915102EC
:100180002817390739F780915202E81719F740E02C
:1001900050E0FFE0220F331F441F551FFA95D1F79F
:1001A0008E2F90E0A0E0B0E0BB278695B795AA27F8
:1001B00099278827282B392B4A2B5B2B7695679517
:1001C000CB01A0E0B0E0282B392B4A2B5B2BB901E7
:1001D000CA010895AF92BF92CF92DF92EF92FF9241
:1001E0000F931F9328EE33E040E050E00E94B517D4
:1001F0005B016C010E94AA007B018C010E94AA0095
:100200006E197F09800B910B6A157B058C059D0586
:10021000A8F31F910F91FF90EF90DF90CF90BF90C8
:10022000AF900895882321F0813021F42D9A08950C
:100230002D98089585B190E2892785B90895EF92A8
:10024000FF920F931F937B018C018091C9029091C3
:10025000CA02A091CB02B091CC028E199F09A00BCB
:10026000B10B181619061A061B060CF450C0809123
:10027000CD02882321F5E091CE02EF5FE370E09399
:10028000CE02FF27E7FDF095ED5AFD4F80819927BB
:1002900087FD9095880F991F8093CD0280E492E4AA
:1002A000AFE0B0E0E80EF91E0A1F1B1FE092C90282
:1002B000F092CA020093CB021093CC0228C0815066
:1002C0008093CD0281700E941201E091CE02FF273F
:1002D000E7FDF095EE0FFF1FE95AFD4F80819181F8
:1002E000AA2797FDA095BA2F2AE0880F991FAA1F69
:1002F000BB1F2A95D1F78E0D9F1DA01FB11F8093A4
:10030000C9029093CA02A093CB02B093CC021F9172
:100310000F91FF90EF9008959A01AB01882311F09F
:10032000459A449A1092B90060E074E284EF90E03C
:100330000E94D41720513040404050405695479578
:10034000379527952093B80008952FEF30E011C01E
:100350002115310561F41092BC0080915F029091EB
:10036000600201969093600280935F02089521508D
:1003700030408091BC0087FFEBCF0895FF920F9330
:100380001F93F82E0CEB10E084EAF80180830E94A2
:10039000A501F092BB0084E8F80180830E94A501CA
:1003A0001F910F91FF9008958093BB0084E8809384
:1003B000BC000E94A50108951F93182F882311F4F3
:1003C00084E801C084EC8093BC000E94A501909158
:1003D000BB00112319F484E98093BC00892F1F917D
:1003E00008950F931F93162F042F880F0E94BE01AC
:1003F000812F0E94D401802F0E94D40184E9809330
:10040000BC001F910F9108950F931F93182F062F73
:10041000880F0E94BE01802F0E94D401110F812FEE
:1004200081600E94BE0180E00E94DC011F910F915B
:1004300008951F93CF93DF93EB01142F880F8160F2
:100440000E94BE0108C0115080E011160CF481E03A
:100450000E94DC0189931123B1F7DF91CF911F91A5
:100460000895DF92EF92FF920F931F93E82EF62EDE
:100470008A01D22E880F0E94BE018F2D0E94D401C6
:100480008E2DB8014D2D0E9419021F910F91FF90E2
:10049000EF90DF90089588E66BE640E80E94F10156
:1004A00062E370E080E090E00E94EA0088E66BE69C
:1004B00043E00E94F10140911D01415088E66AE14C
:1004C0000E94F10188E66BE148E10E94F10188E6B3
:1004D00065E70E94040290E08E77883609F491E087
:1004E000892F0895A6E0B0E0E8E7F2E00C941B182D
:1004F0008C017B016A0188E663E4AE014F5F5F4FC8
:1005000026E00E943102998180E02A8130E0822B2E
:10051000932BF801918380839B8180E02C8130E0D4
:10052000822B932BF701918380839D8180E02E8124
:1005300030E0822B932BF601918380832696E8E0AE
:100540000C943718282F17C0E22FF0E0EE0FFF1F92
:10055000EF59FD4F80819181892B61F080917C0062
:10056000887F822B80937C0080917A0080648093C6
:100570007A0008952F5F263038F308951F920F9266
:100580000FB60F9211242F933F934F935F936F9366
:100590007F938F939F93AF93BF93EF93FF9380913C
:1005A0007C008770E82FF0E0EE0FFF1FEF59FD4F42
:1005B0000190F081E02D9091790090838F5F0E94EF
:1005C000A202FF91EF91BF91AF919F918F917F9187
:1005D0006F915F914F913F912F910F900FBE0F90B0
:1005E0001F901895E1E6F2E040E050E061E070E035
:1005F00080819181892B79F087B1DB01042E02C0C3
:10060000AA0FBB1F0A94E2F79D012095822387B9A8
:1006100088B1282328B94F5F5F4F32964630510585
:1006200039F780E680937C0010927B008FE88093FE
:100630007A0080E00E94A2020895CF93DF93EB013D
:10064000DA01FC0140E050E061E070E080819181DE
:10065000892B79F03881CB01042E02C0880F991FB5
:100660000A94E2F7282F2095232328832C91822BAC
:100670008C934F5F5F4F32964830510539F7DF91C9
:10068000CF9108958DE692E064E270E045E250E09B
:100690000E941D038EE391E067E270E048E250E0C3
:1006A0000E941D038DE792E06AE270E04BE250E0A9
:1006B0000E941D03089560E070E040E050E0A1E07A
:1006C000B0E0362FFA01E359FD4F0190F081E02DA3
:1006D000309751F023B1CD01062E02C0880F991F2B
:1006E0000A94E2F728232083FA01E25CFE4F01908E
:1006F000F081E02D309751F026B1CD01032E02C0DC
:10070000880F991F0A94E2F728232083FA01E358FF
:10071000FD4F0190F081E02D309749F029B1CD01D6
:1007200002C0880F991F3A95E2F7282320836F5F54
:100730007F4F4E5F5F4F4031510519F608951F926C
:100740000F920FB60F9211242F933F934F935F9305
:100750008F939F93EF93FF932091860030918700B2
:100760008091C5029091C602A901481B590B56956C
:1007700047953093C6022093C5029091C7028BE043
:10078000493B580728F09093C8021092C70226C030
:100790009830D4F483E04438580718F444E853E020
:1007A00006C088E04533580710F044E358E0E92FCD
:1007B000FF27E7FDF095EE0FFF1FE65CFD4F019070
:1007C000F081E02D518340839F5F9093C702809119
:1007D000C802981719F481E080938D02FF91EF9180
:1007E0009F918F915F914F913F912F910F900FBEED
:1007F0000F901F901895A6E0B0E0E1E0F4E00C94B3
:1008000011187A8369831C012B019E838D839B01C0
:100810002A5F3F4F3C832B83ED81FE810681178148
:1008200080819181081B190B3801882477FC809402
:10083000982CF10182899389A489B589860D971D29
:10084000A81DB91D268D378D40A151A1AA24BB2416
:100850006501A21AB30AC40AD50A8A159B05AC051C
:10086000BD054CF05C016D01281739074A075B078D
:1008700014F459016A01F101A28AB38AC48AD58AA3
:10088000ED81FE8184859585AA2797FDA095BA2FD5
:10089000A4019301281B390B4A0B5B0BCA01B90158
:1008A00015870487F20124853585442737FD409557
:1008B000542F0E94B5177B018C0142E015950795D6
:1008C000F794E7944A95D1F7F201208131814427CA
:1008D00037FD4095542FC401B3010E94B51733E092
:1008E00095958795779567953A95D1F7E60EF71E1A
:1008F000081F191FF20126813781442737FD4095D3
:10090000542FC601B5010E94B51726E0959587952D
:10091000779567952A95D1F7E60EF71E081F191FE0
:10092000E981FA81028804C015950795F794E79448
:100930000A94D2F7ED81FE81F3A6E2A63296FE83F9
:10094000ED8324E030E0220E331E42E050E0440EFE
:10095000551E8B819C814816590609F05DCF26965D
:10096000E2E10C942D18A6E0B0E0E9EBF4E00C9481
:100970002118CE010196BE016D5F7F4FAE014B5F26
:100980005F4F0E947202EB81FC81AA27BB27AE1B3E
:10099000BF0BB093D401A093D30169817A8144271E
:1009A0005527461B570B5093D6014093D5012D81F7
:1009B0003E813093D8012093D7018091030290911A
:1009C000040283309105A9F0843091051CF402974C
:1009D00071F506C084309105C9F0059741F51FC037
:1009E0003093D6012093D5017093D8016093D7013D
:1009F0001EC088279927821B930B9093D601809362
:100A0000D5015093D8014093D70111C05093D40120
:100A10004093D301F093D601E093D50108C07093C1
:100A2000D4016093D301B093D601A093D50126964B
:100A3000E2E00C943D1881E040E85AE166E070E0A5
:100A40000E948C010E944B02882349F485E0809328
:100A5000550288EC90E090935C0280935B020895CD
:100A60000F931F93CF93DF93FC011082772767FDCD
:100A7000709572836183DC01EC0140E050E00FEF80
:100A80001FE760E070E80CC012961C930E9311975C
:100A90001A967C936E9319971F86188A198A1A8A58
:100AA0009A014F5F5F4F1296249681819281281799
:100AB000390754F314A613A6DF91CF911F910F911C
:100AC0000895A0E0B0E0E7E6F5E00C9419187C0189
:100AD0008C01EB01F70160E070E02BC021813281D5
:100AE00088819981281739070CF4C9019283818381
:100AF0002185328588819981821793070CF4C90179
:100B00009287818729913991442737FD4095542F49
:100B1000D8011F96AD90BD90CD90DC905297A20E5B
:100B2000B31EC41ED51E1F96AD92BD92CD92DC920F
:100B300052979B016F5F7F4F32960C5F1F4FD7011B
:100B400011968D919C911297281739073CF2CDB7D9
:100B5000DEB7EAE00C943518A0E0B0E0E2EBF5E097
:100B60000C941B18EC017C0153E2C52ED12CC80E4D
:100B7000D91E00E010E011C02BA53CA5442737FD8D
:100B80004095542FF70167857089818992890E9469
:100B9000F617F601219331936F0198010F5F1F4FF4
:100BA00084E090E0E80EF91E89819A8128173907C0
:100BB0001CF3CDB7DEB7E8E00C943718CF93DF9382
:100BC000FC01EB0161817281A0E040E050E00DC0CA
:100BD0008385948523813481821B930B8C179D0719
:100BE0000CF4AF5F4F5F5F4F32964617570784F3A1
:100BF00020E08A2F992787FD90958617970709F49B
:100C000021E0822FDF91CF910895AAE0B0E0EBE0E0
:100C1000F6E00C941F188C01809198019091990135
:100C20009A83898380919C0190919D019C838B8301
:100C300080919E0190919F019E838D8380919A0166
:100C400090919B0198878F838091A6019091A70135
:100C50009A878987C801BE016F5F7F4F0E94610537
:100C6000F80183A594A5019694A783A784369105DE
:100C700081F5C80164E170E00E94DE05882329F156
:100C8000C8010E94AC05F80183A194A190931401BE
:100C90008093130185A196A190931601809315016D
:100CA00087A190A5909318018093170181A592A523
:100CB00090931A018093190183A594A590931C0128
:100CC00080931B0181E0808304C0C80164E00E941E
:100CD00030052A96E4E00C943B18A6E0B0E0E3E788
:100CE000F6E00C941F188C018091D3019091D401EF
:100CF0009A8389838091D5019091D6019C838B83BF
:100D00008091D7019091D8019E838D83C801BE0147
:100D10006F5F7F4F0E946105F80183A594A501963E
:100D200094A783A78C52914021F5C80162E370E03B
:100D30000E94DE058823C9F0C8010E94AC05F801B5
:100D400083A194A19093CE018093CD0185A196A11A
:100D50009093D0018093CF0187A190A59093D20169
:100D60008093D10181E0808304C0C80163E00E94C8
:100D700030052696E4E00C943B1820910301309155
:100D8000040180910301909104012817390721F48F
:100D9000309399012093980120910501309106012B
:100DA00080910501909106012817390721F43093AD
:100DB0009D0120939C0120910701309108018091B1
:100DC0000701909108012817390721F430939F01FA
:100DD00020939E0120910B0130910C0180910B0119
:100DE00090910C012817390721F43093A101209329
:100DF000A00120910D0130910E0180910D01909183
:100E00000E012817390721F43093A3012093A20182
:100E100020910F013091100180910F0190911001EC
:100E20002817390721F43093A5012093A4012091BC
:100E30001101309112018091110190911201281736
:100E4000390721F43093A7012093A601809138023D
:100E50009091390205974CF48091980190919901F5
:100E600090939B0180939A010895209109013091FC
:100E70000A018091090190910A012817390721F48C
:100E800030939B0120939A010895A0E0B0E0EBE439
:100E9000F7E00C941718EC0180903802909039021A
:100EA000F4013297E830F10508F0D2C1EC5CFF4F55
:100EB0006881798140919801509199010C9448186A
:100EC000640F751F7093C0016093BF018881998181
:100ED00020919A0130919B01820F931F9093C6013C
:100EE0008093C5018A819B8120919C0130919D0155
:100EF000820F931F9093C2018093C1019DC17A011B
:100F0000E60EF71EF092C001E092BF01A0909A0198
:100F1000B0909B01088119810A0D1B1D1093C60119
:100F20000093C501A0911301B09114016A01CA1A7E
:100F3000DB0A488159814C0D5D1DE0911501F0914E
:100F4000160180919C0190919D018E1B9F0B2A811F
:100F50003B81820F931FBA017595679523E05595E4
:100F600047952A95E1F7640F751F9C0135952795E4
:100F700043E0959587954A95E1F7280F391FE60FCD
:100F8000F71FE20FF31FF093C201E093C1016A0F54
:100F90007B1F621B730B7093C4016093C30120918C
:100FA0009E0130919F0186E08816910409F059C096
:100FB000E4E0223E3E0774F029573540273C3105D6
:100FC00018F082E090E002C081E090E0029709F022
:100FD0003FC11CC0C6018A199B092091190130919B
:100FE0001A01820F931F9595879584529A4F90937B
:100FF000C0018093BF018C5D95402CED35E0281B2E
:10100000390B3093C6012093C50122C12091020102
:101010006A817B81E091AA01F091AB016E0F7F1F85
:10102000882777FD8095982F30E02058304044275E
:1010300037FD4095542F0E94B51747E09595879549
:10104000779567954A95D1F7E60EF71EF092C001A5
:10105000E092BF01061B170B1093C6010093C50158
:10106000F7C07093C0016093BF018C819D81EAC07D
:10107000640F751F7093C0016093BF0188819981CF
:1010800020919A0130919B01820F931F9093C6018A
:101090008093C501A0911501B091160140919C016A
:1010A00050919D014A1B5B0B8A819B81480F591F00
:1010B000E0911701F091180180919E0190919F019C
:1010C0008E1B9F0B2C813D81820F931FBC01759558
:1010D000679523E0959587952A95E1F7680F791F25
:1010E0009A013595279583E0559547958A95E1F7BF
:1010F000240F351FCB01820F931F8A0F9B1F9093E4
:10110000C2018093C1012E0F3F1F261B370B65C004
:1011100020911301309114010A811B818091AA0151
:101120009091AB01080F191FAC81BD818091AC017A
:101130009091AD01A80FB91F8091090190910A010A
:101140008C54944097FF03C0E0E0F0E016C080911B
:10115000090190910A018C54944095958795855F7B
:1011600091401CF0E4EFF1E008C0E0910901F0913A
:101170000A01EC54F440F595E79544525A4F421B4E
:10118000530B460F571FB801640F751F9F012A1B91
:101190003B0B37FF02C020E030E0CB01821B930BFA
:1011A0009093C0018093BF01260F371F3093C20177
:1011B0002093C1019A01201B310BAF014A0F5B1F25
:1011C00057FF02C040E050E0CA01820F931F909386
:1011D000C6018093C501241B350B3093C4012093B5
:1011E000C30136C0640F751F7093C0016093BF01C7
:1011F0008881998120919A0130919B01820F931FE0
:101200009093C6018093C5018A819B8120919C01A6
:1012100030919D01820F931F9093C2018093C10171
:101220008091A6019091A7012A813B81821B930B9B
:101230009093CA018093C9018C819D8120919E0168
:1012400030919F01820F931F9093C4018093C3013B
:101250008091A4019091A5019093C8018093C7014A
:1012600089E08816910441F08091A6019091A70130
:101270009093CA018093C9018091A2019091A3012A
:101280009093CC018093CB01CDB7DEB7ECE00C940A
:101290003318AAE0B0E0EFE4F9E00C941F18809155
:1012A000F6019091F7010397A9F5FE0131968AE0C6
:1012B000DF011D928A95E9F7CF010E944507ADE84D
:1012C000B1E00FED11E049EE51E06D917C91119785
:1012D000F80120813181FB01808191812817390734
:1012E0000CF4C901F80191838083FA0120813181D6
:1012F000FB0180819181821793070CF4C901FA01E7
:1013000081939193AF0112960E5F1F4FF1E0A739C1
:10131000BF07D9F689ED91E00E9445078091380218
:1013200090913902099711F074E001C075E060E016
:1013300080E090E0FC01E357FE4FA081B1814D9128
:101340005C911197FC01E152FE4F0190F081E02D7C
:101350004E175F0754F0FC01E751FE4F20813181A9
:10136000FA01241735070CF4F901ED93FC936F5F34
:1013700002966717FCF22A96E4E00C943B188091E1
:101380008F02882309F050C081E080938F028FEF95
:1013900080938E022FB7F8948091BF019091C00185
:1013A0009093B2018093B1018091C1019091C201EB
:1013B0009093B4018093B3018091C3019091C401D3
:1013C0009093B6018093B5018091C5019091C601BB
:1013D0009093B8018093B7018091C7019091C801A3
:1013E0009093BA018093B9018091C9019091CA018B
:1013F0009093BC018093BB018091CB019091CC0173
:101400009093BE018093BD0180916F0082608093B4
:101410006F00B19A8091840090918500049690931A
:101420008900809388002FBF0895FC0181E08183AB
:10143000808385E082831682158210861782089544
:101440009C0144E0813B940714F490E00DC084516A
:1014500095408159914010F491E006C028503740E2
:1014600014F49FEF06C092E0662319F082E0891B16
:10147000982F892F0895CF93DF93EC018A818B8376
:1014800080919801909199016D810E94200A87FFB7
:10149000888380919C0190919D016E810E94200A19
:1014A00087FF89838F81882351F48881882329F0DD
:1014B000823029F481E08D83188281E08F838885D2
:1014C000882361F48981882319F0823039F404C0BB
:1014D00081E08E8382E0898381E0888738813F5F65
:1014E000898123E08202C0011124380F3A839B8155
:1014F00080E0391729F081E09295907F932B9C83AF
:10150000DF91CF910895282F30E03F6F220F331FD6
:10151000EFB7F8948091840090918500AC01405C15
:101520005F4FBC016D5D7A4F809184009091850082
:10153000DA01A81BB90B1A161B06B4F320FF02C070
:10154000389801C0389A4617570729F036952795DD
:1015500045575F4FE9CFEFBF0895EFB7F894309943
:1015600017C04BC020918400309185002058314C29
:1015700004C08FEF9FEF309B0BC08091840090914F
:101580008500B901681B790B1616170614F4F1CF04
:10159000AC0141505040CA0101961816190614F3C7
:1015A0004F5F5F4F19F420E030E829C0809184003C
:1015B00090918500AC0140565F4F20E030E0BC01C7
:1015C00063597B4F8091840090918500DA01A81BBC
:1015D000B90B1A161B06B4F3309903C080E090E0F3
:1015E00002C080E890E036952795282B392B4617C6
:1015F000570729F045575F4FE5CF20E030E4EFBFB4
:10160000C9010895EF92FF920F931F93CF93DF9339
:10161000E82E192F062FF62E84E20E94830A802FCF
:101620000E94830A2E2D312FC901EC0104C089913B
:10163000F80E0E94830A9E012E192017C4F38F2DE5
:1016400081950E94830ACDB7DEB7E6E00C94391885
:101650008F929F92AF92BF92CF92DF92FF920F93A1
:101660001F93CF93DF934C015A01C0E0D0E0C62E08
:10167000DD24C7FCD09402C0812F182FC5010E9421
:10168000AD0A9C018070907C892B69F5822FC13056
:10169000D10559F0C230D105A1F0209779F7243255
:1016A00059F7812FC1E0D0E0E8CF90E0C816D90605
:1016B00014F4812F15C0822FF22E00E0C2E0D0E09A
:1016C000DCCFF20E812F8150112331F0F401E00FB5
:1016D000F11D20830F5FD1CFFF2011F481E004C002
:1016E000C0E0D0E0CACF80E0DF91CF911F910F9191
:1016F000FF90DF90CF90BF90AF909F908F90089514
:101700001F93CF93DF93EC01142F45E450E00E9428
:101710004E188881811711F08FEF12C090E020E001
:1017200030E0FE01E20FF31F8081980F2F5F3F4FE3
:1017300025343105B1F7992311F480E001C08EEF13
:10174000DF91CF911F910895DC0190E020E030E01F
:10175000FD01E20FF31F8081980F2F5F3F4F24346C
:101760003105B1F7AC5BBF4F91959C93A454B04049
:10177000CD0145E450E00E945E180895A1E1B0E07B
:10178000E4ECFBE00C9411181C0181E0898384EFE8
:1017900091E09B838A8302969D838C830D969F8321
:1017A0008E8302969987888702969B878A870296FE
:1017B0009D878C8702969F878E87CE010196998B95
:1017C000888BD090F401DD0CCC246624EE24FF2419
:1017D0008701F0E88F2EFAE19F2EF6E0AF2EB12CB4
:1017E000E2E07E2E2C010E94AA009B01AC01DC01EC
:1017F000CB018E199F09A00BB10B88169906AA067A
:10180000BB060CF051C0171424F5872D992787FDCE
:101810009095FC01E170F07080FD03C088E097E0D6
:1018200002C08CED95E09093C2018093C1018CEDD4
:1018300095E09093C0018093BF01EE0FFF1FEE0F64
:10184000FF1FEB58FE4F80809180A280B3807A9476
:1018500029C0DD2039F11D1424F46CE271E0A1E00F
:1018600003C064ED7EEFAFEF8D2D992787FD909536
:10187000FC01E170F07080FF03C08CED95E003C0C7
:10188000CB0184529A4F9093C0018093BF01EE0F19
:10189000FF1FEE0FFF1FEB58FE4F80809180A2804C
:1018A000B380DA1A79018A0180918D02882329F0A8
:1018B00010928D020E94BD0602C0662041F0809108
:1018C0008F02882309F08CC00E94BF09662477200C
:1018D00009F089CFC1010E943B0A882309F483CF14
:1018E000F1018481843561F0853520F4823509F079
:1018F00063C013C0863559F0883509F05DC02AC031
:10190000F1E0FC1514F0CC2470C0CA946EC085E0E0
:101910008C150CF468C0C39468C0AC2DBB27A7FD20
:10192000B095FD01EE0FFF1FE40DF51D0180F28162
:10193000E02D8081282F332727FD30952F5F3F4FE3
:10194000A358BE4F8C91992787FD909582179307D6
:10195000F4F41CC0AC2DBB27A7FDB095FD01EE0F24
:10196000FF1FE40DF51D0180F281E02D8081282FFD
:10197000332727FD309521503040AB57BE4F8C9117
:10198000992787FD9095281739070CF49C0120832F
:1019900020E08C2D992787FD9095FC01EE0FFF1F0D
:1019A000E40DF51D0180F281E02DD080DD0C2223B5
:1019B00019F00196782E770C8981823009F013CFC7
:1019C00083EF91E060E070E00E94A40B83EF91E070
:1019D00060E071E00E94A40B6196E2E10C942D1886
:1019E0006624639474CF87E0C82E21E0D2CFA1E9AA
:1019F000B0E0EDEFFCE00C9411180E94AA001B016E
:101A00002C01DE011196E7E6F1E086E001900D92EF
:101A10008150E1F78E010D5E1F4FC8010E94150A2B
:101A20004CE1E42EF12CEC0EFD1EC70164E00E9497
:101A3000300539E4C32ED12CCC0EDD1EC60163E087
:101A40000E9430052092C1023092C2024092C3022D
:101A50005092C402C657DF4F288239824A825B8285
:101A6000CA58D040CE57DF4F288239824A825B82E3
:101A7000C258D040C258DF4F288239824A825B82E6
:101A8000CE57D040EB962CAE3DAE4EAE5FAEEB9750
:101A9000CA57DF4F288239824A825B82C658D040BB
:101AA00042013101ED961FAEED97EE961FAEEE9717
:101AB00021E0EC962FAFEC97C257DF4FE882CE586B
:101AC000D040C157DF4FF882CF58D040C057DF4FCA
:101AD0000883C059D040CF56DF4F1883C159D0403A
:101AE0000E94AA005B016C010E941F0180918D027F
:101AF0008823A1F4D601C501C657DF4F488159811B
:101B00006A817B81CA58D040841B950BA60BB70B0A
:101B100081539547A040B0400CF442C010928D0212
:101B20000E94BD068C8D882369F0C657DF4FA882BE
:101B3000B982CA82DB82CA58D04061E0EE966FAFAC
:101B4000EE972EC0C257DF4F8881CE58D040C15784
:101B5000DF4F9881CF58D0400E9405062A968FAD5E
:101B60002A97882311F492E001C090E020E08C8D48
:101B7000882309F421E0920F9093540288EC90E0BE
:101B800090935A0280935902C657DF4FA882B982B8
:101B9000CA82DB82CA58D04091E0EE969FAFEE97A2
:101BA00080918F02882379F5EE96AFADEE97AA2348
:101BB00051F1A6019501CA57DF4F688179818A8169
:101BC0009B81C658D040261B370B480B590B809180
:101BD0004C0290914D02A0914E02B0914F0282179B
:101BE0009307A407B5077CF40E9449090E94BF0926
:101BF000CA57DF4FA882B982CA82DB82C658D0405A
:101C0000EE961FAEEE97D601C501CE57DF4F288165
:101C100039814A815B81C258D040821B930BA40B4F
:101C2000B50B81519742A040B04054F10E94B304DB
:101C30002A968FAD2A978823D9F4CE01875B9F4FD0
:101C40000E946D062A968FAD2A97882311F492E0A0
:101C500001C090E020E08C8D882309F421E0920FF0
:101C60009093540248EC50E050935A02409359022A
:101C7000CE57DF4FA882B982CA82DB82C258D040D9
:101C8000EC965FADEC97552309F456C0C057DF4F73
:101C90008881C059D040CF56DF4F9881C159D0407C
:101CA0000E943B0A882309F447C0ED966FADED977B
:101CB000E62FFF27E7FDF095E25AFE4F9F898081CE
:101CC000981721F0ED961FAEED9707C0ED967FAD0A
:101CD000ED977F5FED967FAFED97ED968FADED972A
:101CE000E82FFF27E7FDF095E25AFE4F80818F3FF6
:101CF00081F4CE0143960E94BE0B2EE088E190E075
:101D00000FB6F894A895809360000FBE20936000F2
:101D1000FFCFD601C50182199309A409B509815CD9
:101D2000914EA44EB04024F0EC961FAEEC9704C048
:101D3000F1E0EC96FFAFEC978C8D882329F02A9682
:101D40008FAD2A978823C9F580919A0190919B01C4
:101D50002091980130919901820F931F20911901D0
:101D600030911A01821B930B2091130130911401C1
:101D7000821B930B959587959093A9018093A80159
:101D800080919C0190919D01209115013091160147
:101D9000821B930B9093AB018093AA0180919E01CB
:101DA00090919F012091170130911801821B930B94
:101DB0009093AD018093AC0193CED601C5018619F5
:101DC0009709A809B90981519742A040B0400CF485
:101DD00034C380914A0290914B028130910559F4AD
:101DE0008091A0019091A101865F95400CF0A3C065
:101DF00080E090E00DC0892B09F09DC08091A0018A
:101E00009091A101875296400CF495C081E090E03A
:101E100090934B0280934A02892B11F084E001C019
:101E200080E08093540268EC70E070935A026093F3
:101E300059021092A2021092A3021092A4021092D0
:101E4000A5021092AE021092AF021092B002109250
:101E5000B1021092A6021092A7021092A80210924C
:101E6000A9021092B2021092B3021092B402109220
:101E7000B5021092AA021092AB021092AC0210921C
:101E8000AD021092B6021092B7021092B8021092F0
:101E9000B90280910B0290910C02029709F04BC09D
:101EA000D601C501EB962CAD3DAD4EAD5FADEB97C8
:101EB000821B930BA40BB50B8152914AA740B040F3
:101EC0001CF0E7961FAEE797E7964FADE7974F5F99
:101ED000E7964FAFE797433044F180919801909196
:101EE0009901909314018093130180919C0190912A
:101EF0009D01909316018093150180919E01909110
:101F00009F01909318018093170180919A019091FD
:101F10009B0190931A01809319018091A6019091E1
:101F2000A70190931C0180931B01EB96ACAEBDAE54
:101F3000CEAEDFAEEB9740919A0150919B0180911C
:101F4000980190919901480F591F80911901909122
:101F50001A01481B590B8091130190911401481BE1
:101F6000590B559547955093A9014093A801E091CD
:101F70009C01F0919D018091150190911601E81B43
:101F8000F90BF093AB01E093AA01A0919E01B091EF
:101F90009F018091170190911801A81BB90BB09374
:101FA000AD01A093AC018091A6019091A701209171
:101FB0001B0130911C01821B930B9093AF01809306
:101FC000AE01809105028150282F332727FD3095DF
:101FD000CA0157FF04C088279927841B950B022E3E
:101FE00002C0880F991F0A94E2F761E081399607D1
:101FF00014F080E991E060E971E0681B790B788763
:102000006F83CF01F7FF04C0882799278E1B9F0B92
:10201000022E02C0880F991F0A94E2F771E08139FD
:10202000970714F080E991E060E971E0681B790B93
:102030007A876987CD01B7FF04C0882799278A1B53
:102040009B0BBC0102C0660F771F2A95E2F781E067
:102050006139780714F060E971E010E9612E11E050
:10206000712E661A770A7C866B868091A00190910A
:10207000A10125E0833C92074CF403EC15E0081B1A
:10208000190B31E00139130794F00BC066E0883278
:1020900096071CF400E010E00AC077E08638970746
:1020A0001CF000E911E003C08C01055F1540809031
:1020B0004A0290904B0281E08816910459F08114F5
:1020C000910409F050C08091090290910A02029790
:1020D00009F049C0809107029A01082E02C0220F20
:1020E000331F0A94E2F73E872D87082E02C0EE0FB9
:1020F000FF1F0A94E2F7F88BEF87AD0102C0440F8F
:10210000551F8A95E2F75A8B498B89819A8197FDF1
:1021100005C088279927821B930B01C0C9019093A2
:102120009102809390028B819C812F85388997FD45
:1021300005C088279927821B930B01C0C901909382
:102140009302809392028D819E8197FD03C05095EA
:1021500041955F4F509395024093940291E0891608
:10216000910471F055C01092910210929002109259
:10217000930210929202109295021092940248C01B
:102180006F817885882777FD8095982F24EF3FEB26
:1021900040E050E00E94B517F9E095958795779556
:1021A0006795FA95D1F76093AE027093AF02809372
:1021B000B0029093B10269857A85882777FD809572
:1021C000982F0E94B517E9E09595879577956795C3
:1021D000EA95D1F76093B2027093B3028093B40290
:1021E0009093B502B301882777FD8095982F0E94C0
:1021F000B51739E095958795779567953A95D1F715
:102200006093B6027093B7028093B8029093B902BC
:102210002091D3013091D4018091CD019091CE01D4
:10222000281B390BA0E220303A0714F02FEF3FE1D2
:10223000C901B0EE20303B0714F480E090EE90939B
:102240009702809396022091D5013091D60180911A
:10225000CF019091D001281B390BE0E220303E07DE
:1022600014F02FEF3FE1C901F0EE20303F0714F4E6
:1022700080E090EE90939902809398022091D7018C
:102280003091D8018091D1019091D201281B390B56
:1022900040E22030340714F02FEF3FE1C90150EE47
:1022A0002030350714F480E090EE90939B028093E9
:1022B0009A02892819F063E272E002C060E172E0DC
:1022C00080E992E00E94FB03EE24FF243801882479
:1022D00077FC8094982C870107521E4FE1E0F0E0D4
:1022E000EC0FFD1FEE0DFF1D60817181882777FDCA
:1022F0008095982FF701E057FD4F22A533A544277D
:1023000037FD4095542F0E94B51727E09595879586
:10231000779567952A95D1F7E7E0F0E0EC0FFD1F80
:10232000EE0DFF1D20813181442737FD4095542F4C
:102330000E94B5179B01AC01B9E0559547953795BB
:102340002795BA95D1F7C401B3010E94B517A9E04A
:102350009595879577956795AA95D1F7D8016D934F
:102360007C93E2E0F0E0EE0EFF1EF6E0EF16F104E3
:1023700009F0B1CF2091C00212160CF05CC0809120
:10238000C1029091C202A091C302B091C402B601F1
:10239000A501481B590B6A0B7B0BDB01CA01815459
:1023A0009D40A340B0405CF021502093C002A09219
:1023B000C102B092C202C092C302D092C402809104
:1023C000C002992787FD90954091D9015091DA017B
:1023D000BC016170707080FF03C026E930E002C06C
:1023E0002AE63FEF240F351F3093DA012093D901FD
:1023F0004091DB015091DC016115710519F026E96E
:1024000030E002C02AE63FEF240F351F3093DC0195
:102410002093DB012091DD013091DE01672B19F45F
:102420008AE69FEF02C086E990E0820F931F9093A7
:10243000DE018093DD0135014601D601C501C25898
:10244000DF4F288139814A815B81CE57D040821B82
:10245000930BA40BB50B8C59914AA740B0400CF4D8
:102460003FCB80910D02803839F480910001282FF4
:1024700030E02058304004C0282F332727FD309506
:1024800080910E02803839F480910101482F50E08C
:102490004058504004C0482F552747FD5095809123
:1024A0000F02803831F48091020190E08058904012
:1024B00003C0992787FD90953A8329835C834B83DA
:1024C0009E838D83295F3F4F2F30310510F41A8290
:1024D00019828B819C8107960F9710F41C821B82B6
:1024E0008D819E8107960F9710F41E821D8280E0D9
:1024F0000E94A202C258DF4FA882B982CA82DB8240
:10250000CE57D040EDCAA6E6B0E0E9E8F2E10C947F
:102510001B181092800081E08093810038984098C9
:1025200048E552E000E06E010894C11CD11C62E055
:10253000E62EF12CEC0EFD1EC60166E60E94280B6D
:10254000882309F441C089818230A9F0833018F4CE
:10255000813029F406C08330B1F08430E9F010E016
:1025600026C0C70160E870E048E050E00E944E18C5
:1025700010E069E01DC0C70160E870E048E050E08D
:102580000E945E1813C0C70160E070E04CE00E943A
:10259000800B10E066E40CC0C70160E070E00E94B0
:1025A000A40BC70160E071E00E94A40B11E061E0A0
:1025B000898180688983C6010E94020B01E044EF93
:1025C00051E0112309F4B8CF802FCA59DF4FE8E05A
:1025D0000C9437181F920F920FB60F9211240F937D
:1025E0001F932F933F934F935F936F937F938F939B
:1025F0009F93AF93BF93EF93FF9380918E0287FDDC
:1026000042C0E0918E02FF27E7FDF095E25BFE4FAE
:10261000808160E00E94821736C080918E028F5FB9
:1026200080938E02E0918E02FF27E7FDF095E25B3A
:10263000FE4F808187FD27C00091840010918500A6
:10264000E0918E02FF27E7FDF095E25BFE4F80816F
:1026500061E00E948217E0918E02FF27E7FDF0956E
:10266000EE0FFF1FE25DFE4F0190F081E02D8081B3
:1026700091810297880F991F800F911F9093890075
:10268000809388000BC080918E02873034F21092C4
:102690008F0280916F008D7F80936F00FF91EF918B
:1026A000BF91AF919F918F917F916F915F914F916A
:1026B0003F912F911F910F910F900FBE0F901F9080
:1026C00018950F931F93CF93DF9300E010E0E8017C
:1026D000C25BDE4F888187FD08C0888160E00E9470
:1026E0008217888161E00E9416170F5F1F4F083024
:1026F000110569F7DF91CF911F910F910895A0E027
:10270000B0E0E5E8F3E10C941B18182F062F862F94
:1027100061E00E941617812F60E00E941617812F3A
:1027200061E00E9482176AE070E080E090E00E9421
:10273000EA00C0E0D0E0812F992787FD9095FC0149
:10274000EA56FF4FE491F0E0EE0FFF1FE457FF4F12
:10275000C590D49086559F4FFC018491E82EFF24AC
:10276000CE018170182F802F612F0E948217F601F1
:10277000808120E030E090E08E219F21892B11F0B4
:1027800021E030E0812F992787FD909528173907A0
:1027900011F010E005C02196C830D10509F711E00D
:1027A000802F60E00E941617812FCDB7DEB7E8E0DA
:1027B0000C943718A4E9B0E0E0EEF3E10C941B1898
:1027C000259A8091D8029091D902009711F09C012E
:1027D00002C02CED32E0CE010196821B930B8038B3
:1027E00091054CF484E1809355028EE190E0909342
:1027F0005C0280935B0284B7877F84BF88E10FB659
:10280000F89480936000109260000FBE85E090E025
:102810009093F5018093F4018CE380930D028093F3
:102820000E0280930F0281E090E09093F701809375
:10283000F60187E0809336021092F801EDE6F1E0B0
:1028400099EFC92E91E0D92ED60181918D9321E087
:10285000E537F207D1F742E050E05093020240938F
:10286000010221E030E03093040220930302309310
:1028700006022093050283E090E090930802809383
:10288000070230930A022093090250930C024093EE
:102890000B0284EF91E0909311028093100210924A
:1028A00017021092160290931D0280931C029093BF
:1028B0001302809312021092190210921802909340
:1028C0001F0280931E0290931502809314021092AF
:1028D0001B0210921A02909321028093200228E09A
:1028E00020932202909324028093230290932A0241
:1028F000809329029093300280932F0290932602B6
:102900008093250290932C0280932B0290933202A5
:1029100080933102909328028093270290932E0295
:1029200080932D02909334028093330220933502DA
:1029300085E066E00E947F13882311F400E001C067
:1029400007E0CE01039660E870E048E050E00E94A6
:102950004E18002361F48B81863049F48C819D816F
:10296000AE81BF818E549146AC4BB04071F086E091
:102970008B838EE491E6ACEBB0E08C839D83AE83D9
:10298000BF83188619861A860860CE010B9660E010
:1029900070E04CE00E94800B87FD0260CE01805BFE
:1029A0009F4F60E071E04CE00E94800B87FD046067
:1029B00083E08093C002E02EFF24C70186709070F0
:1029C0008230910531F08430910579F0892B81F1C5
:1029D00019C08E01005B1F4FC80160E070E00E94CB
:1029E000A40B88858F5F88870BC08E01055F1F4F02
:1029F000C80160E071E00E94A40B89858F5F898720
:102A0000C80118C08CE08093F30183EF91E060E08F
:102A100070E00E94A40B83EF91E060E071E00E94FF
:102A2000A40B8A858F5F8A8789E08093C0020AC0E1
:102A3000CE010B96A3EFB1E0FC0185E401900D926D
:102A40008150E1F7C7018E709070892B41F0CE0163
:102A5000039660E870E048E050E00E945E18E0FEF7
:102A60000AC082E00E94120164E670E080E090E01B
:102A70000E94B716F6CF0E948312882361F02EE0E1
:102A800088E190E00FB6F894A895809360000FBE9F
:102A900020936000FFCF1092800082E0809381003D
:102AA00081E080936F0085B5887F85BD8091F601B8
:102AB0009091F7018230910519F18330910524F44A
:102AC000019709F05BC007C08330910571F104974D
:102AD00009F054C03FC080E090E048EE53E020EDA4
:102AE00037E0FC01E152FE4F51834083FC01E75186
:102AF000FE4F3183208302968A30910591F73EC0C4
:102B000080E090E04CE454E02CE637E0FC01E15238
:102B1000FE4F51834083FC01E751FE4F31832083F8
:102B200002968A30910591F729C080E090E042EE4C
:102B300054E026ED36E0FC01E152FE4F5183408324
:102B4000FC01E751FE4F3183208302968A309105C4
:102B500091F714C080E090E044E853E024E338E0CB
:102B6000FC01E152FE4F51834083FC01E751FE4FCF
:102B70003183208302968A30910591F78091F80184
:102B8000992787FD909528EE33E0FC01E29FC00174
:102B9000E39F900DF29F900D1124AA2797FDA09519
:102BA000BA2F80934C0290934D02A0934E02B093A3
:102BB0004F0280913602877080931D01AAE3B2E034
:102BC000F60181916F01E82FFF27E7FDF095EE0FE9
:102BD000FF1FE25EFE4F808191818D939D93F1E016
:102BE000CF16F2E0DF0661F720E030E0F901EA5AA3
:102BF000FE4F8081F901E25BFE4F80832F5F3F4FE4
:102C00002830310599F70E9442030E945B038091AE
:102C1000F4019091F5019093390280933802019765
:102C200031F482E090E090933902809338028091F1
:102C300038028093530288E592E090935802809383
:102C400057020E94F20280916F00806280936F00B1
:102C5000809181008068809381000E9461130E94AE
:102C60001B050E94BD060E944909CC56DF4FE8E0D3
:102C70000C943718CF93DF930E94DB160E94DA136F
:102C8000C0E0D0E00E94F70C2097E1F30E94000022
:102C9000F9CF1F920F920FB60F9211242F933F93EB
:102CA0008F939F93AF93BF938091D3029091D4025F
:102CB000A091D502B091D6023091D7020196A11D04
:102CC000B11D232F2D5F2D3720F02D570196A11D0B
:102CD000B11D2093D7028093D3029093D402A09386
:102CE000D502B093D6028091CF029091D002A091EC
:102CF000D102B091D2020196A11DB11D8093CF02E5
:102D00009093D002A093D102B093D202BF91AF9121
:102D10009F918F913F912F910F900FBE0F901F9019
:102D200018959FB7F8942091CF023091D00240912E
:102D3000D1025091D20286B5A89B06C08F3F21F0E8
:102D40002F5F3F4F4F4F5F4F9FBF542F432F322F67
:102D50002227280F311D411D511D82E0220F331FF4
:102D6000441F551F8A95D1F7B901CA010895EF9202
:102D7000FF920F931F93CF93DF937B018C010E94EF
:102D80009116EB010EC00E9491166C1B7D0B685EC4
:102D90007340C8F30894E108F10801091109C8510A
:102DA000DC4FE114F1040105110569F7CDB7DEB779
:102DB000E6E00C943918789484B5826084BD84B5BB
:102DC000816084BD85B5826085BD85B5816085BD26
:102DD000EEE6F0E0808181608083E1E8F0E010823F
:102DE000808182608083808181608083E0E8F0E080
:102DF000808181608083E1EBF0E08081846080836A
:102E0000E0EBF0E0808181608083EAE7F0E08081A0
:102E10008460808380818260808380818160808300
:102E20008081806880831092C1000895CF93DF93E2
:102E3000482F50E0CA0186559F4FFC0134914A56F5
:102E40005F4FFA018491882369F190E0880F991F00
:102E5000FC01E858FF4FA591B491FC01EE57FF4FDC
:102E6000C591D491662351F42FB7F8948C91932F88
:102E7000909589238C93888189230BC0623061F4FB
:102E80002FB7F8948C91932F909589238C938881F8
:102E9000832B88832FBF06C09FB7F8948C91832B18
:102EA0008C939FBFDF91CF910895833071F0843070
:102EB00028F48130A1F0823021F514C08630B1F0C1
:102EC0008730D1F08430E9F404C0809180008F779E
:102ED00003C0809180008F7D80938000089584B529
:102EE0008F7702C084B58F7D84BD08958091B00036
:102EF0008F778093B00008958091B0008F7D80938C
:102F0000B0000895FF920F931F93F62E482F50E0C4
:102F1000CA0182549F4FFC012491CA0186559F4FDC
:102F2000FC0114914A565F4FFA0104910023C9F045
:102F3000222319F0822F0E945517E02FF0E0EE0FA8
:102F4000FF1FEE57FF4FA591B4919FB7F894FF2054
:102F500021F48C911095812302C08C91812B8C934C
:102F60009FBF1F910F91FF900895629FD001739FA3
:102F7000F001829FE00DF11D649FE00DF11D929F15
:102F8000F00D839FF00D749FF00D659FF00D992754
:102F9000729FB00DE11DF91F639FB00DE11DF91F78
:102FA000BD01CF0111240895A1E21A2EAA1BBB1B5B
:102FB000FD010DC0AA1FBB1FEE1FFF1FA217B30705
:102FC000E407F50720F0A21BB30BE40BF50B661F1B
:102FD000771F881F991F1A9469F7609570958095DF
:102FE00090959B01AC01BD01CF01089597FB092E7F
:102FF00005260ED057FD04D0D7DF0AD0001C38F4C8
:1030000050954095309521953F4F4F4F5F4F089514
:10301000F6F790958095709561957F4F8F4F9F4FF4
:1030200008952F923F924F925F926F927F928F926C
:103030009F92AF92BF92CF92DF92EF92FF920F9347
:103040001F93CF93DF93CDB7DEB7CA1BDB0B0FB651
:10305000F894DEBF0FBECDBF09942A88398848880E
:103060005F846E847D848C849B84AA84B984C884A4
:10307000DF80EE80FD800C811B81AA81B981CE0F9B
:10308000D11D0FB6F894DEBF0FBECDBFED01089580
:10309000EE0FFF1F0590F491E02D0994DC01CB01A8
:1030A000FC01F999FECF06C0F2BDE1BDF89A319658
:1030B00000B40D9241505040B8F70895DC01CB01A7
:1030C00003C02D910E94691841505040D0F70895D7
:1030D000262FF999FECF1FBA92BD81BD20BD0FB634
:1030E000F894FA9AF99A0FBE01960895F894FFCFD2
:1030F000FFFFFFDC05DC05DC05DC05E803DC05E89B
:1031000003DC05DC05DC05DC05DC05DC0506070168
:1031100005010F0103010B0109010D011101B501A9
:10312000B301B901B1010000B701BD01BB0100004D
:10313000B0010000000000000000000000000605D3
:10314000030AFF0B10090605030AFF0B1009788913
:10315000988778899887FF0000000000000001022E
:103160000304050607A0860100801A060005040571
:1031700003040202020101010101010101BF01C1B9
:0831800001C301C501C90100F2
:00000001FF
