:100000000C9469000C9486000C9486000C94860075
:100010000C9486000C9486000C9486000C94860048
:100020000C9486000C9486000C949B030C94E712AD
:100030000C9486000C9488000C9486000C94860026
:100040000C9467160C9486000C9486000C94860021
:100050000C9486000C94BA020C9486000C948600D2
:100060000C9486000C94860060077F0738086007B0
:100070007F0738088808F2080000000024002700E5
:100080002A0000000000250028002B0000000000CE
:1000900023002600290004040404040404040202CA
:1000A00002020202030303030303010204081020F7
:1000B0004080010204081020010204081020000002
:1000C0000007000201000003040600000000000019
:1000D000000011241FBECFEFD4E0DEBFCDBF11E082
:1000E000A0E0B1E0ECE2F1E302C005900D92A43B88
:1000F000B107D9F712E0A4EBB1E001C01D92AE3E0A
:10010000B107E1F70E9458160C9494180C94000063
:100110001F920F920FB60F9211248F939F9380918D
:100120006E0290916F02019690936F0280936E021F
:1001300080916E0290916F02892B29F48091700258
:100140008F5F809370029F918F910F900FBE0F90E1
:100150001F901895609184007091850020916E0227
:1001600030916F02E091700280918400909185003F
:100170008627972797FDEECF80916E0290916F02B0
:100180002817390739F780917002E81719F740E00E
:1001900050E0FFE0220F331F441F551FFA95D1F79F
:1001A0008E2F90E0A0E0B0E0BB278695B795AA27F8
:1001B00099278827282B392B4A2B5B2B7695679517
:1001C000CB01A0E0B0E0282B392B4A2B5B2BB901E7
:1001D000CA010895AF92BF92CF92DF92EF92FF9241
:1001E0000F931F9328EE33E040E050E00E94D317B6
:1001F0005B016C010E94AA007B018C010E94AA0095
:100200006E197F09800B910B6A157B058C059D0586
:10021000A8F31F910F91FF90EF90DF90CF90BF90C8
:10022000AF900895882321F0813021F42D9A08950C
:100230002D98089585B190E2892785B90895EF92A8
:10024000FF920F931F937B018C018091DB029091B1
:10025000DC02A091DD02B091DE028E199F09A00B95
:10026000B10B181619061A061B060CF450C0809123
:10027000DF02882321F5E091E002EF5FE370E09375
:10028000E002FF27E7FDF095EF58FD4F80819927A9
:1002900087FD9095880F991F8093DF0280E492E498
:1002A000AFE0B0E0E80EF91E0A1F1B1FE092DB0270
:1002B000F092DC020093DD021093DE0228C0815030
:1002C0008093DF0281700E941201E091E002FF271B
:1002D000E7FDF095EE0FFF1FEB58FD4F80819181F8
:1002E000AA2797FDA095BA2F2AE0880F991FAA1F69
:1002F000BB1F2A95D1F78E0D9F1DA01FB11F8093A4
:10030000DB029093DC02A093DD02B093DE021F912A
:100310000F91FF90EF9008959A01AB01882311F09F
:10032000459A449A1092B90060E074E284EF90E03C
:100330000E94F2172051304040405040569547955A
:10034000379527952093B80008952FEF30E011C01E
:100350002115310561F41092BC0080917D029091CD
:100360007E02019690937E0280937D020895215033
:1003700030408091BC0087FFEBCF0895FF920F9330
:100380001F93F82E0CEB10E084EAF80180830E94A2
:10039000A501F092BB0084E8F80180830E94A501CA
:1003A0001F910F91FF9008958093BB0084E8809384
:1003B000BC000E94A50108951F93182F882311F4F3
:1003C00084E801C084EC8093BC000E94A501909158
:1003D000BB00112319F484E98093BC00892F1F917D
:1003E00008950F931F93162F042F880F0E94BE01AC
:1003F000812F0E94D401802F0E94D40184E9809330
:10040000BC001F910F9108950F931F93182F062F73
:10041000880F0E94BE01802F0E94D401110F812FEE
:1004200081600E94BE0180E00E94DC011F910F915B
:1004300008951F93CF93DF93EB01142F880F8160F2
:100440000E94BE0108C0115080E011160CF481E03A
:100450000E94DC0189931123B1F7DF91CF911F91A5
:100460000895DF92EF92FF920F931F93E82EF62EDE
:100470008A01D22E880F0E94BE018F2D0E94D401C6
:100480008E2DB8014D2D0E9419021F910F91FF90E2
:10049000EF90DF90089588E66EE340E80E94F10156
:1004A00062E370E080E090E00E94EA0088E66EE39C
:1004B00043E00E94F10140911D014150486188E6EE
:1004C00066E10E94F10188E660E00E94040290E08B
:1004D0008E77883609F491E0892F0895A6E0B0E080
:1004E000E4E7F2E00C9439188C017B016A0188E69C
:1004F0006DE1AE014F5F5F4F26E00E9431029981AE
:1005000080E02A8130E0822B932BF8019183808355
:100510009B8180E02C8130E0822B932BF70191832B
:1005200080839D8180E02E8130E0822B932BF60129
:10053000918380832696E8E00C945518282F17C0E5
:10054000E22FF0E0EE0FFF1FE25CFE4F8081918111
:10055000892B61F080917C00887F822B80937C00C6
:1005600080917A00806480937A0008952F5F26300E
:1005700038F308951F920F920FB60F9211242F9304
:100580003F934F935F936F937F938F939F93AF931B
:10059000BF93EF93FF9380917C008770E82FF0E08A
:1005A000EE0FFF1FE25CFE4F0190F081E02D909175
:1005B000790090838F5F0E949E02FF91EF91BF911F
:1005C000AF919F918F917F916F915F914F913F91EB
:1005D0002F910F900FBE0F901F901895EEE3F1E052
:1005E00040E050E061E070E080819181892B79F0FA
:1005F00087B1DB01042E02C0AA0FBB1F0A94E2F7E9
:100600009D012095822387B988B1282328B94F5F9F
:100610005F4F32964630510539F780E680937C0073
:1006200010927B008FE880937A0080E00E949E0207
:100630000895CF93DF93EB01DA01FC0140E050E035
:1006400061E070E080819181892B79F03881CB0164
:10065000042E02C0880F991F0A94E2F7282F2095D4
:10066000232328832C91822B8C934F5F5F4F3296EC
:100670004830510539F7DF91CF9108958FE792E027
:1006800064E270E045E250E00E9419038FE892E0D6
:1006900067E270E048E250E00E9419038AE491E0CA
:1006A0006AE270E04BE250E00E941903089560E0B6
:1006B00070E040E050E0A1E0B0E0362FFA01E158F0
:1006C000FD4F0190F081E02D309751F023B1CD0125
:1006D000062E02C0880F991F0A94E2F72823208370
:1006E000FA01E157FD4F0190F081E02D309751F074
:1006F00026B1CD01032E02C0880F991F0A94E2F79C
:1007000028232083FA01E65BFE4F0190F081E02D63
:10071000309749F029B1CD0102C0880F991F3A9551
:10072000E2F7282320836F5F7F4F4E5F5F4F40319A
:10073000510519F608951F920F920FB60F921124CA
:100740002F933F934F935F938F939F93EF93FF93D9
:1007500020918600309187008091D7029091D80235
:10076000A901481B590B569547953093D802209301
:10077000D7029091D9028BE0493B580728F090931B
:10078000DA021092D90226C09830D4F483E04438BB
:10079000580718F444E853E006C088E0453358078A
:1007A00010F044E358E0E92FFF27E7FDF095EE0F46
:1007B000FF1FE85AFD4F0190F081E02D51834083E7
:1007C0009F5F9093D9028091DA02981719F481E023
:1007D00080939F02FF91EF919F918F915F914F9135
:1007E0003F912F910F900FBE0F901F901895A6E08C
:1007F000B0E0EDEFF3E00C942F187A8369831C01CD
:100800002B019E838D839B012A5F3F4F3C832B836B
:10081000ED81FE810681178180819181081B190B72
:100820003801882477FC8094982CF101828993897F
:10083000A489B589860D971DA81DB91D268D378DF4
:1008400040A151A1AA24BB246501A21AB30AC40A7B
:10085000D50A8A159B05AC05BD054CF05C016D0100
:10086000281739074A075B0714F459016A01F10197
:10087000A28AB38AC48AD58AED81FE818485958552
:10088000AA2797FDA095BA2FA4019301281B390B25
:100890004A0B5B0BCA01B90115870487F201248555
:1008A0003585442737FD4095542F0E94D3177B018F
:1008B0008C0142E015950795F794E7944A95D1F796
:1008C000F20120813181442737FD4095542FC40126
:1008D000B3010E94D31733E0959587957795679577
:1008E0003A95D1F7E60EF71E081F191FF20126816F
:1008F0003781442737FD4095542FC601B5010E942A
:10090000D31726E095958795779567952A95D1F722
:10091000E60EF71E081F191FE981FA81028804C03C
:1009200015950795F794E7940A94D2F7ED81FE8127
:10093000F3A6E2A63296FE83ED8324E030E0220E99
:10094000331E42E050E0440E551E8B819C814816B8
:10095000590609F05DCF2696E2E10C944B18A6E00B
:10096000B0E0E5EBF4E00C943F18CE010196BE0137
:100970006D5F7F4FAE014B5F5F4F0E946E026B81D8
:100980007C817093F2016093F10149815A81509307
:10099000F4014093F3012D813E813093F6012093C1
:1009A000F501809121029091220283309105C9F0D6
:1009B000843091051CF40297D1F506C0843091056E
:1009C000E9F00597A1F527C03093F4012093F301D6
:1009D00088279927841B950B9093F6018093F50146
:1009E00026C088279927821B930B9093F40180934C
:1009F000F3015093F6014093F50119C05093F201B1
:100A00004093F10188279927861B970B9093F40157
:100A10008093F3010CC088279927841B950B909332
:100A2000F2018093F1017093F4016093F301269633
:100A3000E2E00C945B1881E040E85AE166E070E087
:100A40000E948C010E944B02882349F485E0809328
:100A5000730288EC90E090937A0280937902089573
:100A60000F931F93CF93DF93FC011082772767FDCD
:100A7000709572836183DC01EC0140E050E00FEF80
:100A80001FE760E070E80CC012961C930E9311975C
:100A90001A967C936E9319971F86188A198A1A8A58
:100AA0009A014F5F5F4F1296249681819281281799
:100AB000390754F314A613A6DF91CF911F910F911C
:100AC0000895A0E0B0E0E7E6F5E00C9437187C016B
:100AD0008C01EB01F70160E070E02BC021813281D5
:100AE00088819981281739070CF4C9019283818381
:100AF0002185328588819981821793070CF4C90179
:100B00009287818729913991442737FD4095542F49
:100B1000D8011F96AD90BD90CD90DC905297A20E5B
:100B2000B31EC41ED51E1F96AD92BD92CD92DC920F
:100B300052979B016F5F7F4F32960C5F1F4FD7011B
:100B400011968D919C911297281739073CF2CDB7D9
:100B5000DEB7EAE00C945318A0E0B0E0E2EBF5E079
:100B60000C943918EC017C0153E2C52ED12CC80E2F
:100B7000D91E00E010E011C02BA53CA5442737FD8D
:100B80004095542FF70167857089818992890E9469
:100B90001418F601219331936F0198010F5F1F4FD5
:100BA00084E090E0E80EF91E89819A8128173907C0
:100BB0001CF3CDB7DEB7E8E00C945518CF93DF9364
:100BC000FC01EB0161817281A0E040E050E00DC0CA
:100BD0008385948523813481821B930B8C179D0719
:100BE0000CF4AF5F4F5F5F4F32964617570784F3A1
:100BF00020E08A2F992787FD90958617970709F49B
:100C000021E0822FDF91CF910895AAE0B0E0EBE0E0
:100C1000F6E00C943D188C018091B4019091B501DF
:100C20009A8389838091B8019091B9019C838B83C9
:100C30008091BA019091BB019E838D838091B60112
:100C40009091B70198878F838091C2019091C301E1
:100C50009A878987C801BE016F5F7F4F0E94610537
:100C6000F80183A594A5019694A783A784369105DE
:100C700081F5C80164E170E00E94DE05882329F156
:100C8000C8010E94AC05F80183A194A190931401BE
:100C90008093130185A196A190931601809315016D
:100CA00087A190A5909318018093170181A592A523
:100CB00090931A018093190183A594A590931C0128
:100CC00080931B0181E0808304C0C80164E00E941E
:100CD00030052A96E4E00C945918A6E0B0E0E3E76A
:100CE000F6E00C943D188C018091F1019091F20195
:100CF0009A8389838091F3019091F4019C838B8383
:100D00008091F5019091F6019E838D83C801BE010B
:100D10006F5F7F4F0E946105F80183A594A501963E
:100D200094A783A78C52914021F5C80162E370E03B
:100D30000E94DE058823C9F0C8010E94AC05F801B5
:100D400083A194A19093EC018093EB0185A196A1DE
:100D50009093EE018093ED0187A190A59093F0010F
:100D60008093EF0181E0808304C0C80163E00E94AA
:100D700030052696E4E00C94591820910301309137
:100D8000040180910301909104012817390721F48F
:100D90003093B5012093B4012091050130910601F3
:100DA00080910501909106012817390721F43093AD
:100DB000B9012093B8012091070130910801809179
:100DC0000701909108012817390721F43093BB01DE
:100DD0002093BA0120910B0130910C0180910B01FD
:100DE00090910C012817390721F43093BD0120930D
:100DF000BC0120910D0130910E0180910D01909167
:100E00000E012817390721F43093BF012093BE014A
:100E100020910F013091100180910F0190911001EC
:100E20002817390721F43093C1012093C001209184
:100E30001101309112018091110190911201281736
:100E4000390721F43093C3012093C20180915602E7
:100E50009091570205974CF48091B4019091B5019F
:100E60009093B7018093B6010895209109013091C4
:100E70000A018091090190910A012817390721F48C
:100E80003093B7012093B6010895A0E0B0E0EBE401
:100E9000F7E00C943518EC018090560290905702C0
:100EA000F4013297E830F10508F0D2C1EC5CFF4F55
:100EB000688179814091B4015091B5010C94661814
:100EC000640F751F7093DE016093DD018881998145
:100ED0002091B6013091B701820F931F9093E401E6
:100EE0008093E3018A819B812091B8013091B901FF
:100EF000820F931F9093E0018093DF019DC17A01DF
:100F0000E60EF71EF092DE01E092DD01A090B60140
:100F1000B090B701088119810A0D1B1D1093E401DF
:100F20000093E301A0911301B09114016A01CA1A60
:100F3000DB0A488159814C0D5D1DE0911501F0914E
:100F400016018091B8019091B9018E1B9F0B2A81E7
:100F50003B81820F931FBA017595679523E05595E4
:100F600047952A95E1F7640F751F9C0135952795E4
:100F700043E0959587954A95E1F7280F391FE60FCD
:100F8000F71FE20FF31FF093E001E093DF016A0F18
:100F90007B1F621B730B7093E2016093E101209150
:100FA000BA013091BB0186E08816910409F059C05E
:100FB000E4E0223E3E0774F029573540273C3105D6
:100FC00018F082E090E002C081E090E0029709F022
:100FD0003FC11CC0C6018A199B092091190130919B
:100FE0001A01820F931F9595879584529A4F90937B
:100FF000DE018093DD018C5D95402CED35E0281BF2
:10100000390B3093E4012093E30122C120910201C6
:101010006A817B81E091C601F091C7016E0F7F1F4D
:10102000882777FD8095982F30E02058304044275E
:1010300037FD4095542F0E94D31747E0959587952B
:10104000779567954A95D1F7E60EF71EF092DE0187
:10105000E092DD01061B170B1093E4010093E301FE
:10106000F7C07093DE016093DD018C819D81EAC041
:10107000640F751F7093DE016093DD018881998193
:101080002091B6013091B701820F931F9093E40134
:101090008093E301A0911501B09116014091B80130
:1010A0005091B9014A1B5B0B8A819B81480F591FE4
:1010B000E0911701F09118018091BA019091BB0164
:1010C0008E1B9F0B2C813D81820F931FBC01759558
:1010D000679523E0959587952A95E1F7680F791F25
:1010E0009A013595279583E0559547958A95E1F7BF
:1010F000240F351FCB01820F931F8A0F9B1F9093E4
:10110000E0018093DF012E0F3F1F261B370B65C0C8
:1011100020911301309114010A811B818091C60135
:101120009091C701080F191FAC81BD818091C80142
:101130009091C901A80FB91F8091090190910A01EE
:101140008C54944097FF03C0E0E0F0E016C080911B
:10115000090190910A018C54944095958795855F7B
:1011600091401CF0E4EFF1E008C0E0910901F0913A
:101170000A01EC54F440F595E79544525A4F421B4E
:10118000530B460F571FB801640F751F9F012A1B91
:101190003B0B37FF02C020E030E0CB01821B930BFA
:1011A0009093DE018093DD01260F371F3093E0011D
:1011B0002093DF019A01201B310BAF014A0F5B1F07
:1011C00057FF02C040E050E0CA01820F931F909386
:1011D000E4018093E301241B350B3093E20120935B
:1011E000E10136C0640F751F7093DE016093DD016D
:1011F000888199812091B6013091B701820F931FA8
:101200009093E4018093E3018A819B812091B8014E
:101210003091B901820F931F9093E0018093DF0119
:101220008091C2019091C3012A813B81821B930B63
:101230009093E8018093E7018C819D812091BA0110
:101240003091BB01820F931F9093E2018093E101E3
:101250008091C0019091C1019093E6018093E501D6
:1012600089E08816910441F08091C2019091C301F8
:101270009093E8018093E7018091BE019091BF01B6
:101280009093EA018093E901CDB7DEB7ECE00C94CE
:101290005118AAE0B0E0EFE4F9E00C943D18809119
:1012A0001402909115020397A9F5FE0131968AE088
:1012B000DF011D928A95E9F7CF010E944507A9EA4F
:1012C000B1E00DEF11E047E052E06D917C91119794
:1012D000F80120813181FB01808191812817390734
:1012E0000CF4C901F80191838083FA0120813181D6
:1012F000FB0180819181821793070CF4C901FA01E7
:1013000081939193AF0112960E5F1F4FF1E0A33BC3
:10131000BF07D9F687EF91E00E94450780915602FA
:1013200090915702099711F074E001C075E060E0F8
:1013300080E090E0FC01E755FE4FA081B1814D9126
:101340005C911197FC01E350FE4F0190F081E02D7C
:101350004E175F0754F0FC01E95FFD4F208131819A
:10136000FA01241735070CF4F901ED93FC936F5F34
:1013700002966717FCF22A96E4E00C9459188091C3
:10138000A102882309F050C081E08093A1028FEF71
:101390008093A0022FB7F8948091DD019091DE0137
:1013A0009093D0018093CF018091DF019091E00173
:1013B0009093D2018093D1018091E1019091E2015B
:1013C0009093D4018093D3018091E3019091E40143
:1013D0009093D6018093D5018091E5019091E6012B
:1013E0009093D8018093D7018091E7019091E80113
:1013F0009093DA018093D9018091E9019091EA01FB
:101400009093DC018093DB0180916F008260809378
:101410006F00B19A8091840090918500049690931A
:101420008900809388002FBF0895FC0181E08183AB
:10143000808385E082831682158210861782089544
:101440009C0144E0813B940714F490E00DC084516A
:1014500095408159914010F491E006C028503740E2
:1014600014F49FEF06C092E0662319F082E0891B16
:10147000982F892F0895CF93DF93EC018A818B8376
:101480008091B4019091B5016D810E94200A87FF7F
:1014900088838091B8019091B9016E810E94200AE1
:1014A00087FF89838F81882351F48881882329F0DD
:1014B000823029F481E08D83188281E08F838885D2
:1014C000882361F48981882319F0823039F404C0BB
:1014D00081E08E8382E0898381E0888738813F5F65
:1014E000898123E08202C0011124380F3A839B8155
:1014F00080E0391729F081E09295907F932B9C83AF
:10150000DF91CF910895282F30E03F6F220F331FD6
:10151000EFB7F8948091840090918500AC01405C15
:101520005F4FBC016D5D7A4F809184009091850082
:10153000DA01A81BB90B1A161B06B4F320FF02C070
:10154000579801C0579A4617570729F0369527959F
:1015500045575F4FE9CFEFBF0895EFB7F8944F9B22
:1015600049C016C020918400309185002058314C2C
:1015700004C08FEF9FEF4F9B0BC080918400909130
:101580008500B901681B790B1616170614F4F1CF04
:10159000AC0141505040CA0101961816190614F3C7
:1015A0004F5F5F4F19F420E030E826C0809184003F
:1015B00090918500AC0140565F4F20E030E0BC01C7
:1015C00063597B4F8091840090918500DA01A81BBC
:1015D000B90B1A161B06B4F389B13695279590E01E
:1015E00080789070282B392B4617570729F04557DC
:1015F0005F4FE8CF20E030E4EFBFC9010895EF92DC
:10160000FF920F931F93CF93DF93E82E192F062F8E
:10161000F62E84E20E94830A802F0E94830A2E2DD8
:10162000312FC901EC0104C08991F80E0E94830A90
:101630009E012E192017C4F38F2D81950E94830AD5
:10164000CDB7DEB7E6E00C9457188F929F92AF9219
:10165000BF92CF92DF92FF920F931F93CF93DF93AE
:101660004C015A01C0E0D0E0C62EDD24C7FCD09466
:1016700002C0812F182FC5010E94AD0A9C01807005
:10168000907C892B69F5822FC130D10559F0C23089
:10169000D105A1F0209779F7243259F7812FC1E0C5
:1016A000D0E0E8CF90E0C816D90614F4812F15C019
:1016B000822FF22E00E0C2E0D0E0DCCFF20E812FCC
:1016C0008150112331F0F401E00FF11D20830F5FF1
:1016D000D1CFFF2011F481E004C0C0E0D0E0CACF38
:1016E00080E0DF91CF911F910F91FF90DF90CF901D
:1016F000BF90AF909F908F9008951F93CF93DF93EB
:10170000EC01142F45E450E00E946C188881811789
:1017100011F08FEF12C090E020E030E0FE01E20F08
:10172000F31F8081980F2F5F3F4F25343105B1F7AC
:10173000992311F480E001C08EEFDF91CF911F91CA
:101740000895DC0190E020E030E0FD01E20FF31F9E
:101750008081980F2F5F3F4F24343105B1F7AC5B88
:10176000BF4F91959C93A454B040CD0145E450E007
:101770000E947C180895A1E1B0E0E1ECFBE00C943C
:101780002F181C0181E0898382E192E09B838A8388
:1017900002969D838C830D969F838E8302969987F4
:1017A000888702969B878A8702969D878C870296F8
:1017B0009F878E87CE010196998B888BD0901202DD
:1017C000DD0CCC246624EE24FF248701F0E88F2E64
:1017D000FAE19F2EF6E0AF2EB12CE2E07E2E2C0136
:1017E0000E94AA009B01AC01DC01CB018E199F096C
:1017F000A00BB10B88169906AA06BB060CF051C0C7
:10180000171424F5872D992787FD9095FC01E17029
:10181000F07080FD03C088E097E002C08CED95E099
:101820009093E0018093DF018CED95E09093DE01D1
:101830008093DD01EE0FFF1FEE0FFF1FEF56FE4FEF
:1018400080809180A280B3807A9429C0DD2039F114
:101850001D1424F46CE271E0A1E003C064ED7EEF9E
:10186000AFEF8D2D992787FD9095FC01E170F07009
:1018700080FF03C08CED95E003C0CB0184529A4FEA
:101880009093DE018093DD01EE0FFF1FEE0FFF1F2F
:10189000EF56FE4F80809180A280B380DA1A7901E2
:1018A0008A0180919F02882329F010929F020E9452
:1018B000BD0602C0662041F08091A102882309F094
:1018C0008CC00E94BF096624772009F089CFC1012E
:1018D0000E943B0A882309F483CFF1018481843577
:1018E00061F0853520F4823509F063C013C0863578
:1018F00059F0883509F05DC02AC0F1E0FC1514F0FC
:10190000CC2470C0CA946EC085E08C150CF468C0FD
:10191000C39468C0AC2DBB27A7FDB095FD01EE0FA9
:10192000FF1FE40DF51D0180F281E02D8081282F3D
:10193000332727FD30952F5F3F4FA756BE4F8C9121
:10194000992787FD909582179307F4F41CC0AC2D5E
:10195000BB27A7FDB095FD01EE0FFF1FE40DF51DA0
:101960000180F281E02D8081282F332727FD3095DB
:1019700021503040AF55BE4F8C91992787FD9095EF
:10198000281739070CF49C01208320E08C2D99271F
:1019900087FD9095FC01EE0FFF1FE40DF51D018002
:1019A000F281E02DD080DD0C222319F00196782EF3
:1019B000770C8981823009F013CF81E192E060E0F9
:1019C00070E00E94A10B81E192E060E071E00E9472
:1019D000A10B6196E2E10C944B186624639474CFDA
:1019E00087E0C82E21E0D2CFA1E9B0E0EAEFFCE029
:1019F0000C942F180E94AA001B012C01DE011196E5
:101A0000E3E7F1E086E001900D928150E1F78E016D
:101A10000D5E1F4FC8010E94150A4CE1E42EF12C07
:101A2000EC0EFD1EC70164E00E94300539E4C32EB0
:101A3000D12CCC0EDD1EC60163E00E943005209241
:101A4000D3023092D4024092D5025092D602C657A9
:101A5000DF4F288239824A825B82CA58D040CE57F3
:101A6000DF4F288239824A825B82C258D0404201CD
:101A70003101C258DF4F288239824A825B82CE57B9
:101A8000D040EB962CAE3DAE4EAE5FAEEB97CA5754
:101A9000DF4F288239824A825B82C658D040EE9658
:101AA0001FAEEE97ED961FAEED9721E0EC962FAFAF
:101AB000EC97C257DF4FE882CE58D040C157DF4F76
:101AC000F882CF58D040C057DF4F0883C059D0406C
:101AD000CF56DF4F1883C159D0400E94AA005B0146
:101AE0006C010E941F0180919F028823A1F4D601FE
:101AF000C501C657DF4F488159816A817B81CA5829
:101B0000D040841B950BA60BB70B81539547A04083
:101B1000B0400CF442C010929F020E94BD068C8D12
:101B2000882369F0C657DF4FA882B982CA82DB8258
:101B3000CA58D04061E0EE966FAFEE972EC0C25704
:101B4000DF4F8881CE58D040C157DF4F9881CF58A2
:101B5000D0400E9405062A968FAD2A97882311F45B
:101B600092E001C090E020E08C8D882309F421E010
:101B7000920F9093720288EC90E090937802809399
:101B80007702C657DF4FA882B982CA82DB82CA5861
:101B9000D04091E0EE969FAFEE978091A10288230E
:101BA00079F5EE96AFADEE97AA2351F1A601950116
:101BB000CA57DF4F688179818A819B81C658D0409E
:101BC000261B370B480B590B80916A0290916B02D0
:101BD000A0916C02B0916D0282179307A407B5071C
:101BE0007CF40E9449090E94BF09CA57DF4FA882AE
:101BF000B982CA82DB82C658D040EE961FAEEE97FD
:101C0000D601C501CE57DF4F288139814A815B81DA
:101C1000C258D040821B930BA40BB50B8151974245
:101C2000A040B04054F10E94AF042A968FAD2A978D
:101C30008823D9F4CE01875B9F4F0E946D062A96B8
:101C40008FAD2A97882311F492E001C090E020E044
:101C50008C8D882309F421E0920F9093720248EC56
:101C600050E05093780240937702CE57DF4FA8821E
:101C7000B982CA82DB82C258D040EC965FADEC9745
:101C8000552309F456C0C057DF4F8881C059D04052
:101C9000CF56DF4F9881C159D0400E943B0A88231C
:101CA00009F447C0ED966FADED97E62FFF27E7FDEE
:101CB000F095E659FE4F9F898081981721F0ED96A7
:101CC0001FAEED9707C0ED967FADED977F5FED9668
:101CD0007FAFED97ED968FADED97E82FFF27E7FDEE
:101CE000F095E659FE4F80818F3F81F4CE014396F7
:101CF0000E94BB0B2EE088E190E00FB6F894A89507
:101D0000809360000FBE20936000FFCFD601C50115
:101D100082199309A409B509815C914EA44EB04083
:101D200024F0EC961FAEEC9704C0F1E0EC96FFAF08
:101D3000EC978C8D882329F02A968FAD2A978823DB
:101D4000C9F58091B6019091B7012091B40130910D
:101D5000B501820F931F2091190130911A01821B46
:101D6000930B2091130130911401821B930B9595D5
:101D700087959093C5018093C4018091B80190919B
:101D8000B9012091150130911601821B930B90939C
:101D9000C7018093C6018091BA019091BB01209147
:101DA000170130911801821B930B9093C901809306
:101DB000C80193CED601C50186199709A809B909AA
:101DC00081519742A040B0400CF434C38091680226
:101DD000909169028130910559F48091BC019091F4
:101DE000BD01865F95400CF0A3C080E090E00DC07F
:101DF000892B09F09DC08091BC019091BD01875253
:101E000096400CF495C081E090E090936902809335
:101E10006802892B11F084E001C080E08093720297
:101E200068EC70E070937802609377021092B402CD
:101E30001092B5021092B6021092B7021092C00230
:101E40001092C1021092C2021092C3021092B80204
:101E50001092B9021092BA021092BB021092C40200
:101E60001092C5021092C6021092C7021092BC02D4
:101E70001092BD021092BE021092BF021092C802D0
:101E80001092C9021092CA021092CB0280912902CC
:101E900090912A02029709F04BC0D601C501EB963A
:101EA0002CAD3DAD4EAD5FADEB97821B930BA40BFC
:101EB000B50B8152914AA740B0401CF0E7961FAE87
:101EC000E797E7964FADE7974F5FE7964FAFE797F6
:101ED000433044F18091B4019091B5019093140185
:101EE000809313018091B8019091B90190931601EC
:101EF000809315018091BA019091BB0190931801D4
:101F0000809317018091B6019091B70190931A01C7
:101F1000809319018091C2019091C30190931C019B
:101F200080931B01EB96ACAEBDAECEAEDFAEEB97B1
:101F30004091B6015091B7018091B4019091B501E3
:101F4000480F591F8091190190911A01481B590B94
:101F50008091130190911401481B590B5595479599
:101F60005093C5014093C401E091B801F091B901CB
:101F70008091150190911601E81BF90BF093C701B0
:101F8000E093C601A091BA01B091BB018091170105
:101F900090911801A81BB90BB093C901A093C80177
:101FA0008091C2019091C30120911B0130911C01CD
:101FB000821B930B9093CB018093CA0180912302E3
:101FC0008150282F332727FD3095CA0157FF04C0C1
:101FD00088279927841B950B022E02C0880F991F12
:101FE0000A94E2F761E08139960714F080E991E004
:101FF00060E971E0681B790B78876F83CF01F7FF89
:1020000004C0882799278E1B9F0B022E02C0880FC1
:10201000991F0A94E2F771E08139970714F080E97B
:1020200091E060E971E0681B790B7A876987CD01DF
:10203000B7FF04C0882799278A1B9B0BBC0102C0ED
:10204000660F771F2A95E2F781E06139780714F06F
:1020500060E971E010E9612E11E0712E661A770ACD
:102060007C866B868091BC019091BD0125E0833C0C
:1020700092074CF403EC15E0081B190B31E0013911
:10208000130794F00BC066E0883296071CF400E05A
:1020900010E00AC077E0863897071CF000E911E0ED
:1020A00003C08C01055F1540809068029090690222
:1020B00081E08816910459F08114910409F050C010
:1020C0008091270290912802029709F049C08091DF
:1020D00025029A01082E02C0220F331F0A94E2F74C
:1020E0003E872D87082E02C0EE0FFF1F0A94E2F7ED
:1020F000F88BEF87AD0102C0440F551F8A95E2F7B8
:102100005A8B498B89819A8197FD05C08827992729
:10211000821B930B01C0C9019093A3028093A2027A
:102120008B819C812F85388997FD05C08827992749
:10213000821B930B01C0C9019093A5028093A40256
:102140008D819E8197FD03C0509541955F4F5093BF
:10215000A7024093A60291E08916910471F055C040
:102160001092A3021092A2021092A5021092A40251
:102170001092A7021092A60248C06F817885882726
:1021800077FD8095982F24EF3FEB40E050E00E94D0
:10219000D317F9E09595879577956795FA95D1F7D7
:1021A0006093C0027093C1028093C2029093C302F5
:1021B00069857A85882777FD8095982F0E94D317A7
:1021C000E9E09595879577956795EA95D1F76093BE
:1021D000C4027093C5028093C6029093C702B301F4
:1021E000882777FD8095982F0E94D31739E0959521
:1021F0008795779567953A95D1F76093C802709364
:10220000C9028093CA029093CB022091F1013091D0
:10221000F2018091EB019091EC01281B390BA0E2B7
:1022200020303A0714F02FEF3FE1C901B0EE203023
:102230003B0714F480E090EE9093A9028093A802EB
:102240002091F3013091F4018091ED019091EE0124
:10225000281B390BE0E220303E0714F02FEF3FE15E
:10226000C901F0EE20303F0714F480E090EE909327
:10227000AB028093AA022091F5013091F601809182
:10228000EF019091F001281B390B40E22030340718
:1022900014F02FEF3FE1C90150EE2030350714F460
:1022A00080E090EE9093AD028093AC02892819F003
:1022B00061E472E002C06EE272E082EA92E00E94A3
:1022C000F703EE24FF243801882477FC8094982CAF
:1022D000870109501E4FE1E0F0E0EC0FFD1FEE0D0D
:1022E000FF1D60817181882777FD8095982FF70108
:1022F000EE55FD4F22A533A5442737FD4095542FB9
:102300000E94D31727E095958795779567952A952D
:10231000D1F7E7E0F0E0EC0FFD1FEE0DFF1D20818F
:102320003181442737FD4095542F0E94D3179B01DC
:10233000AC01B9E05595479537952795BA95D1F7F2
:10234000C401B3010E94D317A9E0959587957795AD
:102350006795AA95D1F7D8016D937C93E2E0F0E000
:10236000EE0EFF1EF6E0EF16F10409F0B1CF20915A
:10237000D20212160CF05CC08091D3029091D4026C
:10238000A091D502B091D602B601A501481B590B08
:102390006A0B7B0BDB01CA0181549D40A340B04016
:1023A0005CF021502093D202A092D302B092D402CA
:1023B000C092D502D092D6028091D202992787FD91
:1023C00090954091F7015091F801BC0161707070D7
:1023D00080FF03C026E930E002C02AE63FEF240F69
:1023E000351F3093F8012093F7014091F901509186
:1023F000FA016115710519F026E930E002C02AE6FC
:102400003FEF240F351F3093FA012093F9012091FB
:10241000FB013091FC01672B19F48AE69FEF02C0A3
:1024200086E990E0820F931F9093FC018093FB015B
:1024300035014601D601C501C258DF4F28813981D7
:102440004A815B81CE57D040821B930BA40BB50B06
:102450008C59914AA740B0400CF43FCB80912B029D
:10246000803839F480910001282F30E02058304026
:1024700004C0282F332727FD309580912C02803807
:1024800039F480910101482F50E04058504004C079
:10249000482F552747FD509580912D02803831F403
:1024A0008091020190E08058904003C0992787FDF9
:1024B00090953A8329835C834B839E838D83295F28
:1024C0003F4F2F30310510F41A8219828B819C8185
:1024D00007960F9710F41C821B828D819E810796B0
:1024E0000F9710F41E821D8280E00E949E02C25847
:1024F000DF4FA882B982CA82DB82CE57D040EDCAB4
:10250000A6E6B0E0E6E8F2E10C94391810928000FB
:1025100081E08093810057985F9848E552E000E0A1
:102520006E010894C11CD11C62E0E62EF12CEC0E69
:10253000FD1EC60166E60E94250B882309F441C0F2
:1025400089818230A9F0833018F4813029F406C0E3
:102550008330B1F08430E9F010E026C0C70160E8B4
:1025600070E048E050E00E946C1810E069E01DC087
:10257000C70160E870E048E050E00E947C1813C09A
:10258000C70160E070E04CE00E947D0B10E066E463
:102590000CC0C70160E070E00E94A10BC70160E0C1
:1025A00071E00E94A10B11E061E08981806889835C
:1025B000C6010E94FF0A01E044EF51E0112309F433
:1025C000B8CF802FCA59DF4FE8E00C9455181F92FE
:1025D0000F920FB60F9211240F931F932F933F93D7
:1025E0004F935F936F937F938F939F93AF93BF931B
:1025F000EF93FF938091A00287FD42C0E091A0027B
:10260000FF27E7FDF095E65AFE4F808160E00E94CB
:10261000A01736C08091A0028F5F8093A002E09146
:10262000A002FF27E7FDF095E65AFE4F808187FD67
:1026300027C00091840010918500E091A002FF273F
:10264000E7FDF095E65AFE4F808161E00E94A017F9
:10265000E091A002FF27E7FDF095EE0FFF1FE25D7E
:10266000FE4F0190F081E02D808191810297880FCB
:10267000991F800F911F90938900809388000BC051
:102680008091A002873034F21092A10280916F00F5
:102690008D7F80936F00FF91EF91BF91AF919F91DC
:1026A0008F917F916F915F914F913F912F911F91EA
:1026B0000F910F900FBE0F901F9018950F931F93BF
:1026C000CF93DF9300E010E0E801C65ADE4F888127
:1026D00087FD08C0888160E00E94A017888161E0C2
:1026E0000E9434170F5F1F4F0830110569F7DF9103
:1026F000CF911F910F910895A0E0B0E0E2E8F3E1DF
:102700000C943918182F062F862F61E00E94341779
:10271000812F60E00E943417812F61E00E94A01792
:102720006AE070E080E090E00E94EA00C0E0D0E063
:10273000812F992787FD9095FC01EA56FF4FE49180
:10274000F0E0EE0FFF1FE457FF4FC590D490865581
:102750009F4FFC018491E82EFF24CE018170182F39
:10276000802F612F0E94A017F601808120E030E0C9
:1027700090E08E219F21892B11F021E030E0812F04
:10278000992787FD90952817390711F010E005C0AB
:102790002196C830D10509F711E0802F60E00E9432
:1027A0003417812FCDB7DEB7E8E00C945518A4E9B3
:1027B000B0E0EDEDF3E10C943918259A8091EA022E
:1027C0009091EB02009711F09C0102C02EEE32E0D6
:1027D000CE010196821B930B803891054CF484E165
:1027E000809373028EE190E090937A028093790255
:1027F00084B7877F84BF88E10FB6F8948093600028
:10280000109260000FBE21E030E03093130220935D
:10281000120280E880932B0280932C0280932D0279
:10282000309315022093140287E080935402109293
:102830001602E9E7F1E027E1C22E22E0D22ED6010E
:1028400081918D9321E0E138F207D1F742E050E029
:102850005093200240931F0221E030E03093220287
:1028600020932102309324022093230283E090E0FE
:10287000909326028093250230932802209327020A
:1028800050932A024093290284EF91E090932F0203
:1028900080932E02109235021092340290933B02E4
:1028A00080933A0290933102809330021092370263
:1028B0001092360290933D0280933C029093330233
:1028C00080933202109239021092380290933F02A4
:1028D00080933E0228E0209340029093420280932E
:1028E0004102909348028093470290934E02809356
:1028F0004D02909344028093430290934A02809346
:1029000049029093500280934F0290934602809325
:10291000450290934C0280934B0290935202809315
:1029200051022093530285E064E00E947C138823C7
:1029300011F400E001C007E0CE01039660E870E00A
:1029400048E050E00E946C18002361F48B818130D4
:1029500049F48C819D81AE81BF818E549146AC4BF0
:10296000B04071F081E08B838EE491E6ACEBB0E097
:102970008C839D83AE83BF83188619861A86086070
:10298000CE010B9660E070E04CE00E947D0B87FD6D
:102990000260CE01805B9F4F60E071E04CE00E94DE
:1029A0007D0B87FD046083E08093D202E02EFF243C
:1029B000C701867090708230910531F084309105A6
:1029C00079F0892B81F119C08E01005B1F4FC8017E
:1029D00060E070E00E94A10B88858F5F88870BC044
:1029E0008E01055F1F4FC80160E071E00E94A10BDE
:1029F00089858F5F8987C80118C08CE08093110298
:102A000081E192E060E070E00E94A10B81E192E040
:102A100060E071E00E94A10B8A858F5F8A8789E060
:102A20008093D2020AC0CE010B96A1E1B2E0FC0174
:102A300085E401900D928150E1F7C7018E7090708E
:102A4000892B41F0CE01039660E870E048E050E049
:102A50000E947C18E0FE0AC082E00E94120164E637
:102A600070E080E090E00E94D516F6CF0E948012C0
:102A7000882361F02EE088E190E00FB6F894A895E5
:102A8000809360000FBE20936000FFCF1092800003
:102A900082E08093810081E080936F0085B5887F1C
:102AA00085BD80911402909115028230910519F133
:102AB0008330910524F4019709F05BC007C083308F
:102AC000910571F1049709F054C03FC080E090E097
:102AD00048EE53E020ED37E0FC01E350FE4F518318
:102AE0004083FC01E95FFD4F3183208302968A30E9
:102AF000910591F73EC080E090E04CE454E02CE674
:102B000037E0FC01E350FE4F51834083FC01E95F55
:102B1000FD4F3183208302968A30910591F729C0B9
:102B200080E090E042EE54E026ED36E0FC01E35018
:102B3000FE4F51834083FC01E95FFD4F31832083C9
:102B400002968A30910591F714C080E090E044E845
:102B500053E024E338E0FC01E350FE4F518340830F
:102B6000FC01E95FFD4F3183208302968A30910595
:102B700091F780911602992787FD909528EE33E012
:102B8000FC01E29FC001E39F900DF29F900D112484
:102B9000AA2797FDA095BA2F80936A0290936B02A3
:102BA000A0936C02B0936D02809154028770809361
:102BB0001D01A8E5B2E0F60181916F01E82FFF2722
:102BC000E7FDF095EE0FFF1FE25EFE4F80819181E1
:102BD0008D939D93FFE1CF16F2E0DF0661F720E0D1
:102BE00030E0F901EE59FE4F8081F901E65AFE4FBF
:102BF00080832F5F3F4F2830310599F70E943E03B5
:102C00000E945703809112029091130290935702F1
:102C1000809356020197E9F48091CE01882319F43C
:102C2000E2E0F0E002C0E0E0F0E020E030E080919F
:102C3000CD01882311F421E030E0E22BF32BEE0FDD
:102C4000FF1FEF57FE4F8081918190935702809331
:102C500056028091560290915702019731F482E01A
:102C600090E0909357028093560280915602809391
:102C7000710288E592E090937602809375020E943B
:102C8000EE0280916F00806280936F0080918100DE
:102C90008068809381000E945E130E941B050E9441
:102CA000BD060E944909CC56DF4FE8E00C94551848
:102CB000CF93DF930E94F9160E94D713C0E0D0E0B3
:102CC0000E94F40C2097E1F30E940000F9CF1F92BC
:102CD0000F920FB60F9211242F933F938F939F93D0
:102CE000AF93BF938091E5029091E602A091E70235
:102CF000B091E8023091E9020196A11DB11D232F88
:102D00002D5F2D3720F02D570196A11DB11D209369
:102D1000E9028093E5029093E602A093E702B09364
:102D2000E8028091E1029091E202A091E302B09169
:102D3000E4020196A11DB11D8093E1029093E2028D
:102D4000A093E302B093E402BF91AF919F918F9162
:102D50003F912F910F900FBE0F901F9018959FB726
:102D6000F8942091E1023091E2024091E302509107
:102D7000E40286B5A89B06C08F3F21F02F5F3F4F2E
:102D80004F4F5F4F9FBF542F432F322F2227280FC3
:102D9000311D411D511D82E0220F331F441F551F5D
:102DA0008A95D1F7B901CA010895EF92FF920F9366
:102DB0001F93CF93DF937B018C010E94AF16EB0131
:102DC0000EC00E94AF166C1B7D0B685E7340C8F38B
:102DD0000894E108F10801091109C851DC4FE11418
:102DE000F1040105110569F7CDB7DEB7E6E00C94F3
:102DF0005718789484B5826084BD84B5816084BDA1
:102E000085B5826085BD85B5816085BDEEE6F0E063
:102E1000808181608083E1E8F0E0108280818260BF
:102E20008083808181608083E0E8F0E08081816040
:102E30008083E1EBF0E0808184608083E0EBF0E070
:102E4000808181608083EAE7F0E080818460808314
:102E500080818260808380818160808380818068BE
:102E600080831092C1000895CF93DF93482F50E0E4
:102E7000CA0186559F4FFC0134914A565F4FFA01B3
:102E80008491882369F190E0880F991FFC01E8582C
:102E9000FF4FA591B491FC01EE57FF4FC591D4911E
:102EA000662351F42FB7F8948C91932F9095892332
:102EB0008C93888189230BC0623061F42FB7F8941A
:102EC0008C91932F909589238C938881832B888371
:102ED0002FBF06C09FB7F8948C91832B8C939FBF14
:102EE000DF91CF910895833071F0843028F48130E0
:102EF000A1F0823021F514C08630B1F08730D1F0D6
:102F00008430E9F404C0809180008F7703C0809101
:102F100080008F7D80938000089584B58F7702C0F4
:102F200084B58F7D84BD08958091B0008F778093A4
:102F3000B00008958091B0008F7D8093B000089517
:102F4000FF920F931F93F62E482F50E0CA01825430
:102F50009F4FFC012491CA0186559F4FFC0114919B
:102F60004A565F4FFA0104910023C9F0222319F059
:102F7000822F0E947317E02FF0E0EE0FFF1FEE5735
:102F8000FF4FA591B4919FB7F894FF2021F48C9145
:102F90001095812302C08C91812B8C939FBF1F9130
:102FA0000F91FF900895629FD001739FF001829F5F
:102FB000E00DF11D649FE00DF11D929FF00D839FC8
:102FC000F00D749FF00D659FF00D9927729FB00D65
:102FD000E11DF91F639FB00DE11DF91FBD01CF0178
:102FE00011240895A1E21A2EAA1BBB1BFD010DC0DE
:102FF000AA1FBB1FEE1FFF1FA217B307E407F507A9
:1030000020F0A21BB30BE40BF50B661F771F881F84
:10301000991F1A9469F760957095809590959B011A
:10302000AC01BD01CF01089597FB092E05260ED0F6
:1030300057FD04D0D7DF0AD0001C38F450954095D6
:10304000309521953F4F4F4F5F4F0895F6F790957C
:103050008095709561957F4F8F4F9F4F08952F9268
:103060003F924F925F926F927F928F929F92AF9218
:10307000BF92CF92DF92EF92FF920F931F93CF9365
:10308000DF93CDB7DEB7CA1BDB0B0FB6F894DEBFFC
:103090000FBECDBF09942A88398848885F846E8422
:1030A0007D848C849B84AA84B984C884DF80EE806C
:1030B000FD800C811B81AA81B981CE0FD11D0FB675
:1030C000F894DEBF0FBECDBFED010895EE0FFF1FD8
:1030D0000590F491E02D0994DC01CB01FC01F999F4
:1030E000FECF06C0F2BDE1BDF89A319600B40D9254
:1030F00041505040B8F70895DC01CB0103C02D9139
:103100000E94871841505040D0F70895262FF99912
:10311000FECF1FBA92BD81BD20BD0FB6F894FA9ABA
:0C312000F99A0FBE01960895F894FFCFB5
:10312C00FFFFFFDC05DC05DC05DC05E803DC05E85E
:10313C0003DC05DC05DC05DC05DC05DC050607012C
:10314C0005010F0103010B0109010D011101D3014F
:10315C00D101D701CF010000D501DB01D90100015C
:10316C00010102010000000000000000CC01CD01B3
:10317C00CE0100000000000000000605FF04FF0760
:10318C00FFFF06050A04FF07FF09788998877889ED
:10319C009887FF00000000000000010203040506F0
:1031AC0007020003000400050008000600070002E7
:1031BC0000A0860100801A06000504050304020223
:1031CC00020101010101010101DD01DF01E101E366
:0431DC0001E7010006
:00000001FF
