:100000000C946A000C9492000C9492000C94920050
:100010000C9492000C9492000C9492000C94920018
:100020000C9492000C9492000C9492000C942A145C
:100030000C9492000C9494000C9492000C949200F6
:100040000C94D3190C9492000C9495170C94E3170C
:100050000C9492000C94C6020C9492000C949200A2
:100060000C9492000C94920010072F07E8071007D9
:100070002F07E8073808A208000000002400270026
:100080002A0000000000250028002B0000000000CE
:1000900023002600290004040404040404040202CA
:1000A00002020202030303030303010204081020F7
:1000B0004080010204081020010204081020000002
:1000C0000007000201000003040600000000000019
:1000D00000004A1911241FBECFEFD4E0DEBFCDBF10
:1000E00011E0A0E0B1E0E4E0F8E302C005900D9279
:1000F000A63CB107D9F713E0A6ECB1E001C01D9210
:10010000A43CB107E1F710E0C4EDD0E004C02297B1
:10011000FE010E94D41BC23DD107C9F70E94A0195D
:100120000C94001C0C9400001F920F920FB60F92BB
:1001300011248F939F938091800290918102019668
:10014000909381028093800280918002909181023D
:10015000892B29F4809182028F5F809382029F9184
:100160008F910F900FBE0F901F9018956091840093
:10017000709185002091800230918102E09182028D
:1001800080918400909185008627972797FDEECF78
:1001900080918002909181022817390739F7809168
:1001A0008202E81719F740E050E0FFE0220F331F0A
:1001B000441F551FFA95D1F78E2F90E0A0E0B0E0D4
:1001C000BB278695B795AA2799278827282B392BEF
:1001D0004A2B5B2B76956795CB01A0E0B0E0282BEE
:1001E000392B4A2B5B2BB901CA010895AF92BF92FC
:1001F000CF92DF92EF92FF920F931F9328EE33E09E
:1002000040E050E00E943F1B5B016C010E94B60081
:100210007B018C010E94B6006E197F09800B910B47
:100220006A157B058C059D05A8F31F910F91FF9022
:10023000EF90DF90CF90BF90AF900895882321F08A
:10024000813021F42D9A08952D98089585B190E27A
:10025000892785B90895EF92FF920F931F937B0131
:100260008C018091070390910803A0910903B0913C
:100270000A038E199F09A00BB10B181619061A064E
:100280001B060CF450C080910B03882321F5E091EC
:100290000C03EF5FE370E0930C03FF27E7FDF0959D
:1002A000ED57FD4F8081992787FD9095880F991F05
:1002B00080930B0380E492E4AFE0B0E0E80EF91E17
:1002C0000A1F1B1FE0920703F09208030093090323
:1002D00010930A0328C0815080930B0381700E9401
:1002E0001E01E0910C03FF27E7FDF095EE0FFF1FC5
:1002F000E957FD4F80819181AA2797FDA095BA2FDC
:100300002AE0880F991FAA1FBB1F2A95D1F78E0DCF
:100310009F1DA01FB11F8093070390930803A09314
:100320000903B0930A031F910F91FF90EF90089576
:100330009A01AB01882311F0459A449A1092B900B2
:1003400060E074E284EF90E00E945E1B2051304038
:100350004040504056954795379527952093B800D3
:1003600008952FEF30E011C02115310561F410928E
:10037000BC0080918F029091900201969093900220
:1003800080938F020895215030408091BC0087FFF8
:10039000EBCF0895FF920F931F93F82E0CEB10E014
:1003A00084EAF80180830E94B101F092BB0084E8E6
:1003B000F80180830E94B1011F910F91FF90089571
:1003C0008093BB0084E88093BC000E94B101089533
:1003D0001F93182F882311F484E801C084EC8093C4
:1003E000BC000E94B1019091BB00112319F484E973
:1003F0008093BC00892F1F9108950F931F93162F90
:10040000042F880F0E94CA01812F0E94E001802FD3
:100410000E94E00184E98093BC001F910F91089530
:100420000F931F93182F062F880F0E94CA01802F49
:100430000E94E001110F812F81600E94CA0180E0BB
:100440000E94E8011F910F9108951F93CF93DF93AE
:10045000EB01142F880F81600E94CA0108C011505F
:1004600080E011160CF481E00E94E80189931123C9
:10047000B1F7DF91CF911F910895DF92EF92FF9234
:100480000F931F93E82EF62E8A01D22E880F0E941A
:10049000CA018F2D0E94E0018E2DB8014D2D0E94C2
:1004A00025021F910F91FF90EF90DF90089588E64D
:1004B0006EE340E80E94FD0162E370E080E090E0BE
:1004C0000E94F60088E66EE343E00E94FD01409141
:1004D0001D014150486188E666E10E94FD0188E601
:1004E00060E00E94100290E08E77883609F491E077
:1004F000892F0895A6E0B0E0E0E8F2E00C94A51B97
:100500008C017B016A0188E66DE1AE014F5F5F4FB0
:1005100026E00E943D02998180E02A8130E0822B12
:10052000932BF801918380839B8180E02C8130E0C4
:10053000822B932BF701918380839D8180E02E8114
:1005400030E0822B932BF601918380832696E8E09E
:100550000C94C11B282F17C0E22FF0E0EE0FFF1FF5
:10056000E25CFE4F80819181892B61F080917C005B
:10057000887F822B80937C0080917A0080648093B6
:100580007A0008952F5F263038F308951F920F9256
:100590000FB60F9211242F933F934F935F936F9356
:1005A0007F938F939F93AF93BF93EF93FF9380912C
:1005B0007C008770E82FF0E0EE0FFF1FE25CFE4F3B
:1005C0000190F081E02D9091790090838F5F0E94DF
:1005D000AA02FF91EF91BF91AF919F918F917F916F
:1005E0006F915F914F913F912F910F900FBE0F90A0
:1005F0001F901895EEE3F1E040E050E061E070E01C
:1006000080819181892B79F087B1DB01042E02C0B2
:10061000AA0FBB1F0A94E2F79D012095822387B998
:1006200088B1282328B94F5F5F4F32964630510575
:1006300039F780E680937C0010927B008FE88093EE
:100640007A0080E00E94AA020895CF93DF93EB0125
:10065000DA01FC0140E050E061E070E080819181CE
:10066000892B79F03881CB01042E02C0880F991FA5
:100670000A94E2F7282F2095232328832C91822B9C
:100680008C934F5F5F4F32964830510539F7DF91B9
:10069000CF91089581E992E064E270E045E250E094
:1006A0000E94250381EA92E067E270E048E250E0B0
:1006B0000E9425038AE491E06AE270E04BE250E098
:1006C0000E942503089560E070E040E050E0A1E062
:1006D000B0E0362FFA01EF56FD4F0190F081E02D8A
:1006E000309751F023B1CD01062E02C0880F991F1B
:1006F0000A94E2F728232083FA01EF55FD4F019079
:10070000F081E02D309751F026B1CD01032E02C0CB
:10071000880F991F0A94E2F728232083FA01E65BE9
:10072000FE4F0190F081E02D309749F029B1CD01C5
:1007300002C0880F991F3A95E2F7282320836F5F44
:100740007F4F4E5F5F4F4031510519F60895A6E087
:10075000B0E0EDEAF3E00C949B1B7A8369831C0103
:100760002B019E838D839B012A5F3F4F3C832B830C
:10077000ED81FE810681178180819181081B190B13
:100780003801882477FC8094982CF1018289938920
:10079000A489B589860D971DA81DB91D268D378D95
:1007A00040A151A1AA24BB246501A21AB30AC40A1C
:1007B000D50A8A159B05AC05BD054CF05C016D01A1
:1007C000281739074A075B0714F459016A01F10138
:1007D000A28AB38AC48AD58AED81FE8184859585F3
:1007E000AA2797FDA095BA2FA4019301281B390BC6
:1007F0004A0B5B0BCA01B90115870487F2012485F6
:100800003585442737FD4095542F0E943F1B7B01BF
:100810008C0132E015950795F794E7943A95D1F756
:10082000F20120813181442737FD4095542FC401C6
:10083000B3010E943F1B23E09595879577956795B7
:100840002A95D1F7E60EF71E081F191FF20126811F
:100850003781442737FD4095542FC601B5010E94CA
:100860003F1BB6E09595879577956795BA95D1F733
:10087000E60EF71E081F191FE981FA81028804C0DD
:1008800015950795F794E7940A94D2F7ED81FE81C8
:10089000F3A6E2A63296FE83ED8324E030E0220E3A
:1008A000331E42E050E0440E551E8B819C81481659
:1008B000590609F05DCF2696E2E10C94B71BA6E03D
:1008C000B0E0E5E6F4E00C94AB1BCE010196BE016E
:1008D0006D5F7F4FAE014B5F5F4F0E947A026B816D
:1008E0007C81709304026093030249815A81509382
:1008F0000602409305022D813E8130930802209329
:100900000702809133029091340283309105C9F03F
:10091000843091051CF40297D1F506C0843091050E
:10092000E9F00597A1F527C0309306022093050250
:1009300088279927841B950B9093080280930702C0
:1009400026C088279927821B930B909306028093D9
:100950000502509308024093070219C05093040205
:100960004093030288279927861B970B90930602D2
:10097000809305020CC088279927841B950B9093C0
:100980000402809303027093060260930502269688
:10099000E2E00C94C71B81E040E85AE166E070E0B9
:1009A0000E9498010E945702882349F485E08093B1
:1009B000850288EC90E090938C0280938B020895DE
:1009C0000F931F93CF93DF93FC011082772767FD6E
:1009D000709572836183DC01EC0140E050E00FEF21
:1009E0001FE760E070E80CC012961C930E931197FD
:1009F0001A967C936E9319971F86188A198A1A8AF9
:100A00009A014F5F5F4F1296249681819281281739
:100A1000390754F314A613A6DF91CF911F910F91BC
:100A20000895A0E0B0E0E7E1F5E00C94A31B7C01A1
:100A30008C01EB01F70160E070E02BC02181328175
:100A400088819981281739070CF4C9019283818321
:100A50002185328588819981821793070CF4C90119
:100A60009287818729913991442737FD4095542FEA
:100A7000D8011F96AD90BD90CD90DC905297A20EFC
:100A8000B31EC41ED51E1F96AD92BD92CD92DC92B0
:100A900052979B016F5F7F4F32960C5F1F4FD701BC
:100AA00011968D919C911297281739073CF2CDB77A
:100AB000DEB7EAE00C94BF1BA0E0B0E0E2E6F5E0B0
:100AC0000C94A51BEC017C0143E2C42ED12CC80E72
:100AD000D91E00E010E011C02BA53CA5442737FD2E
:100AE0004095542FF70167857089818992890E940A
:100AF000801BF601219331936F0198010F5F1F4F07
:100B000084E090E0E80EF91E89819A812817390760
:100B10001CF3CDB7DEB7E8E00C94C11BCF93DF9395
:100B2000FC01EB0161817281A0E040E050E00DC06A
:100B30008385948523813481821B930B8C179D07B9
:100B40000CF4AF5F4F5F5F4F32964617570784F341
:100B500020E08A2F992787FD90958617970709F43B
:100B600021E0822FDF91CF910895AAE0B0E0EBEB76
:100B7000F5E00C94A91B8C018091C6019091C701EE
:100B80009A8389838091CA019091CB019C838B8346
:100B90008091CC019091CD019E838D838091C8017D
:100BA0009091C90198878F838091D4019091D5014C
:100BB0009A878987C801BE016F5F7F4F0E94110528
:100BC000F80183A594A5019694A783A7843691057F
:100BD00081F5C80164E170E00E948E05882329F147
:100BE000C8010E945C05F80183A194A190931401AF
:100BF0008093130185A196A190931601809315010E
:100C000087A190A5909318018093170181A592A5C3
:100C100090931A018093190183A594A590931C01C8
:100C200080931B0181E0808304C0C80164E00E94BE
:100C3000E0042A96E4E00C94C51BA6E0B0E0E3E2F1
:100C4000F6E00C94A91B8C018091030290910402A0
:100C50009A83898380910502909106029C838B83FD
:100C600080910702909108029E838D83C801BE0186
:100C70006F5F7F4F0E941105F80183A594A501962F
:100C800094A783A78C52914021F5C80162E370E0DC
:100C90000E948E058823C9F0C8010E945C05F801F6
:100CA00083A194A19093FE018093FD0185A196A15B
:100CB000909300028093FF0187A190A59093020278
:100CC0008093010281E0808304C0C80163E00E9438
:100CD000E0042696E4E00C94C51B209103013091BA
:100CE000040180910301909104012817390721F430
:100CF0003093C7012093C601209105013091060170
:100D000080910501909106012817390721F430934D
:100D1000CB012093CA0120910701309108018091F5
:100D20000701909108012817390721F43093CD016C
:100D30002093CC0120910B0130910C0180910B018B
:100D400090910C012817390721F43093CF0120939B
:100D5000CE0120910D0130910E0180910D019091F5
:100D60000E012817390721F43093D1012093D001C7
:100D700020910F013091100180910F01909110018D
:100D80002817390721F43093D3012093D201209101
:100D900011013091120180911101909112012817D7
:100DA000390721F43093D5012093D4018091680252
:100DB0009091690205974CF48091C6019091C7010A
:100DC0009093C9018093C801089520910901309141
:100DD0000A018091090190910A012817390721F42D
:100DE0003093C9012093C8010895A0E0B0E0EBEF73
:100DF000F6E00C94A11BEC018090680290906902CF
:100E0000F4013297E830F10508F0D2C1EC5CFF4FF5
:100E1000688179814091C6015091C7010C94D21B21
:100E2000640F751F7093F0016093EF0188819981C1
:100E30002091C8013091C901820F931F9093F60150
:100E40008093F5018A819B812091CA013091CB0169
:100E5000820F931F9093F2018093F1019DC17A015B
:100E6000E60EF71EF092F001E092EF01A090C801AB
:100E7000B090C901088119810A0D1B1D1093F6015C
:100E80000093F501A0911301B09114016A01CA1AEF
:100E9000DB0A488159814C0D5D1DE0911501F091EF
:100EA00016018091CA019091CB018E1B9F0B2A8164
:100EB0003B81820F931FBA017595679523E0559585
:100EC00047952A95E1F7640F751F9C013595279585
:100ED00043E0959587954A95E1F7280F391FE60F6E
:100EE000F71FE20FF31FF093F201E093F1016A0F95
:100EF0007B1F621B730B7093F4016093F3012091CD
:100F0000CC013091CD0186E08816910409F059C0DA
:100F1000E4E0223E3E0774F029573540273C310576
:100F200018F082E090E002C081E090E0029709F0C2
:100F30003FC11CC0C6018A199B092091190130913B
:100F40001A01820F931F9595879584529A4F90931B
:100F5000F0018093EF018C5D95402CED35E0281B6E
:100F6000390B3093F6012093F50122C12091020143
:100F70006A817B81E091D801F091D9016E0F7F1FCA
:100F8000882777FD8095982F30E0205830404427FF
:100F900037FD4095542F0E943F1B47E0959587955C
:100FA000779567954A95D1F7E60EF71EF092F00116
:100FB000E092EF01061B170B1093F6010093F50169
:100FC000F7C07093F0016093EF018C819D81EAC0BE
:100FD000640F751F7093F0016093EF018881998110
:100FE0002091C8013091C901820F931F9093F6019F
:100FF0008093F501A0911501B09116014091CA01AD
:101000005091CB014A1B5B0B8A819B81480F591F72
:10101000E0911701F09118018091CC019091CD01E0
:101020008E1B9F0B2C813D81820F931FBC017595F8
:10103000679523E0959587952A95E1F7680F791FC5
:101040009A013595279583E0559547958A95E1F75F
:10105000240F351FCB01820F931F8A0F9B1F909384
:10106000F2018093F1012E0F3F1F261B370B65C045
:1010700020911301309114010A811B818091D801C4
:101080009091D901080F191FAC81BD818091DA01BF
:101090009091DB01A80FB91F8091090190910A017D
:1010A0008C54944097FF03C0E0E0F0E016C08091BC
:1010B000090190910A018C54944095958795855F1C
:1010C00091401CF0E4EFF1E008C0E0910901F091DB
:1010D0000A01EC54F440F595E79544525A4F421BEF
:1010E000530B460F571FB801640F751F9F012A1B32
:1010F0003B0B37FF02C020E030E0CB01821B930B9B
:101100009093F0018093EF01260F371F3093F20187
:101110002093F1019A01201B310BAF014A0F5B1F95
:1011200057FF02C040E050E0CA01820F931F909326
:10113000F6018093F501241B350B3093F4012093C5
:10114000F30136C0640F751F7093F0016093EF01D7
:10115000888199812091C8013091C901820F931F24
:101160009093F6018093F5018A819B812091CA01B9
:101170003091CB01820F931F9093F2018093F10184
:101180008091D4019091D5012A813B81821B930BE0
:101190009093FA018093F9018C819D812091CC017B
:1011A0003091CD01820F931F9093F4018093F3014E
:1011B0008091D2019091D3019093F8018093F7012F
:1011C00089E08816910441F08091D4019091D50175
:1011D0009093FA018093F9018091D0019091D1010F
:1011E0009093FC018093FB01CDB7DEB7ECE00C944B
:1011F000BD1BAAE0B0E0EFEFF8E00C94A91B8091D2
:101200002602909127020397A9F5FE0131968AE004
:10121000DF011D928A95E9F7CF010E94F506ABEA3E
:10122000B1E00FE012E049E152E06D917C9111973D
:10123000F80120813181FB018081918128173907D4
:101240000CF4C901F80191838083FA012081318176
:10125000FB0180819181821793070CF4C901FA0187
:1012600081939193AF0112960E5F1F4FF1E0A53B62
:10127000BF07D9F689E092E00E94F50680916802E6
:1012800090916902099711F074E001C075E060E087
:1012900080E090E0FC01E555FE4FA081B1814D91C9
:1012A0005C911197FC01E15FFD4F0190F081E02D11
:1012B0004E175F0754F0FC01E75EFD4F208131813E
:1012C000FA01241735070CF4F901ED93FC936F5FD5
:1012D00002966717FCF22A96E4E00C94C51B8091F5
:1012E000B302882309F050C081E08093B3028FEFEE
:1012F0008093B2022FB7F8948091EF019091F001A2
:101300009093E2018093E1018091F1019091F201CB
:101310009093E4018093E3018091F3019091F401B3
:101320009093E6018093E5018091F5019091F6019B
:101330009093E8018093E7018091F7019091F80183
:101340009093EA018093E9018091F9019091FA016B
:101350009093EC018093EB018091FB019091FC0153
:101360009093EE018093ED0180916F0082608093F5
:101370006F00B19A809184009091850004969093BB
:101380008900809388002FBF0895FC0181E081834C
:10139000808385E0828316821582108617820895E5
:1013A0009C0144E0813B940714F490E00DC084510B
:1013B00095408159914010F491E006C02850374083
:1013C00014F49FEF06C092E0662319F082E0891BB7
:1013D000982F892F0895CF93DF93EC018A818B8317
:1013E0008091C6019091C7016D810E94D00987FF4D
:1013F00088838091CA019091CB016E810E94D009AF
:1014000087FF89838F81882351F48881882329F07D
:10141000823029F481E08D83188281E08F83888572
:10142000882361F48981882319F0823039F404C05B
:1014300081E08E8382E0898381E0888738813F5F05
:10144000898123E08202C0011124380F3A839B81F5
:1014500080E0391729F081E09295907F932B9C834F
:10146000DF91CF910895282F30E03F6F220F331F77
:10147000EFB7F8948091840090918500AC01405CB6
:101480005F4FBC016D5D7A4F809184009091850023
:10149000DA01A81BB90B1A161B06B4F320FF02C011
:1014A000579801C0579A4617570729F03695279540
:1014B00045575F4FE9CFEFBF0895EFB7F8944F9BC3
:1014C00049C016C020918400309185002058314CCD
:1014D00004C08FEF9FEF4F9B0BC0809184009091D1
:1014E0008500B901681B790B1616170614F4F1CFA5
:1014F000AC0141505040CA0101961816190614F368
:101500004F5F5F4F19F420E030E826C080918400DF
:1015100090918500AC0140565F4F20E030E0BC0167
:1015200063597B4F8091840090918500DA01A81B5C
:10153000B90B1A161B06B4F389B13695279590E0BE
:1015400080789070282B392B4617570729F045577C
:101550005F4FE8CF20E030E4EFBFC9010895EF927C
:10156000FF920F931F93CF93DF93E82E192F062F2F
:10157000F62E84E20E94330A802F0E94330A2E2D19
:10158000312FC901EC0104C08991F80E0E94330A81
:101590009E012E192017C4F38F2D81950E94330AC6
:1015A000CDB7DEB7E6E00C94C31B8F929F92AF924B
:1015B000BF92CF92DF92FF920F931F93CF93DF934F
:1015C0004C015A01C0E0D0E0C62EDD24C7FCD09407
:1015D00002C0812F182FC5010E945D0A9C018070F6
:1015E000907C892B69F5822FC130D10559F0C2302A
:1015F000D105A1F0209779F7243259F7812FC1E066
:10160000D0E0E8CF90E0C816D90614F4812F15C0B9
:10161000822FF22EC2E0D0E000E0DCCFF20E812F6C
:101620008150112331F0F401E00FF11D20830F5F91
:10163000D1CFFF2011F481E004C0C0E0D0E0CACFD8
:1016400080E0DF91CF911F910F91FF90DF90CF90BD
:10165000BF90AF909F908F900895A0E0B0E0E3E33B
:10166000FBE00C94A51B00E0CCEDD5E02EC1109260
:101670000603209302033093030340930403509323
:10168000050380910603882319F41F3009F058C11F
:10169000E82FFF27E7FDF095E751FD4F10838F5F9F
:1016A0008093060389310CF410C1809101038823D3
:1016B00011F010920603E0916A02F0916B024091E2
:1016C000EB0250E0942F88272091EA0230E0822B31
:1016D000932B97709695879583519C4F9183808328
:1016E000E0916C02F0916D022091EC0230E0C901B2
:1016F00065E0880F991F6A95E1F703E056954795D5
:101700000A95E1F7842B952B9770969587958351D1
:101710009C4F91838083E0916E02F0916F02409123
:10172000EE0250E08091ED0290E0880F991F880F43
:10173000991F76E0369527957A95E1F7822B932BC2
:101740009A01322F2227330F330F822B932B97705E
:101750009695879583519C4F91838083E091700289
:10176000F09171022091EF0230E0C9019695982F17
:1017700088279795879556954795842B952B977035
:101780009695879583519C4F91838083E091720257
:10179000F09173024091F00250E0CA0174E0880FAA
:1017A000991F7A95E1F764E0369527956A95E1F7F8
:1017B000822B932B97709695879583519C4F91839D
:1017C0008083E0917402F09175026091F20270E002
:1017D0008091F10290E0880F991F440F452F441F1C
:1017E000550B5195842B952B9B01322F2227330FBC
:1017F000822B932B97709695879583519C4F91835D
:101800008083E0917602F09177022091F30230E03C
:10181000C90106E0880F991F0A95E1F7769567954B
:1018200076956795862B972B97709695879583511C
:101830009C4F91838083E0917802F09179028091AE
:10184000F40290E073E0880F991F7A95E1F765E064
:10185000369527956A95E1F7822B932B9695879578
:1018600083519C4F91838083AAE6B2E0ED91FC9175
:101870001197808191818C5D95408CF4208131811C
:1018800080819181AE01481B590BCA0195958795BE
:1018900095958795281B390B318320830EC02081B5
:1018A0003181808191818C5D954095958795959545
:1018B0008795820F931F91838083129652E0AA37F7
:1018C000B507A1F61092060301E0E0916201F091E4
:1018D0006301A081B18114962D913C911597CF01A0
:1018E000F9010995892B61F180910603893144F54D
:1018F000A0916201B0916301ED91FC911197068076
:10190000F781E02DCD010995182F0E94B6009B01AB
:10191000AC018091020390910303A0910403B09164
:10192000050369017A01C81AD90AEA0AFB0AD70134
:10193000C60189589341A040B0400CF098CE99CE92
:10194000802FCDB7DEB7E8E00C94C11B8091620117
:101950009091630140EA56E861E070E02EE20E9457
:101960001E1808951F93CF93DF93EC01142F45E4C5
:1019700050E00E94D81B8881811711F08FEF12C0B0
:1019800090E020E030E0FE01E20FF31F8081980F2D
:101990002F5F3F4F25343105B1F7992311F480E0D3
:1019A00001C08EEFDF91CF911F910895DC0190E08F
:1019B00020E030E0FD01E20FF31F8081980F2F5FE0
:1019C0003F4F24343105B1F7AC5BBF4F91959C93E9
:1019D000A454B040CD0145E450E00E94E81B0895B6
:1019E000A1E1B0E0E6EFFCE00C949B1B1C0181E060
:1019F000898384E292E09B838A8302969D838C8311
:101A00000D969F838E8302969987888702969B877F
:101A10008A8702969D878C8702969F878E87CE0144
:101A20000196998B888BD0902402DD0CCC246624FF
:101A3000EE24FF248701F0E88F2EFAE19F2EF6E0D6
:101A4000AF2EB12CE2E07E2E2C010E94B6009B014D
:101A5000AC01DC01CB018E199F09A00BB10B8816DC
:101A60009906AA06BB060CF051C0171424F5872D61
:101A7000992787FD9095FC01E170F07080FD03C00F
:101A800088E097E002C08CED95E09093F20180939E
:101A9000F1018CED95E09093F0018093EF01EE0F52
:101AA000FF1FEE0FFF1FED56FE4F80809180A2803A
:101AB000B3807A9429C0DD2039F11D1424F46CE23E
:101AC00071E0A1E003C064ED7EEFAFEF8D2D9927AB
:101AD00087FD9095FC01E170F07080FF03C08CEDF4
:101AE00095E003C0CB0184529A4F9093F00180930C
:101AF000EF01EE0FFF1FEE0FFF1FED56FE4F808030
:101B00009180A280B380DA1A79018A010E942D0B9C
:101B1000882319F091E09093B1028091B10288235B
:101B200029F01092B1020E946D0602C0662041F0B9
:101B30008091B302882309F08CC00E946F0966244B
:101B4000772009F082CFC1010E94EB09882309F4B4
:101B50007CCFF1018481843561F0853520F48235B4
:101B600009F063C013C0863559F0883509F05DC0AF
:101B70002AC0F1E0FC1514F0CC2470C0CA946EC0E9
:101B800085E08C150CF468C0C39468C0AC2DBB27ED
:101B9000A7FDB095FD01EE0FFF1FE40DF51D0180BF
:101BA000F281E02D8081282F332727FD30952F5F8C
:101BB0003F4FA556BE4F8C91992787FD9095821770
:101BC0009307F4F41CC0AC2DBB27A7FDB095FD0115
:101BD000EE0FFF1FE40DF51D0180F281E02D8081E5
:101BE000282F332727FD309521503040AD55BE4F6B
:101BF0008C91992787FD9095281739070CF49C0143
:101C0000208320E08C2D992787FD9095FC01EE0F15
:101C1000FF1FE40DF51D0180F281E02DD080DD0C69
:101C2000222319F00196782E770C8981823009F0F1
:101C30000CCF83E292E060E070E00E94D60C83E279
:101C400092E060E071E00E94D60C6196E2E10C94B3
:101C5000B71B6624639474CFB7E0CB2E21E0D2CFBC
:101C6000A1E9B0E0E6E3FEE00C949B1B0E94B60005
:101C70001B012C01DE011196E5E7F1E086E0019001
:101C80000D928150E1F78E010D5E1F4FC8010E9439
:101C9000C5094CE1E42EF12CEC0EFD1EC70164E0F9
:101CA0000E94E00439E4C32ED12CCC0EDD1EC60107
:101CB00063E00E94E0042092E5023092E602409246
:101CC000E7025092E802C657DF4F288239824A82E3
:101CD0005B82CA58D040CA57DF4F288239824A8275
:101CE0005B82C658D040CE57DF4F288239824A8265
:101CF0005B82C258D04042013101C258DF4F288276
:101D000039824A825B82CE57D040EB962CAE3DAEF4
:101D10004EAE5FAEEB97EE961FAEEE97ED961FAE12
:101D2000ED9721E0EC962FAFEC97C257DF4FE8829A
:101D3000CE58D040C157DF4FF882CF58D040C0575F
:101D4000DF4F0883C059D040CF56DF4F1883C159A9
:101D5000D0400E94B6005B016C010E942B010E94E2
:101D60002D0B882319F031E03093B1028091B1023C
:101D70008823A1F4D601C501C657DF4F4881598198
:101D80006A817B81CA58D040841B950BA60BB70B88
:101D900081539547A040B0400CF442C01092B1026C
:101DA0000E946D068C8D882369F0C657DF4FA8828C
:101DB000B982CA82DB82CA58D04061E0EE966FAF2A
:101DC000EE972EC0C257DF4F8881CE58D040C15702
:101DD000DF4F9881CF58D0400E94B5052A968FAD2D
:101DE0002A97882311F492E001C090E020E08C8DC6
:101DF000882309F421E0920F9093840288EC90E00C
:101E000090938A0280938902C657DF4FA882B982D5
:101E1000CA82DB82CA58D04091E0EE969FAFEE971F
:101E20008091B302882379F5EE96AFADEE97AA23A1
:101E300051F1A6019501CA57DF4F688179818A81E6
:101E40009B81C658D040261B370B480B590B8091FD
:101E50007C0290917D02A0917E02B0917F02821758
:101E60009307A407B5077CF40E94F9080E946F0944
:101E7000CA57DF4FA882B982CA82DB82C658D040D7
:101E8000EE961FAEEE97D601C501CE57DF4F2881E3
:101E900039814A815B81C258D040821B930BA40BCD
:101EA000B50B81519742A040B04054F10E945F04AD
:101EB0002A968FAD2A978823D9F4CE01875B9F4F4E
:101EC0000E941D062A968FAD2A97882311F492E06E
:101ED00001C090E020E08C8D882309F421E0920F6E
:101EE0009093840248EC50E050938A024093890218
:101EF000CE57DF4FA882B982CA82DB82C258D04057
:101F0000EC965FADEC97552309F456C0C057DF4FF0
:101F10008881C059D040CF56DF4F9881C159D040F9
:101F20000E94EB09882309F447C0ED966FADED9749
:101F3000E62FFF27E7FDF095E459FE4F9F8980814A
:101F4000981721F0ED961FAEED9707C0ED967FAD87
:101F5000ED977F5FED967FAFED97ED968FADED97A7
:101F6000E82FFF27E7FDF095E459FE4F80818F3F72
:101F700081F4CE0143960E94F00C2EE088E190E0BF
:101F80000FB6F894A895809360000FBE2093600070
:101F9000FFCFD601C50182199309A409B509815C57
:101FA000914EA44EB04024F0EC961FAEEC9704C0C6
:101FB000F1E0EC96FFAFEC978C8D882329F02A9600
:101FC0008FAD2A978823C9F58091C8019091C901E6
:101FD0002091C6013091C701820F931F20911901F2
:101FE00030911A01821B930B20911301309114013F
:101FF000821B930B959587959093D7018093D6017B
:102000008091CA019091CB01209115013091160168
:10201000821B930B9093D9018093D8018091CC01BE
:102020009091CD012091170130911801821B930BE3
:102030009093DB018093DA018CCED601C50186191D
:102040009709A809B90981519742A040B0400CF402
:1020500034C380917A0290917B028130910559F4CA
:102060008091CE019091CF01865F95400CF0A3C086
:1020700080E090E00DC0892B09F09DC08091CE01D9
:102080009091CF01875296400CF495C081E090E08A
:1020900090937B0280937A02892B11F084E001C037
:1020A00080E08093840268EC70E070938A02609311
:1020B00089021092C6021092C7021092C8021092B2
:1020C000C9021092D2021092D3021092D40210923E
:1020D000D5021092CA021092CB021092CC0210923A
:1020E000CD021092D6021092D7021092D80210920E
:1020F000D9021092CE021092CF021092D00210920A
:10210000D1021092DA021092DB021092DC021092DD
:10211000DD0280913B0290913C02029709F04BC096
:10212000D601C501EB962CAD3DAD4EAD5FADEB9745
:10213000821B930BA40BB50B8152914AA740B04070
:102140001CF0E7961FAEE797E7964FADE7974F5F16
:10215000E7964FAFE797433044F18091C6019091E5
:10216000C70190931401809313018091CA0190914B
:10217000CB0190931601809315018091CC01909131
:10218000CD0190931801809317018091C80190911F
:10219000C90190931A01809319018091D401909103
:1021A000D50190931C0180931B01EB96ACAEBDAEA4
:1021B000CEAEDFAEEB974091C8015091C90180913E
:1021C000C6019091C701480F591F80911901909144
:1021D0001A01481B590B8091130190911401481B5F
:1021E000590B559547955093D7014093D601E091EF
:1021F000CA01F091CB018091150190911601E81B65
:10220000F90BF093D901E093D801A091CC01B091E2
:10221000CD018091170190911801A81BB90BB093C3
:10222000DB01A093DA018091D4019091D501209136
:102230001B0130911C01821B930B9093DD01809355
:10224000DC01809135028150282F332727FD3095FE
:10225000CA0157FF04C088279927841B950B022EBB
:1022600002C0880F991F0A94E2F761E0813996074E
:1022700014F080E991E060E971E0681B790B7887E0
:102280006F83CF01F7FF04C0882799278E1B9F0B10
:10229000022E02C0880F991F0A94E2F771E081397B
:1022A000970714F080E991E060E971E0681B790B11
:1022B0007A876987CD01B7FF04C0882799278A1BD1
:1022C0009B0BBC0102C0660F771F2A95E2F781E0E5
:1022D0006139780714F060E971E010E9612E11E0CE
:1022E000712E661A770A7C866B868091CE0190915A
:1022F000CF0125E0833C92074CF403EC15E0081B6A
:10230000190B31E00139130794F00BC066E08832F5
:1023100096071CF400E010E00AC077E086389707C3
:102320001CF000E911E003C08C01055F15408090AE
:102330007A0290907B0281E08816910459F0811412
:10234000910409F050C08091390290913A020297AD
:1023500009F049C0809137029A01082E02C0220F6D
:10236000331F0A94E2F73E872D87082E02C0EE0F36
:10237000FF1F0A94E2F7F88BEF87AD0102C0440F0C
:10238000551F8A95E2F75A8B498B89819A8197FD6F
:1023900005C088279927821B930B01C0C901909320
:1023A000B5028093B4028B819C812F85388997FD7B
:1023B00005C088279927821B930B01C0C901909300
:1023C000B7028093B6028D819E8197FD03C0509520
:1023D00041955F4F5093B9024093B80291E089163E
:1023E000910471F055C01092B5021092B40210928F
:1023F000B7021092B6021092B9021092B80248C009
:102400006F817885882777FD8095982F24EF3FEBA3
:1024100040E050E00E943F1BF9E095958795779545
:102420006795FA95D1F76093D2027093D3028093A7
:10243000D4029093D50269857A85882777FD8095A7
:10244000982F0E943F1BE9E09595879577956795B2
:10245000EA95D1F76093D6027093D7028093D802A1
:102460009093D902B301882777FD8095982F0E9419
:102470003F1B39E095958795779567953A95D1F704
:102480006093DA027093DB028093DC029093DD02AA
:1024900020910302309104028091FD019091FE0190
:1024A000281B390BA0E220303A0714F02FEF3FE150
:1024B000C901B0EE20303B0714F480E090EE909319
:1024C000BB028093BA0220910502309106028091EE
:1024D000FF0190910002281B390BE0E220303E07FB
:1024E00014F02FEF3FE1C901F0EE20303F0714F464
:1024F00080E090EE9093BD028093BC022091070291
:10250000309108028091010290910202281B390B40
:1025100040E22030340714F02FEF3FE1C90150EEC4
:102520002030350714F480E090EE9093BF02809342
:10253000BE02892819F063E572E002C060E472E02F
:1025400084EB92E00E94A703EE24FF243801882444
:1025500077FC8094982C8701075F1D4FE1E0F0E045
:10256000EC0FFD1FEE0DFF1D60817181882777FD47
:102570008095982FF701EC54FD4F22A533A54427F1
:1025800037FD4095542F0E943F1B27E09595879576
:10259000779567952A95D1F7E7E0F0E0EC0FFD1FFE
:1025A000EE0DFF1D20813181442737FD4095542FCA
:1025B0000E943F1B9B01AC01B9E0559547953795AB
:1025C0002795BA95D1F7C401B3010E943F1BA9E03A
:1025D0009595879577956795AA95D1F7D8016D93CD
:1025E0007C93E2E0F0E0EE0EFF1EF6E0EF16F10461
:1025F00009F0B1CF2091E40212160CF05CC080917A
:10260000E5029091E602A091E702B091E802B601DE
:10261000A501481B590B6A0B7B0BDB01CA018154D6
:102620009D40A340B0405CF021502093E402A09272
:10263000E502B092E602C092E702D092E8028091F1
:10264000E402992787FD90954091090250910A0272
:10265000BC016170707080FF03C026E930E002C0E9
:102660002AE63FEF240F351F30930A022093090218
:1026700040910B0250910C026115710519F026E989
:1026800030E002C02AE63FEF240F351F30930C02E2
:1026900020930B0220910D0230910E02672B19F44A
:1026A0008AE69FEF02C086E990E0820F931F909325
:1026B0000E0280930D0235014601D601C501C258B4
:1026C000DF4F288139814A815B81CE57D040821B00
:1026D000930BA40BB50B8C59914AA740B0400CF456
:1026E00038CB80913D02803839F480910001282F49
:1026F00030E02058304004C0282F332727FD309584
:1027000080913E02803839F480910101482F50E0D9
:102710004058504004C0482F552747FD50958091A0
:102720003F02803831F48091020190E0805890405F
:1027300003C0992787FD90953A8329835C834B8357
:102740009E838D83295F3F4F2F30310510F41A820D
:1027500019828B819C8107960F9710F41C821B8233
:102760008D819E8107960F9710F41E821D8280E056
:102770000E94AA02C258DF4FA882B982CA82DB82B5
:10278000CE57D040E6CAA6E6B0E0E9ECF3E10C94FF
:10279000A51B1092800081E08093810057985F987C
:1027A00048E552E000E06E010894C11CD11C62E0D3
:1027B000E62EF12CEC0EFD1EC60166E60E94D50A3F
:1027C000882309F441C089818230A9F0833018F44C
:1027D000813029F406C08330B1F08430E9F010E094
:1027E00026C0C70160E870E048E050E00E94D81BB6
:1027F00010E069E01DC0C70160E870E048E050E00B
:102800000E94E81B13C0C70160E070E04CE00E942A
:10281000B20C10E066E40CC0C70160E070E00E94FA
:10282000D60CC70160E071E00E94D60C11E061E0B7
:10283000898180688983C6010E94AF0A01E044EF64
:1028400051E0112309F4B8CF802FCA59DF4FE8E0D7
:102850000C94C11B1F920F920FB60F9211240F936D
:102860001F932F933F934F935F936F937F938F9318
:102870009F93AF93BF93EF93FF938091B20287FD35
:1028800042C0E091B202FF27E7FDF095E65AFE4F05
:10289000808160E00E940C1B36C08091B2028F5F85
:1028A0008093B202E091B202FF27E7FDF095E65A6D
:1028B000FE4F808187FD27C0009184001091850024
:1028C000E091B202FF27E7FDF095E65AFE4F8081C6
:1028D00061E00E940C1BE091B202FF27E7FDF0953A
:1028E000EE0FFF1FE25DFE4F0190F081E02D808131
:1028F00091810297880F991F800F911F90938900F3
:10290000809388000BC08091B202873034F210921D
:10291000B30280916F008D7F80936F00FF91EF91E4
:10292000BF91AF919F918F917F916F915F914F91E7
:102930003F912F911F910F910F900FBE0F901F90FD
:1029400018950F931F93CF93DF9300E010E0E801F9
:10295000C65ADE4F888187FD08C0888160E00E94EA
:102960000C1B888161E00E94A01A0F5F1F4F083086
:10297000110569F7DF91CF911F910F910895A0E0A4
:10298000B0E0E5ECF4E10C94A51B182F062F862F80
:1029900061E00E94A01A812F60E00E94A01A812F9E
:1029A00061E00E940C1B6AE070E080E090E00E9411
:1029B000F600C0E0D0E0812F992787FD9095FC01BB
:1029C000EA56FF4FE491F0E0EE0FFF1FE457FF4F90
:1029D000C590D49086559F4FFC018491E82EFF242A
:1029E000CE018170182F802F612F0E940C1BF601E1
:1029F000808120E030E090E08E219F21892B11F032
:102A000021E030E0812F992787FD9095281739071D
:102A100011F010E005C02196C830D10509F711E08A
:102A2000802F60E00E94A01A812FCDB7DEB7E8E0CA
:102A30000C94C11BA4E9B0E0E0E2F5E10C94A51B05
:102A4000259A8091C0039091C103009711F09C01D9
:102A500002C024EC33E0CE010196821B930B803838
:102A600091054CF484E1809385028EE190E090938F
:102A70008C0280938B0284B7877F84BF88E10FB676
:102A8000F89480936000109260000FBE21E030E067
:102A9000309325022093240280E880933D028093A6
:102AA0003E0280933F02309327022093260287E064
:102AB0008093660284E180932802EBE7F1E029E24B
:102AC000C22E22E0D22ED60181918D9321E0E338EF
:102AD000F207D1F742E050E05093320240933102C6
:102AE00021E030E0309334022093330230933602F9
:102AF0002093350283E090E0909338028093370270
:102B000030933A022093390250933C0240933B02A7
:102B100084EF91E09093410280934002109247022B
:102B20001092460290934D0280934C029093430280
:102B300080934202109249021092480290934F02F1
:102B400080934E02909345028093440210924B0270
:102B500010924A02909351028093500228E02093F1
:102B60005202909354028093530290935A0280939E
:102B700059029093600280935F0290935602809373
:102B8000550290935C0280935B0290936202809363
:102B90006102909358028093570290935E02809353
:102BA0005D0290936402809363022093650285E046
:102BB00064E00E94BF14882311F400E001C007E024
:102BC000CE01039660E870E048E050E00E94D81B18
:102BD000002361F48B81813049F48C819D81AE8129
:102BE000BF818E549146AC4BB04071F081E08B8335
:102BF0008EE491E6ACEBB0E08C839D83AE83BF8323
:102C0000188619861A860860CE010B9660E070E07F
:102C10004CE00E94B20C87FD0260CE01805B9F4FAA
:102C200060E071E04CE00E94B20C87FD046083E03C
:102C30008093E402E02EFF24C701867090708230FA
:102C4000910531F08430910579F0892B81F119C01B
:102C50008E01005B1F4FC80160E070E00E94D60C3F
:102C600088858F5F88870BC08E01055F1F4FC80165
:102C700060E071E00E94D60C89858F5F8987C8016A
:102C800018C08CE08093230283E292E060E070E061
:102C90000E94D60C83E292E060E071E00E94D60CC4
:102CA0008A858F5F8A8789E08093E4020AC0CE011B
:102CB0000B96A3E2B2E0FC0185E401900D928150F5
:102CC000E1F7C7018E709070892B41F0CE01039619
:102CD00060E870E048E050E00E94E81BE0FE0AC0B7
:102CE00082E00E941E0164E670E080E090E00E94B5
:102CF000411AF6CF0E94C313882361F02EE088E1C9
:102D000090E00FB6F894A895809360000FBE2093D2
:102D10006000FFCF1092800082E08093810081E00C
:102D200080936F0085B5887F85BD0E94A60C809139
:102D30002602909127028230910519F18330910586
:102D400024F4019709F05BC007C08330910571F14D
:102D5000049709F054C03FC080E090E048EE53E093
:102D600020ED37E0FC01E15FFD4F51834083FC0122
:102D7000E75EFD4F3183208302968A30910591F7FB
:102D80003EC080E090E04CE454E02CE637E0FC01EB
:102D9000E15FFD4F51834083FC01E75EFD4F3183CE
:102DA000208302968A30910591F729C080E090E057
:102DB00042EE54E026ED36E0FC01E15FFD4F518329
:102DC0004083FC01E75EFD4F3183208302968A3009
:102DD000910591F714C080E090E044E853E024E3CB
:102DE00038E0FC01E15FFD4F51834083FC01E75E69
:102DF000FD4F3183208302968A30910591F78091AF
:102E00002802992787FD909528EE33E0FC01E29F88
:102E1000C001E39F900DF29F900D1124AA2797FD0A
:102E2000A095BA2F80937C0290937D02A0937E029E
:102E3000B0937F0280916602877080931D01AAE69D
:102E4000B2E0F60181916F01E82FFF27E7FDF095D1
:102E5000EE0FFF1FE25EFE4F808191818D939D9367
:102E6000F1E3CF16F2E0DF0661F720E030E0F90190
:102E7000EC59FE4F8081F901E65AFE4F80832F5FA7
:102E80003F4F2830310599F70E944A030E9463039F
:102E900080912402909125029093690280936802A8
:102EA0000197E9F48091E001882319F4E2E0F0E071
:102EB00002C0E0E0F0E020E030E08091DF01882314
:102EC00011F421E030E0E22BF32BEE0FFF1FED5762
:102ED000FE4F808191819093690280936802809176
:102EE000680290916902019731F482E090E090933A
:102EF000690280936802809168028093830288E56A
:102F000092E090938802809387020E94FA020E94C6
:102F1000A1140E94CB040E946D060E94F908CC56B1
:102F2000DF4FE8E00C94C11B08951F920F920FB67B
:102F30000F9211242F933F934F938F939F93EF936F
:102F4000FF938091C00082FD1DC04091C60020917A
:102F50004D0330914E032F5F3F4F2F7330708091A0
:102F60004F03909150032817390771F0E0914D03FA
:102F7000F0914E03E35FFC4F408330934E03209368
:102F80004D0302C08091C600FF91EF919F918F91F8
:102F90004F913F912F910F900FBE0F901F9018955A
:102FA000E091A103F091A203E05CFF4F8191919128
:102FB00020813181821B930B8F739070892B11F0CC
:102FC0000E94941708951F920F920FB60F9211242A
:102FD0002F933F938F939F93EF93FF9320919103B0
:102FE00030919203809193039091940328173907AD
:102FF00031F48091C1008F7D8093C10014C0E091B5
:103000009303F0919403EF5AFC4F20818091930336
:103010009091940301968F73907090939403809392
:1030200093032093C600FF91EF919F918F913F9161
:103030002F910F900FBE0F901F901895A0E0B0E059
:10304000E4E2F8E10C94A31BEC017A018B01C22E9F
:10305000DD24403081EE580780E0680780E0780783
:1030600011F0DD24D39471E0A72EB12CEC89FD89F9
:10307000DD2069F0C50108A002C0880F991F0A94DD
:10308000E2F7808360E079E08DE390E005C0108294
:1030900060E874E88EE190E0A80197010E945E1B51
:1030A00021503040404050405695479537952795E0
:1030B00080E12030380720F0DD2011F0DD24D6CF6C
:1030C000E889F9893083EA89FB892083E88DF98DC5
:1030D000C082EE89FF89408121E030E0C9010C8C7B
:1030E00002C0880F991F0A94E2F7482B4083EE89AB
:1030F000FF894081C9010D8C02C0880F991F0A9475
:10310000E2F7482B4083EE89FF894081C9010E8C8C
:1031100002C0880F991F0A94E2F7482B4083EE897A
:10312000FF8980810F8C02C0220F331F0A94E2F7BF
:10313000209528232083CDB7DEB7EAE00C94BF1B8F
:10314000DC011C96ED91FC911D97E05CFF4F2191F5
:10315000319180819181281B390B2F733070C90107
:103160000895DC011C96ED91FC911D97E05CFF4FEA
:1031700020813181E054F040DF01AE5BBF4F8D9183
:103180009C9111972817390719F42FEF3FEF07C0CB
:103190008D919C91E80FF91F8081282F30E0C901A3
:1031A0000895DC011C96ED91FC911D97E05CFF4FAA
:1031B00020813181E054F040DF01AE5BBF4F8D9143
:1031C0009C9111972817390719F42FEF3FEF10C082
:1031D0008D919C911197E80FF91F20818D919C9101
:1031E000119701968F73907011969C938E9330E097
:1031F000C9010895DC0191968C919197882339F04B
:103200005496ED91FC915597808186FFF9CF919668
:103210001C920895CF93DF93EC01EE85FF85E05C6F
:10322000FF4F20813181E054F0402F5F3F4F2F73DB
:103230003070DF01AE5BBF4F8D919C9111972817C5
:103240003907D1F3E05CFF4F80819181E054F04079
:10325000E80FF91F6083EE85FF85E05CFF4F318347
:103260002083EE89FF89208181E090E00F8C02C0ED
:10327000880F991F0A94E2F7282B208381E089A305
:10328000EC89FD8980818064808381E090E0DF911A
:10329000CF910895109298031092970388EE93E0CF
:1032A000A0E0B0E08093990390939A03A0939B03CE
:1032B000B0939C0389EB91E09093960380939503E0
:1032C0008DE093E09093A2038093A10381E593E0C6
:1032D0009093A4038093A30385EC90E09093A603BE
:1032E0008093A50384EC90E09093A8038093A703B8
:1032F00080EC90E09093AA038093A90381EC90E086
:103300009093AC038093AB0382EC90E09093AE0378
:103310008093AD0386EC90E09093B0038093AF036D
:1033200084E08093B10383E08093B20387E08093CD
:10333000B30385E08093B40381E08093B5030895DF
:10334000CF93DF930E94651A0E941A15C0EDD7E152
:103350000E94300E2097E1F30E94D017F9CFA0E031
:10336000B0E0E5EBF9E10C94A51B7C016B018A014F
:10337000C0E0D0E00FC0D6016D916D01D701ED9195
:10338000FC910190F081E02DC7010995C80FD91F6C
:10339000015010400115110571F7CE01CDB7DEB710
:1033A000E8E00C94C11B1F920F920FB60F921124EC
:1033B0002F933F938F939F93AF93BF938091BB03C2
:1033C0009091BC03A091BD03B091BE033091BF03A7
:1033D0000196A11DB11D232F2D5F2D3720F02D57F4
:1033E0000196A11DB11D2093BF038093BB03909351
:1033F000BC03A093BD03B093BE038091B70390912B
:10340000B803A091B903B091BA030196A11DB11DF3
:103410008093B7039093B803A093B903B093BA0312
:10342000BF91AF919F918F913F912F910F900FBEC0
:103430000F901F9018959FB7F8942091B703309183
:10344000B8034091B9035091BA0386B5A89B06C052
:103450008F3F21F02F5F3F4F4F4F5F4F9FBF542F44
:10346000432F322F2227280F311D411D511D82E08D
:10347000220F331F441F551F8A95D1F7B901CA0186
:103480000895EF92FF920F931F93CF93DF937B01E9
:103490008C010E941B1AEB010EC00E941B1A6C1BB0
:1034A0007D0B685E7340C8F30894E108F1080109D8
:1034B0001109C851DC4FE114F1040105110569F748
:1034C000CDB7DEB7E6E00C94C31B789484B5826078
:1034D00084BD84B5816084BD85B5826085BD85B5B8
:1034E000816085BDEEE6F0E0808181608083E1E867
:1034F000F0E010828081826080838081816080839F
:10350000E0E8F0E0808181608083E1EBF0E08081A1
:1035100084608083E0EBF0E0808181608083EAE773
:10352000F0E08081846080838081826080838081FC
:10353000816080838081806880831092C1000895BB
:10354000CF93DF93482F50E0CA0186559F4FFC016F
:1035500034914A565F4FFA018491882369F190E0D3
:10356000880F991FFC01E858FF4FA591B491FC0109
:10357000EE57FF4FC591D491662351F42FB7F894BD
:103580008C91932F909589238C93888189230BC0EC
:10359000623061F42FB7F8948C91932F9095892322
:1035A0008C938881832B88832FBF06C09FB7F894A4
:1035B0008C91832B8C939FBFDF91CF9108958330A3
:1035C00071F0843028F48130A1F0823021F514C0EC
:1035D0008630B1F08730D1F08430E9F404C08091B6
:1035E00080008F7703C0809180008F7D8093800062
:1035F000089584B58F7702C084B58F7D84BD08950A
:103600008091B0008F778093B00008958091B000D2
:103610008F7D8093B0000895FF920F931F93F62E35
:10362000482F50E0CA0182549F4FFC012491CA01E7
:1036300086559F4FFC0114914A565F4FFA01049141
:103640000023C9F0222319F0822F0E94DF1AE02FF5
:10365000F0E0EE0FFF1FEE57FF4FA591B4919FB71B
:10366000F894FF2021F48C911095812302C08C9155
:10367000812B8C939FBF1F910F91FF900895629FA4
:10368000D001739FF001829FE00DF11D649FE00D5A
:10369000F11D929FF00D839FF00D749FF00D659FBB
:1036A000F00D9927729FB00DE11DF91F639FB00DBA
:1036B000E11DF91FBD01CF0111240895A1E21A2EC9
:1036C000AA1BBB1BFD010DC0AA1FBB1FEE1FFF1FC6
:1036D000A217B307E407F50720F0A21BB30BE40B16
:1036E000F50B661F771F881F991F1A9469F760955D
:1036F0007095809590959B01AC01BD01CF01089517
:1037000097FB092E05260ED057FD04D0D7DF0AD02F
:10371000001C38F450954095309521953F4F4F4F00
:103720005F4F0895F6F790958095709561957F4F5E
:103730008F4F9F4F08952F923F924F925F926F92BB
:103740007F928F929F92AF92BF92CF92DF92EF9231
:10375000FF920F931F93CF93DF93CDB7DEB7CA1BB2
:10376000DB0B0FB6F894DEBF0FBECDBF09942A88DD
:10377000398848885F846E847D848C849B84AA8485
:10378000B984C884DF80EE80FD800C811B81AA8112
:10379000B981CE0FD11D0FB6F894DEBF0FBECDBFDD
:1037A000ED010895EE0FFF1F0590F491E02D0994AF
:1037B000DC01CB01FC01F999FECF06C0F2BDE1BDF1
:1037C000F89A319600B40D9241505040B8F70895E0
:1037D000DC01CB0103C02D910E94F31B41505040EE
:1037E000D0F70895262FF999FECF1FBA92BD81BD5B
:1037F00020BD0FB6F894FA9AF99A0FBE0196089573
:04380000F894FFCF6A
:10380400FFFFFFDC05DC05DC05DC05E803DC05E87F
:1038140003DC05DC05DC05DC05DC05DC050607014D
:1038240005010F0103010B0109010D011101E5015E
:10383400E301E901E1010000E701ED01EB01000111
:10384400010102010000000000000000DE01DF01B0
:10385400E00100000000000000000605FF04FF076F
:10386400FFFF950306050A04FF07FF097889988777
:1038740078899887FF00000000000003010200041B
:1038840005060702000300040005000800060007FF
:10389400000200A0860100801A0600050405030446
:1038A4000202020101010101010101EF01F101F331
:1038B40001F501F901000000000A19AF19A018D19F
:0638C40018B118FA18000B
:00000001FF
