:100000000C946A000C9492000C9492000C94920050
:100010000C9492000C9492000C9492000C94920018
:100020000C9492000C9492000C9492000C942D1459
:100030000C9492000C9494000C9492000C949200F6
:100040000C94B5190C9492000C9477170C94C51766
:100050000C9492000C94CA020C9492000C9492009E
:100060000C9492000C94920010072F07E8071007D9
:100070002F07E8073808A208000000002400270026
:100080002A0000000000250028002B0000000000CE
:1000900023002600290004040404040404040202CA
:1000A00002020202030303030303010204081020F7
:1000B0004080010204081020010204081020000002
:1000C0000007000201000003040600000000000019
:1000D00000002C1911241FBECFEFD8E0DEBFCDBF2A
:1000E00011E0A0E0B1E0E8ECF7E302C005900D926A
:1000F000AA39B107D9F713E0AAE9B1E001C01D920E
:10010000A13BB107E1F710E0C4EDD0E004C02297B5
:10011000FE010E94B61BC23DD107C9F70E94821999
:100120000C94E21B0C9400001F920F920FB60F92DA
:1001300011248F939F9380915102909152020196C6
:1001400090935202809351028091510290915202F9
:10015000892B29F4809153028F5F809353029F91E2
:100160008F910F900FBE0F901F9018956091840093
:10017000709185002091510230915202E09153021A
:1001800080918400909185008627972797FDEECF78
:1001900080915102909152022817390739F78091C6
:1001A0005302E81719F740E050E0FFE0220F331F39
:1001B000441F551FFA95D1F78E2F90E0A0E0B0E0D4
:1001C000BB278695B795AA2799278827282B392BEF
:1001D0004A2B5B2B76956795CB01A0E0B0E0282BEE
:1001E000392B4A2B5B2BB901CA010895AF92BF92FC
:1001F000CF92DF92EF92FF920F931F9328EE33E09E
:1002000040E050E00E94211B5B016C010E94B6009F
:100210007B018C010E94B6006E197F09800B910B47
:100220006A157B058C059D05A8F31F910F91FF9022
:10023000EF90DF90CF90BF90AF900895882321F08A
:10024000813021F42D9A08952D98089585B190E27A
:10025000892785B90895EF92FF920F931F937B0131
:100260008C018091F4029091F502A091F602B09178
:10027000F7028E199F09A00BB10B181619061A0662
:100280001B060CF450C08091F802882321F5E09100
:10029000F902EF5FE370E093F902FF27E7FDF095C5
:1002A000EC5AFD4F8081992787FD9095880F991F03
:1002B0008093F80280E492E4AFE0B0E0E80EF91E2B
:1002C0000A1F1B1FE092F402F092F5020093F6025F
:1002D0001093F70228C081508093F80281700E9429
:1002E0001E01E091F902FF27E7FDF095EE0FFF1FD9
:1002F000E85AFD4F80819181AA2797FDA095BA2FDA
:100300002AE0880F991FAA1FBB1F2A95D1F78E0DCF
:100310009F1DA01FB11F8093F4029093F502A0933C
:10032000F602B093F7021F910F91FF90EF9008959E
:100330009A01AB01882311F0459A449A1092B900B2
:1003400060E074E284EF90E00E94401B2051304056
:100350004040504056954795379527952093B800D3
:1003600008952FEF30E011C02115310561F410928E
:10037000BC008091600290916102019690936102AD
:10038000809360020895215030408091BC0087FF27
:10039000EBCF0895FF920F931F93F82E0CEB10E014
:1003A00084EAF80180830E94B101F092BB0084E8E6
:1003B000F80180830E94B1011F910F91FF90089571
:1003C0008093BB0084E88093BC000E94B101089533
:1003D0001F93182F882311F484E801C084EC8093C4
:1003E000BC000E94B1019091BB00112319F484E973
:1003F0008093BC00892F1F9108950F931F93162F90
:10040000042F880F0E94CA01812F0E94E001802FD3
:100410000E94E00184E98093BC001F910F91089530
:100420000F931F93182F062F880F0E94CA01802F49
:100430000E94E001110F812F81600E94CA0180E0BB
:100440000E94E8011F910F9108951F93CF93DF93AE
:10045000EB01142F880F81600E94CA0108C011505F
:1004600080E011160CF481E00E94E80189931123C9
:10047000B1F7DF91CF911F910895DF92EF92FF9234
:100480000F931F93E82EF62E8A01D22E880F0E941A
:10049000CA018F2D0E94E0018E2DB8014D2D0E94C2
:1004A00025021F910F91FF90EF90DF90089588E64D
:1004B0006BE640E80E94FD0162E370E080E090E0BE
:1004C0000E94F60088E66BE643E00E94FD01409141
:1004D0001D01415088E66AE10E94FD0188E66BE15A
:1004E00048E10E94FD0188E665E70E94100290E065
:1004F0008E77883609F491E0892F0895A6E0B0E060
:10050000E4E8F2E00C94871B8C017B016A0188E629
:1005100063E4AE014F5F5F4F26E00E943D02998188
:1005200080E02A8130E0822B932BF8019183808335
:100530009B8180E02C8130E0822B932BF70191830B
:1005400080839D8180E02E8130E0822B932BF60109
:10055000918380832696E8E00C94A31B282F17C074
:10056000E22FF0E0EE0FFF1FEE59FD4F80819181E9
:10057000892B61F080917C00887F822B80937C00A6
:1005800080917A00806480937A0008952F5F2630EE
:1005900038F308951F920F920FB60F9211242F93E4
:1005A0003F934F935F936F937F938F939F93AF93FB
:1005B000BF93EF93FF9380917C008770E82FF0E06A
:1005C000EE0FFF1FEE59FD4F0190F081E02D90914D
:1005D000790090838F5F0E94AE02FF91EF91BF91EF
:1005E000AF919F918F917F916F915F914F913F91CB
:1005F0002F910F900FBE0F901F901895E2E6F2E03A
:1006000040E050E061E070E080819181892B79F0D9
:1006100087B1DB01042E02C0AA0FBB1F0A94E2F7C8
:100620009D012095822387B988B1282328B94F5F7F
:100630005F4F32964630510539F780E680937C0053
:1006400010927B008FE880937A0080E00E94AE02D7
:100650000895CF93DF93EB01DA01FC0140E050E015
:1006600061E070E080819181892B79F03881CB0144
:10067000042E02C0880F991F0A94E2F7282F2095B4
:10068000232328832C91822B8C934F5F5F4F3296CC
:100690004830510539F7DF91CF9108958EE692E009
:1006A00064E270E045E250E00E9429038EE792E0A8
:1006B00067E270E048E250E00E9429038EE892E091
:1006C0006AE270E04BE250E00E942903089560E086
:1006D00070E040E050E0A1E0B0E0362FFA01E259CE
:1006E000FD4F0190F081E02D309751F023B1CD0105
:1006F000062E02C0880F991F0A94E2F72823208350
:10070000FA01E258FD4F0190F081E02D309751F051
:1007100026B1CD01032E02C0880F991F0A94E2F77B
:1007200028232083FA01E257FD4F0190F081E02D4C
:10073000309749F029B1CD0102C0880F991F3A9531
:10074000E2F7282320836F5F7F4F4E5F5F4F40317A
:10075000510519F60895A6E0B0E0E1EBF3E00C9442
:100760007D1B7A8369831C012B019E838D839B01F2
:100770002A5F3F4F3C832B83ED81FE8106811781E9
:1007800080819181081B190B3801882477FC8094A3
:10079000982CF10182899389A489B589860D971DCA
:1007A000A81DB91D268D378D40A151A1AA24BB24B7
:1007B0006501A21AB30AC40AD50A8A159B05AC05BD
:1007C000BD054CF05C016D01281739074A075B072E
:1007D00014F459016A01F101A28AB38AC48AD58A44
:1007E000ED81FE8184859585AA2797FDA095BA2F76
:1007F000A4019301281B390B4A0B5B0BCA01B901F9
:1008000015870487F20124853585442737FD4095F7
:10081000542F0E94211B7B018C0132E01595079516
:10082000F794E7943A95D1F7F2012081318144277A
:1008300037FD4095542FC401B3010E94211B23E0D2
:1008400095958795779567952A95D1F7E60EF71ECA
:10085000081F191FF20126813781442737FD409573
:10086000542FC601B5010E94211BB6E095958795CE
:1008700077956795BA95D1F7E60EF71E081F191FF1
:10088000E981FA81028804C015950795F794E794E9
:100890000A94D2F7ED81FE81F3A6E2A63296FE839A
:1008A000ED8324E030E0220E331E42E050E0440E9F
:1008B000551E8B819C814816590609F05DCF2696FE
:1008C000E2E10C94991BA6E0B0E0E9E6F4E00C94B8
:1008D0008D1BCE010196BE016D5F7F4FAE014B5F58
:1008E0005F4F0E947E02EB81FC81AA27BB27AE1BD3
:1008F000BF0BB093D501A093D40169817A814427BD
:100900005527461B570B5093D7014093D6012D8195
:100910003E813093D9012093D801809104029091B7
:10092000050283309105A9F0843091051CF40297EB
:1009300071F506C084309105C9F0059741F51FC0D7
:100940003093D7012093D6017093D9016093D801D9
:100950001EC088279927821B930B9093D701809301
:10096000D6015093D9014093D80111C05093D501BD
:100970004093D401F093D701E093D60108C070935F
:10098000D5016093D401B093D701A093D6012696E8
:10099000E2E00C94A91B81E040E85AE166E070E0D7
:1009A0000E9498010E945702882349F485E08093B1
:1009B000560288EC90E090935D0280935C0208956B
:1009C0000F931F93CF93DF93FC011082772767FD6E
:1009D000709572836183DC01EC0140E050E00FEF21
:1009E0001FE760E070E80CC012961C930E931197FD
:1009F0001A967C936E9319971F86188A198A1A8AF9
:100A00009A014F5F5F4F1296249681819281281739
:100A1000390754F314A613A6DF91CF911F910F91BC
:100A20000895A0E0B0E0E7E1F5E00C94851B7C01BF
:100A30008C01EB01F70160E070E02BC02181328175
:100A400088819981281739070CF4C9019283818321
:100A50002185328588819981821793070CF4C90119
:100A60009287818729913991442737FD4095542FEA
:100A7000D8011F96AD90BD90CD90DC905297A20EFC
:100A8000B31EC41ED51E1F96AD92BD92CD92DC92B0
:100A900052979B016F5F7F4F32960C5F1F4FD701BC
:100AA00011968D919C911297281739073CF2CDB77A
:100AB000DEB7EAE00C94A11BA0E0B0E0E2E6F5E0CE
:100AC0000C94871BEC017C0143E2C42ED12CC80E90
:100AD000D91E00E010E011C02BA53CA5442737FD2E
:100AE0004095542FF70167857089818992890E940A
:100AF000621BF601219331936F0198010F5F1F4F25
:100B000084E090E0E80EF91E89819A812817390760
:100B10001CF3CDB7DEB7E8E00C94A31BCF93DF93B3
:100B2000FC01EB0161817281A0E040E050E00DC06A
:100B30008385948523813481821B930B8C179D07B9
:100B40000CF4AF5F4F5F5F4F32964617570784F341
:100B500020E08A2F992787FD90958617970709F43B
:100B600021E0822FDF91CF910895AAE0B0E0EBEB76
:100B7000F5E00C948B1B8C0180919A0190919B0164
:100B80009A83898380919E0190919F019C838B839E
:100B90008091A0019091A1019E838D8380919C0101
:100BA00090919D0198878F838091A8019091A901D0
:100BB0009A878987C801BE016F5F7F4F0E94110528
:100BC000F80183A594A5019694A783A7843691057F
:100BD00081F5C80164E170E00E948E05882329F147
:100BE000C8010E945C05F80183A194A190931401AF
:100BF0008093130185A196A190931601809315010E
:100C000087A190A5909318018093170181A592A5C3
:100C100090931A018093190183A594A590931C01C8
:100C200080931B0181E0808304C0C80164E00E94BE
:100C3000E0042A96E4E00C94A71BA6E0B0E0E3E20F
:100C4000F6E00C948B1B8C018091D4019091D5011E
:100C50009A8389838091D6019091D7019C838B835D
:100C60008091D8019091D9019E838D83C801BE01E6
:100C70006F5F7F4F0E941105F80183A594A501962F
:100C800094A783A78C52914021F5C80162E370E0DC
:100C90000E948E058823C9F0C8010E945C05F801F6
:100CA00083A194A19093CF018093CE0185A196A1B9
:100CB0009093D1018093D00187A190A59093D30107
:100CC0008093D20181E0808304C0C80163E00E9468
:100CD000E0042696E4E00C94A71B209103013091D8
:100CE000040180910301909104012817390721F430
:100CF00030939B0120939A012091050130910601C8
:100D000080910501909106012817390721F430934D
:100D10009F0120939E01209107013091080180914D
:100D20000701909108012817390721F43093A10198
:100D30002093A00120910B0130910C0180910B01B7
:100D400090910C012817390721F43093A3012093C7
:100D5000A20120910D0130910E0180910D01909121
:100D60000E012817390721F43093A5012093A4011F
:100D700020910F013091100180910F01909110018D
:100D80002817390721F43093A7012093A601209159
:100D900011013091120180911101909112012817D7
:100DA000390721F43093A9012093A80180913902D9
:100DB00090913A0205974CF480919A0190919B0191
:100DC00090939D0180939C01089520910901309199
:100DD0000A018091090190910A012817390721F42D
:100DE00030939D0120939C010895A0E0B0E0EBEFCB
:100DF000F6E00C94831BEC018090390290903A024B
:100E0000F4013297E830F10508F0D2C1EC5CFF4FF5
:100E10006881798140919A0150919B010C94B41B97
:100E2000640F751F7093C1016093C001888199811F
:100E300020919C0130919D01820F931F9093C701D7
:100E40008093C6018A819B8120919E0130919F01F0
:100E5000820F931F9093C3018093C2019DC17A01B9
:100E6000E60EF71EF092C101E092C001A0909C0135
:100E7000B0909D01088119810A0D1B1D1093C701B7
:100E80000093C601A0911301B09114016A01CA1A1E
:100E9000DB0A488159814C0D5D1DE0911501F091EF
:100EA000160180919E0190919F018E1B9F0B2A81BC
:100EB0003B81820F931FBA017595679523E0559585
:100EC00047952A95E1F7640F751F9C013595279585
:100ED00043E0959587954A95E1F7280F391FE60F6E
:100EE000F71FE20FF31FF093C301E093C2016A0FF3
:100EF0007B1F621B730B7093C5016093C40120912B
:100F0000A0013091A10186E08816910409F059C032
:100F1000E4E0223E3E0774F029573540273C310576
:100F200018F082E090E002C081E090E0029709F0C2
:100F30003FC11CC0C6018A199B092091190130913B
:100F40001A01820F931F9595879584529A4F90931B
:100F5000C1018093C0018C5D95402CED35E0281BCC
:100F6000390B3093C7012093C60122C120910201A1
:100F70006A817B81E091AC01F091AD016E0F7F1F22
:100F8000882777FD8095982F30E0205830404427FF
:100F900037FD4095542F0E94211B47E0959587957A
:100FA000779567954A95D1F7E60EF71EF092C10145
:100FB000E092C001061B170B1093C7010093C601F6
:100FC000F7C07093C1016093C0018C819D81EAC01C
:100FD000640F751F7093C1016093C001888199816E
:100FE00020919C0130919D01820F931F9093C70126
:100FF0008093C601A0911501B091160140919E0108
:1010000050919F014A1B5B0B8A819B81480F591F9E
:10101000E0911701F09118018091A0019091A10138
:101020008E1B9F0B2C813D81820F931FBC017595F8
:10103000679523E0959587952A95E1F7680F791FC5
:101040009A013595279583E0559547958A95E1F75F
:10105000240F351FCB01820F931F8A0F9B1F909384
:10106000C3018093C2012E0F3F1F261B370B65C0A3
:1010700020911301309114010A811B818091AC01F0
:101080009091AD01080F191FAC81BD818091AE0117
:101090009091AF01A80FB91F8091090190910A01A9
:1010A0008C54944097FF03C0E0E0F0E016C08091BC
:1010B000090190910A018C54944095958795855F1C
:1010C00091401CF0E4EFF1E008C0E0910901F091DB
:1010D0000A01EC54F440F595E79544525A4F421BEF
:1010E000530B460F571FB801640F751F9F012A1B32
:1010F0003B0B37FF02C020E030E0CB01821B930B9B
:101100009093C1018093C001260F371F3093C30114
:101110002093C2019A01201B310BAF014A0F5B1FC4
:1011200057FF02C040E050E0CA01820F931F909326
:10113000C7018093C601241B350B3093C501209352
:10114000C40136C0640F751F7093C1016093C00164
:101150008881998120919C0130919D01820F931F7C
:101160009093C7018093C6018A819B8120919E0143
:1011700030919F01820F931F9093C3018093C2010E
:101180008091A8019091A9012A813B81821B930B38
:101190009093CB018093CA018C819D812091A00105
:1011A0003091A101820F931F9093C5018093C401D8
:1011B0008091A6019091A7019093C9018093C801E5
:1011C00089E08816910441F08091A8019091A901CD
:1011D0009093CB018093CA018091A4019091A501C5
:1011E0009093CD018093CC01CDB7DEB7ECE00C94A9
:1011F0009F1BAAE0B0E0EFEFF8E00C948B1B80910E
:10120000F7019091F8010397A9F5FE0131968AE064
:10121000DF011D928A95E9F7CF010E94F506AFE73D
:10122000B1E000EE11E04AEE51E06D917C91119732
:10123000F80120813181FB018081918128173907D4
:101240000CF4C901F80191838083FA012081318176
:10125000FB0180819181821793070CF4C901FA0187
:1012600081939193AF0112960E5F1F4FF1E0A93861
:10127000BF07D9F68AED91E00E94F5068091390208
:1012800090913A02099711F074E001C075E060E0B6
:1012900080E090E0FC01E158FE4FA081B1814D91CA
:1012A0005C911197FC01E052FE4F0190F081E02D1E
:1012B0004E175F0754F0FC01E651FE4F208131814B
:1012C000FA01241735070CF4F901ED93FC936F5FD5
:1012D00002966717FCF22A96E4E00C94A71B809113
:1012E000A002882309F050C081E08093A0028FEF14
:1012F00080939F022FB7F8948091C0019091C10113
:101300009093B3018093B2018091C2019091C30187
:101310009093B5018093B4018091C4019091C5016F
:101320009093B7018093B6018091C6019091C70157
:101330009093B9018093B8018091C8019091C9013F
:101340009093BB018093BA018091CA019091CB0127
:101350009093BD018093BC018091CC019091CD010F
:101360009093BF018093BE0180916F008260809353
:101370006F00B19A809184009091850004969093BB
:101380008900809388002FBF0895FC0181E081834C
:10139000808385E0828316821582108617820895E5
:1013A0009C0144E0813B940714F490E00DC084510B
:1013B00095408159914010F491E006C02850374083
:1013C00014F49FEF06C092E0662319F082E0891BB7
:1013D000982F892F0895CF93DF93EC018A818B8317
:1013E00080919A0190919B016D810E94D00987FFA5
:1013F000888380919E0190919F016E810E94D00907
:1014000087FF89838F81882351F48881882329F07D
:10141000823029F481E08D83188281E08F83888572
:10142000882361F48981882319F0823039F404C05B
:1014300081E08E8382E0898381E0888738813F5F05
:10144000898123E08202C0011124380F3A839B81F5
:1014500080E0391729F081E09295907F932B9C834F
:10146000DF91CF910895282F30E03F6F220F331F77
:10147000EFB7F8948091840090918500AC01405CB6
:101480005F4FBC016D5D7A4F809184009091850023
:10149000DA01A81BB90B1A161B06B4F320FF02C011
:1014A000389801C0389A4617570729F0369527957E
:1014B00045575F4FE9CFEFBF0895EFB7F8943099E4
:1014C00017C04BC020918400309185002058314CCA
:1014D00004C08FEF9FEF309B0BC0809184009091F0
:1014E0008500B901681B790B1616170614F4F1CFA5
:1014F000AC0141505040CA0101961816190614F368
:101500004F5F5F4F19F420E030E829C080918400DC
:1015100090918500AC0140565F4F20E030E0BC0167
:1015200063597B4F8091840090918500DA01A81B5C
:10153000B90B1A161B06B4F3309903C080E090E093
:1015400002C080E890E036952795282B392B461766
:10155000570729F045575F4FE5CF20E030E4EFBF54
:10156000C9010895EF92FF920F931F93CF93DF93DA
:10157000E82E192F062FF62E84E20E94330A802FC0
:101580000E94330A2E2D312FC901EC0104C089912C
:10159000F80E0E94330A9E012E192017C4F38F2DD6
:1015A00081950E94330ACDB7DEB7E6E00C94A51B07
:1015B0008F929F92AF92BF92CF92DF92FF920F9342
:1015C0001F93CF93DF934C015A01C0E0D0E0C62EA9
:1015D000DD24C7FCD09402C0812F182FC5010E94C2
:1015E0005D0A9C018070907C892B69F5822FC13047
:1015F000D10559F0C230D105A1F0209779F72432F6
:1016000059F7812FC1E0D0E0E8CF90E0C816D906A5
:1016100014F4812F15C0822FF22EC2E0D0E000E03A
:10162000DCCFF20E812F8150112331F0F401E00F55
:10163000F11D20830F5FD1CFFF2011F481E004C0A2
:10164000C0E0D0E0CACF80E0DF91CF911F910F9131
:10165000FF90DF90CF90BF90AF909F908F900895B4
:10166000A0E0B0E0E6E3FBE00C94871B00E0CCEDEB
:10167000D5E02EC11092F3022093EF023093F002D6
:101680004093F1025093F2028091F302882319F4FF
:101690001F3009F058C1E82FFF27E7FDF095EA5207
:1016A000FD4F10838F5F8093F30289310CF410C1DA
:1016B0008091EE02882311F01092F302E0913B0238
:1016C000F0913C024091D80250E0942F882720915D
:1016D000D70230E0822B932B977096958795835194
:1016E0009C4F91838083E0913D02F0913E022091D6
:1016F000D90230E0C90165E0880F991F6A95E1F7CA
:1017000003E0569547950A95E1F7842B952B977042
:101710009695879583519C4F91838083E0913F02FA
:10172000F09140024091DB0250E08091DA0290E0BB
:10173000880F991F880F991F76E0369527957A951F
:10174000E1F7822B932B9A01322F2227330F330F8D
:10175000822B932B97709695879583519C4F9183FD
:101760008083E0914102F09142022091DC0230E05E
:10177000C9019695982F88279795879556954795EF
:10178000842B952B97709695879583519C4F9183C9
:101790008083E0914302F09144024091DD0250E0E9
:1017A000CA0174E0880F991F7A95E1F764E03695D5
:1017B00027956A95E1F7822B932B977096958795DD
:1017C00083519C4F91838083E0914502F0914602C2
:1017D0006091DF0270E08091DE0290E0880F991F37
:1017E000440F452F441F550B5195842B952B9B017E
:1017F000322F2227330F822B932B97709695879544
:1018000083519C4F91838083E0914702F09148027D
:101810002091E00230E0C90106E0880F991F0A9587
:10182000E1F77695679576956795862B972B977058
:101830009695879583519C4F91838083E0914902CF
:10184000F0914A028091E10290E073E0880F991FC5
:101850007A95E1F765E0369527956A95E1F7822B51
:10186000932B9695879583519C4F91838083ABE30F
:10187000B2E0ED91FC911197808191818C5D954052
:101880008CF42081318180819181AE01481B590BFC
:10189000CA019595879595958795281B390B3183B6
:1018A00020830EC020813181808191818C5D9540A3
:1018B0009595879595958795820F931F9183808342
:1018C000129652E0AB34B507A1F61092F30201E094
:1018D000E0914601F0914701A081B18114962D91CC
:1018E0003C911597CF01F9010995892B61F1809100
:1018F000F302893144F5A0914601B0914701ED9181
:10190000FC9111970680F781E02DCD010995182FE4
:101910000E94B6009B01AC018091EF029091F00211
:10192000A091F102B091F20269017A01C81AD90AB4
:10193000EA0AFB0AD701C60189589341A040B0408A
:101940000CF098CE99CE802FCDB7DEB7E8E00C949E
:10195000A31B809146019091470140EA56E861E05F
:1019600070E02EE20E94001808951F93CF93DF933A
:10197000EC01142F45E450E00E94BA1B88818117C6
:1019800011F08FEF12C090E020E030E0FE01E20F96
:10199000F31F8081980F2F5F3F4F25343105B1F73A
:1019A000992311F480E001C08EEFDF91CF911F9158
:1019B0000895DC0190E020E030E0FD01E20FF31F2C
:1019C0008081980F2F5F3F4F24343105B1F7AC5B16
:1019D000BF4F91959C93A454B040CD0145E450E095
:1019E0000E94CA1B0895A1E1B0E0E9EFFCE00C946D
:1019F0007D1B1C0181E0898385EF91E09B838A83B5
:101A000002969D838C830D969F838E830296998781
:101A1000888702969B878A8702969D878C87029685
:101A20009F878E87CE010196998B888BD090F50188
:101A3000DD0CCC246624EE24FF248701F0E88F2EF1
:101A4000FAE19F2EF6E0AF2EB12CE2E07E2E2C01C3
:101A50000E94B6009B01AC01DC01CB018E199F09ED
:101A6000A00BB10B88169906AA06BB060CF051C054
:101A7000171424F5872D992787FD9095FC01E170B7
:101A8000F07080FD03C088E097E002C08CED95E027
:101A90009093C3018093C2018CED95E09093C101B6
:101AA0008093C001EE0FFF1FEE0FFF1FE959FE4F9D
:101AB00080809180A280B3807A9429C0DD2039F1A2
:101AC0001D1424F46CE271E0A1E003C064ED7EEF2C
:101AD000AFEF8D2D992787FD9095FC01E170F07097
:101AE00080FF03C08CED95E003C0CB0184529A4F78
:101AF0009093C1018093C001EE0FFF1FEE0FFF1FF7
:101B0000E959FE4F80809180A280B380DA1A790172
:101B10008A010E94300B882319F091E090939E0275
:101B200080919E02882329F010929E020E946D06E9
:101B300002C0662041F08091A002882309F08CC089
:101B40000E946F096624772009F082CFC1010E94AC
:101B5000EB09882309F47CCFF1018481843561F09D
:101B6000853520F4823509F063C013C0863559F0FD
:101B7000883509F05DC02AC0F1E0FC1514F0CC24D2
:101B800070C0CA946EC085E08C150CF468C0C39414
:101B900068C0AC2DBB27A7FDB095FD01EE0FFF1F60
:101BA000E40DF51D0180F281E02D8081282F33277F
:101BB00027FD30952F5F3F4FA159BE4F8C9199273C
:101BC00087FD909582179307F4F41CC0AC2DBB27BA
:101BD000A7FDB095FD01EE0FFF1FE40DF51D01807F
:101BE000F281E02D8081282F332727FD3095215069
:101BF0003040A958BE4F8C91992787FD90952817A2
:101C000039070CF49C01208320E08C2D992787FD57
:101C10009095FC01EE0FFF1FE40DF51D0180F28190
:101C2000E02DD080DD0C222319F00196782E770C60
:101C30008981823009F00CCF84EF91E060E070E0A0
:101C40000E94D90C84EF91E060E071E00E94D90C11
:101C50006196E2E10C94991B6624639474CFB7E01B
:101C6000CB2E21E0D2CFA1E9B0E0E9E3FEE00C9475
:101C70007D1B0E94B6001B012C01DE011196E9E5D7
:101C8000F1E086E001900D928150E1F78E010D5E4A
:101C90001F4FC8010E94C5094CE1E42EF12CEC0E47
:101CA000FD1EC70164E00E94E00439E4C32ED12C7C
:101CB000CC0EDD1EC60163E00E94E0042092D20239
:101CC0003092D3024092D4025092D502C657DF4FD1
:101CD000288239824A825B82CA58D040CA57DF4F75
:101CE000288239824A825B82C658D040CE57DF4F65
:101CF000288239824A825B82C258D0404201310137
:101D0000C258DF4F288239824A825B82CE57D04048
:101D1000EB962CAE3DAE4EAE5FAEEB97EE961FAEA1
:101D2000EE97ED961FAEED9721E0EC962FAFEC9776
:101D3000C257DF4FE882CE58D040C157DF4FF882FC
:101D4000CF58D040C057DF4F0883C059D040CF563E
:101D5000DF4F1883C159D0400E94B6005B016C016F
:101D60000E942B010E94300B882319F031E0309340
:101D70009E0280919E028823A1F4D601C501C65718
:101D8000DF4F488159816A817B81CA58D040841BCA
:101D9000950BA60BB70B81539547A040B0400CF4B0
:101DA00042C010929E020E946D068C8D882369F0BD
:101DB000C657DF4FA882B982CA82DB82CA58D04098
:101DC00061E0EE966FAFEE972EC0C257DF4F88816D
:101DD000CE58D040C157DF4F9881CF58D0400E9495
:101DE000B5052A968FAD2A97882311F492E001C099
:101DF00090E020E08C8D882309F421E0920F9093ED
:101E0000550288EC90E090935B0280935A02C6578B
:101E1000DF4FA882B982CA82DB82CA58D04091E0E3
:101E2000EE969FAFEE978091A002882379F5EE960B
:101E3000AFADEE97AA2351F1A6019501CA57DF4F26
:101E4000688179818A819B81C658D040261B370BD7
:101E5000480B590B80914D0290914E02A0914F0278
:101E6000B091500282179307A407B5077CF40E9433
:101E7000F9080E946F09CA57DF4FA882B982CA8247
:101E8000DB82C658D040EE961FAEEE97D601C50154
:101E9000CE57DF4F288139814A815B81C258D040BB
:101EA000821B930BA40BB50B81519742A040B0400D
:101EB00054F10E9463042A968FAD2A978823D9F49F
:101EC000CE01875B9F4F0E941D062A968FAD2A97F1
:101ED000882311F492E001C090E020E08C8D8823EB
:101EE00009F421E0920F9093550248EC50E0509392
:101EF0005B0240935A02CE57DF4FA882B982CA8252
:101F0000DB82C258D040EC965FADEC97552309F4C4
:101F100056C0C057DF4F8881C059D040CF56DF4FE1
:101F20009881C159D0400E94EB09882309F447C029
:101F3000ED966FADED97E62FFF27E7FDF095E05B9F
:101F4000FE4F9F898081981721F0ED961FAEED9787
:101F500007C0ED967FADED977F5FED967FAFED9774
:101F6000ED968FADED97E82FFF27E7FDF095E05B4D
:101F7000FE4F80818F3F81F4CE0143960E94F30C87
:101F80002EE088E190E00FB6F894A8958093600069
:101F90000FBE20936000FFCFD601C50182199309BF
:101FA000A409B509815C914EA44EB04024F0EC9692
:101FB0001FAEEC9704C0F1E0EC96FFAFEC978C8D70
:101FC000882329F02A968FAD2A978823C9F5809116
:101FD0009C0190919D0120919A0130919B01820F6B
:101FE000931F2091190130911A01821B930B2091AC
:101FF000130130911401821B930B95958795909353
:10200000AB018093AA0180919E0190919F01209144
:10201000150130911601821B930B9093AD018093B3
:10202000AC018091A0019091A10120911701309104
:102030001801821B930B9093AF018093AE018CCE5D
:10204000D601C50186199709A809B9098151974296
:10205000A040B0400CF434C380914B0290914C02EC
:102060008130910559F48091A2019091A301865F7E
:1020700095400CF0A3C080E090E00DC0892B09F0E2
:102080009DC08091A2019091A301875296400CF4CB
:1020900095C081E090E090934C0280934B02892B95
:1020A00011F084E001C080E08093550268EC70E09C
:1020B00070935B0260935A021092B3021092B402C2
:1020C0001092B5021092B6021092BF021092C00296
:1020D0001092C1021092C2021092B7021092B8027E
:1020E0001092B9021092BA021092C3021092C40266
:1020F0001092C5021092C6021092BB021092BC024E
:102100001092BD021092BE021092C7021092C80235
:102110001092C9021092CA0280910C0290910D0295
:10212000029709F04BC0D601C501EB962CAD3DAD31
:102130004EAD5FADEB97821B930BA40BB50B815299
:10214000914AA740B0401CF0E7961FAEE797E7968C
:102150004FADE7974F5FE7964FAFE797433044F1B6
:1021600080919A0190919B019093140180931301A7
:1021700080919E0190919F0190931601809315018B
:102180008091A0019091A101909318018093170173
:1021900080919C0190919D0190931A018093190167
:1021A0008091A8019091A90190931C0180931B013B
:1021B000EB96ACAEBDAECEAEDFAEEB9740919C01E0
:1021C00050919D0180919A0190919B01480F591F58
:1021D0008091190190911A01481B590B80911301AC
:1021E00090911401481B590B559547955093AB019D
:1021F0004093AA01E0919E01F0919F018091150109
:1022000090911601E81BF90BF093AD01E093AC013E
:10221000A091A001B091A1018091170190911801A6
:10222000A81BB90BB093AF01A093AE018091A80198
:102230009091A90120911B0130911C01821B930BED
:102240009093B1018093B001809106028150282FB4
:10225000332727FD3095CA0157FF04C088279927E7
:10226000841B950B022E02C0880F991F0A94E2F777
:1022700061E08139960714F080E991E060E971E04E
:10228000681B790B78876F83CF01F7FF04C088271D
:1022900099278E1B9F0B022E02C0880F991F0A944C
:1022A000E2F771E08139970714F080E991E060E985
:1022B00071E0681B790B7A876987CD01B7FF04C08D
:1022C000882799278A1B9B0BBC0102C0660F771FCA
:1022D0002A95E2F781E06139780714F060E971E04E
:1022E00010E9612E11E0712E661A770A7C866B86E2
:1022F0008091A2019091A30125E0833C92074CF4C8
:1023000003EC15E0081B190B31E00139130794F0B9
:102310000BC066E0883296071CF400E010E00AC0AB
:1023200077E0863897071CF000E911E003C08C01C4
:10233000055F154080904B0290904C0281E088161A
:10234000910459F08114910409F050C080910A025F
:1023500090910B02029709F049C0809108029A01FE
:10236000082E02C0220F331F0A94E2F73E872D8702
:10237000082E02C0EE0FFF1F0A94E2F7F88BEF87DA
:10238000AD0102C0440F551F8A95E2F75A8B498B65
:1023900089819A8197FD05C088279927821B930B15
:1023A00001C0C9019093A2028093A1028B819C81FC
:1023B0002F85388997FD05C088279927821B930BA5
:1023C00001C0C9019093A4028093A3028D819E81D4
:1023D00097FD03C0509541955F4F5093A6024093DF
:1023E000A50291E08916910471F055C01092A202E5
:1023F0001092A1021092A4021092A3021092A602BF
:102400001092A50248C06F817885882777FD809556
:10241000982F24EF3FEB40E050E00E94211BF9E0B1
:102420009595879577956795FA95D1F76093BF0253
:102430007093C0028093C1029093C20269857A852D
:10244000882777FD8095982F0E94211BE9E09595BC
:10245000879577956795EA95D1F76093C302709356
:10246000C4028093C5029093C602B301882777FD0A
:102470008095982F0E94211B39E095958795779537
:1024800067953A95D1F76093C7027093C80280931D
:10249000C9029093CA022091D4013091D501809154
:1024A000CE019091CF01281B390BA0E220303A07D2
:1024B00014F02FEF3FE1C901B0EE20303B0714F4D8
:1024C00080E090EE9093A8028093A7022091D6011D
:1024D0003091D7018091D0019091D101281B390B07
:1024E000E0E220303E0714F02FEF3FE1C901F0EEAB
:1024F00020303F0714F480E090EE9093AA0280937E
:10250000A9022091D8013091D9018091D2019091F6
:10251000D301281B390B40E22030340714F02FEF91
:102520003FE1C90150EE2030350714F480E090EE11
:102530009093AC028093AB02892819F064E272E0B8
:1025400002C061E172E081EA92E00E94AB03EE24F6
:10255000FF243801882477FC8094982C8701065248
:102560001E4FE1E0F0E0EC0FFD1FEE0DFF1D60815E
:102570007181882777FD8095982FF701EF55FD4FE2
:1025800022A533A5442737FD4095542F0E94211BD7
:1025900027E095958795779567952A95D1F7E7E098
:1025A000F0E0EC0FFD1FEE0DFF1D2081318144276F
:1025B00037FD4095542F0E94211B9B01AC01B9E0CF
:1025C0005595479537952795BA95D1F7C401B3012D
:1025D0000E94211BA9E09595879577956795AA9507
:1025E000D1F7D8016D937C93E2E0F0E0EE0EFF1E90
:1025F000F6E0EF16F10409F0B1CF2091D1021216E6
:102600000CF05CC08091D2029091D302A091D402D0
:10261000B091D502B601A501481B590B6A0B7B0B83
:10262000DB01CA0181549D40A340B0405CF02150C1
:102630002093D102A092D202B092D302C092D402CF
:10264000D092D5028091D102992787FD9095409133
:10265000DA015091DB01BC016170707080FF03C032
:1026600026E930E002C02AE63FEF240F351F309301
:10267000DB012093DA014091DC015091DD0161150D
:10268000710519F026E930E002C02AE63FEF240F79
:10269000351F3093DD012093DC012091DE01309164
:1026A000DF01672B19F48AE69FEF02C086E990E00C
:1026B000820F931F9093DF018093DE013501460165
:1026C000D601C501C258DF4F288139814A815B811B
:1026D000CE57D040821B930BA40BB50B8C59914A5B
:1026E000A740B0400CF438CB80910E02803839F40A
:1026F00080910001282F30E02058304004C0282F5E
:10270000332727FD309580910F02803839F480916E
:102710000101482F50E04058504004C0482F552731
:1027200047FD509580911002803831F4809102016C
:1027300090E08058904003C0992787FD90953A8398
:1027400029835C834B839E838D83295F3F4F2F308A
:10275000310510F41A8219828B819C8107960F979C
:1027600010F41C821B828D819E8107960F9710F4B6
:102770001E821D8280E00E94AE02C258DF4FA882F6
:10278000B982CA82DB82CE57D040E6CAA6E6B0E064
:10279000ECECF3E10C94871B1092800081E08093B5
:1027A00081003898409848E552E000E06E010894B6
:1027B000C11CD11C62E0E62EF12CEC0EFD1EC60100
:1027C00066E60E94D80A882309F441C089818230D4
:1027D000A9F0833018F4813029F406C08330B1F0B9
:1027E0008430E9F010E026C0C70160E870E048E0FE
:1027F00050E00E94BA1B10E069E01DC0C70160E80C
:1028000070E048E050E00E94CA1B13C0C70160E0BE
:1028100070E04CE00E94B50C10E066E40CC0C7010B
:1028200060E070E00E94D90CC70160E071E00E9496
:10283000D90C11E061E0898180688983C6010E941A
:10284000B20A01E044EF51E0112309F4B8CF802F20
:10285000CA59DF4FE8E00C94A31B1F920F920FB6EA
:102860000F9211240F931F932F933F934F935F93D6
:102870006F937F938F939F93AF93BF93EF93FF9348
:1028800080919F0287FD42C0E0919F02FF27E7FDF4
:10289000F095E25CFE4F808160E00E94EE1A36C047
:1028A00080919F028F5F80939F02E0919F02FF279C
:1028B000E7FDF095E25CFE4F808187FD27C0009127
:1028C000840010918500E0919F02FF27E7FDF095BD
:1028D000E25CFE4F808161E00E94EE1AE0919F026F
:1028E000FF27E7FDF095EE0FFF1FE25DFE4F019021
:1028F000F081E02D808191810297880F991F800FD0
:10290000911F90938900809388000BC080919F0253
:10291000873034F21092A00280916F008D7F8093F7
:102920006F00FF91EF91BF91AF919F918F917F9138
:102930006F915F914F913F912F911F910F910F9048
:102940000FBE0F901F9018950F931F93CF93DF9397
:1029500000E010E0E801C25CDE4F888187FD08C01E
:10296000888160E00E94EE1A888161E00E94821AEC
:102970000F5F1F4F0830110569F7DF91CF911F914D
:102980000F910895A0E0B0E0E8ECF4E10C94871B0F
:10299000182F062F862F61E00E94821A812F60E097
:1029A0000E94821A812F61E00E94EE1A6AE070E0B4
:1029B00080E090E00E94F600C0E0D0E0812F9927EF
:1029C00087FD9095FC01EA56FF4FE491F0E0EE0F91
:1029D000FF1FE457FF4FC590D49086559F4FFC01D1
:1029E0008491E82EFF24CE018170182F802F612F53
:1029F0000E94EE1AF601808120E030E090E08E2106
:102A00009F21892B11F021E030E0812F992787FD4C
:102A100090952817390711F010E005C02196C830AD
:102A2000D10509F711E0802F60E00E94821A812F02
:102A3000CDB7DEB7E8E00C94A31BA4E9B0E0E3E275
:102A4000F5E10C94871B259A8091AD039091AE031C
:102A5000009711F09C0102C021EB33E0CE010196FA
:102A6000821B930B803891054CF484E180935602CD
:102A70008EE190E090935D0280935C0284B7877F43
:102A800084BF88E10FB6F8948093600010926000D4
:102A90000FBE85E090E09093F6018093F5018CE302
:102AA00080930E0280930F028093100281E090E0E9
:102AB0009093F8018093F70187E08093370284E1D7
:102AC0008093F901EFE5F1E09AEFC92E91E0D92E5C
:102AD000D60181918D9321E0E736F207D1F742E0EC
:102AE00050E0509303024093020221E030E0309323
:102AF000050220930402309307022093060283E02C
:102B000090E0909309028093080230930B02209387
:102B10000A0250930D0240930C0284EF91E09093CF
:102B200012028093110210921802109217029093D1
:102B30001E0280931D029093140280931302109240
:102B40001A02109219029093200280931F02909310
:102B500016028093150210921C0210921B02909391
:102B600022028093210228E02093230290932502E1
:102B70008093240290932B0280932A029093310237
:102B800080933002909327028093260290932D0227
:102B900080932C0290933302809332029093290207
:102BA0008093280290932F0280932E0290933502F7
:102BB000809334022093360285E066E00E94C214BE
:102BC000882311F400E001C007E0CE01039660E81D
:102BD00070E048E050E00E94BA1B002361F48B8152
:102BE000873049F48C819D81AE81BF818E5491469E
:102BF000AC4BB04071F087E08B838EE491E6ACEB98
:102C0000B0E08C839D83AE83BF83188619861A86B5
:102C10000860CE010B9660E070E04CE00E94B50CBD
:102C200087FD0260CE01805B9F4F60E071E04CE069
:102C30000E94B50C87FD046083E08093D102E02EF2
:102C4000FF24C701867090708230910531F0843086
:102C5000910579F0892B81F119C08E01005B1F4F1E
:102C6000C80160E070E00E94D90C88858F5F88877A
:102C70000BC08E01055F1F4FC80160E071E00E942C
:102C8000D90C89858F5F8987C80118C08CE0809333
:102C9000F40184EF91E060E070E00E94D90C84EFD1
:102CA00091E060E071E00E94D90C8A858F5F8A878D
:102CB00089E08093D1020AC0CE010B96A4EFB1E067
:102CC000FC0185E401900D928150E1F7C7018E70FF
:102CD0009070892B41F0CE01039660E870E048E0E7
:102CE00050E00E94CA1BE0FE0AC082E00E941E0162
:102CF00064E670E080E090E00E94231AF6CF0E9424
:102D0000C613882361F02EE088E190E00FB6F894B6
:102D1000A895809360000FBE20936000FFCF1092B3
:102D2000800082E08093810081E080936F0085B510
:102D3000887F85BD0E94A90C8091F7019091F801D0
:102D40008230910519F18330910524F4019709F03F
:102D50005BC007C08330910571F1049709F054C03E
:102D60003FC080E090E048EE53E020ED37E0FC010A
:102D7000E052FE4F51834083FC01E651FE4F318308
:102D8000208302968A30910591F73EC080E090E062
:102D90004CE454E02CE637E0FC01E052FE4F518356
:102DA0004083FC01E651FE4F3183208302968A3036
:102DB000910591F729C080E090E042EE54E026EDC5
:102DC00036E0FC01E052FE4F51834083FC01E651A6
:102DD000FE4F3183208302968A30910591F714C00B
:102DE00080E090E044E853E024E338E0FC01E05266
:102DF000FE4F51834083FC01E651FE4F3183208317
:102E000002968A30910591F78091F901992787FD03
:102E1000909528EE33E0FC01E29FC001E39F900D06
:102E2000F29F900D1124AA2797FDA095BA2F8093A9
:102E30004D0290934E02A0934F02B09350028091A6
:102E40003702877080931D01ABE3B2E0F6018191F8
:102E50006F01E82FFF27E7FDF095EE0FFF1FE25E01
:102E6000FE4F808191818D939D93F2E0CF16F2E029
:102E7000DF0661F720E030E0F901E85BFE4F80817A
:102E8000F901E25CFE4F80832F5F3F4F2830310510
:102E900099F70E944E030E9467038091F50190917B
:102EA000F60190933A0280933902019731F482E05F
:102EB00090E090933A028093390280913902809396
:102EC000540288E592E090935902809358020E9440
:102ED000FE020E94A4140E94CB040E946D060E9470
:102EE000F908CC56DF4FE8E00C94A31B08951F921D
:102EF0000F920FB60F9211242F933F934F938F93FE
:102F00009F93EF93FF938091C00082FD1DC040917D
:102F1000C60020913A0330913B032F5F3F4F2F7340
:102F2000307080913C0390913D032817390771F070
:102F3000E0913A03F0913B03E650FD4F408330931C
:102F40003B0320933A0302C08091C600FF91EF91AA
:102F50009F918F914F913F912F910F900FBE0F90A6
:102F60001F901895E0918E03F0918F03E05CFF4F66
:102F70008191919120813181821B930B8F7390708D
:102F8000892B11F00E94761708951F920F920FB6A9
:102F90000F9211242F933F938F939F93EF93FF935F
:102FA00020917E0330917F03809180039091810373
:102FB0002817390731F48091C1008F7D8093C100BB
:102FC00014C0E0918003F0918103E25CFC4F20810A
:102FD000809180039091810301968F7390709093FC
:102FE0008103809380032093C600FF91EF919F910E
:102FF0008F913F912F910F900FBE0F901F901895BA
:10300000A0E0B0E0E6E0F8E10C94851BEC017A0169
:103010008B01C22EDD24403081EE580780E0680726
:1030200080E0780711F0DD24D39471E0A72EB12C55
:10303000EC89FD89DD2069F0C50108A002C0880F78
:10304000991F0A94E2F7808360E079E08DE390E0D5
:1030500005C0108260E874E88EE190E0A801970155
:103060000E94401B215030404040504056954795AB
:103070003795279580E12030380720F0DD2011F0CA
:10308000DD24D6CFE889F9893083EA89FB8920835A
:10309000E88DF98DC082EE89FF89408121E030E022
:1030A000C9010C8C02C0880F991F0A94E2F7482BC3
:1030B0004083EE89FF894081C9010D8C02C0880FD1
:1030C000991F0A94E2F7482B4083EE89FF894081DB
:1030D000C9010E8C02C0880F991F0A94E2F7482B91
:1030E0004083EE89FF8980810F8C02C0220F331F3D
:1030F0000A94E2F7209528232083CDB7DEB7EAE0D3
:103100000C94A11BDC011C96ED91FC911D97E05CD9
:10311000FF4F2191319180819181281B390B2F73B1
:103120003070C9010895DC011C96ED91FC911D974A
:10313000E05CFF4F20813181E054F040DF01AE5B65
:10314000BF4F8D919C9111972817390719F42FEFD4
:103150003FEF07C08D919C91E80FF91F8081282FC8
:1031600030E0C9010895DC011C96ED91FC911D979A
:10317000E05CFF4F20813181E054F040DF01AE5B25
:10318000BF4F8D919C9111972817390719F42FEF94
:103190003FEF10C08D919C911197E80FF91F20818E
:1031A0008D919C91119701968F73907011969C93BD
:1031B0008E9330E0C9010895DC0191968C9191972E
:1031C000882339F05496ED91FC915597808186FFC4
:1031D000F9CF91961C920895CF93DF93EC01EE8581
:1031E000FF85E05CFF4F20813181E054F0402F5F8C
:1031F0003F4F2F733070DF01AE5BBF4F8D919C91BD
:10320000119728173907D1F3E05CFF4F8081918136
:10321000E054F040E80FF91F6083EE85FF85E05C25
:10322000FF4F31832083EE89FF89208181E090E088
:103230000F8C02C0880F991F0A94E2F7282B208375
:1032400081E089A3EC89FD8980818064808381E0AD
:1032500090E0DF91CF91089510928503109284033E
:1032600088EE93E0A0E0B0E080938603909387031C
:10327000A0938803B09389038DE891E09093830332
:10328000809382038AEF92E090938F0380938E0362
:103290008EE393E0909391038093900385EC90E00C
:1032A000909393038093920384EC90E09093950322
:1032B0008093940380EC90E090939703809396031F
:1032C00081EC90E0909399038093980382EC90E0D6
:1032D00090939B0380939A0386EC90E090939D03D8
:1032E00080939C0384E080939E0383E080939F03FC
:1032F00087E08093A00385E08093A10381E0809321
:10330000A2030895CF93DF930E94471A0E941D15D0
:10331000C2EBD7E10E94330E2097E1F30E94B2176F
:10332000F9CFA0E0B0E0E7E9F9E10C94871B7C015C
:103330006B018A01C0E0D0E00FC0D6016D916D0134
:10334000D701ED91FC910190F081E02DC701099525
:10335000C80FD91F015010400115110571F7CE019A
:10336000CDB7DEB7E8E00C94A31B1F920F920FB607
:103370000F9211242F933F938F939F93AF93BF93FB
:103380008091A8039091A903A091AA03B091AB03E7
:103390003091AC030196A11DB11D232F2D5F2D3758
:1033A00020F02D570196A11DB11D2093AC038093F1
:1033B000A8039093A903A093AA03B093AB038091B1
:1033C000A4039091A503A091A603B091A703019631
:1033D000A11DB11D8093A4039093A503A093A60300
:1033E000B093A703BF91AF919F918F913F912F9180
:1033F0000F900FBE0F901F9018959FB7F8942091D3
:10340000A4033091A5034091A6035091A70386B56C
:10341000A89B06C08F3F21F02F5F3F4F4F4F5F4F5C
:103420009FBF542F432F322F2227280F311D411DBC
:10343000511D82E0220F331F441F551F8A95D1F77B
:10344000B901CA010895EF92FF920F931F93CF9392
:10345000DF937B018C010E94FD19EB010EC00E94DD
:10346000FD196C1B7D0B685E7340C8F30894E1087E
:10347000F10801091109C851DC4FE114F1040105FB
:10348000110569F7CDB7DEB7E6E00C94A51B78947B
:1034900084B5826084BD84B5816084BD85B5826059
:1034A00085BD85B5816085BDEEE6F0E080818160F7
:1034B0008083E1E8F0E010828081826080838081F7
:1034C00081608083E0E8F0E0808181608083E1EBCF
:1034D000F0E0808184608083E0EBF0E080818160B7
:1034E0008083EAE7F0E0808184608083808182606D
:1034F0008083808181608083808180688083109256
:10350000C1000895CF93DF93482F50E0CA0186553C
:103510009F4FFC0134914A565F4FFA0184918823F2
:1035200069F190E0880F991FFC01E858FF4FA591C1
:10353000B491FC01EE57FF4FC591D491662351F42D
:103540002FB7F8948C91932F909589238C93888131
:1035500089230BC0623061F42FB7F8948C91932FBC
:10356000909589238C938881832B88832FBF06C0F5
:103570009FB7F8948C91832B8C939FBFDF91CF9151
:103580000895833071F0843028F48130A1F08230C6
:1035900021F514C08630B1F08730D1F08430E9F4E1
:1035A00004C0809180008F7703C0809180008F7D60
:1035B00080938000089584B58F7702C084B58F7D95
:1035C00084BD08958091B0008F778093B0000895F6
:1035D0008091B0008F7D8093B0000895FF920F938B
:1035E0001F93F62E482F50E0CA0182549F4FFC01D2
:1035F0002491CA0186559F4FFC0114914A565F4F92
:10360000FA0104910023C9F0222319F0822F0E94AD
:10361000C11AE02FF0E0EE0FFF1FEE57FF4FA5910C
:10362000B4919FB7F894FF2021F48C9110958123D9
:1036300002C08C91812B8C939FBF1F910F91FF90A3
:103640000895629FD001739FF001829FE00DF11DEC
:10365000649FE00DF11D929FF00D839FF00D749F0C
:10366000F00D659FF00D9927729FB00DE11DF91FB8
:10367000639FB00DE11DF91FBD01CF011124089515
:10368000A1E21A2EAA1BBB1BFD010DC0AA1FBB1F66
:10369000EE1FFF1FA217B307E407F50720F0A21BD8
:1036A000B30BE40BF50B661F771F881F991F1A9445
:1036B00069F760957095809590959B01AC01BD016F
:1036C000CF01089597FB092E05260ED057FD04D093
:1036D000D7DF0AD0001C38F45095409530952195DD
:1036E0003F4F4F4F5F4F0895F6F790958095709537
:1036F00061957F4F8F4F9F4F08952F923F924F922A
:103700005F926F927F928F929F92AF92BF92CF9271
:10371000DF92EF92FF920F931F93CF93DF93CDB77A
:10372000DEB7CA1BDB0B0FB6F894DEBF0FBECDBFF2
:1037300009942A88398848885F846E847D848C84C3
:103740009B84AA84B984C884DF80EE80FD800C81CC
:103750001B81AA81B981CE0FD11D0FB6F894DEBFAF
:103760000FBECDBFED010895EE0FFF1F0590F49140
:10377000E02D0994DC01CB01FC01F999FECF06C0D4
:10378000F2BDE1BDF89A319600B40D92415050401F
:10379000B8F70895DC01CB0103C02D910E94D51B21
:1037A00041505040D0F70895262FF999FECF1FBA07
:1037B00092BD81BD20BD0FB6F894FA9AF99A0FBE5A
:0837C00001960895F894FFCF73
:1037C800FFFFFFDC05DC05DC05DC05E803DC05E8BC
:1037D80003DC05DC05DC05DC05DC05DC050607018A
:1037E80005010F0103010B0109010D011101B601CA
:1037F800B401BA01B2010000B801BE01BC0103095D
:103808000F0AFF0B0C10820303090F0AFF0B0C10A1
:103818007889988778899887FF000000000000035E
:1038280001020004050607A0860100801A060005AB
:10383800040503040202020101010101010101C0A2
:1038480001C201C401C601CA0100000000EC1891C0
:0A385800198218B3189318DC180049
:00000001FF
