:100000000C9438020C9460020C9460020C94600210
:100010000C9460020C9460020C9460020C946002D8
:100020000C9460020C9460020C9460020C946002C8
:100030000C9460020C9460020C9460020C946002B8
:100040000C94300D0C9460020C94D6090C94240A84
:100050000C9460020C9460020C9460020C94600298
:100060000C9460020C94600220556E646566696EA3
:1000700065640020525833532056310020525833C3
:10008000532056322F563300204E616E6F576969E8
:1000900000204561676C6520413350726F0020522B
:1000A0005833534D00204D696E69204D5743002051
:1000B000464C495020312E3500680073007C008882
:1000C0000091009E00A500AF0053544154555300C9
:1000D00049443D005645523D0031452F32452F528F
:1000E0003D00454550524F4D0055702F446E2074D1
:1000F00068656E207E0055706461746520436F6E84
:10010000666967207E00457261736520436F6E6685
:100110006967207E00457261736520537461747352
:10012000207E0057494E47204D4F444500444950DA
:1001300020535700527564456C6520312D41696C20
:100140000044656C746120312D41696C0056546126
:10015000696C20312D41696C00527564456C6520D5
:10016000322D41696C0044656C746120322D416907
:100170006C00565461696C20322D41696C004475E5
:10018000636B65726F6E0052756420322D456C652D
:1001900020322D41494C00455041204D4F444500EF
:1001A00046756C6C20313030302D32303030004E9E
:1001B0006F726D20313130302D3139303000547252
:1001C00061636B696E67004D6178203930302D3284
:1001D00031303000534552564F204652414D452054
:1001E000524154450053455249414C5258204F52B8
:1001F000444552005350454B5452554D204C4556A2
:10020000454C5300313032340032303438004D4FD9
:10021000554E54204F5249454E54004E6F726D61F9
:100220006C00526F6C6C203930DF204C65667400B6
:10023000526F6C6C203930DF20526967687400524D
:100240006F74617465203930DF204C65667400522C
:100250006F74617465203930DF20526967687400FB
:1002600053544B2D4741494E205448524F57004656
:10027000756C6C0048616C660051756172746572D2
:10028000004D41582053544B2D524F54415445007A
:1002900056657279204C6F7720302E323578004CBD
:1002A0006F7720302E3578004D656469756D20318B
:1002B00078004869676820327800524154452053DD
:1002C000544B2D524F544154450044697361626C44
:1002D000656400456E61626C656400494E464C4938
:1002E0004748542043414C49420056522D4741490A
:1002F0004E20412F452F5200524154452000484F77
:100300004C44200041696C2000456C65200052750A
:100310006420004C4F5720504153532046494C54C1
:10032000455200323536485A2000313838485A2074
:10033000003938485A20003432485A2000323048B8
:100340005A20003130485A200035485A2000C90050
:10035000D000D400D90023012D01340141014D0109
:100360005901660172017E0187019701A001AF0169
:10037000BE01C701D401E501F401040209020E0225
:100380001B02220230023F024F0260026F0274021F
:100390007902810290029F02A802B202BA02CA0246
:1003A000D302DB02CA02D302EA02F8020403090301
:1003B0000E03FE02040309030E03130323032A039F
:1003C000310337033D0343034903E200E900F6002C
:1003D00006011501206E6565643D00726561643D2E
:1003E00000436667566572204D69736D617463687A
:1003F000004366675665723D004F70656E466C69D6
:100400006768745374616200502F492F4400504F45
:10041000540000000000240027002A000000000013
:10042000250028002B0000000000230026002900E2
:10043000040404040404040402020202020203038A
:100440000303030301020408102040800102040892
:100450001020010204081020000000070002010023
:100460000003040600000000000000006202900B80
:1004700011241FBECFEFD4E0DEBFCDBF11E0A0E05E
:10048000B1E0ECEAFEE102C005900D92A43FB10795
:10049000D9F713E0A4EFB1E001C01D92A933B10771
:1004A000E1F714E0C0E7D4E004C02297FE010E9407
:1004B000500FCC36D107C9F70E94E60B0C94540FAD
:1004C0000C940000AF92CF92EF920F9384EF91E0E3
:1004D00060E141E122E108E079E0E72E5AE0C52E33
:1004E0003BE0A32E0E9496090F91EF90CF90AF9022
:1004F0000895A0E0B0E0EFE7F2E00C941F0FE62EC5
:10050000082F112707FD1095E801CC0FDD1F60E0D3
:10051000A62E61E0B62EAC0EBD1ED501ED91FC916C
:100520006591749184EF91E00E94190C84EF91E041
:1005300060E041E00E94B208FE01E25DFE4F0190E2
:10054000F081E02DE330F10509F4ACC0E430F105B1
:100550005CF4E130F10509F47AC0E230F1050CF009
:1005600092C0EF2B69F065C1E530F10509F4F5C0E3
:10057000E530F1050CF4BCC0369709F05AC167C0EC
:10058000CB56DE4FE881F9810081802F992787FDC6
:100590009095880F991FD501ED91FC91E80FF91FF7
:1005A0006591749184EF91E00E94190C0230E9F09A
:1005B000033051F1013009F03CC160914E027727C0
:1005C00067FD709584EF91E04AE050E00E941D0DB8
:1005D00080914E02E82FFF27E7FDF095EE0FFF1FF9
:1005E000E754FF4F6591749149C040914F0250917B
:1005F0005002609151027091520284EF91E02AE022
:1006000030E00E94C20C15C160915302772767FD4C
:10061000709584EF91E04AE050E00E941D0D84EF58
:1006200091E06FE20E943A0C60915402772767FDD7
:10063000709584EF91E04AE050E00E941D0D84EF38
:1006400091E06FE20E943A0C6091550221C0D801FE
:10065000AA0FBB1FFD01EB56FE4F0190F081E02D6C
:100660008081992787FD9095880F991FA050BF4FD3
:10067000ED91FC91E80FF91F6591749184EF91E081
:100680000E94190CD6C0CB56DE4FE881F9816081FB
:10069000772767FD709584EF91E04AE050E00E9473
:1006A0001D0DC7C0CB56DE4F0990D881C02D00E08C
:1006B00010E00E1531F411E084EF91E06BE50E943B
:1006C0003A0CE881FF27E7FDF095E953FE4F84EFF0
:1006D00091E060810E943A0C112329F084EF91E0AF
:1006E0006DE50E943A0C0F5F2196083009F7A1C012
:1006F000CB56DE4F0990D881C02D10E000E01E15CA
:1007000031F401E084EF91E06BE50E943A0C6881DE
:10071000603839F484EF91E06EE074E00E94190CC7
:1007200009C0772767FD709584EF91E04AE050E0BB
:100730000E941D0D002329F084EF91E06DE50E94D9
:100740003A0C123029F084EF91E06FE20E943A0CEB
:100750001F5F2196133091F66CC0FE01EB56FE4FE1
:10076000D080C180FF24E7FCF094F701EB54FE4FEA
:10077000008184EF91E00E94D808D501ED91FC91B1
:100780006591749184EF91E00E94190C112707FD87
:100790001095C8010196880F991FD501ED91FC9124
:1007A000E80FF91F6591749184EF91E00E94190C94
:1007B00084EF91E068E074E00E94190C84EF91E00E
:1007C00060E041E00E94B208EEEBF1E0EE0EFF1EA9
:1007D000D701EC905801AA0CBB1C2D2D3C2DC90152
:1007E000EC0110E000E01E1531F401E084EF91E02F
:1007F0006BE50E943A0CE881F981EA0DFB1D6081EE
:10080000718184EF91E04AE050E00E941D0D0023C9
:1008100029F084EF91E06DE50E943A0C123029F046
:1008200084EF91E06FE20E943A0C1F5F2296133032
:10083000C9F6CDB7DEB7EAE00C943B0FA0E0B0E01C
:10084000E4E2F4E00C94170F1C01D62E7A010E940A
:10085000780D2B013C010027F7FC0095102FC801F3
:10086000B70128EE33E040E050E00E94D60E4B0185
:100870005C01C0E0D0E0CD2CDD24C7FCD09439C0B1
:100880008EE093E00E94E60A892B99F18EE093E0D6
:100890000E94170B282FC130D10559F0C230D10565
:1008A000A1F0209721F5843211F58E2DC1E0D0E022
:1008B0001FC090E0C816D90614F48E2D15C0122F53
:1008C000822FC2E0D0E000E013C0180F8E2D8150BF
:1008D000EE2031F0F101E00FF11D20830F5F08C021
:1008E000112311F481E012C0C0E0D0E001C08E2DD0
:1008F000E82E0E94780D6419750986099709681514
:1009000079058A059B050CF4BBCF80E0CDB7DEB737
:10091000E2E10C94330F1F93282F162F8EE093E003
:10092000622F0E94500B8EE093E00E94170B112360
:1009300031F462E070E080E090E00E949E0D1F9133
:100940000895EF92FF920F931F93CF93DF93E82EBA
:10095000192F062FF62E84E260E00E948B04802F70
:1009600060E00E948B042E2D312FC901EC0105C0DF
:100970008991F80E60E00E948B049E012E192017C9
:10098000BCF38F2D819561E00E948B04CDB7DEB75B
:10099000E6E00C943F0F1F93CF93DF93C0EDD1E0BF
:1009A0001991812F60E00E94070E812F61E00E9463
:1009B000730E81E0C43DD80799F7DF91CF911F9165
:1009C00008950F931F9384B7877F84BF88E10FB684
:1009D000F89480936000109260000FBE8EE093E068
:1009E00040E052EC61E070E00E945F0A0E94CB049C
:1009F00004EF11E0C80160E142E020E00E94E0085D
:100A0000C8010E949E081F910F910895A0E0B0E0D8
:100A1000ECE0F5E00C94180F0E94780D7B018C013E
:100A2000CEE5D2E050ED652E51E0752E46E5842EE0
:100A300042E0942E36E6A32E32E0B32E26E7C22EF5
:100A400022E0D22E332492E0492E512C19821882B2
:100A5000F30180810E94A60E20E030E0892B11F482
:100A600021E030E084E0220F331F8A95E1F7F401A2
:100A700080819181282B392B2031310571F1213171
:100A800031053CF4215030402230310508F077C068
:100A900009C02131310509F441C02231310509F085
:100AA0006EC055C0F50180819181A281B381A801FA
:100AB0009701281B390B4A0B5B0BDA01C9018155E1
:100AC000934CA040B0400CF45AC041E050E0598330
:100AD0004883F401118210821FC0F5018081918149
:100AE000A281B381A8019701281B390B4A0B5B0B2C
:100AF000DA01C9018155934CA040B0400CF43FC0CD
:100B00005982488221E030E0F40131832083F601EC
:100B1000E082F18202831383F5012DC0F60180810A
:100B20009181A281B381A8019701281B390B4A0B3F
:100B30005B0BDA01C901815C9742A940B040FCF02F
:100B400059824882F40151824082F60114C0F601B4
:100B500080819181A281B381A8019701281B390B63
:100B60004A0B5B0BDA01C901815A9648A140B0409B
:100B700034F059824882E082F18202831383332069
:100B800031F488819981892B11F033243394229692
:100B90000894611C711C22E030E0820E931E44E038
:100BA00050E0A40EB51EC40ED51E52E0C636D507C1
:100BB00009F04CCF832DCDB7DEB7E1E10C94340FB3
:100BC000A6E6B0E0E6EEF5E00C94170F0E94780D73
:100BD000AC01CB01DA013C014D01EE24FF24442499
:100BE000552401E0A4E02A2E01C001E00E94780D06
:100BF0005B016C01E114F10429F020E930ED43E0E0
:100C000050E004C020E533EC40E050E0D601C501DF
:100C100086199709A809B909281739074A075B07F0
:100C20000CF06AC082E0E816F104E9F0A3E0EA16ED
:100C3000F10444F4E114F10471F0B1E0EB16F104B5
:100C400099F40BC0E3E0EE16F10451F0F4E0EF1676
:100C5000F10451F408C083E001C081E0898304C03D
:100C6000632D6F5F02C0198261E0CE0101960E9480
:100C7000A1041981CE01019666E644E150E00E948C
:100C80001E04882309F49BC110688981811709F02B
:100C900096C1A1E0EA16F104F1F0B3E0EB16F1041D
:100CA00009F491C1E114F10429F58A818C3021F015
:100CB000F4E0EF2EF12C89C1A9E0B2E0FE013296FA
:100CC00085E401900D928150E1F735014601E1E0A4
:100CD000EE2EF12C11C0AEE4B2E0FE01329688E0B7
:100CE00001900D928150E1F772E0E72EF12C44243F
:100CF00055246BC135014601002309F44CC084EF33
:100D000091E00E94D808E2E0EE16F104C1F0F4E0B0
:100D1000EF16F104C9F0E114F104E9F584EF91E074
:100D200069EF73E00E94190C84EF91E060E041E00C
:100D30000E94B20884EF91E061EF73E022C0842D3D
:100D4000652D0E94790227C084EF91E061EE73E087
:100D50000E94190C84EF91E060E041E00E94B2082B
:100D600084EF91E06BED73E00E94190C84EF91E049
:100D70006A814AE050E00E94D10C84EF91E064ED7A
:100D800073E00E94190C84EF91E06CE070E04AE09F
:100D900050E00E941D0D82E0E816F10409F018C130
:100DA0000E940605882309F413C180916002909186
:100DB00061020297A9F4151414F45A9411C0442046
:100DC00079F04A94E42DFF27E7FDF095EE0FFF1F21
:100DD000E25DFE4F0190F081E02DE25BFE4F50801E
:100DE0008091620290916302029709F04CC0E42D59
:100DF000FF27E7FDF095EE0FFF1FE25DFE4F01902C
:100E0000F081E02DE630F10519F580912D01833058
:100E100071F08430A1F08230B1F5DE011296E9E084
:100E2000F2E085E401900D928150E1F701C01A8251
:100E3000298243E0E42EF12C35E4332E24C01A82BB
:100E4000A2E0A98323E0E22EF12C98E0392E1BC00A
:100E5000E25BFE4F8081581614F4539414C0BEE038
:100E6000B4158CF04394E42DFF27E7FDF095EE0FC9
:100E7000FF1FE25DFE4F80819181069719F481E0AA
:100E800080932D015524242D332727FD3095F9011A
:100E9000EE0FFF1FE25DFE4FA081B181A530B105CD
:100EA00019F041E050E002C04AE050E080915E025B
:100EB00090915F02029711F4BA0102C060E070E005
:100EC0008091640290916502029729F46627772742
:100ED000641B750B04C06115710509F486CE220FE1
:100EE000331FF901EB5AFE4F40815181F901EB5854
:100EF000FE4F00811181A430B10589F0A530B10504
:100F0000D1F0F901EB56FE4F139709F044C0852D3F
:100F1000992787FD90950190F081E02D09C02B560F
:100F20003E4F852D992787FD9095D901ED91FC9134
:100F3000E80FF91F33C0A52DBB27A7FDB0952B5691
:100F40003E4FF90120813181FD01E254FE4F808145
:100F5000992787FD9095880F991F280F391FAB544B
:100F6000BE4F8C91992787FD9095880F991FD901C5
:100F7000ED91FC91E80FF91F80819181860F971FF9
:100F8000841795072CF0AC01081719070CF4A80179
:100F9000518340832ACE0190F081E02D80819927F2
:100FA00087FD9095860F971F8417950714F4842F5B
:100FB00004C0081719070CF4C801808316CEE11489
:100FC000F10409F497CEEE24FF243501460197CEB3
:100FD00000E00CCE0F931F938C01FC01868160E032
:100FE0000E94730E81E090E00E94C20DF80186819C
:100FF00061E00E94730E81E090E00E94C20DF80152
:10100000868160E00E94730E84E690E00E94C20D2B
:101010001F910F910895A0E0B0E0E1E1F8E00C9499
:10102000210FD82EC92E282F392FC9018C01C0E0DD
:10103000D0E0E62EFF24F801878161E00E94070ED0
:10104000B7010C2E02C0759567950A94E2F761709E
:10105000F80187810E94730E21960F5F1F4FC830E1
:10106000D10549F78D2D9C2D0E94EA07CDB7DEB73B
:10107000E8E00C943D0FA0E0B0E0E1E4F8E00C946F
:10108000210FD82EC92E282F392FC9018C01C0E07D
:10109000D0E0E62EFF24F801878161E00E94070E70
:1010A000B7010C2E02C0759567950A94E2F761703E
:1010B000F80187810E94730E21960F5F1F4FC43085
:1010C000D10549F78D2D9C2D0E94EA07CDB7DEB7DB
:1010D000E8E00C943D0F1F93CF93DF93EC01162FA4
:1010E0008C81642F0E94730E8D818F3F19F060E018
:1010F0000E94730E8F8584FF05C0CE01612F0E9470
:101100000B080EC0612F70E084E0759567958A9595
:10111000E1F7CE010E943B08CE01612F0E943B08FF
:10112000DF91CF911F91089541E00E946B0881E00B
:1011300090E0089540E00E946B080895FC016089EA
:10114000862F8160808B6960CF010E949A08089584
:10115000FC016089862F8460808B6C60CF010E94C7
:101160009A080895A8E0B0E0E8EBF8E00C94270FA7
:101170009C01FE013196ACEDB1E088E00D9001924A
:101180008150E1F7F9018389481710F0482F415049
:10119000E42FF0E0EE0FFF1FEC0FFD1F8181680FC1
:1011A0006068C9010E949A082896E2E00C94430FF7
:1011B00061E00E949A0880ED97E00E94C20D0895B8
:1011C000CF93DF93EC01423018F08F8588608F87D2
:1011D0004B8B1C8A222329F0413019F48F858460BF
:1011E0008F8780E593EC0E94C20D8C8160E00E94A5
:1011F000730E8E8160E00E94730E8D818F3F19F017
:1012000060E00E94730E6F8564FD1DC0CE0163E037
:101210000E943B0884E991E10E94C20DCE0163E087
:101220000E943B0884E991E10E94C20DCE0163E077
:101230000E943B0886E990E00E94C20DCE0162E068
:101240000E943B0816C06062CE010E949A0884E9A1
:1012500091E10E94C20D6F856062CE010E949A08E2
:1012600086E990E00E94C20D6F856062CE010E9407
:101270009A086F856062CE010E949A0884E0888B8C
:10128000CE010E94A808CE010E94D80882E0898B76
:10129000CE0166E00E949A08DF91CF9108956F9287
:1012A0007F928F92AF92CF92EF920F931F93DF9323
:1012B000CF93CDB7DEB73C01162F842FF3014483C3
:1012C00025830683E782C086A18682869D859387D3
:1012D0009E8594879F8595879889968761E00E946F
:1012E000070EF30185818F3F19F061E00E94070E20
:1012F000F301868161E00E94070E112319F0F301CA
:10130000178603C080E1F3018787C30160E141E0F4
:1013100020E00E94E008CF91DF911F910F91EF90A4
:10132000CF90AF908F907F906F9008958F92AF92F3
:10133000CF92DF92EF92FF920F931F93CF93DF93A1
:10134000DC01362F542F722F102FFE2CDC2C8A2C10
:1013500013961C921E92129788ED91E011969C9321
:101360008E9300D000D0EDB7FEB73196CDB7DEB783
:101370001982118212821382CD0161E0432F252F41
:10138000072FE12ECF2CAD2C0E944F090F900F900C
:101390000F900F90DF91CF911F910F91FF90EF90E1
:1013A000DF90CF90AF908F90089508951F920F9285
:1013B0000FB60F9211242F933F934F938F939F93C8
:1013C000EF93FF938091C00082FD1DC04091C60045
:1013D0002091C6023091C7022F5F3F4F2F733070AC
:1013E0008091C8029091C9022817390771F0E091E5
:1013F000C602F091C702EA57FD4F40833093C702FF
:101400002093C60202C08091C600FF91EF919F9188
:101410008F914F913F912F910F900FBE0F901F9082
:101420001895E0911A03F0911B03E05CFF4F819146
:10143000919120813181821B930B8F739070892B46
:1014400011F00E94D50908951F920F920FB60F92C6
:1014500011242F933F938F939F93EF93FF932091AA
:101460000A0330910B0380910C0390910D03281710
:10147000390731F48091C1008F7D8093C10014C081
:10148000E0910C03F0910D03E653FD4F2081809114
:101490000C0390910D0301968F73907090930D0340
:1014A00080930C032093C600FF91EF919F918F9141
:1014B0003F912F910F900FBE0F901F901895AF92F4
:1014C000BF92DF92EF92FF920F931F93CF93DF9320
:1014D000EC017A018B01DD24403081EE580780E079
:1014E000680780E0780711F0DD24D39491E0A92EFD
:1014F000B12CEC89FD89DD2069F0C50108A002C08E
:10150000880F991F0A94E2F7808360E079E08DE309
:1015100090E005C0108260E874E88EE190E0A801D8
:1015200097010E94F50E21503040404050405695A2
:1015300047953795279580E12030380720F0DD204A
:1015400011F0DD24D6CFE889F9893083EA89FB8957
:10155000208319A2EE89FF89408121E030E0C90192
:101560000C8C02C0880F991F0A94E2F7482B408325
:10157000EE89FF894081C9010D8C02C0880F991F37
:101580000A94E2F7482B4083EE89FF894081C90124
:101590000E8C02C0880F991F0A94E2F7482B4083F3
:1015A000EE89FF8980810F8C02C0220F331F0A94BD
:1015B000E2F7209528232083DF91CF911F910F918F
:1015C000FF90EF90DF90BF90AF900895DC011C96E4
:1015D000ED91FC911D97E05CFF4F2191319180814D
:1015E0009181281B390B2F733070C9010895DC01DC
:1015F0001C96ED91FC911D97E05CFF4F208131819D
:10160000E054F040DF01AE5BBF4F8D919C9111978C
:101610002817390719F42FEF3FEF07C08D919C91E0
:10162000E80FF91F8081282F30E0C9010895DC01FF
:101630001C96ED91FC911D97E05CFF4F208131815C
:10164000E054F040DF01AE5BBF4F8D919C9111974C
:101650002817390719F42FEF3FEF10C08D919C9197
:101660001197E80FF91F20818D919C911197019698
:101670008F73907011969C938E9330E0C9010895FA
:10168000DC0191968C919197882339F05496ED91D5
:10169000FC915597808186FFF9CF91961C92089511
:1016A000CF93DF93EC01EE85FF85E05CFF4F208157
:1016B0003181E054F0402F5F3F4F2F733070DF01D6
:1016C000AE5BBF4F8D919C91119728173907D1F3CD
:1016D000E05CFF4F80819181E054F040E80FF91FFA
:1016E0006083EE85FF85E05CFF4F31832083EE89C8
:1016F000FF89208181E090E00F8C02C0880F991F44
:101700000A94E2F7282B208381E089A3EC89FD89E4
:1017100080818064808381E090E0DF91CF910895A3
:10172000109211031092100388EE93E0A0E0B0E055
:101730008093120390931303A0931403B0931503A3
:1017400088EE91E090930F0380930E0386E892E079
:1017500090931B0380931A038AEC92E090931D03ED
:1017600080931C0385EC90E090931F0380931E03ED
:1017700084EC90E0909321038093200380EC90E030
:10178000909323038093220381EC90E090932503B0
:101790008093240382EC90E09093270380932603A8
:1017A00086EC90E0909329038093280384E0809353
:1017B0002A0383E080932B0387E080932C0385E04A
:1017C00080932D0381E080932E030895CF93DF93C0
:1017D0000E94CC0D0E94E104C1E1DAE00E94E00524
:1017E0002097E1F30E94110AF9CFA0E0B0E0EBEFFF
:1017F000FBE00C94210F7C016B018A01C0E0D0E07A
:101800000FC0D6016D916D01D701ED91FC91019052
:10181000F081E02DC7010995C80FD91F0150104074
:101820000115110571F7CE01CDB7DEB7E8E00C94D4
:101830003D0FEF92FF920F931F93CF93DF937C01A5
:101840008B01C0E0D0E0F8010F5F1F4F6491662369
:1018500059F0D701ED91FC910190F081E02DC70185
:101860000995C80FD91FEFCFCE01CDB7DEB7E6E09F
:101870000C943F0FDC01ED91FC910190F081E02D83
:1018800009950895CF93DF93EC016115710519F463
:1018900020E030E00FC0DB010D900020E9F7119748
:1018A000A61BB70BE881F9810280F381E02DAD0121
:1018B00009959C01C901DF91CF9108954F925F92E4
:1018C0007F928F929F92AF92BF92CF92DF92EF92D0
:1018D000FF920F931F93DF93CF93CDB7DEB7A197FE
:1018E0000FB6F894DEBF0FBECDBF2C01742ECB0116
:1018F000223008F42AE019A231E2C32ED12CCC0EFA
:10190000DD1E822E9924AA24BB24672D752FA501E4
:1019100094010E94F50E79018A01C801B701A50161
:1019200094010E94D60E472D461B0894C108D10889
:101930004A3014F4405D01C0495CF6014083E11473
:10194000F1040105110521F07E2C5F2DC801DDCFCA
:10195000C201B6010E94420CA1960FB6F894DEBFF8
:101960000FBECDBFCF91DF911F910F91FF90EF90F0
:10197000DF90CF90BF90AF909F908F907F905F90BF
:101980004F900895DC012115310541F4ED91FC9152
:101990000190F081E02D642F099508950E945E0C5E
:1019A0000895EF92FF920F931F939A01E62EFF2462
:1019B00000E010E0B801A7010E94C20C1F910F9136
:1019C000FF90EF900895A0E0B0E0E9EEFCE00C9409
:1019D000210FEC016A017B012115310541F4E881F9
:1019E000F9810190F081E02D642F09951FC02A3004
:1019F0003105D1F477FF17C0E881F9810190F081BA
:101A0000E02D6DE209958C0144275527BA014C1948
:101A10005D096E097F09CE012AE00E945E0C9801E3
:101A2000280F391F04C02AE00E945E0C9C01C901E6
:101A3000CDB7DEB7E8E00C943D0FEF92FF920F9325
:101A40001F937B019A010027F7FC0095102FB80126
:101A5000A7010E94E30C1F910F91FF90EF90089552
:101A60001F920F920FB60F9211242F933F938F93D3
:101A70009F93AF93BF938091340390913503A091CE
:101A80003603B0913703309138030196A11DB11D83
:101A9000232F2D5F2D3720F02D570196A11DB11D4D
:101AA000209338038093340390933503A093360337
:101AB000B09337038091300390913103A0913203AA
:101AC000B09133030196A11DB11D80933003909313
:101AD0003103A0933203B0933303BF91AF919F9131
:101AE0008F913F912F910F900FBE0F901F901895DF
:101AF0009FB7F89420913003309131034091320325
:101B00005091330386B5A89B06C08F3F21F02F5F0D
:101B10003F4F4F4F5F4F9FBF542F432F322F2227EE
:101B2000280F311D411D511D82E0220F331F441F1C
:101B3000551F8A95D1F7B901CA010895EF92FF9216
:101B40000F931F93CF93DF937B018C010E94780D3D
:101B5000EB010EC00E94780D6C1B7D0B685E73401C
:101B6000C8F30894E108F10801091109C851DC4FD4
:101B7000E114F1040105110569F7CDB7DEB7E6E020
:101B80000C943F0F019739F0880F991F880F991F08
:101B900002970197F1F70895789484B5826084BD27
:101BA00084B5816084BD85B5826085BD85B5816061
:101BB00085BDEEE6F0E0808181608083E1E8F0E0C1
:101BC0001082808182608083808181608083E0E8F0
:101BD000F0E0808181608083E1EBF0E080818460CF
:101BE0008083E0EBF0E0808181608083EAE7F0E0D1
:101BF0008081846080838081826080838081816035
:101C000080838081806880831092C1000895CF9383
:101C1000DF93482F50E0CA018C5B9B4FFC0134914D
:101C2000405D5B4FFA018491882369F190E0880F51
:101C3000991FFC01EE5EFB4FA591B491FC01E45E9F
:101C4000FB4FC591D491662351F42FB7F8948C9132
:101C5000932F909589238C93888189230BC06230C0
:101C600061F42FB7F8948C91932F909589238C93DE
:101C70008881832B88832FBF06C09FB7F8948C91EF
:101C8000832B8C939FBFDF91CF910895833071F0A8
:101C9000843028F48130A1F0823021F514C08630E0
:101CA000B1F08730D1F08430E9F404C08091800035
:101CB0008F7703C0809180008F7D8093800008958E
:101CC00084B58F7702C084B58F7D84BD08958091DF
:101CD000B0008F778093B00008958091B0008F7D21
:101CE0008093B0000895FF920F931F93F62E482F14
:101CF00050E0CA01885A9B4FFC012491CA018C5BB9
:101D00009B4FFC011491405D5B4FFA01049100234D
:101D1000C9F0222319F0822F0E94460EE02FF0E036
:101D2000EE0FFF1FE45EFB4FA591B4919FB7F894AF
:101D3000FF2021F48C911095812302C08C91812B7E
:101D40008C939FBF1F910F91FF9008950F931F9346
:101D5000482F50E0CA01885A9B4FFC012491CA01C8
:101D60008C5B9B4FFC010491405D5B4FFA01149129
:101D7000112319F420E030E015C0222319F0822F3E
:101D80000E94460E812F90E0880F991F8A5D9B4F1D
:101D9000FC01A591B4918C9120E030E0802311F0FA
:101DA00021E030E0C9011F910F910895629FD00199
:101DB000739FF001829FE00DF11D649FE00DF11D06
:101DC000929FF00D839FF00D749FF00D659FF00DB5
:101DD0009927729FB00DE11DF91F639FB00DE11DA2
:101DE000F91FBD01CF0111240895A1E21A2EAA1BEB
:101DF000BB1BFD010DC0AA1FBB1FEE1FFF1FA217BB
:101E0000B307E407F50720F0A21BB30BE40BF50BB7
:101E1000661F771F881F991F1A9469F76095709540
:101E2000809590959B01AC01BD01CF0108952F9243
:101E30003F924F925F926F927F928F929F92AF925A
:101E4000BF92CF92DF92EF92FF920F931F93CF93A7
:101E5000DF93CDB7DEB7CA1BDB0B0FB6F894DEBF3E
:101E60000FBECDBF09942A88398848885F846E8464
:101E70007D848C849B84AA84B984C884DF80EE80AE
:101E8000FD800C811B81AA81B981CE0FD11D0FB6B7
:101E9000F894DEBF0FBECDBFED010895EE0FFF1F1A
:0C1EA0000590F491E02D0994F894FFCF18
:101EAC004E0356036A037403760378037E038A0396
:101EBC0092039C03A203A803AA03B203BA03CA03A6
:101ECC0026022C02320239023F02450201010000B7
:101EDC0001000100020003000100010001000100EB
:101EEC0001000100040005000500010006000000CF
:101EFC0000070208000100010001000000000001C1
:101F0C00000100010001000100010080FF00000041
:101F1C000001000100030009000400140007000286
:101F2C0000050003000400020002007F00E803E843
:101F3C0003070004002C010A020C020E020F021708
:101F4C000219021B021D021F02210223022001267C
:101F5C00014C022D010000000101010202020001EE
:101F6C000200010200010252455441316132660007
:101F7C0002030504000000009408F50B000040006B
:101F8C001400540000000000500BF50BE60A170B70
:041F9C00F70A400BF5
:00000001FF
