:100000000C946A000C9492000C9492000C94920050
:100010000C9492000C9492000C9492000C94920018
:100020000C9492000C9492000C9492000C942A145C
:100030000C9492000C9494000C9492000C949200F6
:100040000C94DE190C9492000C94A0170C94EE17EB
:100050000C9492000C94C6020C9492000C949200A2
:100060000C9492000C94920010072F07E8071007D9
:100070002F07E8073808A208000000002400270026
:100080002A0000000000250028002B0000000000CE
:1000900023002600290004040404040404040202CA
:1000A00002020202030303030303010204081020F7
:1000B0004080010204081020010204081020000002
:1000C0000007000201000003040600000000000019
:1000D0000000551911241FBECFEFD4E0DEBFCDBF05
:1000E00011E0A0E0B1E0EAE1F8E302C005900D9272
:1000F000A63EB107D9F713E0A6EEB1E001C01D920C
:10010000A73CB107E1F710E0C4EDD0E004C02297AE
:10011000FE010E94DF1BC23DD107C9F70E94AB1947
:100120000C940B1C0C9400001F920F920FB60F92B0
:1001300011248F939F938091A3029091A402019622
:100140009093A4028093A3028091A3029091A402B1
:10015000892B29F48091A5028F5F8093A5029F913E
:100160008F910F900FBE0F901F9018956091840093
:10017000709185002091A3023091A402E091A50224
:1001800080918400909185008627972797FDEECF78
:100190008091A3029091A4022817390739F7809122
:1001A000A502E81719F740E050E0FFE0220F331FE7
:1001B000441F551FFA95D1F78E2F90E0A0E0B0E0D4
:1001C000BB278695B795AA2799278827282B392BEF
:1001D0004A2B5B2B76956795CB01A0E0B0E0282BEE
:1001E000392B4A2B5B2BB901CA010895AF92BF92FC
:1001F000CF92DF92EF92FF920F931F9328EE33E09E
:1002000040E050E00E944A1B5B016C010E94B60076
:100210007B018C010E94B6006E197F09800B910B47
:100220006A157B058C059D05A8F31F910F91FF9022
:10023000EF90DF90CF90BF90AF900895882321F08A
:10024000813021F42D9A08952D98089585B190E27A
:10025000892785B90895EF92FF920F931F937B0131
:100260008C0180910A0390910B03A0910C03B09133
:100270000D038E199F09A00BB10B181619061A064B
:100280001B060CF450C080910E03882321F5E091E9
:100290000F03EF5FE370E0930F03FF27E7FDF09597
:1002A000EA55FD4F8081992787FD9095880F991F0A
:1002B00080930E0380E492E4AFE0B0E0E80EF91E14
:1002C0000A1F1B1FE0920A03F0920B0300930C031A
:1002D00010930D0328C0815080930E0381700E94FB
:1002E0001E01E0910F03FF27E7FDF095EE0FFF1FC2
:1002F000E655FD4F80819181AA2797FDA095BA2FE1
:100300002AE0880F991FAA1FBB1F2A95D1F78E0DCF
:100310009F1DA01FB11F80930A0390930B03A0930E
:100320000C03B0930D031F910F91FF90EF90089570
:100330009A01AB01882311F0459A449A1092B900B2
:1003400060E074E284EF90E00E94691B205130402D
:100350004040504056954795379527952093B800D3
:1003600008952FEF30E011C02115310561F410928E
:10037000BC008091B2029091B30201969093B302B7
:100380008093B2020895215030408091BC0087FFD5
:10039000EBCF0895FF920F931F93F82E0CEB10E014
:1003A00084EAF80180830E94B101F092BB0084E8E6
:1003B000F80180830E94B1011F910F91FF90089571
:1003C0008093BB0084E88093BC000E94B101089533
:1003D0001F93182F882311F484E801C084EC8093C4
:1003E000BC000E94B1019091BB00112319F484E973
:1003F0008093BC00892F1F9108950F931F93162F90
:10040000042F880F0E94CA01812F0E94E001802FD3
:100410000E94E00184E98093BC001F910F91089530
:100420000F931F93182F062F880F0E94CA01802F49
:100430000E94E001110F812F81600E94CA0180E0BB
:100440000E94E8011F910F9108951F93CF93DF93AE
:10045000EB01142F880F81600E94CA0108C011505F
:1004600080E011160CF481E00E94E80189931123C9
:10047000B1F7DF91CF911F910895DF92EF92FF9234
:100480000F931F93E82EF62E8A01D22E880F0E941A
:10049000CA018F2D0E94E0018E2DB8014D2D0E94C2
:1004A00025021F910F91FF90EF90DF90089588E64D
:1004B0006EE340E80E94FD0162E370E080E090E0BE
:1004C0000E94F60088E66EE343E00E94FD01409141
:1004D0001D014150486188E666E10E94FD0188E601
:1004E00060E00E94100290E08E77883609F491E077
:1004F000892F0895A6E0B0E0E0E8F2E00C94B01B8C
:100500008C017B016A0188E66DE1AE014F5F5F4FB0
:1005100026E00E943D02998180E02A8130E0822B12
:10052000932BF801918380839B8180E02C8130E0C4
:10053000822B932BF701918380839D8180E02E8114
:1005400030E0822B932BF601918380832696E8E09E
:100550000C94CC1B282F17C0E22FF0E0EE0FFF1FEA
:10056000E25CFE4F80819181892B61F080917C005B
:10057000887F822B80937C0080917A0080648093B6
:100580007A0008952F5F263038F308951F920F9256
:100590000FB60F9211242F933F934F935F936F9356
:1005A0007F938F939F93AF93BF93EF93FF9380912C
:1005B0007C008770E82FF0E0EE0FFF1FE25CFE4F3B
:1005C0000190F081E02D9091790090838F5F0E94DF
:1005D000AA02FF91EF91BF91AF919F918F917F916F
:1005E0006F915F914F913F912F910F900FBE0F90A0
:1005F0001F901895EEE3F1E040E050E061E070E01C
:1006000080819181892B79F087B1DB01042E02C0B2
:10061000AA0FBB1F0A94E2F79D012095822387B998
:1006200088B1282328B94F5F5F4F32964630510575
:1006300039F780E680937C0010927B008FE88093EE
:100640007A0080E00E94AA020895CF93DF93EB0125
:10065000DA01FC0140E050E061E070E080819181CE
:10066000892B79F03881CB01042E02C0880F991FA5
:100670000A94E2F7282F2095232328832C91822B9C
:100680008C934F5F5F4F32964830510539F7DF91B9
:10069000CF9108958AE491E064E270E045E250E091
:1006A0000E9425038AE591E067E270E048E250E0AD
:1006B0000E9425038AE691E06AE270E04BE250E096
:1006C0000E942503089560E070E040E050E0A1E062
:1006D000B0E0362FFA01E65BFE4F0190F081E02D8D
:1006E000309751F023B1CD01062E02C0880F991F1B
:1006F0000A94E2F728232083FA01E65AFE4F01907C
:10070000F081E02D309751F026B1CD01032E02C0CB
:10071000880F991F0A94E2F728232083FA01E659EB
:10072000FE4F0190F081E02D309749F029B1CD01C5
:1007300002C0880F991F3A95E2F7282320836F5F44
:100740007F4F4E5F5F4F4031510519F60895A6E087
:10075000B0E0EDEAF3E00C94A61B7A8369831C01F8
:100760002B019E838D839B012A5F3F4F3C832B830C
:10077000ED81FE810681178180819181081B190B13
:100780003801882477FC8094982CF1018289938920
:10079000A489B589860D971DA81DB91D268D378D95
:1007A00040A151A1AA24BB246501A21AB30AC40A1C
:1007B000D50A8A159B05AC05BD054CF05C016D01A1
:1007C000281739074A075B0714F459016A01F10138
:1007D000A28AB38AC48AD58AED81FE8184859585F3
:1007E000AA2797FDA095BA2FA4019301281B390BC6
:1007F0004A0B5B0BCA01B90115870487F2012485F6
:100800003585442737FD4095542F0E944A1B7B01B4
:100810008C0132E015950795F794E7943A95D1F756
:10082000F20120813181442737FD4095542FC401C6
:10083000B3010E944A1B23E09595879577956795AC
:100840002A95D1F7E60EF71E081F191FF20126811F
:100850003781442737FD4095542FC601B5010E94CA
:100860004A1BB6E09595879577956795BA95D1F728
:10087000E60EF71E081F191FE981FA81028804C0DD
:1008800015950795F794E7940A94D2F7ED81FE81C8
:10089000F3A6E2A63296FE83ED8324E030E0220E3A
:1008A000331E42E050E0440E551E8B819C81481659
:1008B000590609F05DCF2696E2E10C94C21BA6E032
:1008C000B0E0E5E6F4E00C94B61BCE010196BE0163
:1008D0006D5F7F4FAE014B5F5F4F0E947A026B816D
:1008E0007C81709327026093260249815A8150933C
:1008F0002902409328022D813E8130932B022093C0
:100900002A02809156029091570283309105C9F0D6
:10091000843091051CF40297D1F506C0843091050E
:10092000E9F00597A1F527C030932902209328020A
:1009300088279927841B950B90932B0280932A027A
:1009400026C088279927821B930B909329028093B6
:10095000280250932B0240932A0219C05093270279
:100960004093260288279927861B970B909329028C
:10097000809328020CC088279927841B950B90939D
:1009800027028093260270932902609328022696FC
:10099000E2E00C94D21B81E040E85AE166E070E0AE
:1009A0000E9498010E945702882349F485E08093B1
:1009B000A80288EC90E09093AF028093AE02089575
:1009C0000F931F93CF93DF93FC011082772767FD6E
:1009D000709572836183DC01EC0140E050E00FEF21
:1009E0001FE760E070E80CC012961C930E931197FD
:1009F0001A967C936E9319971F86188A198A1A8AF9
:100A00009A014F5F5F4F1296249681819281281739
:100A1000390754F314A613A6DF91CF911F910F91BC
:100A20000895A0E0B0E0E7E1F5E00C94AE1B7C0196
:100A30008C01EB01F70160E070E02BC02181328175
:100A400088819981281739070CF4C9019283818321
:100A50002185328588819981821793070CF4C90119
:100A60009287818729913991442737FD4095542FEA
:100A7000D8011F96AD90BD90CD90DC905297A20EFC
:100A8000B31EC41ED51E1F96AD92BD92CD92DC92B0
:100A900052979B016F5F7F4F32960C5F1F4FD701BC
:100AA00011968D919C911297281739073CF2CDB77A
:100AB000DEB7EAE00C94CA1BA0E0B0E0E2E6F5E0A5
:100AC0000C94B01BEC017C0143E2C42ED12CC80E67
:100AD000D91E00E010E011C02BA53CA5442737FD2E
:100AE0004095542FF70167857089818992890E940A
:100AF0008B1BF601219331936F0198010F5F1F4FFC
:100B000084E090E0E80EF91E89819A812817390760
:100B10001CF3CDB7DEB7E8E00C94CC1BCF93DF938A
:100B2000FC01EB0161817281A0E040E050E00DC06A
:100B30008385948523813481821B930B8C179D07B9
:100B40000CF4AF5F4F5F5F4F32964617570784F341
:100B500020E08A2F992787FD90958617970709F43B
:100B600021E0822FDF91CF910895AAE0B0E0EBEB76
:100B7000F5E00C94B41B8C018091E6019091E701A3
:100B80009A8389838091EA019091EB019C838B8306
:100B90008091EC019091ED019E838D838091E8011D
:100BA0009091E90198878F838091F4019091F501EC
:100BB0009A878987C801BE016F5F7F4F0E94110528
:100BC000F80183A594A5019694A783A7843691057F
:100BD00081F5C80164E170E00E948E05882329F147
:100BE000C8010E945C05F80183A194A190931401AF
:100BF0008093130185A196A190931601809315010E
:100C000087A190A5909318018093170181A592A5C3
:100C100090931A018093190183A594A590931C01C8
:100C200080931B0181E0808304C0C80164E00E94BE
:100C3000E0042A96E4E00C94D01BA6E0B0E0E3E2E6
:100C4000F6E00C94B41B8C0180912602909127024F
:100C50009A83898380912802909129029C838B83B7
:100C600080912A0290912B029E838D83C801BE0140
:100C70006F5F7F4F0E941105F80183A594A501962F
:100C800094A783A78C52914021F5C80162E370E0DC
:100C90000E948E058823C9F0C8010E945C05F801F6
:100CA00083A194A1909321028093200285A196A113
:100CB000909323028093220287A190A5909325020E
:100CC0008093240281E0808304C0C80163E00E9415
:100CD000E0042696E4E00C94D01B209103013091AF
:100CE000040180910301909104012817390721F430
:100CF0003093E7012093E601209105013091060130
:100D000080910501909106012817390721F430934D
:100D1000EB012093EA0120910701309108018091B5
:100D20000701909108012817390721F43093ED014C
:100D30002093EC0120910B0130910C0180910B016B
:100D400090910C012817390721F43093EF0120937B
:100D5000EE0120910D0130910E0180910D019091D5
:100D60000E012817390721F43093F1012093F00187
:100D700020910F013091100180910F01909110018D
:100D80002817390721F43093F3012093F2012091C1
:100D900011013091120180911101909112012817D7
:100DA000390721F43093F5012093F40180918B02EF
:100DB00090918C0205974CF48091E6019091E701A7
:100DC0009093E9018093E801089520910901309101
:100DD0000A018091090190910A012817390721F42D
:100DE0003093E9012093E8010895A0E0B0E0EBEF33
:100DF000F6E00C94AC1BEC0180908B0290908C027E
:100E0000F4013297E830F10508F0D2C1EC5CFF4FF5
:100E1000688179814091E6015091E7010C94DD1BD6
:100E2000640F751F70931302609312028881998179
:100E30002091E8013091E901820F931F90931902EC
:100E4000809318028A819B812091EA013091EB0105
:100E5000820F931F90931502809314029DC17A0113
:100E6000E60EF71EF0921302E0921202A090E80143
:100E7000B090E901088119810A0D1B1D1093190218
:100E800000931802A0911301B09114016A01CA1ACB
:100E9000DB0A488159814C0D5D1DE0911501F091EF
:100EA00016018091EA019091EB018E1B9F0B2A8124
:100EB0003B81820F931FBA017595679523E0559585
:100EC00047952A95E1F7640F751F9C013595279585
:100ED00043E0959587954A95E1F7280F391FE60F6E
:100EE000F71FE20FF31FF0931502E09314026A0F4D
:100EF0007B1F621B730B7093170260931602209185
:100F0000EC013091ED0186E08816910409F059C09A
:100F1000E4E0223E3E0774F029573540273C310576
:100F200018F082E090E002C081E090E0029709F0C2
:100F30003FC11CC0C6018A199B092091190130913B
:100F40001A01820F931F9595879584529A4F90931B
:100F50001302809312028C5D95402CED35E0281B26
:100F6000390B309319022093180222C120910201FB
:100F70006A817B81E091F801F091F9016E0F7F1F8A
:100F8000882777FD8095982F30E0205830404427FF
:100F900037FD4095542F0E944A1B47E09595879551
:100FA000779567954A95D1F7E60EF71EF0921302F2
:100FB000E0921202061B170B1093190200931802FD
:100FC000F7C070931302609312028C819D81EAC076
:100FD000640F751F709313026093120288819981C8
:100FE0002091E8013091E901820F931F909319023B
:100FF00080931802A0911501B09116014091EA0169
:101000005091EB014A1B5B0B8A819B81480F591F52
:10101000E0911701F09118018091EC019091ED01A0
:101020008E1B9F0B2C813D81820F931FBC017595F8
:10103000679523E0959587952A95E1F7680F791FC5
:101040009A013595279583E0559547958A95E1F75F
:10105000240F351FCB01820F931F8A0F9B1F909384
:101060001502809314022E0F3F1F261B370B65C0FD
:1010700020911301309114010A811B818091F801A4
:101080009091F901080F191FAC81BD818091FA017F
:101090009091FB01A80FB91F8091090190910A015D
:1010A0008C54944097FF03C0E0E0F0E016C08091BC
:1010B000090190910A018C54944095958795855F1C
:1010C00091401CF0E4EFF1E008C0E0910901F091DB
:1010D0000A01EC54F440F595E79544525A4F421BEF
:1010E000530B460F571FB801640F751F9F012A1B32
:1010F0003B0B37FF02C020E030E0CB01821B930B9B
:101100009093130280931202260F371F309315021B
:10111000209314029A01201B310BAF014A0F5B1F71
:1011200057FF02C040E050E0CA01820F931F909326
:10113000190280931802241B350B30931702209359
:10114000160236C0640F751F70931302609312026B
:10115000888199812091E8013091E901820F931FE4
:1011600090931902809318028A819B812091EA0151
:101170003091EB01820F931F90931502809314021C
:101180008091F4019091F5012A813B81821B930BA0
:1011900090931D0280931C028C819D812091EC0113
:1011A0003091ED01820F931F9093170280931602E6
:1011B0008091F2019091F30190931B0280931A02A7
:1011C00089E08816910441F08091F4019091F50135
:1011D00090931D0280931C028091F0019091F10187
:1011E00090931F0280931E02CDB7DEB7ECE00C9403
:1011F000C81BAAE0B0E0EFEFF8E00C94B41B8091BC
:10120000490290914A020397A9F5FE0131968AE0BE
:10121000DF011D928A95E9F7CF010E94F506ABEC3C
:10122000B1E002E312E04CE352E06D917C91119742
:10123000F80120813181FB018081918128173907D4
:101240000CF4C901F80191838083FA012081318176
:10125000FB0180819181821793070CF4C901FA0187
:1012600081939193AF0112960E5F1F4FF1E0A53D60
:10127000BF07D9F68CE292E00E94F50680918B02BE
:1012800090918C02099711F074E001C075E060E064
:1012900080E090E0FC01E553FE4FA081B1814D91CB
:1012A0005C911197FC01EE5CFD4F0190F081E02D07
:1012B0004E175F0754F0FC01E45CFD4F2081318143
:1012C000FA01241735070CF4F901ED93FC936F5FD5
:1012D00002966717FCF22A96E4E00C94D01B8091EA
:1012E000B602882309F050C081E08093B6028FEFE8
:1012F0008093B5022FB7F894809112029091130257
:10130000909305028093040280911402909115023B
:101310009093070280930602809116029091170223
:10132000909309028093080280911802909119020B
:1013300090930B0280930A0280911A0290911B02F3
:1013400090930D0280930C0280911C0290911D02DB
:1013500090930F0280930E0280911E0290911F02C3
:10136000909311028093100280916F0082608093AD
:101370006F00B19A809184009091850004969093BB
:101380008900809388002FBF0895FC0181E081834C
:10139000808385E0828316821582108617820895E5
:1013A0009C0144E0813B940714F490E00DC084510B
:1013B00095408159914010F491E006C02850374083
:1013C00014F49FEF06C092E0662319F082E0891BB7
:1013D000982F892F0895CF93DF93EC018A818B8317
:1013E0008091E6019091E7016D810E94D00987FF0D
:1013F00088838091EA019091EB016E810E94D0096F
:1014000087FF89838F81882351F48881882329F07D
:10141000823029F481E08D83188281E08F83888572
:10142000882361F48981882319F0823039F404C05B
:1014300081E08E8382E0898381E0888738813F5F05
:10144000898123E08202C0011124380F3A839B81F5
:1014500080E0391729F081E09295907F932B9C834F
:10146000DF91CF910895282F30E03F6F220F331F77
:10147000EFB7F8948091840090918500AC01405CB6
:101480005F4FBC016D5D7A4F809184009091850023
:10149000DA01A81BB90B1A161B06B4F320FF02C011
:1014A000579801C0579A4617570729F03695279540
:1014B00045575F4FE9CFEFBF0895EFB7F8944F9BC3
:1014C00049C016C020918400309185002058314CCD
:1014D00004C08FEF9FEF4F9B0BC0809184009091D1
:1014E0008500B901681B790B1616170614F4F1CFA5
:1014F000AC0141505040CA0101961816190614F368
:101500004F5F5F4F19F420E030E826C080918400DF
:1015100090918500AC0140565F4F20E030E0BC0167
:1015200063597B4F8091840090918500DA01A81B5C
:10153000B90B1A161B06B4F389B13695279590E0BE
:1015400080789070282B392B4617570729F045577C
:101550005F4FE8CF20E030E4EFBFC9010895EF927C
:10156000FF920F931F93CF93DF93E82E192F062F2F
:10157000F62E84E20E94330A802F0E94330A2E2D19
:10158000312FC901EC0104C08991F80E0E94330A81
:101590009E012E192017C4F38F2D81950E94330AC6
:1015A000CDB7DEB7E6E00C94CE1B8F929F92AF9240
:1015B000BF92CF92DF92FF920F931F93CF93DF934F
:1015C0004C015A01C0E0D0E0C62EDD24C7FCD09407
:1015D00002C0812F182FC5010E945D0A9C018070F6
:1015E000907C892B69F5822FC130D10559F0C2302A
:1015F000D105A1F0209779F7243259F7812FC1E066
:10160000D0E0E8CF90E0C816D90614F4812F15C0B9
:10161000822FF22EC2E0D0E000E0DCCFF20E812F6C
:101620008150112331F0F401E00FF11D20830F5F91
:10163000D1CFFF2011F481E004C0C0E0D0E0CACFD8
:1016400080E0DF91CF911F910F91FF90DF90CF90BD
:10165000BF90AF909F908F900895A0E0B0E0E3E33B
:10166000FBE00C94B01B00E0CCEDD5E02EC1109255
:101670000903209305033093060340930703509317
:10168000080380910903882319F41F3009F058C119
:10169000E82FFF27E7FDF095E451FD4F10838F5FA2
:1016A0008093090389310CF410C1809104038823CD
:1016B00011F010920903E0918D02F0918E02409199
:1016C000EE0250E0942F88272091ED0230E0822B2B
:1016D000932B97709695879583519C4F9183808328
:1016E000E0918F02F09190022091EF0230E0C90169
:1016F00065E0880F991F6A95E1F703E056954795D5
:101700000A95E1F7842B952B9770969587958351D1
:101710009C4F91838083E0919102F09192024091DD
:10172000F10250E08091F00290E0880F991F880F3D
:10173000991F76E0369527957A95E1F7822B932BC2
:101740009A01322F2227330F330F822B932B97705E
:101750009695879583519C4F91838083E091930266
:10176000F09194022091F20230E0C9019695982FF1
:1017700088279795879556954795842B952B977035
:101780009695879583519C4F91838083E091950234
:10179000F09196024091F30250E0CA0174E0880F84
:1017A000991F7A95E1F764E0369527956A95E1F7F8
:1017B000822B932B97709695879583519C4F91839D
:1017C0008083E0919702F09198026091F50270E0B9
:1017D0008091F40290E0880F991F440F452F441F19
:1017E000550B5195842B952B9B01322F2227330FBC
:1017F000822B932B97709695879583519C4F91835D
:101800008083E0919902F0919A022091F60230E0F3
:10181000C90106E0880F991F0A95E1F7769567954B
:1018200076956795862B972B97709695879583511C
:101830009C4F91838083E0919B02F0919C02809168
:10184000F70290E073E0880F991F7A95E1F765E061
:10185000369527956A95E1F7822B932B9695879578
:1018600083519C4F91838083ADE8B2E0ED91FC9170
:101870001197808191818C5D95408CF4208131811C
:1018800080819181AE01481B590BCA0195958795BE
:1018900095958795281B390B318320830EC02081B5
:1018A0003181808191818C5D954095958795959545
:1018B0008795820F931F91838083129652E0AD39F2
:1018C000B507A1F61092090301E0E0918201F091C1
:1018D0008301A081B18114962D913C911597CF0180
:1018E000F9010995892B61F180910903893144F54A
:1018F000A0918201B0918301ED91FC911197068036
:10190000F781E02DCD010995182F0E94B6009B01AB
:10191000AC018091050390910603A0910703B0915B
:10192000080369017A01C81AD90AEA0AFB0AD70131
:10193000C60189589341A040B0400CF098CE99CE92
:10194000802FCDB7DEB7E8E00C94CC1B80918201EC
:101950009091830140EA56E861E070E02EE20E9437
:10196000291808951F93CF93DF93EC01142F45E4BA
:1019700050E00E94E31B8881811711F08FEF12C0A5
:1019800090E020E030E0FE01E20FF31F8081980F2D
:101990002F5F3F4F25343105B1F7992311F480E0D3
:1019A00001C08EEFDF91CF911F910895DC0190E08F
:1019B00020E030E0FD01E20FF31F8081980F2F5FE0
:1019C0003F4F24343105B1F7AC5BBF4F91959C93E9
:1019D000A454B040CD0145E450E00E94F31B0895AB
:1019E000A1E1B0E0E6EFFCE00C94A61B1C0181E055
:1019F000898387E492E09B838A8302969D838C830C
:101A00000D969F838E8302969987888702969B877F
:101A10008A8702969D878C8702969F878E87CE0144
:101A20000196998B888BD0904702DD0CCC246624DC
:101A3000EE24FF248701F0E88F2EFAE19F2EF6E0D6
:101A4000AF2EB12CE2E07E2E2C010E94B6009B014D
:101A5000AC01DC01CB018E199F09A00BB10B8816DC
:101A60009906AA06BB060CF051C0171424F5872D61
:101A7000992787FD9095FC01E170F07080FD03C00F
:101A800088E097E002C08CED95E09093150280937A
:101A900014028CED95E09093130280931202EE0FE6
:101AA000FF1FEE0FFF1FED54FE4F80809180A2803C
:101AB000B3807A9429C0DD2039F11D1424F46CE23E
:101AC00071E0A1E003C064ED7EEFAFEF8D2D9927AB
:101AD00087FD9095FC01E170F07080FF03C08CEDF4
:101AE00095E003C0CB0184529A4F909313028093E8
:101AF0001202EE0FFF1FEE0FFF1FED54FE4F80800E
:101B00009180A280B380DA1A79018A010E942D0B9C
:101B1000882319F091E09093B4028091B402882355
:101B200029F01092B4020E946D0602C0662041F0B6
:101B30008091B602882309F08CC00E946F09662448
:101B4000772009F082CFC1010E94EB09882309F4B4
:101B50007CCFF1018481843561F0853520F48235B4
:101B600009F063C013C0863559F0883509F05DC0AF
:101B70002AC0F1E0FC1514F0CC2470C0CA946EC0E9
:101B800085E08C150CF468C0C39468C0AC2DBB27ED
:101B9000A7FDB095FD01EE0FFF1FE40DF51D0180BF
:101BA000F281E02D8081282F332727FD30952F5F8C
:101BB0003F4FA554BE4F8C91992787FD9095821772
:101BC0009307F4F41CC0AC2DBB27A7FDB095FD0115
:101BD000EE0FFF1FE40DF51D0180F281E02D8081E5
:101BE000282F332727FD309521503040AD53BE4F6D
:101BF0008C91992787FD9095281739070CF49C0143
:101C0000208320E08C2D992787FD9095FC01EE0F15
:101C1000FF1FE40DF51D0180F281E02DD080DD0C69
:101C2000222319F00196782E770C8981823009F0F1
:101C30000CCF86E492E060E070E00E94D60C86E46F
:101C400092E060E071E00E94D60C6196E2E10C94B3
:101C5000C21B6624639474CFB7E0CB2E21E0D2CFB1
:101C6000A1E9B0E0E6E3FEE00C94A61B0E94B600FA
:101C70001B012C01DE011196E5E9F1E086E00190FF
:101C80000D928150E1F78E010D5E1F4FC8010E9439
:101C9000C5094CE1E42EF12CEC0EFD1EC70164E0F9
:101CA0000E94E00439E4C32ED12CCC0EDD1EC60107
:101CB00063E00E94E0042092E8023092E902409240
:101CC000EA025092EB02C657DF4F288239824A82DD
:101CD0005B82CA58D040CA57DF4F288239824A8275
:101CE0005B82C658D040CE57DF4F288239824A8265
:101CF0005B82C258D04042013101C258DF4F288276
:101D000039824A825B82CE57D040EB962CAE3DAEF4
:101D10004EAE5FAEEB97EE961FAEEE97ED961FAE12
:101D2000ED9721E0EC962FAFEC97C257DF4FE8829A
:101D3000CE58D040C157DF4FF882CF58D040C0575F
:101D4000DF4F0883C059D040CF56DF4F1883C159A9
:101D5000D0400E94B6005B016C010E942B010E94E2
:101D60002D0B882319F031E03093B4028091B40236
:101D70008823A1F4D601C501C657DF4F4881598198
:101D80006A817B81CA58D040841B950BA60BB70B88
:101D900081539547A040B0400CF442C01092B40269
:101DA0000E946D068C8D882369F0C657DF4FA8828C
:101DB000B982CA82DB82CA58D04061E0EE966FAF2A
:101DC000EE972EC0C257DF4F8881CE58D040C15702
:101DD000DF4F9881CF58D0400E94B5052A968FAD2D
:101DE0002A97882311F492E001C090E020E08C8DC6
:101DF000882309F421E0920F9093A70288EC90E0E9
:101E00009093AD028093AC02C657DF4FA882B9828F
:101E1000CA82DB82CA58D04091E0EE969FAFEE971F
:101E20008091B602882379F5EE96AFADEE97AA239E
:101E300051F1A6019501CA57DF4F688179818A81E6
:101E40009B81C658D040261B370B480B590B8091FD
:101E50009F029091A002A091A102B091A2028217CC
:101E60009307A407B5077CF40E94F9080E946F0944
:101E7000CA57DF4FA882B982CA82DB82C658D040D7
:101E8000EE961FAEEE97D601C501CE57DF4F2881E3
:101E900039814A815B81C258D040821B930BA40BCD
:101EA000B50B81519742A040B04054F10E945F04AD
:101EB0002A968FAD2A978823D9F4CE01875B9F4F4E
:101EC0000E941D062A968FAD2A97882311F492E06E
:101ED00001C090E020E08C8D882309F421E0920F6E
:101EE0009093A70248EC50E05093AD024093AC02AF
:101EF000CE57DF4FA882B982CA82DB82C258D04057
:101F0000EC965FADEC97552309F456C0C057DF4FF0
:101F10008881C059D040CF56DF4F9881C159D040F9
:101F20000E94EB09882309F447C0ED966FADED9749
:101F3000E62FFF27E7FDF095E457FE4F9F8980814C
:101F4000981721F0ED961FAEED9707C0ED967FAD87
:101F5000ED977F5FED967FAFED97ED968FADED97A7
:101F6000E82FFF27E7FDF095E457FE4F80818F3F74
:101F700081F4CE0143960E94F00C2EE088E190E0BF
:101F80000FB6F894A895809360000FBE2093600070
:101F9000FFCFD601C50182199309A409B509815C57
:101FA000914EA44EB04024F0EC961FAEEC9704C0C6
:101FB000F1E0EC96FFAFEC978C8D882329F02A9600
:101FC0008FAD2A978823C9F58091E8019091E901A6
:101FD0002091E6013091E701820F931F20911901B2
:101FE00030911A01821B930B20911301309114013F
:101FF000821B930B959587959093F7018093F6013B
:102000008091EA019091EB01209115013091160128
:10201000821B930B9093F9018093F8018091EC015E
:102020009091ED012091170130911801821B930BC3
:102030009093FB018093FA018CCED601C5018619DD
:102040009709A809B90981519742A040B0400CF402
:1020500034C380919D0290919E028130910559F484
:102060008091EE019091EF01865F95400CF0A3C046
:1020700080E090E00DC0892B09F09DC08091EE01B9
:102080009091EF01875296400CF495C081E090E06A
:1020900090939E0280939D02892B11F084E001C0F1
:1020A00080E08093A70268EC70E07093AD026093CB
:1020B000AC021092C9021092CA021092CB02109286
:1020C000CC021092D5021092D6021092D702109232
:1020D000D8021092CD021092CE021092CF0210922E
:1020E000D0021092D9021092DA021092DB02109202
:1020F000DC021092D1021092D2021092D3021092FE
:10210000D4021092DD021092DE021092DF021092D1
:10211000E00280915E0290915F02029709F04BC04D
:10212000D601C501EB962CAD3DAD4EAD5FADEB9745
:10213000821B930BA40BB50B8152914AA740B04070
:102140001CF0E7961FAEE797E7964FADE7974F5F16
:10215000E7964FAFE797433044F18091E6019091C5
:10216000E70190931401809313018091EA0190910B
:10217000EB0190931601809315018091EC019091F1
:10218000ED0190931801809317018091E8019091DF
:10219000E90190931A01809319018091F4019091C3
:1021A000F50190931C0180931B01EB96ACAEBDAE84
:1021B000CEAEDFAEEB974091E8015091E9018091FE
:1021C000E6019091E701480F591F80911901909104
:1021D0001A01481B590B8091130190911401481B5F
:1021E000590B559547955093F7014093F601E091AF
:1021F000EA01F091EB018091150190911601E81B25
:10220000F90BF093F901E093F801A091EC01B09182
:10221000ED018091170190911801A81BB90BB093A3
:10222000FB01A093FA018091F4019091F5012091B6
:102230001B0130911C01821B930B9093FD01809335
:10224000FC01809158028150282F332727FD3095BB
:10225000CA0157FF04C088279927841B950B022EBB
:1022600002C0880F991F0A94E2F761E0813996074E
:1022700014F080E991E060E971E0681B790B7887E0
:102280006F83CF01F7FF04C0882799278E1B9F0B10
:10229000022E02C0880F991F0A94E2F771E081397B
:1022A000970714F080E991E060E971E0681B790B11
:1022B0007A876987CD01B7FF04C0882799278A1BD1
:1022C0009B0BBC0102C0660F771F2A95E2F781E0E5
:1022D0006139780714F060E971E010E9612E11E0CE
:1022E000712E661A770A7C866B868091EE0190913A
:1022F000EF0125E0833C92074CF403EC15E0081B4A
:10230000190B31E00139130794F00BC066E08832F5
:1023100096071CF400E010E00AC077E086389707C3
:102320001CF000E911E003C08C01055F15408090AE
:102330009D0290909E0281E08816910459F08114CC
:10234000910409F050C080915C0290915D02029767
:1023500009F049C080915A029A01082E02C0220F4A
:10236000331F0A94E2F73E872D87082E02C0EE0F36
:10237000FF1F0A94E2F7F88BEF87AD0102C0440F0C
:10238000551F8A95E2F75A8B498B89819A8197FD6F
:1023900005C088279927821B930B01C0C901909320
:1023A000B8028093B7028B819C812F85388997FD75
:1023B00005C088279927821B930B01C0C901909300
:1023C000BA028093B9028D819E8197FD03C050951A
:1023D00041955F4F5093BC024093BB0291E0891638
:1023E000910471F055C01092B8021092B702109289
:1023F000BA021092B9021092BC021092BB0248C0FD
:102400006F817885882777FD8095982F24EF3FEBA3
:1024100040E050E00E944A1BF9E09595879577953A
:102420006795FA95D1F76093D5027093D6028093A1
:10243000D7029093D80269857A85882777FD8095A1
:10244000982F0E944A1BE9E09595879577956795A7
:10245000EA95D1F76093D9027093DA028093DB0298
:102460009093DC02B301882777FD8095982F0E9416
:102470004A1B39E095958795779567953A95D1F7F9
:102480006093DD027093DE028093DF029093E0029E
:102490002091260230912702809120029091210202
:1024A000281B390BA0E220303A0714F02FEF3FE150
:1024B000C901B0EE20303B0714F480E090EE909319
:1024C000BE028093BD0220912802309129028091A2
:1024D000220290912302281B390BE0E220303E07B4
:1024E00014F02FEF3FE1C901F0EE20303F0714F464
:1024F00080E090EE9093C0028093BF0220912A0268
:1025000030912B028091240290912502281B390BD7
:1025100040E22030340714F02FEF3FE1C90150EEC4
:102520002030350714F480E090EE9093C20280933F
:10253000C102892819F066E772E002C063E672E022
:1025400087EB92E00E94A703EE24FF243801882441
:1025500077FC8094982C8701045D1D4FE1E0F0E04A
:10256000EC0FFD1FEE0DFF1D60817181882777FD47
:102570008095982FF701E954FD4F22A533A54427F4
:1025800037FD4095542F0E944A1B27E0959587956B
:10259000779567952A95D1F7E7E0F0E0EC0FFD1FFE
:1025A000EE0DFF1D20813181442737FD4095542FCA
:1025B0000E944A1B9B01AC01B9E0559547953795A0
:1025C0002795BA95D1F7C401B3010E944A1BA9E02F
:1025D0009595879577956795AA95D1F7D8016D93CD
:1025E0007C93E2E0F0E0EE0EFF1EF6E0EF16F10461
:1025F00009F0B1CF2091E70212160CF05CC0809177
:10260000E8029091E902A091EA02B091EB02B601D2
:10261000A501481B590B6A0B7B0BDB01CA018154D6
:102620009D40A340B0405CF021502093E702A0926F
:10263000E802B092E902C092EA02D092EB028091E5
:10264000E702992787FD909540912C0250912D0229
:10265000BC016170707080FF03C026E930E002C0E9
:102660002AE63FEF240F351F30932D0220932C02D2
:1026700040912E0250912F026115710519F026E943
:1026800030E002C02AE63FEF240F351F30932F02BF
:1026900020932E022091300230913102672B19F4E1
:1026A0008AE69FEF02C086E990E0820F931F909325
:1026B00031028093300235014601D601C501C2586E
:1026C000DF4F288139814A815B81CE57D040821B00
:1026D000930BA40BB50B8C59914AA740B0400CF456
:1026E00038CB80916002803839F480910001282F26
:1026F00030E02058304004C0282F332727FD309584
:1027000080916102803839F480910101482F50E0B6
:102710004058504004C0482F552747FD50958091A0
:102720006202803831F48091020190E0805890403C
:1027300003C0992787FD90953A8329835C834B8357
:102740009E838D83295F3F4F2F30310510F41A820D
:1027500019828B819C8107960F9710F41C821B8233
:102760008D819E8107960F9710F41E821D8280E056
:102770000E94AA02C258DF4FA882B982CA82DB82B5
:10278000CE57D040E6CAA6E6B0E0E9ECF3E10C94FF
:10279000B01B1092800081E08093810057985F9871
:1027A00048E552E000E06E010894C11CD11C62E0D3
:1027B000E62EF12CEC0EFD1EC60166E60E94D50A3F
:1027C000882309F441C089818230A9F0833018F44C
:1027D000813029F406C08330B1F08430E9F010E094
:1027E00026C0C70160E870E048E050E00E94E31BAB
:1027F00010E069E01DC0C70160E870E048E050E00B
:102800000E94F31B13C0C70160E070E04CE00E941F
:10281000B20C10E066E40CC0C70160E070E00E94FA
:10282000D60CC70160E071E00E94D60C11E061E0B7
:10283000898180688983C6010E94AF0A01E044EF64
:1028400051E0112309F4B8CF802FCA59DF4FE8E0D7
:102850000C94CC1B1F920F920FB60F9211240F9362
:102860001F932F933F934F935F936F937F938F9318
:102870009F93AF93BF93EF93FF938091B50287FD32
:1028800042C0E091B502FF27E7FDF095E658FE4F04
:10289000808160E00E94171B36C08091B5028F5F77
:1028A0008093B502E091B502FF27E7FDF095E65869
:1028B000FE4F808187FD27C0009184001091850024
:1028C000E091B502FF27E7FDF095E658FE4F8081C5
:1028D00061E00E94171BE091B502FF27E7FDF0952C
:1028E000EE0FFF1FE25DFE4F0190F081E02D808131
:1028F00091810297880F991F800F911F90938900F3
:10290000809388000BC08091B502873034F210921A
:10291000B60280916F008D7F80936F00FF91EF91E1
:10292000BF91AF919F918F917F916F915F914F91E7
:102930003F912F911F910F910F900FBE0F901F90FD
:1029400018950F931F93CF93DF9300E010E0E801F9
:10295000C658DE4F888187FD08C0888160E00E94EC
:10296000171B888161E00E94AB1A0F5F1F4F083070
:10297000110569F7DF91CF911F910F910895A0E0A4
:10298000B0E0E5ECF4E10C94B01B182F062F862F75
:1029900061E00E94AB1A812F60E00E94AB1A812F88
:1029A00061E00E94171B6AE070E080E090E00E9406
:1029B000F600C0E0D0E0812F992787FD9095FC01BB
:1029C000EA56FF4FE491F0E0EE0FFF1FE457FF4F90
:1029D000C590D49086559F4FFC018491E82EFF242A
:1029E000CE018170182F802F612F0E94171BF601D6
:1029F000808120E030E090E08E219F21892B11F032
:102A000021E030E0812F992787FD9095281739071D
:102A100011F010E005C02196C830D10509F711E08A
:102A2000802F60E00E94AB1A812FCDB7DEB7E8E0BF
:102A30000C94CC1BA4E9B0E0E0E2F5E10C94B01BEF
:102A4000259A8091C3039091C403009711F09C01D3
:102A500002C027EC33E0CE010196821B930B803835
:102A600091054CF484E18093A8028EE190E090936C
:102A7000AF028093AE0284B7877F84BF88E10FB630
:102A8000F89480936000109260000FBE21E030E067
:102A9000309348022093470280E88093600280933D
:102AA00061028093620230934A022093490287E0D8
:102AB0008093890284E180934B02EBE9F1E02CE4FE
:102AC000C22E22E0D22ED60181918D9321E0E33AED
:102AD000F207D1F742E050E0509355024093540280
:102AE00021E030E030935702209356023093590290
:102AF0002093580283E090E090935B0280935A0207
:102B000030935D0220935C0250935F0240935E021B
:102B100084EF91E0909364028093630210926A02C2
:102B2000109269029093700280936F0290936602F4
:102B30008093650210926C0210926B029093720265
:102B400080937102909368028093670210926E02E4
:102B500010926D02909374028093730228E0209388
:102B60007502909377028093760290937D02809312
:102B70007C029093830280938202909379028093E7
:102B8000780290937F0280937E02909385028093D7
:102B9000840290937B0280937A02909381028093C7
:102BA000800290938702809386022093880285E0BA
:102BB00064E00E94BF14882311F400E001C007E024
:102BC000CE01039660E870E048E050E00E94E31B0D
:102BD000002361F48B81823049F48C819D81AE8128
:102BE000BF818E549146AC4BB04071F082E08B8334
:102BF0008EE491E6ACEBB0E08C839D83AE83BF8323
:102C0000188619861A860860CE010B9660E070E07F
:102C10004CE00E94B20C87FD0260CE01805B9F4FAA
:102C200060E071E04CE00E94B20C87FD046083E03C
:102C30008093E702E02EFF24C701867090708230F7
:102C4000910531F08430910579F0892B81F119C01B
:102C50008E01005B1F4FC80160E070E00E94D60C3F
:102C600088858F5F88870BC08E01055F1F4FC80165
:102C700060E071E00E94D60C89858F5F8987C8016A
:102C800018C08CE08093460286E492E060E070E039
:102C90000E94D60C86E492E060E071E00E94D60CBF
:102CA0008A858F5F8A8789E08093E7020AC0CE0118
:102CB0000B96A6E4B2E0FC0185E401900D928150F0
:102CC000E1F7C7018E709070892B41F0CE01039619
:102CD00060E870E048E050E00E94F31BE0FE0AC0AC
:102CE00082E00E941E0164E670E080E090E00E94B5
:102CF0004C1AF6CF0E94C313882361F02EE088E1BE
:102D000090E00FB6F894A895809360000FBE2093D2
:102D10006000FFCF1092800082E08093810081E00C
:102D200080936F0085B5887F85BD0E94A60C809139
:102D3000490290914A028230910519F18330910540
:102D400024F4019709F05BC007C08330910571F14D
:102D5000049709F054C03FC080E090E048EE53E093
:102D600020ED37E0FC01EE5CFD4F51834083FC0118
:102D7000E45CFD4F3183208302968A30910591F700
:102D80003EC080E090E04CE454E02CE637E0FC01EB
:102D9000EE5CFD4F51834083FC01E45CFD4F3183C9
:102DA000208302968A30910591F729C080E090E057
:102DB00042EE54E026ED36E0FC01EE5CFD4F51831F
:102DC0004083FC01E45CFD4F3183208302968A300E
:102DD000910591F714C080E090E044E853E024E3CB
:102DE00038E0FC01EE5CFD4F51834083FC01E45C64
:102DF000FD4F3183208302968A30910591F78091AF
:102E00004B02992787FD909528EE33E0FC01E29F65
:102E1000C001E39F900DF29F900D1124AA2797FD0A
:102E2000A095BA2F80939F029093A002A093A10235
:102E3000B093A20280918902877080931D01ADE852
:102E4000B2E0F60181916F01E82FFF27E7FDF095D1
:102E5000EE0FFF1FE25EFE4F808191818D939D9367
:102E6000F4E5CF16F2E0DF0661F720E030E0F9018B
:102E7000EC57FE4F8081F901E658FE4F80832F5FAB
:102E80003F4F2830310599F70E944A030E9463039F
:102E9000809147029091480290938C0280938B021C
:102EA000019741F58091FF01882319F4E4E0F0E0F7
:102EB00002C0E0E0F0E080910102882319F442E0D2
:102EC00050E002C040E050E020E030E0809102029B
:102ED000882311F421E030E0E22BF32BE42BF52BD7
:102EE000EE0FFF1FED55FE4F8081918190938C0274
:102EF00080938B0280918B0290918C02019731F428
:102F000082E090E090938C0280938B0280918B0200
:102F10008093A60288E592E09093AB028093AA0288
:102F20000E94FA020E94A1140E94CB040E946D0626
:102F30000E94F908CC56DF4FE8E00C94CC1B0895B2
:102F40001F920F920FB60F9211242F933F934F931E
:102F50008F939F93EF93FF938091C00082FD1DC0DC
:102F60004091C60020915003309151032F5F3F4F95
:102F70002F733070809152039091530328173907B3
:102F800071F0E0915003F0915103E05FFC4F4083FA
:102F9000309351032093500302C08091C600FF91EB
:102FA000EF919F918F914F913F912F910F900FBE75
:102FB0000F901F901895E091A403F091A503E05C99
:102FC000FF4F8191919120813181821B930B8F73EF
:102FD0009070892B11F00E949F1708951F920F92F5
:102FE0000FB60F9211242F933F938F939F93EF93DC
:102FF000FF932091940330919503809196039091D3
:1030000097032817390731F48091C1008F7D809391
:10301000C10014C0E0919603F0919703EC5AFC4F65
:103020002081809196039091970301968F73907001
:1030300090939703809396032093C600FF91EF919E
:103040009F918F913F912F910F900FBE0F901F90E6
:103050001895A0E0B0E0EFE2F8E10C94AE1BEC01B3
:103060007A018B01C22EDD24403081EE580780E0CA
:10307000680780E0780711F0DD24D39471E0A72E73
:10308000B12CEC89FD89DD2069F0C50108A002C0E2
:10309000880F991F0A94E2F7808360E079E08DE35E
:1030A00090E005C0108260E874E88EE190E0A8012D
:1030B00097010E94691B2150304040405040569576
:1030C00047953795279580E12030380720F0DD209F
:1030D00011F0DD24D6CFE889F9893083EA89FB89AC
:1030E0002083E88DF98DC082EE89FF89408121E03F
:1030F00030E0C9010C8C02C0880F991F0A94E2F7D6
:10310000482B4083EE89FF894081C9010D8C02C0A4
:10311000880F991F0A94E2F7482B4083EE89FF89B4
:103120004081C9010E8C02C0880F991F0A94E2F7F2
:10313000482B4083EE89FF8980810F8C02C0220FCB
:10314000331F0A94E2F7209528232083CDB7DEB7FA
:10315000EAE00C94CA1BDC011C96ED91FC911D97D2
:10316000E05CFF4F2191319180819181281B390BC7
:103170002F733070C9010895DC011C96ED91FC910C
:103180001D97E05CFF4F20813181E054F040DF016A
:10319000AE5BBF4F8D919C9111972817390719F499
:1031A0002FEF3FEF07C08D919C91E80FF91F8081B1
:1031B000282F30E0C9010895DC011C96ED91FC91A7
:1031C0001D97E05CFF4F20813181E054F040DF012A
:1031D000AE5BBF4F8D919C9111972817390719F459
:1031E0002FEF3FEF10C08D919C911197E80FF91FC1
:1031F00020818D919C91119701968F7390701196FB
:103200009C938E9330E0C9010895DC0191968C91D6
:103210009197882339F05496ED91FC9155978081D0
:1032200086FFF9CF91961C920895CF93DF93EC011E
:10323000EE85FF85E05CFF4F20813181E054F04056
:103240002F5F3F4F2F733070DF01AE5BBF4F8D910B
:103250009C91119728173907D1F3E05CFF4F8081CB
:103260009181E054F040E80FF91F6083EE85FF85FF
:10327000E05CFF4F31832083EE89FF89208181E06C
:1032800090E00F8C02C0880F991F0A94E2F7282B58
:10329000208381E089A3EC89FD898081806480831B
:1032A00081E090E0DF91CF91089510929B031092FE
:1032B0009A0388EE93E0A0E0B0E080939C039093A3
:1032C0009D03A0939E03B0939F0389ED91E090939B
:1032D00099038093980380E193E09093A5038093F2
:1032E000A40384E593E09093A7038093A60385EC61
:1032F00090E09093A9038093A80384EC90E09093CE
:10330000AB038093AA0380EC90E09093AD0380938D
:10331000AC0381EC90E09093AF038093AE0382EC1A
:1033200090E09093B1038093B00386EC90E090938B
:10333000B3038093B20384E08093B40383E080936B
:10334000B50387E08093B60385E08093B70381E0FF
:103350008093B8030895CF93DF930E94701A0E9460
:103360001A15CBEDD7E10E94300E2097E1F30E94B1
:10337000DB17F9CFA0E0B0E0E0ECF9E10C94B01B72
:103380007C016B018A01C0E0D0E00FC0D6016D91D5
:103390006D01D701ED91FC910190F081E02DC70105
:1033A0000995C80FD91F015010400115110571F77B
:1033B000CE01CDB7DEB7E8E00C94CC1B1F920F9284
:1033C0000FB60F9211242F933F938F939F93AF9338
:1033D000BF938091BE039091BF03A091C003B091B1
:1033E000C1033091C2030196A11DB11D232F2D5F92
:1033F0002D3720F02D570196A11DB11D2093C2033A
:103400008093BE039093BF03A093C003B093C10306
:103410008091BA039091BB03A091BC03B091BD030E
:103420000196A11DB11D8093BA039093BB03A09395
:10343000BC03B093BD03BF91AF919F918F913F911A
:103440002F910F900FBE0F901F9018959FB7F89473
:103450002091BA033091BB034091BC035091BD034E
:1034600086B5A89B06C08F3F21F02F5F3F4F4F4F7F
:103470005F4F9FBF542F432F322F2227280F311D1C
:10348000411D511D82E0220F331F441F551F8A9595
:10349000D1F7B901CA010895EF92FF920F931F93DC
:1034A000CF93DF937B018C010E94261AEB010EC0A3
:1034B0000E94261A6C1B7D0B685E7340C8F308944B
:1034C000E108F10801091109C851DC4FE114F104C8
:1034D0000105110569F7CDB7DEB7E6E00C94CE1B08
:1034E000789484B5826084BD84B5816084BD85B5DF
:1034F000826085BD85B5816085BDEEE6F0E08081A6
:1035000081608083E1E8F0E01082808182608083C6
:10351000808181608083E0E8F0E080818160808349
:10352000E1EBF0E0808184608083E0EBF0E080817B
:1035300081608083EAE7F0E080818460808380811D
:1035400082608083808181608083808180688083C5
:103550001092C1000895CF93DF93482F50E0CA0125
:1035600086559F4FFC0134914A565F4FFA01849172
:10357000882369F190E0880F991FFC01E858FF4FFC
:10358000A591B491FC01EE57FF4FC591D4916623EC
:1035900051F42FB7F8948C91932F909589238C93A5
:1035A000888189230BC0623061F42FB7F8948C9125
:1035B000932F909589238C938881832B88832FBFA9
:1035C00006C09FB7F8948C91832B8C939FBFDF919B
:1035D000CF910895833071F0843028F48130A1F0C8
:1035E000823021F514C08630B1F08730D1F08430BC
:1035F000E9F404C0809180008F7703C0809180003F
:103600008F7D80938000089584B58F7702C084B544
:103610008F7D84BD08958091B0008F778093B00036
:1036200008958091B0008F7D8093B0000895FF923F
:103630000F931F93F62E482F50E0CA0182549F4FDC
:10364000FC012491CA0186559F4FFC0114914A56F2
:103650005F4FFA0104910023C9F0222319F0822F51
:103660000E94EA1AE02FF0E0EE0FFF1FEE57FF4F27
:10367000A591B4919FB7F894FF2021F48C911095F7
:10368000812302C08C91812B8C939FBF1F910F913E
:10369000FF900895629FD001739FF001829FE00D1B
:1036A000F11D649FE00DF11D929FF00D839FF00DC1
:1036B000749FF00D659FF00D9927729FB00DE11D6D
:1036C000F91F639FB00DE11DF91FBD01CF0111244A
:1036D0000895A1E21A2EAA1BBB1BFD010DC0AA1F53
:1036E000BB1FEE1FFF1FA217B307E407F50720F06B
:1036F000A21BB30BE40BF50B661F771F881F991FE6
:103700001A9469F760957095809590959B01AC012E
:10371000BD01CF01089597FB092E05260ED057FD58
:1037200004D0D7DF0AD0001C38F45095409530956E
:1037300021953F4F4F4F5F4F0895F6F79095809535
:10374000709561957F4F8F4F9F4F08952F923F92B5
:103750004F925F926F927F928F929F92AF92BF92A1
:10376000CF92DF92EF92FF920F931F93CF93DF934D
:10377000CDB7DEB7CA1BDB0B0FB6F894DEBF0FBEAA
:10378000CDBF09942A88398848885F846E847D84F7
:103790008C849B84AA84B984C884DF80EE80FD80F9
:1037A0000C811B81AA81B981CE0FD11D0FB6F8946F
:1037B000DEBF0FBECDBFED010895EE0FFF1F0590D8
:1037C000F491E02D0994DC01CB01FC01F999FECFC5
:1037D00006C0F2BDE1BDF89A319600B40D92415099
:1037E0005040B8F70895DC01CB0103C02D910E9431
:1037F000FE1B41505040D0F70895262FF999FECF77
:103800001FBA92BD81BD20BD0FB6F894FA9AF99AFD
:0A3810000FBE01960895F894FFCF53
:10381A00FFFFFFDC05DC05DC05DC05E803DC05E869
:10382A0003DC05DC05DC05DC05DC05DC0506070137
:10383A0005010F0103010B0109010D011101080224
:10384A0006020C02040200000A0210020E02000024
:10385A000001010102010000000000000000000058
:10386A000000010200000000000002020000000047
:10387A00000000000000000000000302FE01FF013A
:10388A00000200000000000000000605FF04FF0718
:10389A00FFFF980306050A04FF070B097889988732
:1038AA0078899887FF0000000000000301020004E5
:1038BA0005060702000300040005000800060007C9
:1038CA00000200A0860100801A0600050405030410
:1038DA000202020101010101010101120214021690
:1038EA000218021C02000000001519BA19AB18DCF4
:0638FA0018BC18051900BE
:00000001FF
