:100000000C946A000C9492000C9492000C94920050
:100010000C9492000C9492000C9492000C94920018
:100020000C9492000C9492000C9492000C94671320
:100030000C9492000C9494000C9492000C949200F6
:100040000C94F4180C9492000C94B1160C94FF16B6
:100050000C9492000C94CA020C9492000C9492009E
:100060000C9492000C94920010072F07E8071007D9
:100070002F07E8073808A208000000002400270026
:100080002A0000000000250028002B0000000000CE
:1000900023002600290004040404040404040202CA
:1000A00002020202030303030303010204081020F7
:1000B0004080010204081020010204081020000002
:1000C0000007000201000003040600000000000019
:1000D00000006B1811241FBECFEFD8E0DEBFCDBFEC
:1000E00011E0A0E0B1E0E6E4F6E302C005900D9275
:1000F000AA3AB107D9F713E0AAEAB1E001C01D920C
:10010000AA3AB107E1F710E0C4EDD0E004C02297AD
:10011000FE010E94F51AC23DD107C9F70E94C1181D
:100120000C94211B0C9400001F920F920FB60F929B
:1001300011248F939F9380916202909163020196A4
:1001400090936302809362028091620290916302B5
:10015000892B29F4809164028F5F809364029F91C0
:100160008F910F900FBE0F901F9018956091840093
:10017000709185002091620230916302E0916402E7
:1001800080918400909185008627972797FDEECF78
:1001900080916202909163022817390739F78091A4
:1001A0006402E81719F740E050E0FFE0220F331F28
:1001B000441F551FFA95D1F78E2F90E0A0E0B0E0D4
:1001C000BB278695B795AA2799278827282B392BEF
:1001D0004A2B5B2B76956795CB01A0E0B0E0282BEE
:1001E000392B4A2B5B2BB901CA010895AF92BF92FC
:1001F000CF92DF92EF92FF920F931F9328EE33E09E
:1002000040E050E00E94601A5B016C010E94B60061
:100210007B018C010E94B6006E197F09800B910B47
:100220006A157B058C059D05A8F31F910F91FF9022
:10023000EF90DF90CF90BF90AF900895882321F08A
:10024000813021F42D9A08952D98089585B190E27A
:10025000892785B90895EF92FF920F931F937B0131
:100260008C018091ED029091EE02A091EF02B0918D
:10027000F0028E199F09A00BB10B181619061A0669
:100280001B060CF450C08091F102882321F5E09107
:10029000F202EF5FE370E093F202FF27E7FDF095D3
:1002A000EB59FD4F8081992787FD9095880F991F05
:1002B0008093F10280E492E4AFE0B0E0E80EF91E32
:1002C0000A1F1B1FE092ED02F092EE020093EF0274
:1002D0001093F00228C081508093F10281700E9437
:1002E0001E01E091F202FF27E7FDF095EE0FFF1FE0
:1002F000E759FD4F80819181AA2797FDA095BA2FDC
:100300002AE0880F991FAA1FBB1F2A95D1F78E0DCF
:100310009F1DA01FB11F8093ED029093EE02A0934A
:10032000EF02B093F0021F910F91FF90EF900895AC
:100330009A01AB01882311F0459A449A1092B900B2
:1003400060E074E284EF90E00E947F1A2051304018
:100350004040504056954795379527952093B800D3
:1003600008952FEF30E011C02115310561F410928E
:10037000BC0080917102909172020196909372027A
:10038000809371020895215030408091BC0087FF16
:10039000EBCF0895FF920F931F93F82E0CEB10E014
:1003A00084EAF80180830E94B101F092BB0084E8E6
:1003B000F80180830E94B1011F910F91FF90089571
:1003C0008093BB0084E88093BC000E94B101089533
:1003D0001F93182F882311F484E801C084EC8093C4
:1003E000BC000E94B1019091BB00112319F484E973
:1003F0008093BC00892F1F9108950F931F93162F90
:10040000042F880F0E94CA01812F0E94E001802FD3
:100410000E94E00184E98093BC001F910F91089530
:100420000F931F93182F062F880F0E94CA01802F49
:100430000E94E001110F812F81600E94CA0180E0BB
:100440000E94E8011F910F9108951F93CF93DF93AE
:10045000EB01142F880F81600E94CA0108C011505F
:1004600080E011160CF481E00E94E80189931123C9
:10047000B1F7DF91CF911F910895DF92EF92FF9234
:100480000F931F93E82EF62E8A01D22E880F0E941A
:10049000CA018F2D0E94E0018E2DB8014D2D0E94C2
:1004A00025021F910F91FF90EF90DF90089588E64D
:1004B0006BE640E80E94FD0162E370E080E090E0BE
:1004C0000E94F60088E66BE643E00E94FD01409141
:1004D0001D01415088E66AE10E94FD0188E66BE15A
:1004E00048E10E94FD0188E665E70E94100290E065
:1004F0008E77883609F491E0892F0895A6E0B0E060
:10050000E4E8F2E00C94C61A8C017B016A0188E6EB
:1005100063E4AE014F5F5F4F26E00E943D02998188
:1005200080E02A8130E0822B932BF8019183808335
:100530009B8180E02C8130E0822B932BF70191830B
:1005400080839D8180E02E8130E0822B932BF60109
:10055000918380832696E8E00C94E21A282F17C036
:10056000E22FF0E0EE0FFF1FED58FD4F80819181EB
:10057000892B61F080917C00887F822B80937C00A6
:1005800080917A00806480937A0008952F5F2630EE
:1005900038F308951F920F920FB60F9211242F93E4
:1005A0003F934F935F936F937F938F939F93AF93FB
:1005B000BF93EF93FF9380917C008770E82FF0E06A
:1005C000EE0FFF1FED58FD4F0190F081E02D90914F
:1005D000790090838F5F0E94AE02FF91EF91BF91EF
:1005E000AF919F918F917F916F915F914F913F91CB
:1005F0002F910F900FBE0F901F901895E3E7F2E038
:1006000040E050E061E070E080819181892B79F0D9
:1006100087B1DB01042E02C0AA0FBB1F0A94E2F7C8
:100620009D012095822387B988B1282328B94F5F7F
:100630005F4F32964630510539F780E680937C0053
:1006400010927B008FE880937A0080E00E94AE02D7
:100650000895CF93DF93EB01DA01FC0140E050E015
:1006600061E070E080819181892B79F03881CB0144
:10067000042E02C0880F991F0A94E2F7282F2095B4
:10068000232328832C91822B8C934F5F5F4F3296CC
:100690004830510539F7DF91CF9108958FE792E007
:1006A00064E270E045E250E00E9429038EE391E0AD
:1006B00067E270E048E250E00E9429038FE892E090
:1006C0006AE270E04BE250E00E942903089560E086
:1006D00070E040E050E0A1E0B0E0362FFA01E158D0
:1006E000FD4F0190F081E02D309751F023B1CD0105
:1006F000062E02C0880F991F0A94E2F72823208350
:10070000FA01E25CFE4F0190F081E02D309751F04C
:1007100026B1CD01032E02C0880F991F0A94E2F77B
:1007200028232083FA01E157FD4F0190F081E02D4D
:10073000309749F029B1CD0102C0880F991F3A9531
:10074000E2F7282320836F5F7F4F4E5F5F4F40317A
:10075000510519F60895A6E0B0E0E1EBF3E00C9442
:10076000BC1A7A8369831C012B019E838D839B01B4
:100770002A5F3F4F3C832B83ED81FE8106811781E9
:1007800080819181081B190B3801882477FC8094A3
:10079000982CF10182899389A489B589860D971DCA
:1007A000A81DB91D268D378D40A151A1AA24BB24B7
:1007B0006501A21AB30AC40AD50A8A159B05AC05BD
:1007C000BD054CF05C016D01281739074A075B072E
:1007D00014F459016A01F101A28AB38AC48AD58A44
:1007E000ED81FE8184859585AA2797FDA095BA2F76
:1007F000A4019301281B390B4A0B5B0BCA01B901F9
:1008000015870487F20124853585442737FD4095F7
:10081000542F0E94601A7B018C0132E015950795D8
:10082000F794E7943A95D1F7F2012081318144277A
:1008300037FD4095542FC401B3010E94601A23E094
:1008400095958795779567952A95D1F7E60EF71ECA
:10085000081F191FF20126813781442737FD409573
:10086000542FC601B5010E94601AB6E09595879590
:1008700077956795BA95D1F7E60EF71E081F191FF1
:10088000E981FA81028804C015950795F794E794E9
:100890000A94D2F7ED81FE81F3A6E2A63296FE839A
:1008A000ED8324E030E0220E331E42E050E0440E9F
:1008B000551E8B819C814816590609F05DCF2696FE
:1008C000E2E10C94D81AA6E0B0E0E9E6F4E00C947A
:1008D000CC1ACE010196BE016D5F7F4FAE014B5F1A
:1008E0005F4F0E947E02EB81FC81AA27BB27AE1BD3
:1008F000BF0BB093E601A093E50169817A8144279B
:100900005527461B570B5093E8014093E7012D8173
:100910003E813093EA012093E90180911502909184
:10092000160283309105A9F0843091051CF40297DA
:1009300071F506C084309105C9F0059741F51FC0D7
:100940003093E8012093E7017093EA016093E90195
:100950001EC088279927821B930B9093E8018093F0
:10096000E7015093EA014093E90111C05093E60179
:100970004093E501F093E801E093E70108C070932C
:10098000E6016093E501B093E801A093E7012696A4
:10099000E2E00C94E81A81E040E85AE166E070E099
:1009A0000E9498010E945702882349F485E08093B1
:1009B000670288EC90E090936E0280936D02089538
:1009C0000F931F93CF93DF93FC011082772767FD6E
:1009D000709572836183DC01EC0140E050E00FEF21
:1009E0001FE760E070E80CC012961C930E931197FD
:1009F0001A967C936E9319971F86188A198A1A8AF9
:100A00009A014F5F5F4F1296249681819281281739
:100A1000390754F314A613A6DF91CF911F910F91BC
:100A20000895A0E0B0E0E7E1F5E00C94C41A7C0181
:100A30008C01EB01F70160E070E02BC02181328175
:100A400088819981281739070CF4C9019283818321
:100A50002185328588819981821793070CF4C90119
:100A60009287818729913991442737FD4095542FEA
:100A7000D8011F96AD90BD90CD90DC905297A20EFC
:100A8000B31EC41ED51E1F96AD92BD92CD92DC92B0
:100A900052979B016F5F7F4F32960C5F1F4FD701BC
:100AA00011968D919C911297281739073CF2CDB77A
:100AB000DEB7EAE00C94E01AA0E0B0E0E2E6F5E090
:100AC0000C94C61AEC017C0143E2C42ED12CC80E52
:100AD000D91E00E010E011C02BA53CA5442737FD2E
:100AE0004095542FF70167857089818992890E940A
:100AF000A11AF601219331936F0198010F5F1F4FE7
:100B000084E090E0E80EF91E89819A812817390760
:100B10001CF3CDB7DEB7E8E00C94E21ACF93DF9375
:100B2000FC01EB0161817281A0E040E050E00DC06A
:100B30008385948523813481821B930B8C179D07B9
:100B40000CF4AF5F4F5F5F4F32964617570784F341
:100B500020E08A2F992787FD90958617970709F43B
:100B600021E0822FDF91CF910895AAE0B0E0EBEB76
:100B7000F5E00C94CA1A8C018091AA019091AB0106
:100B80009A8389838091AE019091AF019C838B837E
:100B90008091B0019091B1019E838D838091AC01D1
:100BA0009091AD0198878F838091B8019091B901A0
:100BB0009A878987C801BE016F5F7F4F0E94110528
:100BC000F80183A594A5019694A783A7843691057F
:100BD00081F5C80164E170E00E948E05882329F147
:100BE000C8010E945C05F80183A194A190931401AF
:100BF0008093130185A196A190931601809315010E
:100C000087A190A5909318018093170181A592A5C3
:100C100090931A018093190183A594A590931C01C8
:100C200080931B0181E0808304C0C80164E00E94BE
:100C3000E0042A96E4E00C94E61AA6E0B0E0E3E2D1
:100C4000F6E00C94CA1A8C018091E5019091E601BE
:100C50009A8389838091E7019091E8019C838B833B
:100C60008091E9019091EA019E838D83C801BE01C4
:100C70006F5F7F4F0E941105F80183A594A501962F
:100C800094A783A78C52914021F5C80162E370E0DC
:100C90000E948E058823C9F0C8010E945C05F801F6
:100CA00083A194A19093E0018093DF0185A196A197
:100CB0009093E2018093E10187A190A59093E401D4
:100CC0008093E30181E0808304C0C80163E00E9457
:100CD000E0042696E4E00C94E61A2091030130919A
:100CE000040180910301909104012817390721F430
:100CF0003093AB012093AA012091050130910601A8
:100D000080910501909106012817390721F430934D
:100D1000AF012093AE01209107013091080180912D
:100D20000701909108012817390721F43093B10188
:100D30002093B00120910B0130910C0180910B01A7
:100D400090910C012817390721F43093B3012093B7
:100D5000B20120910D0130910E0180910D01909111
:100D60000E012817390721F43093B5012093B401FF
:100D700020910F013091100180910F01909110018D
:100D80002817390721F43093B7012093B601209139
:100D900011013091120180911101909112012817D7
:100DA000390721F43093B9012093B80180914A02A8
:100DB00090914B0205974CF48091AA019091AB0160
:100DC0009093AD018093AC01089520910901309179
:100DD0000A018091090190910A012817390721F42D
:100DE0003093AD012093AC010895A0E0B0E0EBEFAB
:100DF000F6E00C94C21AEC0180904A0290904B02EB
:100E0000F4013297E830F10508F0D2C1EC5CFF4FF5
:100E1000688179814091AA015091AB010C94F31A39
:100E2000640F751F7093D2016093D10188819981FD
:100E30002091AC013091AD01820F931F9093D801A6
:100E40008093D7018A819B812091AE013091AF01BF
:100E5000820F931F9093D4018093D3019DC17A0197
:100E6000E60EF71EF092D201E092D101A090AC0103
:100E7000B090AD01088119810A0D1B1D1093D80196
:100E80000093D701A0911301B09114016A01CA1A0D
:100E9000DB0A488159814C0D5D1DE0911501F091EF
:100EA00016018091AE019091AF018E1B9F0B2A819C
:100EB0003B81820F931FBA017595679523E0559585
:100EC00047952A95E1F7640F751F9C013595279585
:100ED00043E0959587954A95E1F7280F391FE60F6E
:100EE000F71FE20FF31FF093D401E093D3016A0FD1
:100EF0007B1F621B730B7093D6016093D501209109
:100F0000B0013091B10186E08816910409F059C012
:100F1000E4E0223E3E0774F029573540273C310576
:100F200018F082E090E002C081E090E0029709F0C2
:100F30003FC11CC0C6018A199B092091190130913B
:100F40001A01820F931F9595879584529A4F90931B
:100F5000D2018093D1018C5D95402CED35E0281BAA
:100F6000390B3093D8012093D70122C1209102017F
:100F70006A817B81E091BC01F091BD016E0F7F1F02
:100F8000882777FD8095982F30E0205830404427FF
:100F900037FD4095542F0E94601A47E0959587953C
:100FA000779567954A95D1F7E60EF71EF092D20134
:100FB000E092D101061B170B1093D8010093D701C3
:100FC000F7C07093D2016093D1018C819D81EAC0FA
:100FD000640F751F7093D2016093D101888199814C
:100FE0002091AC013091AD01820F931F9093D801F5
:100FF0008093D701A0911501B09116014091AE01E7
:101000005091AF014A1B5B0B8A819B81480F591F8E
:10101000E0911701F09118018091B0019091B10118
:101020008E1B9F0B2C813D81820F931FBC017595F8
:10103000679523E0959587952A95E1F7680F791FC5
:101040009A013595279583E0559547958A95E1F75F
:10105000240F351FCB01820F931F8A0F9B1F909384
:10106000D4018093D3012E0F3F1F261B370B65C081
:1010700020911301309114010A811B818091BC01E0
:101080009091BD01080F191FAC81BD818091BE01F7
:101090009091BF01A80FB91F8091090190910A0199
:1010A0008C54944097FF03C0E0E0F0E016C08091BC
:1010B000090190910A018C54944095958795855F1C
:1010C00091401CF0E4EFF1E008C0E0910901F091DB
:1010D0000A01EC54F440F595E79544525A4F421BEF
:1010E000530B460F571FB801640F751F9F012A1B32
:1010F0003B0B37FF02C020E030E0CB01821B930B9B
:101100009093D2018093D101260F371F3093D401E1
:101110002093D3019A01201B310BAF014A0F5B1FB3
:1011200057FF02C040E050E0CA01820F931F909326
:10113000D8018093D701241B350B3093D60120931F
:10114000D50136C0640F751F7093D2016093D10131
:10115000888199812091AC013091AD01820F931F5C
:101160009093D8018093D7018A819B812091AE0111
:101170003091AF01820F931F9093D4018093D301DC
:101180008091B8019091B9012A813B81821B930B18
:101190009093DC018093DB018C819D812091B001D3
:1011A0003091B101820F931F9093D6018093D501A6
:1011B0008091B6019091B7019093DA018093D901A3
:1011C00089E08816910441F08091B8019091B901AD
:1011D0009093DC018093DB018091B4019091B50183
:1011E0009093DE018093DD01CDB7DEB7ECE00C9487
:1011F000DE1AAAE0B0E0EFEFF8E00C94CA1A809192
:101200000802909109020397A9F5FE0131968AE040
:10121000DF011D928A95E9F7CF010E94F506AFE83C
:10122000B1E001EF11E04BEF51E06D917C9111972E
:10123000F80120813181FB018081918128173907D4
:101240000CF4C901F80191838083FA012081318176
:10125000FB0180819181821793070CF4C901FA0187
:1012600081939193AF0112960E5F1F4FF1E0A93960
:10127000BF07D9F68BEE91E00E94F50680914A02F5
:1012800090914B02099711F074E001C075E060E0A5
:1012900080E090E0FC01E157FE4FA081B1814D91CB
:1012A0005C911197FC01EF50FE4F0190F081E02D11
:1012B0004E175F0754F0FC01E550FE4F208131814D
:1012C000FA01241735070CF4F901ED93FC936F5FD5
:1012D00002966717FCF22A96E4E00C94E61A8091D5
:1012E000A102882309F050C081E08093A1028FEF12
:1012F0008093A0022FB7F8948091D1019091D201F0
:101300009093C4018093C3018091D3019091D40143
:101310009093C6018093C5018091D5019091D6012B
:101320009093C8018093C7018091D7019091D80113
:101330009093CA018093C9018091D9019091DA01FB
:101340009093CC018093CB018091DB019091DC01E3
:101350009093CE018093CD018091DD019091DE01CB
:101360009093D0018093CF0180916F008260809331
:101370006F00B19A809184009091850004969093BB
:101380008900809388002FBF0895FC0181E081834C
:10139000808385E0828316821582108617820895E5
:1013A0009C0144E0813B940714F490E00DC084510B
:1013B00095408159914010F491E006C02850374083
:1013C00014F49FEF06C092E0662319F082E0891BB7
:1013D000982F892F0895CF93DF93EC018A818B8317
:1013E0008091AA019091AB016D810E94D00987FF85
:1013F00088838091AE019091AF016E810E94D009E7
:1014000087FF89838F81882351F48881882329F07D
:10141000823029F481E08D83188281E08F83888572
:10142000882361F48981882319F0823039F404C05B
:1014300081E08E8382E0898381E0888738813F5F05
:10144000898123E08202C0011124380F3A839B81F5
:1014500080E0391729F081E09295907F932B9C834F
:10146000DF91CF910895282F30E03F6F220F331F77
:10147000EFB7F8948091840090918500AC01405CB6
:101480005F4FBC016D5D7A4F809184009091850023
:10149000DA01A81BB90B1A161B06B4F320FF02C011
:1014A000389801C0389A4617570729F0369527957E
:1014B00045575F4FE9CFEFBF0895EFB7F8943099E4
:1014C00017C04BC020918400309185002058314CCA
:1014D00004C08FEF9FEF309B0BC0809184009091F0
:1014E0008500B901681B790B1616170614F4F1CFA5
:1014F000AC0141505040CA0101961816190614F368
:101500004F5F5F4F19F420E030E829C080918400DC
:1015100090918500AC0140565F4F20E030E0BC0167
:1015200063597B4F8091840090918500DA01A81B5C
:10153000B90B1A161B06B4F3309903C080E090E093
:1015400002C080E890E036952795282B392B461766
:10155000570729F045575F4FE5CF20E030E4EFBF54
:10156000C9010895EF92FF920F931F93CF93DF93DA
:10157000E82E192F062FF62E84E20E94330A802FC0
:101580000E94330A2E2D312FC901EC0104C089912C
:10159000F80E0E94330A9E012E192017C4F38F2DD6
:1015A00081950E94330ACDB7DEB7E6E00C94E41AC9
:1015B0008F929F92AF92BF92CF92DF92FF920F9342
:1015C0001F93CF93DF934C015A01C0E0D0E0C62EA9
:1015D000DD24C7FCD09402C0812F182FC5010E94C2
:1015E0005D0A9C018070907C892B69F5822FC13047
:1015F000D10559F0C230D105A1F0209779F72432F6
:1016000059F7812FC1E0D0E0E8CF90E0C816D906A5
:1016100014F4812F15C0822FF22EC2E0D0E000E03A
:10162000DCCFF20E812F8150112331F0F401E00F55
:10163000F11D20830F5FD1CFFF2011F481E004C0A2
:10164000C0E0D0E0CACF80E0DF91CF911F910F9131
:10165000FF90DF90CF90BF90AF909F908F900895B4
:10166000CF92DF92EF92FF921F93CF93DF93E0919F
:101670005601F0915701A081B18114962D913C91B2
:101680001597CF01F9010995892B09F48AC05BC030
:101690001092EC022093E8023093E9024093EA02B0
:1016A0005093EB028091EC02E82FFF27E7FDF095C5
:1016B000E852FD4F10838F5F8093EC0280310CF471
:1016C0006EC08091D7021816D4F5AAEDB2E0CBE037
:1016D000D0E05C9140E011968C911197282F30E07A
:1016E000242B352B8091D702682F772767FD7095C3
:1016F000C901062E02C0969587950A94E2F78F706D
:101700008830C4F4E82FFF27E7FDF095EE0FFF1FA8
:10171000E45BFD4F0190F081E02DCE01861B970B1D
:1017200002C0220F331F8A95E2F7377024523E4FD2
:1017300031832083129662E0A83EB60751F61092DC
:10174000EC0281E02EC08091EC02803154F5A09132
:101750005601B0915701ED91FC9111970680F781E8
:10176000E02DCD010995182F0E94B6009B01AC0118
:101770008091E8029091E902A091EA02B091EB0217
:1017800069017A01C81AD90AEA0AFB0AD701C60117
:1017900089559B41A040B0400CF07ACF7BCF80E0D0
:1017A00000C0DF91CF911F91FF90EF90DF90CF901D
:1017B0000895809156019091570140E052EC61E00C
:1017C00070E00E943A1780911302909114020197E1
:1017D00011F08BE001C08AE08093D70208951F9337
:1017E000CF93DF93EC01142F45E450E00E94F91AE7
:1017F0008881811711F08FEF12C090E020E030E077
:10180000FE01E20FF31F8081980F2F5F3F4F2534B9
:101810003105B1F7992311F480E001C08EEFDF911B
:10182000CF911F910895DC0190E020E030E0FD01B0
:10183000E20FF31F8081980F2F5F3F4F2434310553
:10184000B1F7AC5BBF4F91959C93A454B040CD01D0
:1018500045E450E00E94091B0895A1E1B0E0E3E3F4
:10186000FCE00C94BC1A1C0181E0898386E092E0C4
:101870009B838A8302969D838C830D969F838E83A0
:1018800002969987888702969B878A8702969D870A
:101890008C8702969F878E87CE010196998B888BC5
:1018A000D0900602DD0CCC246624EE24FF248701B0
:1018B000F0E88F2EFAE19F2EF6E0AF2EB12CE2E099
:1018C0007E2E2C010E94B6009B01AC01DC01CB01F5
:1018D0008E199F09A00BB10B88169906AA06BB06A4
:1018E0000CF051C0171424F5872D992787FD90958A
:1018F000FC01E170F07080FD03C088E097E002C059
:101900008CED95E09093D4018093D3018CED95E01C
:101910009093D2018093D101EE0FFF1FEE0FFF1FB6
:10192000E958FE4F80809180A280B3807A9429C0CC
:10193000DD2039F11D1424F46CE271E0A1E003C054
:1019400064ED7EEFAFEF8D2D992787FD9095FC011B
:10195000E170F07080FF03C08CED95E003C0CB0117
:1019600084529A4F9093D2018093D101EE0FFF1FC2
:10197000EE0FFF1FE958FE4F80809180A280B38058
:10198000DA1A79018A010E94300B882319F091E05C
:1019900090939F0280919F02882329F010929F02CA
:1019A0000E946D0602C0662041F08091A10288234A
:1019B00009F08CC00E946F096624772009F082CF5D
:1019C000C1010E94EB09882309F47CCFF1018481D5
:1019D000843561F0853520F4823509F063C013C089
:1019E000863559F0883509F05DC02AC0F1E0FC1554
:1019F00014F0CC2470C0CA946EC085E08C150CF431
:101A000068C0C39468C0AC2DBB27A7FDB095FD018D
:101A1000EE0FFF1FE40DF51D0180F281E02D8081A6
:101A2000282F332727FD30952F5F3F4FA158BE4FFA
:101A30008C91992787FD909582179307F4F41CC029
:101A4000AC2DBB27A7FDB095FD01EE0FFF1FE40DE8
:101A5000F51D0180F281E02D8081282F332727FD9D
:101A6000309521503040A957BE4F8C91992787FD62
:101A70009095281739070CF49C01208320E08C2DC9
:101A8000992787FD9095FC01EE0FFF1FE40DF51DD2
:101A90000180F281E02DD080DD0C222319F0019627
:101AA000782E770C8981823009F00CCF85E092E0A6
:101AB00060E070E00E94130C85E092E060E071E06D
:101AC0000E94130C6196E2E10C94D81A6624639488
:101AD00074CF87E0C82E21E0D2CFA1E9B0E0E3E7E0
:101AE000FDE00C94BC1A0E94B6001B012C01DE0123
:101AF0001196E9E6F1E086E001900D928150E1F760
:101B00008E010D5E1F4FC8010E94C5094CE1E42EF5
:101B1000F12CEC0EFD1EC70164E00E94E00439E4E4
:101B2000C32ED12CCC0EDD1EC60163E00E94E00462
:101B30002092D3023092D4024092D5025092D60223
:101B4000C657DF4F288239824A825B82CA58D0400A
:101B5000CA57DF4F288239824A825B82C658D040FA
:101B6000CE57DF4F288239824A825B82C258D040EA
:101B700042013101C258DF4F288239824A825B829A
:101B8000CE57D040EB962CAE3DAE4EAE5FAEEB974F
:101B9000EE961FAEEE97ED961FAEED9721E0EC9618
:101BA0002FAFEC97C257DF4FE882CE58D040C157D5
:101BB000DF4FF882CF58D040C057DF4F0883C0595D
:101BC000D040CF56DF4F1883C159D0400E94B60095
:101BD0005B016C010E942B010E94300B882319F0DD
:101BE00031E030939F0280919F028823A1F4D601B7
:101BF000C501C657DF4F488159816A817B81CA5828
:101C0000D040841B950BA60BB70B81539547A04082
:101C1000B0400CF442C010929F020E946D068C8D61
:101C2000882369F0C657DF4FA882B982CA82DB8257
:101C3000CA58D04061E0EE966FAFEE972EC0C25703
:101C4000DF4F8881CE58D040C157DF4F9881CF58A1
:101C5000D0400E94B5052A968FAD2A97882311F4AB
:101C600092E001C090E020E08C8D882309F421E00F
:101C7000920F9093660288EC90E090936C028093B0
:101C80006B02C657DF4FA882B982CA82DB82CA586C
:101C9000D04091E0EE969FAFEE978091A10288230D
:101CA00079F5EE96AFADEE97AA2351F1A601950115
:101CB000CA57DF4F688179818A819B81C658D0409D
:101CC000261B370B480B590B80915E0290915F02E7
:101CD000A0916002B091610282179307A407B50733
:101CE0007CF40E94F9080E946F09CA57DF4FA8824E
:101CF000B982CA82DB82C658D040EE961FAEEE97FC
:101D0000D601C501CE57DF4F288139814A815B81D9
:101D1000C258D040821B930BA40BB50B8151974244
:101D2000A040B04054F10E9463042A968FAD2A97D8
:101D30008823D9F4CE01875B9F4F0E941D062A9607
:101D40008FAD2A97882311F492E001C090E020E043
:101D50008C8D882309F421E0920F9093660248EC61
:101D600050E050936C0240936B02CE57DF4FA88235
:101D7000B982CA82DB82C258D040EC965FADEC9744
:101D8000552309F456C0C057DF4F8881C059D04051
:101D9000CF56DF4F9881C159D0400E94EB0988236C
:101DA00009F447C0ED966FADED97E62FFF27E7FDED
:101DB000F095E05AFE4F9F898081981721F0ED96AB
:101DC0001FAEED9707C0ED967FADED977F5FED9667
:101DD0007FAFED97ED968FADED97E82FFF27E7FDED
:101DE000F095E05AFE4F80818F3F81F4CE014396FB
:101DF0000E942D0C2EE088E190E00FB6F894A89593
:101E0000809360000FBE20936000FFCFD601C50114
:101E100082199309A409B509815C914EA44EB04082
:101E200024F0EC961FAEEC9704C0F1E0EC96FFAF07
:101E3000EC978C8D882329F02A968FAD2A978823DA
:101E4000C9F58091AC019091AD012091AA0130912A
:101E5000AB01820F931F2091190130911A01821B4F
:101E6000930B2091130130911401821B930B9595D4
:101E700087959093BB018093BA018091AE019091B8
:101E8000AF012091150130911601821B930B9093A5
:101E9000BD018093BC018091B0019091B10120916E
:101EA000170130911801821B930B9093BF0180930F
:101EB000BE018CCED601C50186199709A809B909BA
:101EC00081519742A040B0400CF434C380915C0231
:101ED00090915D028130910559F48091B201909109
:101EE000B301865F95400CF0A3C080E090E00DC088
:101EF000892B09F09DC08091B2019091B301875266
:101F000096400CF495C081E090E090935D02809340
:101F10005C02892B11F084E001C080E080936602AE
:101F200068EC70E070936C0260936B021092B402E4
:101F30001092B5021092B6021092B7021092C0022F
:101F40001092C1021092C2021092C3021092B80203
:101F50001092B9021092BA021092BB021092C402FF
:101F60001092C5021092C6021092C7021092BC02D3
:101F70001092BD021092BE021092BF021092C802CF
:101F80001092C9021092CA021092CB0280911D02D7
:101F900090911E02029709F04BC0D601C501EB9645
:101FA0002CAD3DAD4EAD5FADEB97821B930BA40BFB
:101FB000B50B8152914AA740B0401CF0E7961FAE86
:101FC000E797E7964FADE7974F5FE7964FAFE797F5
:101FD000433044F18091AA019091AB019093140198
:101FE000809313018091AE019091AF0190931601FF
:101FF000809315018091B0019091B10190931801E7
:10200000809317018091AC019091AD0190931A01DA
:10201000809319018091B8019091B90190931C01AE
:1020200080931B01EB96ACAEBDAECEAEDFAEEB97B0
:102030004091AC015091AD018091AA019091AB010A
:10204000480F591F8091190190911A01481B590B93
:102050008091130190911401481B590B5595479598
:102060005093BB014093BA01E091AE01F091AF01F2
:102070008091150190911601E81BF90BF093BD01B9
:10208000E093BC01A091B001B091B1018091170122
:1020900090911801A81BB90BB093BF01A093BE018A
:1020A0008091B8019091B90120911B0130911C01E0
:1020B000821B930B9093C1018093C0018091170202
:1020C0008150282F332727FD3095CA0157FF04C0C0
:1020D00088279927841B950B022E02C0880F991F11
:1020E0000A94E2F761E08139960714F080E991E003
:1020F00060E971E0681B790B78876F83CF01F7FF88
:1021000004C0882799278E1B9F0B022E02C0880FC0
:10211000991F0A94E2F771E08139970714F080E97A
:1021200091E060E971E0681B790B7A876987CD01DE
:10213000B7FF04C0882799278A1B9B0BBC0102C0EC
:10214000660F771F2A95E2F781E06139780714F06E
:1021500060E971E010E9612E11E0712E661A770ACC
:102160007C866B868091B2019091B30125E0833C1F
:1021700092074CF403EC15E0081B190B31E0013910
:10218000130794F00BC066E0883296071CF400E059
:1021900010E00AC077E0863897071CF000E911E0EC
:1021A00003C08C01055F154080905C0290905D0239
:1021B00081E08816910459F08114910409F050C00F
:1021C00080911B0290911C02029709F049C08091F6
:1021D00019029A01082E02C0220F331F0A94E2F757
:1021E0003E872D87082E02C0EE0FFF1F0A94E2F7EC
:1021F000F88BEF87AD0102C0440F551F8A95E2F7B7
:102200005A8B498B89819A8197FD05C08827992728
:10221000821B930B01C0C9019093A3028093A20279
:102220008B819C812F85388997FD05C08827992748
:10223000821B930B01C0C9019093A5028093A40255
:102240008D819E8197FD03C0509541955F4F5093BE
:10225000A7024093A60291E08916910471F055C03F
:102260001092A3021092A2021092A5021092A40250
:102270001092A7021092A60248C06F817885882725
:1022800077FD8095982F24EF3FEB40E050E00E94CF
:10229000601AF9E09595879577956795FA95D1F746
:1022A0006093C0027093C1028093C2029093C302F4
:1022B00069857A85882777FD8095982F0E94601A16
:1022C000E9E09595879577956795EA95D1F76093BD
:1022D000C4027093C5028093C6029093C702B301F3
:1022E000882777FD8095982F0E94601A39E0959590
:1022F0008795779567953A95D1F76093C802709363
:10230000C9028093CA029093CB022091E5013091DB
:10231000E6018091DF019091E001281B390BA0E2DA
:1023200020303A0714F02FEF3FE1C901B0EE203022
:102330003B0714F480E090EE9093A9028093A802EA
:102340002091E7013091E8018091E1019091E20153
:10235000281B390BE0E220303E0714F02FEF3FE15D
:10236000C901F0EE20303F0714F480E090EE909326
:10237000AB028093AA022091E9013091EA01809199
:10238000E3019091E401281B390B40E2203034072F
:1023900014F02FEF3FE1C90150EE2030350714F45F
:1023A00080E090EE9093AD028093AC02892819F002
:1023B00065E372E002C062E272E082EA92E00E94AB
:1023C000AB03EE24FF243801882477FC8094982CFA
:1023D000870105511E4FE1E0F0E0EC0FFD1FEE0D0F
:1023E000FF1D60817181882777FD8095982FF70107
:1023F000EE55FD4F22A533A5442737FD4095542FB8
:102400000E94601A27E095958795779567952A959C
:10241000D1F7E7E0F0E0EC0FFD1FEE0DFF1D20818E
:102420003181442737FD4095542F0E94601A9B014B
:10243000AC01B9E05595479537952795BA95D1F7F1
:10244000C401B3010E94601AA9E09595879577951C
:102450006795AA95D1F7D8016D937C93E2E0F0E0FF
:10246000EE0EFF1EF6E0EF16F10409F0B1CF209159
:10247000D20212160CF05CC08091D3029091D4026B
:10248000A091D502B091D602B601A501481B590B07
:102490006A0B7B0BDB01CA0181549D40A340B04015
:1024A0005CF021502093D202A092D302B092D402C9
:1024B000C092D502D092D6028091D202992787FD90
:1024C00090954091EB015091EC01BC0161707070EE
:1024D00080FF03C026E930E002C02AE63FEF240F68
:1024E000351F3093EC012093EB014091ED015091A9
:1024F000EE016115710519F026E930E002C02AE607
:102500003FEF240F351F3093EE012093ED01209112
:10251000EF013091F001672B19F48AE69FEF02C0BA
:1025200086E990E0820F931F9093F0018093EF0172
:1025300035014601D601C501C258DF4F28813981D6
:102540004A815B81CE57D040821B930BA40BB50B05
:102550008C59914AA740B0400CF438CB80911F02AF
:10256000803839F480910001282F30E02058304025
:1025700004C0282F332727FD309580912002803812
:1025800039F480910101482F50E04058504004C078
:10259000482F552747FD509580912102803831F40E
:1025A0008091020190E08058904003C0992787FDF8
:1025B00090953A8329835C834B839E838D83295F27
:1025C0003F4F2F30310510F41A8219828B819C8184
:1025D00007960F9710F41C821B828D819E810796AF
:1025E0000F9710F41E821D8280E00E94AE02C25836
:1025F000DF4FA882B982CA82DB82CE57D040E6CABA
:10260000A6E6B0E0E6E0F3E10C94C61A1092800072
:1026100081E0809381003898409848E552E000E0DE
:102620006E010894C11CD11C62E0E62EF12CEC0E68
:10263000FD1EC60166E60E94D80A882309F441C03F
:1026400089818230A9F0833018F4813029F406C0E2
:102650008330B1F08430E9F010E026C0C70160E8B3
:1026600070E048E050E00E94F91A10E069E01DC0F7
:10267000C70160E870E048E050E00E94091B13C009
:10268000C70160E070E04CE00E94EF0B10E066E4F0
:102690000CC0C70160E070E00E94130CC70160E04D
:1026A00071E00E94130C11E061E0898180688983E8
:1026B000C6010E94B20A01E044EF51E0112309F47F
:1026C000B8CF802FCA59DF4FE8E00C94E21A1F926E
:1026D0000F920FB60F9211240F931F932F933F93D6
:1026E0004F935F936F937F938F939F93AF93BF931A
:1026F000EF93FF938091A00287FD42C0E091A0027A
:10270000FF27E7FDF095E25BFE4F808160E00E94CD
:102710002D1A36C08091A0028F5F8093A002E091B5
:10272000A002FF27E7FDF095E25BFE4F808187FD69
:1027300027C00091840010918500E091A002FF273E
:10274000E7FDF095E25BFE4F808161E00E942D1A6B
:10275000E091A002FF27E7FDF095EE0FFF1FE25D7D
:10276000FE4F0190F081E02D808191810297880FCA
:10277000991F800F911F90938900809388000BC050
:102780008091A002873034F21092A10280916F00F4
:102790008D7F80936F00FF91EF91BF91AF919F91DB
:1027A0008F917F916F915F914F913F912F911F91E9
:1027B0000F910F900FBE0F901F9018950F931F93BE
:1027C000CF93DF9300E010E0E801C25BDE4F888129
:1027D00087FD08C0888160E00E942D1A888161E031
:1027E0000E94C1190F5F1F4F0830110569F7DF9173
:1027F000CF911F910F910895A0E0B0E0E2E0F4E1E5
:102800000C94C61A182F062F862F61E00E94C1195A
:10281000812F60E00E94C119812F61E00E942D1A72
:102820006AE070E080E090E00E94F600C0E0D0E056
:10283000812F992787FD9095FC01EA56FF4FE4917F
:10284000F0E0EE0FFF1FE457FF4FC590D490865580
:102850009F4FFC018491E82EFF24CE018170182F38
:10286000802F612F0E942D1AF601808120E030E038
:1028700090E08E219F21892B11F021E030E0812F03
:10288000992787FD90952817390711F010E005C0AA
:102890002196C830D10509F711E0802F60E00E9431
:1028A000C119812FCDB7DEB7E8E00C94E21AA4E994
:1028B000B0E0EDE5F4E10C94C61A259A8091A603E8
:1028C0009091A703009711F09C0102C02AEA33E01F
:1028D000CE010196821B930B803891054CF484E164
:1028E000809367028EE190E090936E0280936D0278
:1028F00084B7877F84BF88E10FB6F8948093600027
:10290000109260000FBE85E090E0909307028093E4
:1029100006028CE380931F028093200280932102A1
:1029200081E090E0909309028093080287E0809311
:10293000480284E180930A02EFE6F1E09BE0C92EB1
:1029400092E0D92ED60181918D9321E0E737F207ED
:10295000D1F742E050E0509314024093130221E07B
:1029600030E0309316022093150230931802209322
:10297000170283E090E090931A028093190230933B
:102980001C0220931B0250931E0240931D0284EFF1
:1029900091E09093230280932202109229021092D8
:1029A000280290932F0280932E0290932502809309
:1029B000240210922B0210922A02909331028093EB
:1029C0003002909327028093260210922D021092DB
:1029D0002C02909333028093320228E02093340239
:1029E000909336028093350290933C0280933B0291
:1029F0009093420280934102909338028093370271
:102A000090933E0280933D02909344028093430250
:102A100090933A02809339029093400280933F0250
:102A200090934602809345022093470285E066E03A
:102A30000E94FC13882311F400E001C007E0CE01DE
:102A4000039660E870E048E050E00E94F91A002325
:102A500061F48B81863049F48C819D81AE81BF8188
:102A60008E549146AC4BB04071F086E08B838EE47F
:102A700091E6ACEBB0E08C839D83AE83BF83188678
:102A800019861A860860CE010B9660E070E04CE073
:102A90000E94EF0B87FD0260CE01805B9F4F60E0DC
:102AA00071E04CE00E94EF0B87FD046083E08093AF
:102AB000D202E02EFF24C70186709070823091050B
:102AC00031F08430910579F0892B81F119C08E01A4
:102AD000005B1F4FC80160E070E00E94130C888506
:102AE0008F5F88870BC08E01055F1F4FC80160E0B4
:102AF00071E00E94130C89858F5F8987C80118C017
:102B00008CE08093050285E092E060E070E00E9436
:102B1000130C85E092E060E071E00E94130C8A855E
:102B20008F5F8A8789E08093D2020AC0CE010B961C
:102B3000A5E0B2E0FC0185E401900D928150E1F73F
:102B4000C7018E709070892B41F0CE01039660E82A
:102B500070E048E050E00E94091BE0FE0AC082E0FD
:102B60000E941E0164E670E080E090E00E9462191D
:102B7000F6CF0E940013882361F02EE088E190E0F8
:102B80000FB6F894A895809360000FBE2093600064
:102B9000FFCF1092800082E08093810081E08093DB
:102BA0006F0085B5887F85BD0E94D90B8091080292
:102BB000909109028230910519F18330910524F436
:102BC000019709F05BC007C08330910571F104974C
:102BD00009F054C03FC080E090E048EE53E020EDA3
:102BE00037E0FC01EF50FE4F51834083FC01E5507C
:102BF000FE4F3183208302968A30910591F73EC0C3
:102C000080E090E04CE454E02CE637E0FC01EF502B
:102C1000FE4F51834083FC01E550FE4F31832083FA
:102C200002968A30910591F729C080E090E042EE4B
:102C300054E026ED36E0FC01EF50FE4F5183408317
:102C4000FC01E550FE4F3183208302968A309105C6
:102C500091F714C080E090E044E853E024E338E0CA
:102C6000FC01EF50FE4F51834083FC01E550FE4FC5
:102C70003183208302968A30910591F780910A0270
:102C8000992787FD909528EE33E0FC01E29FC00173
:102C9000E39F900DF29F900D1124AA2797FDA09518
:102CA000BA2F80935E0290935F02A0936002B0936C
:102CB000610280914802877080931D01ACE4B2E00C
:102CC000F60181916F01E82FFF27E7FDF095EE0FE8
:102CD000FF1FE25EFE4F808191818D939D93F3E112
:102CE000CF16F2E0DF0661F720E030E0F901E85AA4
:102CF000FE4F8081F901E25BFE4F80832F5F3F4FE3
:102D00002830310599F70E944E030E946703809195
:102D100006029091070290934B0280934A0201971A
:102D200031F482E090E090934B0280934A028091CC
:102D30004A028093650288E592E090936A0280934C
:102D400069020E94FE020E94DE130E94CB040E94D0
:102D50006D060E94F908CC56DF4FE8E00C94E21AA9
:102D600008951F920F920FB60F9211242F933F9345
:102D70004F938F939F93EF93FF938091C00082FDB9
:102D80001DC04091C60020913303309134032F5F62
:102D90003F4F2F7330708091350390913603281781
:102DA000390771F0E0913303F0913403ED50FD4F9A
:102DB0004083309334032093330302C08091C600D4
:102DC000FF91EF919F918F914F913F912F910F9094
:102DD0000FBE0F901F901895E0918703F091880324
:102DE000E05CFF4F8191919120813181821B930B97
:102DF0008F739070892B11F00E94B01608951F9266
:102E00000F920FB60F9211242F933F938F939F939E
:102E1000EF93FF93209177033091780380917903AA
:102E200090917A032817390731F48091C1008F7D82
:102E30008093C10014C0E0917903F0917A03E95CBA
:102E4000FC4F20818091790390917A0301968F73D2
:102E5000907090937A03809379032093C600FF913A
:102E6000EF919F918F913F912F910F900FBE0F90F7
:102E70001F901895AF92BF92DF92EF92FF920F933F
:102E80001F93CF93DF93EC017A018B01DD24403057
:102E900081EE580780E0680780E0780711F0DD24B4
:102EA000D39491E0A92EB12CEC89FD89DD2069F045
:102EB000C50108A002C0880F991F0A94E2F7808319
:102EC00060E079E08DE390E005C0108260E874E88E
:102ED0008EE190E0A80197010E947F1A21503040B6
:102EE00040405040569547953795279580E12030D2
:102EF000380720F0DD2011F0DD24D6CFE889F989EC
:102F00003083EA89FB89208319A2EE89FF894081F9
:102F100021E030E0C9010C8C02C0880F991F0A948F
:102F2000E2F7482B4083EE89FF894081C9010D8C6F
:102F300002C0880F991F0A94E2F7482B4083EE895C
:102F4000FF894081C9010E8C02C0880F991F0A9425
:102F5000E2F7482B4083EE89FF8980810F8C02C005
:102F6000220F331F0A94E2F7209528232083DF9154
:102F7000CF911F910F91FF90EF90DF90BF90AF9096
:102F80000895DC011C96ED91FC911D97E05CFF4FCC
:102F90002191319180819181281B390B2F733070E1
:102FA000C9010895DC011C96ED91FC911D97E05C30
:102FB000FF4F20813181E054F040DF01AE5BBF4F15
:102FC0008D919C9111972817390719F42FEF3FEF36
:102FD00007C08D919C91E80FF91F8081282F30E068
:102FE000C9010895DC011C96ED91FC911D97E05CF0
:102FF000FF4F20813181E054F040DF01AE5BBF4FD5
:103000008D919C9111972817390719F42FEF3FEFF5
:1030100010C08D919C911197E80FF91F20818D911F
:103020009C91119701968F73907011969C938E933B
:1030300030E0C9010895DC0191968C919197882325
:1030400039F05496ED91FC915597808186FFF9CF28
:1030500091961C920895CF93DF93EC01EE85FF8546
:10306000E05CFF4F20813181E054F0402F5F3F4F03
:103070002F733070DF01AE5BBF4F8D919C91119724
:1030800028173907D1F3E05CFF4F80819181E0542C
:10309000F040E80FF91F6083EE85FF85E05CFF4F8D
:1030A00031832083EE89FF89208181E090E00F8CBD
:1030B00002C0880F991F0A94E2F7282B208381E031
:1030C00089A3EC89FD8980818064808381E090E020
:1030D000DF91CF91089510927E0310927D0388EEC8
:1030E00093E0A0E0B0E080937F0390938003A093EF
:1030F0008103B09382038DE991E090937C038093E8
:103100007B0383EF92E0909388038093870387E3A8
:1031100093E090938A038093890385EC90E09093E9
:103120008C0380938B0384EC90E090938E038093C8
:103130008D0380EC90E09093900380938F0381EC5B
:1031400090E0909392038093910382EC90E09093AF
:1031500094038093930386EC90E09093960380937E
:10316000950384E08093970383E08093980387E03E
:103170008093990385E080939A0381E080939B0379
:103180000895CF93DF930E9486190E945714CCEEC6
:10319000D6E10E946D0D2097E1F30E94EC16F9CF65
:1031A000A0E0B0E0E6EDF8E10C94C61A7C016B01FA
:1031B0008A01C0E0D0E00FC0D6016D916D01D7014A
:1031C000ED91FC910190F081E02DC7010995C80FA8
:1031D000D91F015010400115110571F7CE01CDB76F
:1031E000DEB7E8E00C94E21A1F920F920FB60F922E
:1031F00011242F933F938F939F93AF93BF9380910D
:10320000A1039091A203A091A303B091A4033091D4
:10321000A5030196A11DB11D232F2D5F2D3720F091
:103220002D570196A11DB11D2093A5038093A103E5
:103230009093A203A093A303B093A40380919D0352
:1032400090919E03A0919F03B091A0030196A11DB0
:10325000B11D80939D0390939E03A0939F03B09311
:10326000A003BF91AF919F918F913F912F910F90AC
:103270000FBE0F901F9018959FB7F89420919D0353
:1032800030919E0340919F035091A00386B5A89B67
:1032900006C08F3F21F02F5F3F4F4F4F5F4F9FBFC3
:1032A000542F432F322F2227280F311D411D511D2E
:1032B00082E0220F331F441F551F8A95D1F7B901B1
:1032C000CA010895EF92FF920F931F93CF93DF935C
:1032D0007B018C010E943C19EB010EC00E943C193D
:1032E0006C1B7D0B685E7340C8F30894E108F1081D
:1032F00001091109C851DC4FE114F1040105110560
:1033000069F7CDB7DEB7E6E00C94E41A789484B59B
:10331000826084BD84B5816084BD85B5826085BDD1
:1033200085B5816085BDEEE6F0E0808181608083B7
:10333000E1E8F0E01082808182608083808181609A
:103340008083E0E8F0E0808181608083E1EBF0E061
:10335000808184608083E0EBF0E080818160808305
:10336000EAE7F0E0808184608083808182608083EE
:103370008081816080838081806880831092C10019
:103380000895CF93DF93482F50E0CA0186559F4F91
:10339000FC0134914A565F4FFA018491882369F108
:1033A00090E0880F991FFC01E858FF4FA591B49158
:1033B000FC01EE57FF4FC591D491662351F42FB70E
:1033C000F8948C91932F909589238C9388818923ED
:1033D0000BC0623061F42FB7F8948C91932F9095C5
:1033E00089238C938881832B88832FBF06C09FB746
:1033F000F8948C91832B8C939FBFDF91CF9108958C
:10340000833071F0843028F48130A1F0823021F5CE
:1034100014C08630B1F08730D1F08430E9F404C0B4
:10342000809180008F7703C0809180008F7D809392
:103430008000089584B58F7702C084B58F7D84BDE8
:1034400008958091B0008F778093B00008958091A7
:10345000B0008F7D8093B0000895FF920F931F936B
:10346000F62E482F50E0CA0182549F4FFC01249150
:10347000CA0186559F4FFC0114914A565F4FFA01CD
:1034800004910023C9F0222319F0822F0E94001A10
:10349000E02FF0E0EE0FFF1FEE57FF4FA591B49124
:1034A0009FB7F894FF2021F48C911095812302C0DE
:1034B0008C91812B8C939FBF1F910F91FF9008954A
:1034C000629FD001739FF001829FE00DF11D649F08
:1034D000E00DF11D929FF00D839FF00D749FF00D94
:1034E000659FF00D9927729FB00DE11DF91F639F35
:1034F000B00DE11DF91FBD01CF0111240895A1E216
:103500001A2EAA1BBB1BFD010DC0AA1FBB1FEE1F5D
:10351000FF1FA217B307E407F50720F0A21BB30BA8
:10352000E40BF50B661F771F881F991F1A9469F724
:1035300060957095809590959B01AC01BD01CF0180
:10354000089597FB092E05260ED057FD04D0D7DF2E
:103550000AD0001C38F450954095309521953F4F86
:103560004F4F5F4F0895F6F7909580957095619550
:103570007F4F8F4F9F4F08952F923F924F925F92B0
:103580006F927F928F929F92AF92BF92CF92DF9273
:10359000EF92FF920F931F93CF93DF93CDB7DEB7D8
:1035A000CA1BDB0B0FB6F894DEBF0FBECDBF09946C
:1035B0002A88398848885F846E847D848C849B84C3
:1035C000AA84B984C884DF80EE80FD800C811B81D1
:1035D000AA81B981CE0FD11D0FB6F894DEBF0FBE00
:1035E000CDBFED010895EE0FFF1F0590F491E02D82
:1035F0000994DC01CB01FC01F999FECF06C0F2BDB4
:10360000E1BDF89A319600B40D9241505040B8F7A0
:103610000895DC01CB0103C02D910E94141B415081
:103620005040D0F70895262FF999FECF1FBA92BDCA
:1036300081BD20BD0FB6F894FA9AF99A0FBE019693
:063640000895F894FFCF8D
:10364600FFFFFFDC05DC05DC05DC05E803DC05E83F
:1036560003DC05DC05DC05DC05DC05DC050607010D
:1036660005010F0103010B0109010D011101C7013C
:10367600C501CB01C3010000C901CF01CD01000086
:10368600C201000000000000000000000000060566
:10369600030AFF0B10097B030605030AFF0B10093B
:1036A6007889988778899887FF00000000000002D3
:1036B60003010004050607A0860100801A0600051E
:1036C600040503040202020101010101010101D105
:1036D60001D301D501D701DB01000000002B18D072
:0A36E60018C117F217D2171B1800C5
:00000001FF
