:100000000C948B010C94B3010C94B3010C94B301C8
:100010000C94B3010C94B3010C94B3010C9423051C
:100020000C94B3010C94B3010C94FC180C9480193B
:100030000C94B3010C94B3010C94B3010C94B30170
:100040000C94B3010C943C140C94B3010C94B301C4
:100050000C94B5010C94B3010C94B3010C94BE1A2A
:100060000C94B3010C94B3010C94B3010C94B30140
:100070000C94B3010C94EC030C94B3010C94B301F5
:100080000C94B3010C94B3010C94B3010C94B30120
:100090000C94B3010C94B3010C94B3010C94B30110
:1000A0000C94B3010C94B3010C94B301B508D408BB
:1000B0008D09B508D4088D09DD09470AF91BFC1B19
:1000C000EF1BF31B1D1C1D1C1D1C001C041C081C0D
:1000D0000E1C121C1D1C181C0403090422034100E1
:1000E00072006400750069006E006F0020004C0013
:1000F00065006F006E006100720064006F001803FD
:10010000410072006400750069006E006F002000FD
:100110004C004C004300120100020000004041234B
:1001200036800001010200011201000202000040BD
:100130004123368000010102000100C18081C1001D
:10014000000000240027002A002D003000000000DD
:1001500000250028002B002E0031000000000023A5
:1001600000260029002C002F0004040404040304CA
:100170000502020202040302020202060606060645
:100180000604040202020404080201104080401028
:1001900020408040800802040180402010020110AD
:1001A00080102040400000000200080E0000030400
:1001B00001000B0000000000000000000000000033
:1001C000000000070605040100080A0B0C0D0908D1
:1001D0000B000202020100090400000102020000FB
:1001E0000524001001052401010104240206052450
:1001F0000600010705810310004009040100020AFE
:1002000000000007050202400000070583024000CD
:100210000005010902A1010901A1008501050919D3
:1002200001290315002501950375018102950175CA
:1002300005810305010930093109381581257F75CC
:100240000895038106C0C005010906A101850205C4
:100250000719E029E7150025017501950881029528
:1002600001750881039506750815002565050719B0
:100270000029658100C00904020001030000000993
:1002800021010100012265000705840340000100EF
:10029000000000000000002A2B28000000000000E1
:1002A0000000000000000000000000000000002C22
:1002B0009EB4A0A1A2A434A6A7A5AE362D37382798
:1002C0001E1F20212223242526B333B62EB7B89F24
:1002D0008485868788898A8B8C8D8E8F9091929366
:1002E0009495969798999A9B9C9D2F3130A3AD3504
:1002F0000405060708090A0B0C0D0E0F1011121346
:100300001415161718191A1B1C1DAFB1B0B5000033
:100310005A189B1C9D1D11241FBECFEFDAE0DEBFD3
:10032000CDBF11E0A0E0B1E0ECE0FFE302C005903A
:100330000D92A23BB107D9F713E0A2EBB1E001C0E7
:100340001D92AE36B107E1F713E0C6E1D3E004C079
:100350002297FE010E94581FC031D107C9F70E94A1
:1003600077170C94841F0C9400001F920F920FB605
:100370000F9211248F939F938091690290916A024A
:10038000019690936A02809369028091690290912C
:100390006A02892B29F480916B028F5F80936B0234
:1003A0009F918F910F900FBE0F901F9018956091A5
:1003B0008400709185002091690230916A02E09179
:1003C0006B0280918400909185008627972797FD86
:1003D000EECF8091690290916A022817390739F7A8
:1003E00080916B02E81719F740E050E0FFE0220F20
:1003F000331F441F551FFA95D1F78E2F90E0A0E0D0
:10040000B0E0BB278695B795AA2799278827282B80
:10041000392B4A2B5B2B76956795CB01A0E0B0E09A
:10042000282B392B4A2B5B2BB901CA010895AF92B7
:10043000BF92CF92DF92EF92FF920F931F9328EE1D
:1004400033E040E050E00E94C31E5B016C010E945B
:10045000D7017B018C010E94D7016E197F09800BA7
:10046000910B6A157B058C059D05A8F31F910F91D3
:10047000FF90EF90DF90CF90BF90AF90089591E004
:10048000982721F0913021F45D9A08955D980895A0
:100490008BB190E289278BB90895EF92FF920F9369
:1004A0001F937B018C018091EE029091EF02A0914D
:1004B000F002B091F1028E199F09A00BB10B181632
:1004C00019061A061B060CF450C08091F20288230C
:1004D00021F5E091F302EF5FE370E093F302FF2771
:1004E000E7FDF095E459FD4F8081992787FD9095B0
:1004F000880F991F8093F20280E492E4AFE0B0E0AD
:10050000E80EF91E0A1F1B1FE092EE02F092EF02A6
:100510000093F0021093F10228C081508093F20200
:1005200081700E943F02E091F302FF27E7FDF09502
:10053000EE0FFF1FE059FD4F80819181AA2797FDA3
:10054000A095BA2F2AE0880F991FAA1FBB1F2A95D2
:10055000D1F78E0D9F1DA01FB11F8093EE029093C7
:10056000EF02A093F002B093F1021F910F91FF9060
:10057000EF9008959A01AB01882311F0589A599A87
:100580001092B90060E074E284EF90E00E94E21EF5
:10059000205130404040504056954795379527951B
:1005A0002093B80008952FEF30E011C021153105D8
:1005B00061F41092BC0080917802909179020196CA
:1005C0009093790280937802089521503040809171
:1005D000BC0087FFEBCF0895FF920F931F93F82E77
:1005E0000CEB10E084EAF80180830E94D302F092C1
:1005F000BB0084E8F80180830E94D3021F910F9111
:10060000FF9008958093BB0084E88093BC000E9413
:10061000D30208951F93182F882311F484E801C092
:1006200084EC8093BC000E94D3029091BB00112304
:1006300019F484E98093BC00892F1F9108950F93CA
:100640001F93162F042F880F0E94EC02812F0E9407
:100650000203802F0E94020384E98093BC001F9153
:100660000F9108950F931F93182F062F880F0E9444
:10067000EC02802F0E940203110F812F81600E94E3
:10068000EC0280E00E940A031F910F9108951F93CE
:10069000CF93DF93EB01142F880F81600E94EC024F
:1006A00008C0115080E011160CF481E00E940A038A
:1006B00089931123B1F7DF91CF911F910895DF92B4
:1006C000EF92FF920F931F93E82EF62E8A01D22EFF
:1006D000880F0E94EC028F2D0E9402038E2DB8011C
:1006E0004D2D0E9447031F910F91FF90EF90DF90D7
:1006F000089588E66BE640E80E941F0362E370E01D
:1007000080E090E00E94170288E66BE643E00E94DA
:100710001F0340911D01415088E66AE10E941F03BA
:1007200088E66BE148E10E941F0388E665E70E94C6
:10073000320390E08E77883609F491E0892F08958E
:10074000A6E0B0E0E6EAF3E00C94291F8C017B01FF
:100750006A0188E663E4AE014F5F5F4F26E00E94C6
:100760005F03998180E02A8130E0822B932BF8018E
:10077000918380839B8180E02C8130E0822B932BBE
:10078000F701918380839D8180E02E8130E0822B70
:10079000932BF601918380832696E8E00C94451F05
:1007A000282F17C0E22FF0E0EE0FFF1FE658FD4F95
:1007B00080819181892B61F080917C00887F822BE0
:1007C00080937C0080917A00806480937A00089501
:1007D0002F5F263038F308951F920F920FB60F92B5
:1007E00011242F933F934F935F936F937F938F9336
:1007F0009F93AF93BF93EF93FF9380917C0087709B
:10080000E82FF0E0EE0FFF1FE658FD4F0190F0815A
:10081000E02D9091790090838F5F0E94D003FF912B
:10082000EF91BF91AF919F918F917F916F915F9168
:100830004F913F912F910F900FBE0F901F901895E1
:10084000EAE7F2E040E050E061E070E08081918111
:10085000892B79F087B1DB01042E02C0AA0FBB1FE0
:100860000A94E2F79D012095822387B988B1282355
:1008700028B94F5F5F4F32964630510539F780E611
:1008800080937C0010927B008FE880937A0080E058
:100890000E94D0030895CF93DF93EB01DA01FC01AE
:1008A00040E050E061E070E080819181892B79F037
:1008B0003881CB01042E02C0880F991F0A94E2F7F9
:1008C000282F2095232328832C91822B8C934F5FF4
:1008D0005F4F32964830510539F7DF91CF91089537
:1008E00086E892E064E270E045E250E00E944B044A
:1008F00086E992E067E270E048E250E00E944B0433
:1009000086EA92E06AE270E04BE250E00E944B041B
:10091000089560E070E040E050E0A1E0B0E0362FE4
:10092000FA01EA57FD4F0190F081E02D309751F028
:1009300023B1CD01062E02C0880F991F0A94E2F759
:1009400028232083FA01EA56FD4F0190F081E02D23
:10095000309751F026B1CD01032E02C0880F991FA8
:100960000A94E2F728232083FA01EA55FD4F01900B
:10097000F081E02D309749F029B1CD0102C0880FF8
:10098000991F3A95E2F7282320836F5F7F4F4E5FD0
:100990005F4F4031510519F6089540918400509100
:1009A0008500809167032CB12093670390E08074E9
:1009B000907030E02095309582239323892B09F4A1
:1009C00041C0789480916803909169039A01281B33
:1009D000390BC90196958795509369034093680335
:1009E000E09165033BE0893B930728F0E0936603C1
:1009F000109265030895E830CCF423E08438920720
:100A000018F484E893E006C038E08533930710F0CB
:100A100084E398E0FF27E7FDF095EE0FFF1FED5A06
:100A2000FD4F0190F081E02D9183808380916503DB
:100A30008F5F8093650390916603891719F481E0B5
:100A40008093B60208951F920F920FB60F92112451
:100A50002F933F934F935F936F937F938F939F93C6
:100A6000AF93BF93EF93FF930E94CD04FF91EF915B
:100A7000BF91AF919F918F917F916F915F914F91B6
:100A80003F912F910F900FBE0F901F901895EAE69F
:100A9000F0E0808180618083EE9A6E98769A089566
:100AA000A6E0B0E0E6E5F5E00C941F1F7A836983C9
:100AB0001C012B019E838D839B012A5F3F4F3C834A
:100AC0002B83ED81FE810681178180819181081B36
:100AD000190B3801882477FC8094982CF1018289C5
:100AE0009389A489B589860D971DA81DB91D268DEA
:100AF000378D40A151A1AA24BB246501A21AB30AD3
:100B0000C40AD50A8A159B05AC05BD054CF05C01ED
:100B10006D01281739074A075B0714F459016A0168
:100B2000F101A28AB38AC48AD58AED81FE818485C7
:100B30009585AA2797FDA095BA2FA4019301281B9C
:100B4000390B4A0B5B0BCA01B90115870487F20107
:100B500024853585442737FD4095542F0E94C31EB8
:100B60007B018C0152E015950795F794E7945A950F
:100B7000D1F7F20120813181442737FD4095542F70
:100B8000C401B3010E94C31E43E0959587957795F4
:100B900067954A95D1F7E60EF71E081F191FF20157
:100BA00026813781442737FD4095542FC601B50172
:100BB0000E94C31E36E095958795779567953A957F
:100BC000D1F7E60EF71E081F191FE981FA81028886
:100BD00004C015950795F794E7940A94D2F7ED8130
:100BE000FE81F3A6E2A63296FE83ED8324E030E098
:100BF000220E331E42E050E0440E551E8B819C8134
:100C00004816590609F05DCF2696E2E10C943B1F89
:100C1000A6E0B0E0EEE0F6E00C942F1FCE010196C6
:100C2000BE016D5F7F4FAE014B5F5F4F0E94A0031F
:100C3000EB81FC81AA27BB27AE1BBF0BB093ED0154
:100C4000A093EC0169817A8144275527461B570BF5
:100C50005093EF014093EE012D813E813093F101DD
:100C60002093F00180911C0290911D028330910528
:100C7000A9F0843091051CF4029771F506C0843008
:100C80009105C9F0059741F51FC03093EF012093FE
:100C9000EE017093F1016093F0011EC0882799273F
:100CA000821B930B9093EF018093EE015093F1011F
:100CB0004093F00111C05093ED014093EC01F0938B
:100CC000EF01E093EE0108C07093ED016093EC0139
:100CD000B093EF01A093EE012696E2E00C944B1F37
:100CE00081E040E85AE166E070E00E94BA020E94AA
:100CF0007903882349F485E080936E0288EC90E0C4
:100D0000909375028093740208950F931F93CF936D
:100D1000DF93FC011082772767FD709572836183F2
:100D2000DC01EC0140E050E00FEF1FE760E070E80D
:100D30000CC012961C930E9311971A967C936E9387
:100D400019971F86188A198A1A8A9A014F5F5F4F6E
:100D500012962496818192812817390754F314A69C
:100D600013A6DF91CF911F910F910895A0E0B0E0FD
:100D7000ECEBF6E00C94271F7C018C01EB01F701F2
:100D800060E070E02BC02181328188819981281731
:100D900039070CF4C90192838183218532858881CA
:100DA0009981821793070CF4C90192878187299151
:100DB0003991442737FD4095542FD8011F96AD90A7
:100DC000BD90CD90DC905297A20EB31EC41ED51ECE
:100DD0001F96AD92BD92CD92DC9252979B016F5FB0
:100DE0007F4F32960C5F1F4FD70111968D919C91CA
:100DF0001297281739073CF2CDB7DEB7EAE00C941A
:100E0000431FA0E0B0E0E7E0F7E00C94291FEC01FD
:100E10007C0163E2C62ED12CC80ED91E00E010E082
:100E200011C02BA53CA5442737FD4095542FF70151
:100E300067857089818992890E94041FF601219338
:100E400031936F0198010F5F1F4F84E090E0E80E2F
:100E5000F91E89819A81281739071CF3CDB7DEB7AF
:100E6000E8E00C94451FCF93DF93FC01EB01618117
:100E70007281A0E040E050E00DC08385948523811D
:100E80003481821B930B8C179D070CF4AF5F4F5F6F
:100E90005F4F32964617570784F320E08A2F992731
:100EA00087FD90958617970709F421E0822FDF913F
:100EB000CF910895AAE0B0E0E0E6F7E00C942D1F92
:100EC0008C018091B2019091B3019A8389838091C2
:100ED000B6019091B7019C838B838091B80190916A
:100EE000B9019E838D838091B4019091B50198875B
:100EF0008F838091C0019091C1019A878987C80131
:100F0000BE016F5F7F4F0E94B606F80183A594A5CE
:100F1000019694A783A78436910581F5C80164E101
:100F200070E00E943307882329F1C8010E9401075D
:100F3000F80183A194A1909314018093130185A1DA
:100F400096A1909316018093150187A190A5909387
:100F500018018093170181A592A590931A0180939F
:100F6000190183A594A590931C0180931B0181E036
:100F7000808304C0C80164E00E9485062A96E4E0EC
:100F80000C94491FA6E0B0E0E8ECF7E00C942D1FAC
:100F90008C018091EC019091ED019A83898380917D
:100FA000EE019091EF019C838B838091F0019091F1
:100FB000F1019E838D83C801BE016F5F7F4F0E9448
:100FC000B606F80183A594A5019694A783A78C5231
:100FD000914021F5C80162E370E00E943307882345
:100FE000C9F0C8010E940107F80183A194A1909360
:100FF000E7018093E60185A196A19093E901809392
:10100000E80187A190A59093EB018093EA0181E02C
:10101000808304C0C80163E00E9485062696E4E050
:101020000C94491F20910301309104018091030128
:10103000909104012817390721F43093B3012093CC
:10104000B201209105013091060180910501909136
:1010500006012817390721F43093B7012093B60110
:1010600020910701309108018091070190910801BA
:101070002817390721F43093B9012093B801209142
:101080000B0130910C0180910B0190910C012817FC
:10109000390721F43093BB012093BA0120910D014F
:1010A00030910E0180910D0190910E0128173907A2
:1010B00021F43093BD012093BC0120910F013091A8
:1010C000100180910F01909110012817390721F428
:1010D0003093BF012093BE01209111013091120184
:1010E00080911101909112012817390721F4309352
:1010F000C1012093C0018091510290915202059745
:101100004CF48091B2019091B3019093B50180931A
:10111000B40108952091090130910A0180910901DB
:1011200090910A012817390721F43093B5012093D3
:10113000B4010895A0E0B0E0E0EAF8E00C94251FC7
:10114000EC018090510290905202F4013297E83005
:10115000F10508F0D2C1EA5AFF4F688179814091C8
:10116000B2015091B3010C94561F640F751F709318
:10117000D9016093D801888199812091B40130917F
:10118000B501820F931F9093DF018093DE018A8166
:101190009B812091B6013091B701820F931F9093EC
:1011A000DB018093DA019DC17A01E60EF71EF09211
:1011B000D901E092D801A090B401B090B5010881A6
:1011C00019810A0D1B1D1093DF010093DE01A09110
:1011D0001301B09114016A01CA1ADB0A48815981CE
:1011E0004C0D5D1DE0911501F09116018091B60145
:1011F0009091B7018E1B9F0B2A813B81820F931F19
:10120000BA017595679523E0559547952A95E1F7BD
:10121000640F751F9C013595279543E0959587953B
:101220004A95E1F7280F391FE60FF71FE20FF31F6A
:10123000F093DB01E093DA016A0F7B1F621B730BF3
:101240007093DD016093DC012091B8013091B90108
:1012500086E08816910409F059C0E4E0223E3E077A
:1012600074F029573540273C310518F082E090E0B2
:1012700002C081E090E0029709F03FC11CC0C601A6
:101280008A199B092091190130911A01820F931F2D
:101290009595879584529A4F9093D9018093D80160
:1012A0008C5D95402CED35E0281B390B3093DF0128
:1012B0002093DE0122C1209102016A817B81E091AD
:1012C000C401F091C5016E0F7F1F882777FD8095BF
:1012D000982F30E020583040442737FD4095542F58
:1012E0000E94C31E47E095958795779567954A9527
:1012F000D1F7E60EF71EF092D901E092D801061B55
:10130000170B1093DF010093DE01F7C07093D90132
:101310006093D8018C819D81EAC0640F751F709322
:10132000D9016093D801888199812091B4013091CD
:10133000B501820F931F9093DF018093DE01A0918E
:101340001501B09116014091B6015091B7014A1BA9
:101350005B0B8A819B81480F591FE0911701F09127
:1013600018018091B8019091B9018E1B9F0B2C81BF
:101370003D81820F931FBC017595679523E095957C
:1013800087952A95E1F7680F791F9A01359527957A
:1013900083E0559547958A95E1F7240F351FCB01DA
:1013A000820F931F8A0F9B1F9093DB018093DA01BA
:1013B0002E0F3F1F261B370B65C020911301309164
:1013C00014010A811B818091C4019091C501080F0D
:1013D000191FAC81BD818091C6019091C701A80FF2
:1013E000B91F8091090190910A018C54944097FF94
:1013F00003C0E0E0F0E016C08091090190910A017D
:101400008C54944095958795855F91401CF0E4EF4E
:10141000F1E008C0E0910901F0910A01EC54F440B8
:10142000F595E79544525A4F421B530B460F571FF1
:10143000B801640F751F9F012A1B3B0B37FF02C0C9
:1014400020E030E0CB01821B930B9093D901809375
:10145000D801260F371F3093DB012093DA019A0160
:10146000201B310BAF014A0F5B1F57FF02C040E04A
:1014700050E0CA01820F931F9093DF018093DE0139
:10148000241B350B3093DD012093DC0136C0640F43
:10149000751F7093D9016093D8018881998120913B
:1014A000B4013091B501820F931F9093DF018093B7
:1014B000DE018A819B812091B6013091B701820FB4
:1014C000931F9093DB018093DA018091C00190918A
:1014D000C1012A813B81821B930B9093E30180938E
:1014E000E2018C819D812091B8013091B901820F78
:1014F000931F9093DD018093DC018091BE01909158
:10150000BF019093E1018093E00189E08816910486
:1015100041F08091C0019091C1019093E3018093CB
:10152000E2018091BC019091BD019093E50180930F
:10153000E401CDB7DEB7ECE00C94411FAAE0B0E0C7
:10154000E4EAFAE00C942D1F80910F0290911002B2
:101550000397A9F5FE0131968AE0DF011D928A9575
:10156000E9F7CF010E949A08A7E8B1E008EF11E07F
:1015700042E052E06D917C911197F8012081318118
:10158000FB0180819181281739070CF4C901F8010A
:1015900091838083FA0120813181FB0180819181D7
:1015A000821793070CF4C901FA0181939193AF015B
:1015B00012960E5F1F4FF1E0A139BF07D9F682EFF7
:1015C00091E00E949A0880915102909152020997ED
:1015D00011F074E001C075E060E080E090E0FC0193
:1015E000E957FE4FA081B1814D915C911197FC01AB
:1015F000E850FE4F0190F081E02D4E175F0754F048
:10160000FC01EE5FFD4F20813181FA01241735077F
:101610000CF4F901ED93FC936F5F02966717FCF2EF
:101620002A96E4E00C94491F8091B802882309F0BF
:1016300050C081E08093B8028FEF8093B7022FB73C
:10164000F8948091D8019091D9019093CB01809327
:10165000CA018091DA019091DB019093CD018093D2
:10166000CC018091DC019091DD019093CF018093BA
:10167000CE018091DE019091DF019093D1018093A2
:10168000D0018091E0019091E1019093D30180938A
:10169000D2018091E2019091E3019093D501809372
:1016A000D4018091E4019091E5019093D70180935A
:1016B000D60180916F00826080936F00B19A809113
:1016C000840090918500049690938900809388000F
:1016D0002FBF0895FC0181E08183808385E08283B0
:1016E000168215821086178208959C0144E0813B82
:1016F000940714F490E00DC08451954081599140B5
:1017000010F491E006C02850374014F49FEF06C053
:1017100092E0662319F082E0891B982F892F0895A3
:10172000CF93DF93EC018A818B838091B2019091FA
:10173000B3016D810E94750B87FF88838091B6018C
:101740009091B7016E810E94750B87FF89838F810D
:10175000882351F48881882329F0823029F481E09C
:101760008D83188281E08F838885882361F4898145
:10177000882319F0823039F404C081E08E8382E03E
:10178000898381E0888738813F5F898123E08202F5
:10179000C0011124380F3A839B8180E0391729F06A
:1017A00081E09295907F932B9C83DF91CF91089558
:1017B000282F30E03F6F220F331FEFB7F89480914E
:1017C000840090918500AC01405C5F4FBC016D5D71
:1017D0007A4F8091840090918500DA01A81BB90BA3
:1017E0001A161B06B4F320FF02C03F9801C03F9AAF
:1017F0004617570729F03695279545575F4FE9CF8C
:10180000EFBF0895EFB7F894379B49C016C02091F9
:101810008400309185002058314C04C08FEF9FEF39
:10182000379B0BC08091840090918500B901681BA3
:10183000790B1616170614F4F1CFAC014150504045
:10184000CA0101961816190614F34F5F5F4F19F479
:1018500020E030E826C08091840090918500AC01A2
:1018600040565F4F20E030E0BC0163597B4F8091D0
:10187000840090918500DA01A81BB90B1A161B068B
:10188000B4F386B13695279590E080789070282B38
:10189000392B4617570729F045575F4FE8CF20E00F
:1018A00030E4EFBFC9010895EF92FF920F931F93A9
:1018B000CF93DF93E82E192F062FF62E84E20E9495
:1018C000D80B802F0E94D80B2E2D312FC901EC018F
:1018D00004C08991F80E0E94D80B9E012E19201782
:1018E000C4F38F2D81950E94D80BCDB7DEB7E6E00B
:1018F0000C94471F8F929F92AF92BF92CF92DF922C
:10190000FF920F931F93CF93DF934C015A01C0E0D6
:10191000D0E0C62EDD24C7FCD09402C0812F182F42
:10192000C5010E94020C9C018070907C892B69F596
:10193000822FC130D10559F0C230D105A1F02097D6
:1019400079F7243259F7812FC1E0D0E0E8CF90E059
:10195000C816D90614F4812F15C0822FF22EC2E0CA
:10196000D0E000E0DCCFF20E812F8150112331F066
:10197000F401E00FF11D20830F5FD1CFFF2011F4A0
:1019800081E004C0C0E0D0E0CACF80E0DF91CF9119
:101990001F910F91FF90DF90CF90BF90AF909F90DD
:1019A0008F9008951F93CF93DF93EC01142F45E49C
:1019B00050E00E945C1F8881811711F08FEF12C0E8
:1019C00090E020E030E0FE01E20FF31F8081980FED
:1019D0002F5F3F4F25343105B1F7992311F480E093
:1019E00001C08EEFDF91CF911F910895DC0190E04F
:1019F00020E030E0FD01E20FF31F8081980F2F5FA0
:101A00003F4F24343105B1F7AC5BBF4F91959C93A8
:101A1000A454B040CD0145E450E00E946C1F0895ED
:101A2000A1E1B0E0E6E1FDE00C941F1F1C0181E0A4
:101A300089838DE092E09B838A8302969D838C83C9
:101A40000D969F838E8302969987888702969B873F
:101A50008A8702969D878C8702969F878E87CE0104
:101A60000196998B888BD0900D02DD0CCC246624D6
:101A7000EE24FF248701F0E88F2EFAE19F2EF6E096
:101A8000AF2EB12CE2E07E2E2C010E94D7019B01EB
:101A9000AC01DC01CB018E199F09A00BB10B88169C
:101AA0009906AA06BB060CF051C0171424F5872D21
:101AB000992787FD9095FC01E170F07080FD03C0CF
:101AC00088E097E002C08CED95E09093DB01809375
:101AD000DA018CED95E09093D9018093D801EE0F57
:101AE000FF1FEE0FFF1FE159FE4F80809180A28003
:101AF000B3807A9429C0DD2039F11D1424F46CE2FE
:101B000071E0A1E003C064ED7EEFAFEF8D2D99276A
:101B100087FD9095FC01E170F07080FF03C08CEDB3
:101B200095E003C0CB0184529A4F9093D9018093E2
:101B3000D801EE0FFF1FEE0FFF1FE159FE4F80800F
:101B40009180A280B380DA1A79018A018091B6026D
:101B5000882329F01092B6020E94120802C0662063
:101B600041F08091B802882309F08CC00E94140BC8
:101B70006624772009F089CFC1010E94900B882349
:101B800009F483CFF1018481843561F0853520F437
:101B9000823509F063C013C0863559F0883509F0E5
:101BA0005DC02AC0F1E0FC1514F0CC2470C0CA94CA
:101BB0006EC085E08C150CF468C0C39468C0AC2D71
:101BC000BB27A7FDB095FD01EE0FFF1FE40DF51D2E
:101BD0000180F281E02D8081282F332727FD309569
:101BE0002F5F3F4FA958BE4F8C91992787FD909545
:101BF00082179307F4F41CC0AC2DBB27A7FDB0954A
:101C0000FD01EE0FFF1FE40DF51D0180F281E02DB7
:101C10008081282F332727FD309521503040A1584F
:101C2000BE4F8C91992787FD9095281739070CF4A2
:101C30009C01208320E08C2D992787FD9095FC0145
:101C4000EE0FFF1FE40DF51D0180F281E02DD08025
:101C5000DD0C222319F00196782E770C89818230D1
:101C600009F013CF8CE092E060E070E00E94F60C87
:101C70008CE092E060E071E00E94F60C6196E2E197
:101C80000C943B1F6624639474CF87E0C82E21E038
:101C9000D2CFA1E9B0E0EFE4FEE00C941F1F0E9458
:101CA000D7011B012C01DE011196E1E6F1E086E08F
:101CB00001900D928150E1F78E010D5E1F4FC8011A
:101CC0000E946A0B4CE1E42EF12CEC0EFD1EC701C4
:101CD00064E00E94850639E4C32ED12CCC0EDD1EB3
:101CE000C60163E00E9485062092EA023092EB0270
:101CF0004092EC025092ED02C657DF4F28823982A3
:101D00004A825B82CA58D040CA57DF4F2882398244
:101D10004A825B82C658D040CE57DF4F2882398234
:101D20004A825B82C258D04042013101C258DF4F23
:101D3000288239824A825B82CE57D040EB962CAE05
:101D40003DAE4EAE5FAEEB97EE961FAEEE97ED96C4
:101D50001FAEED9721E0EC962FAFEC97C257DF4F07
:101D6000E882CE58D040C157DF4FF882CF58D040DC
:101D7000C057DF4F0883C059D040CF56DF4F18837C
:101D8000C159D0400E94D7015B016C010E944D02F5
:101D90008091B6028823A1F4D601C501C657DF4F52
:101DA000488159816A817B81CA58D040841B950B38
:101DB000A60BB70B81539547A040B0400CF442C02E
:101DC0001092B6020E9412088C8D882369F0C657C3
:101DD000DF4FA882B982CA82DB82CA58D04061E054
:101DE000EE966FAFEE972EC0C257DF4F8881CE5868
:101DF000D040C157DF4F9881CF58D0400E945A073A
:101E00002A968FAD2A97882311F492E001C090E0C2
:101E100020E08C8D882309F421E0920F90936D02CD
:101E200088EC90E09093730280937202C657DF4F64
:101E3000A882B982CA82DB82CA58D04091E0EE966D
:101E40009FAFEE978091B802882379F5EE96AFADFB
:101E5000EE97AA2351F1A6019501CA57DF4F688179
:101E600079818A819B81C658D040261B370B480B4D
:101E7000590B8091650290916602A0916702B09122
:101E8000680282179307A407B5077CF40E949E0A94
:101E90000E94140BCA57DF4FA882B982CA82DB8224
:101EA000C658D040EE961FAEEE97D601C501CE576C
:101EB000DF4F288139814A815B81C258D040821B23
:101EC000930BA40BB50B81519742A040B04054F145
:101ED0000E9408062A968FAD2A978823D9F4CE014E
:101EE000875B9F4F0E94C2072A968FAD2A9788234F
:101EF00011F492E001C090E020E08C8D882309F479
:101F000021E0920F90936D0248EC50E050937302E1
:101F100040937202CE57DF4FA882B982CA82DB8219
:101F2000C258D040EC965FADEC97552309F456C0EB
:101F3000C057DF4F8881C059D040CF56DF4F9881BE
:101F4000C159D0400E94900B882309F447C0ED96F8
:101F50006FADED97E62FFF27E7FDF095E85AFE4FAE
:101F60009F898081981721F0ED961FAEED9707C0ED
:101F7000ED967FADED977F5FED967FAFED97ED9698
:101F80008FADED97E82FFF27E7FDF095E85AFE4F5C
:101F900080818F3F81F4CE0143960E94100D2EE088
:101FA00088E190E00FB6F894A895809360000FBE8A
:101FB00020936000FFCFD601C50182199309A409BF
:101FC000B509815C914EA44EB04024F0EC961FAE52
:101FD000EC9704C0F1E0EC96FFAFEC978C8D882372
:101FE00029F02A968FAD2A978823C9F58091B401EC
:101FF0009091B5012091B2013091B301820F931FEE
:102000002091190130911A01821B930B2091130129
:1020100030911401821B930B959587959093C30182
:102020008093C2018091B6019091B7012091150172
:1020300030911601821B930B9093C5018093C401CC
:102040008091B8019091B901209117013091180148
:10205000821B930B9093C7018093C60193CED60148
:10206000C50186199709A809B90981519742A0406D
:10207000B0400CF434C380916302909164028130CB
:10208000910559F48091BA019091BB01865F95400A
:102090000CF0A3C080E090E00DC0892B09F09DC03A
:1020A0008091BA019091BB01875296400CF495C083
:1020B00081E090E09093640280936302892B11F099
:1020C00084E001C080E080936D0268EC70E0709362
:1020D0007302609372021092CB021092CC021092A3
:1020E000CD021092CE021092D7021092D802109216
:1020F000D9021092DA021092CF021092D0021092FE
:10210000D1021092D2021092DB021092DC021092E5
:10211000DD021092DE021092D3021092D4021092CD
:10212000D5021092D6021092DF021092E0021092B5
:10213000E1021092E202809124029091250202971E
:1021400009F04BC0D601C501EB962CAD3DAD4EADAF
:102150005FADEB97821B930BA40BB50B8152914A99
:10216000A740B0401CF0E7961FAEE797E7964FAD4B
:10217000E7974F5FE7964FAFE797433044F1809181
:10218000B2019091B3019093140180931301809157
:10219000B6019091B701909316018093150180913B
:1021A000B8019091B9019093180180931701809123
:1021B000B4019091B50190931A0180931901809117
:1021C000C0019091C10190931C0180931B01EB967B
:1021D000ACAEBDAECEAEDFAEEB974091B401509148
:1021E000B5018091B2019091B301480F591F8091C0
:1021F000190190911A01481B590B8091130190917C
:102200001401481B590B559547955093C3014093B2
:10221000C201E091B601F091B70180911501909152
:102220001601E81BF90BF093C501E093C401A091DE
:10223000B801B091B9018091170190911801A81BC4
:10224000B90BB093C701A093C6018091C0019091D2
:10225000C10120911B0130911C01821B930B9093B3
:10226000C9018093C80180911E028150282F332715
:1022700027FD3095CA0157FF04C088279927841B82
:10228000950B022E02C0880F991F0A94E2F761E0B5
:102290008139960714F080E991E060E971E0681BEC
:1022A000790B78876F83CF01F7FF04C088279927C0
:1022B0008E1B9F0B022E02C0880F991F0A94E2F713
:1022C00071E08139970714F080E991E060E971E0ED
:1022D000681B790B7A876987CD01B7FF04C088270F
:1022E00099278A1B9B0BBC0102C0660F771F2A959A
:1022F000E2F781E06139780714F060E971E010E9F4
:10230000612E11E0712E661A770A7C866B868091A9
:10231000BA019091BB0125E0833C92074CF403EC99
:1023200015E0081B190B31E00139130794F00BC0BD
:1023300066E0883296071CF400E010E00AC077E0FF
:10234000863897071CF000E911E003C08C01055F97
:102350001540809063029090640281E08816910499
:1023600059F08114910409F050C08091220290919B
:102370002302029709F049C0809120029A01082E99
:1023800002C0220F331F0A94E2F73E872D87082EE2
:1023900002C0EE0FFF1F0A94E2F7F88BEF87AD0142
:1023A00002C0440F551F8A95E2F75A8B498B8981E9
:1023B0009A8197FD05C088279927821B930B01C03E
:1023C000C9019093BA028093B9028B819C812F85B9
:1023D000388997FD05C088279927821B930B01C078
:1023E000C9019093BC028093BB028D819E8197FDB1
:1023F00003C0509541955F4F5093BE024093BD027C
:1024000091E08916910471F055C01092BA021092B1
:10241000B9021092BC021092BB021092BE0210923E
:10242000BD0248C06F817885882777FD8095982FF9
:1024300024EF3FEB40E050E00E94C31EF9E0959589
:10244000879577956795FA95D1F76093D702709342
:10245000D8028093D9029093DA0269857A85882719
:1024600077FD8095982F0E94C31EE9E0959587958A
:1024700077956795EA95D1F76093DB027093DC025C
:102480008093DD029093DE02B301882777FD80956B
:10249000982F0E94C31E39E095958795779567958B
:1024A0003A95D1F76093DF027093E0028093E102E6
:1024B0009093E2022091EC013091ED018091E601D0
:1024C0009091E701281B390BA0E220303A0714F065
:1024D0002FEF3FE1C901B0EE20303B0714F480E05C
:1024E00090EE9093C0028093BF022091EE01309154
:1024F000EF018091E8019091E901281B390BE0E29E
:1025000020303E0714F02FEF3FE1C901F0EE2030FC
:102510003F0714F480E090EE9093C2028093C102D2
:102520002091F0013091F1018091EA019091EB014D
:10253000281B390B40E22030340714F02FEF3FE125
:10254000C90150EE2030350714F480E090EE9093EE
:10255000C4028093C302892819F06CE372E002C0C0
:1025600069E272E089EB92E00E945005EE24FF24BC
:102570003801882477FC8094982C87010E501E4FD8
:10258000E1E0F0E0EC0FFD1FEE0DFF1D60817181B9
:10259000882777FD8095982FF701E754FD4F22A5F6
:1025A00033A5442737FD4095542F0E94C31E27E0D2
:1025B00095958795779567952A95D1F7E7E0F0E0AF
:1025C000EC0FFD1FEE0DFF1D20813181442737FDEB
:1025D0004095542F0E94C31E9B01AC01B9E0559554
:1025E000479537952795BA95D1F7C401B3010E9455
:1025F000C31EA9E09595879577956795AA95D1F71C
:10260000D8016D937C93E2E0F0E0EE0EFF1EF6E061
:10261000EF16F10409F0B1CF2091E90212160CF087
:102620005CC08091EA029091EB02A091EC02B09123
:10263000ED02B601A501481B590B6A0B7B0BDB01B0
:10264000CA0181549D40A340B0405CF021502093CA
:10265000E902A092EA02B092EB02C092EC02D092A0
:10266000ED028091E902992787FD90954091F20152
:102670005091F301BC016170707080FF03C026E9C6
:1026800030E002C02AE63FEF240F351F3093F301FC
:102690002093F2014091F4015091F501611571050B
:1026A00019F026E930E002C02AE63FEF240F351F7B
:1026B0003093F5012093F4012091F6013091F70158
:1026C000672B19F48AE69FEF02C086E990E0820F3B
:1026D000931F9093F7018093F60135014601D601CF
:1026E000C501C258DF4F288139814A815B81CE57AD
:1026F000D040821B930BA40BB50B8C59914AA74079
:10270000B0400CF43FCB80912602803839F48091A0
:102710000001282F30E02058304004C0282F3327F4
:1027200027FD309580912702803839F4809101018E
:10273000482F50E04058504004C0482F552747FDCF
:10274000509580912802803831F48091020190E008
:102750008058904003C0992787FD90953A8329833C
:102760005C834B839E838D83295F3F4F2F303105E0
:1027700010F41A8219828B819C8107960F9710F4AE
:102780001C821B828D819E8107960F9710F41E82FA
:102790001D8280E00E94D003C258DF4FA882B98218
:1027A000CA82DB82CE57D040EDCAA6E6B0E0EBEDA0
:1027B000F3E10C94291F1092800081E08093810046
:1027C0003F98479848E552E000E06E010894C11C2C
:1027D000D11C62E0E62EF12CEC0EFD1EC60166E671
:1027E0000E947A0C882309F441C089818230A9F0C3
:1027F000833018F4813029F406C08330B1F084307E
:10280000E9F010E026C0C70160E870E048E050E061
:102810000E945C1F10E069E01DC0C70160E870E025
:1028200048E050E00E946C1F13C0C70160E070E0F8
:102830004CE00E94D20C10E066E40CC0C70160E0DE
:1028400070E00E94F60CC70160E071E00E94F60C97
:1028500011E061E0898180688983C6010E94540C7F
:1028600001E044EF51E0112309F4B8CF802FCA5999
:10287000DF4FE8E00C94451F1F920F920FB60F92A6
:1028800011240F931F932F933F934F935F936F9355
:102890007F938F939F93AF93BF93EF93FF93809119
:1028A000B70287FD42C0E091B702FF27E7FDF09530
:1028B000E25CFE4F808160E00E941E1C36C0809169
:1028C000B7028F5F8093B702E091B702FF27E7FD61
:1028D000F095E25CFE4F808187FD27C00091840067
:1028E00010918500E091B702FF27E7FDF095E25CCB
:1028F000FE4F808161E00E941E1CE091B702FF271D
:10290000E7FDF095EE0FFF1FE25DFE4F0190F081B5
:10291000E02D808191810297880F991F800F911F70
:1029200090938900809388000BC08091B702873014
:1029300034F21092B80280916F008D7F80936F0007
:10294000FF91EF91BF91AF919F918F917F916F9187
:102950005F914F913F912F911F910F910F900FBE5B
:102960000F901F9018950F931F93CF93DF9300E064
:1029700010E0E801C25CDE4F888187FD08C08881D5
:1029800060E00E941E1C888161E00E94A61B0F5F10
:102990001F4F0830110569F7DF91CF911F910F91FB
:1029A0000895A0E0B0E0E7EDF4E10C94291F182FA2
:1029B000062F862F61E00E94A61B812F60E00E94F7
:1029C000A61B812F61E00E941E1C6AE070E080E07F
:1029D00090E00E941702C0E0D0E0812F992787FD88
:1029E0009095FC01E759FE4FE491F0E0EE0FFF1FD8
:1029F000E55AFE4FC590D49089579E4FFC018491B3
:102A0000E82EFF24CE018170182F802F612F0E94A5
:102A10001E1CF601808120E030E090E08E219F2195
:102A2000892B11F021E030E0812F992787FD9095C7
:102A30002817390711F010E005C02196C830D105DC
:102A400009F711E0802F60E00E94A61B812FCDB70F
:102A5000DEB7E8E00C94451FA4E9B0E0E2E3F5E15D
:102A60000C94291F559A80916A0390916B030097EB
:102A700011F09C0102C02EE633E0CE010196821BCC
:102A8000930B803891054CF484E180936E028EE1C3
:102A900090E0909375028093740281E090E09093AF
:102AA0000E0280930D0220E8209326022093270235
:102AB000209328029093100280930F0287E0809366
:102AC0004F0210921102E7E6F1E092E1C92E92E086
:102AD000D92ED60181918D9321E0EF36F207D1F7FF
:102AE00042E050E050931B0240931A0221E030E094
:102AF00030931D0220931C0230931F0220931E026C
:102B000083E090E09093210280932002309323028F
:102B100020932202509325024093240284EF91E0F7
:102B200090932A02809329021092300210922F0271
:102B3000909336028093350290932C0280932B025F
:102B40001092320210923102909338028093370231
:102B500090932E0280932D02109234021092330231
:102B600090933A028093390228E020933B0290939D
:102B70003D0280933C0290934302809342029093E3
:102B800049028093480290933F0280933E029093C3
:102B900045028093440290934B0280934A029093A3
:102BA00041028093400290934702809346029093A3
:102BB0004D0280934C0220934E0285E066E00E9415
:102BC000D114882311F400E001C007E0CE01039680
:102BD00060E870E048E050E00E945C1F002361F470
:102BE0008B81833049F48C819D81AE81BF818E546D
:102BF0009146AC4BB04071F083E08B838EE491E65C
:102C0000ACEBB0E08C839D83AE83BF8318861986BE
:102C10001A860860CE010B9660E070E04CE00E94DE
:102C2000D20C87FD0260CE01805B9F4F60E071E0B7
:102C30004CE00E94D20C87FD046083E08093E9029F
:102C4000E02EFF24C701867090708230910531F02C
:102C50008430910579F0892B81F119C08E01005BD8
:102C60001F4FC80160E070E00E94F60C88858F5FFE
:102C700088870BC08E01055F1F4FC80160E071E0BF
:102C80000E94F60C89858F5F8987C80118C08CE087
:102C900080930C028CE092E060E070E00E94F60C01
:102CA0008CE092E060E071E00E94F60C8A858F5F14
:102CB0008A8789E08093E9020AC0CE010B96ACE0D6
:102CC000B2E0FC0185E401900D928150E1F7C7016B
:102CD0008E709070892B41F0CE01039660E870E011
:102CE00048E050E00E946C1FE0FE0AC082E00E94B3
:102CF0003F0264E670E080E090E00E942C1BF6CF7B
:102D00000E94D513882361F02EE088E190E00FB691
:102D1000F894A895809360000FBE20936000FFCFC9
:102D20001092800082E08093810081E080936F00A8
:102D300085B5887F85BD80910F0290911002823009
:102D4000910519F18330910524F4019709F05BC0D6
:102D500007C08330910571F1049709F054C03FC05A
:102D600080E090E048EE53E020ED37E0FC01E850D1
:102D7000FE4F51834083FC01EE5FFD4F3183208382
:102D800002968A30910591F73EC080E090E04CE4D5
:102D900054E02CE637E0FC01E850FE4F51834083BD
:102DA000FC01EE5FFD4F3183208302968A3091054E
:102DB00091F729C080E090E042EE54E026ED36E045
:102DC000FC01E850FE4F51834083FC01EE5FFD4F54
:102DD0003183208302968A30910591F714C080E0F8
:102DE00090E044E853E024E338E0FC01E850FE4F73
:102DF00051834083FC01EE5FFD4F318320830296B7
:102E00008A30910591F780911102992787FD90955D
:102E100028EE33E0FC01E29FC001E39F900DF29F9A
:102E2000900D1124AA2797FDA095BA2F80936502D3
:102E300090936602A0936702B093680280914F025C
:102E4000877080931D01A3E5B2E0F60181916F01C7
:102E5000E82FFF27E7FDF095EE0FFF1FE25EFE4F24
:102E6000808191818D939D93FAE1CF16F2E0DF0688
:102E700061F720E030E0F901EA5BFE4F8081F90163
:102E8000E25CFE4F80832F5F3F4F2830310599F77A
:102E90000E9470040E94890480910D0290910E029C
:102EA0009093520280935102019731F482E090E0B6
:102EB00090935202809351028091510280936C0250
:102EC00088E592E090937102809370020E94200442
:102ED0000E9447050E94B3140E9470060E941208C7
:102EE0000E949E0ACC56DF4FE8E00C94451FCF931A
:102EF000DF930E94501B8CEF92E00E945B180E94AF
:102F00002C15C0E0D0E00E94490E2097E1F30E940A
:102F10000000F9CFFC0104C08091F1008193615061
:102F20006623D1F7289884E68093F5020895282F28
:102F30008091F6028823C1F057FF1AC015C0289867
:102F40009093F5028091F1008193E217F307B9F7AE
:102F50004115510539F08091F200882319F48BE670
:102F60008093E800AFBF02C04FEF5FEFCA01089542
:102F7000AFB7F89427702093E9008091F200282FD2
:102F800030E0241735070CF4A901FB019B01240F45
:102F9000311D94E6DACFA1E0B0E0E1EDF7E10C9469
:102FA0002F1FBE016F5F7F4F41E050E00E949717D7
:102FB000019719F02FEF3FEF03C08981282F30E0F0
:102FC000C9012196E2E00C944B1F2FB7F89487704B
:102FD0008093E9008091E80085FD02C090E004C084
:102FE0008091F20090E4981B2FBF892F0895FF92E3
:102FF0000F931F93F82E142F052F4091F902509133
:10300000FA02212F302FC901DC01FB016EEF29C02C
:10301000F7FE02C0949101C090812091F702309197
:10302000F80224173507ACF48091E8008570E1F3CD
:103030008091E80082FF03C02FEF3FEF17C090930D
:10304000F100C90101968F739070892B11F4609380
:10305000E8002F5F3F4F3093F8022093F70211975B
:1030600031961097A9F6812F902F9C01C9011F91CD
:103070000F91FF9008950F931F939C01162F072F18
:103080008091E80082FFFCCFC901612F0E948A175E
:103090008BEF8093E800812F902F1F910F9108955F
:1030A0008093E9008091F200882319F08AE38093ED
:1030B000E800089508951092F60281E08093D70009
:1030C00080EA8093D80082E189BD09B400FEFDCF7B
:1030D00061E070E080E090E00E942C1B80E980932A
:1030E000D8008CE08093E2001092E000559A209A7C
:1030F0000895A0E0B0E0EFE7F8E10C94231FE82E7C
:10310000942E852E8091F602882309F18B01242FBD
:10311000352FC901EC016AEFF62E57E0752E7E209F
:103120008E2D90E040E2A42EB12CA822B9223AE3E1
:10313000632E20E4C22ED12CC822D9224CC08E2D61
:103140000E94E517282F882361F4FA9419F42FEFD1
:103150003FEF4CC061E070E080E090E00E942C1BEB
:103160003AC090E0C817D9070CF42C2FC21BD10924
:103170004FB7F8947092E900A114B10421F406C08D
:103180001092F10021502223D9F719C0E7FC03C0A7
:10319000F801922F10C0C801322F06C0FC01019621
:1031A000E491E093F10031503323C1F706C08191DF
:1031B0008093F10091509923D1F7020F111D809156
:1031C000E80085FF05C0209729F4C114D10411F04F
:1031D0006092E8004FBF209709F0B1CF5D9884E678
:1031E0008093F402292D382DC9019C01C901CDB766
:1031F000DEB7EEE00C943F1F1F920F920FB60F92B6
:1032000011242F933F934F935F936F937F938F93EB
:103210009F93AF93BF93EF93FF938091E100109240
:10322000E100982F83FF0FC01092E90081E08093A6
:10323000EB001092EC0082E38093ED001092F60216
:1032400088E08093F00092FF34C083E08093E9002F
:103250008091F200882319F08AE38093E8008FB709
:10326000F89492E09093E9009091F2008FBF992337
:1032700021F08AE493E00E94DB1C8091F402882311
:1032800051F08091F40281508093F4028091F40215
:10329000882309F45D9A8091F502882351F080918A
:1032A000F50281508093F5028091F502882309F49C
:1032B000289AFF91EF91BF91AF919F918F917F914C
:1032C0006F915F914F913F912F910F900FBE0F9093
:1032D0001F901895A1E0B0E0E0E7F9E10C942D1FF4
:1032E00019828E010F5F1F4FC8010E94011DC80186
:1032F0000E94931E898190E02196E4E00C94491F7E
:103300001F920F920FB60F921124EF92FF921F930C
:103310002F933F934F935F936F937F938F939F93DD
:10332000AF93BF93EF93FF93DF93CF93CDB7DEB708
:103330006197DEBFCDBF1092E9008091E80083FF66
:1033400004C1CE01019668E00E948A1782EF809343
:10335000E800998197FF05C08091E80080FFFCCFCD
:1033600003C08EEF8093E800292F30E0C9018076FA
:103370009070892B09F0C2C08A81882329F41092A9
:10338000F1001092F100D6C0813009F4D3C083302F
:1033900009F4D0C0853049F48091E80080FFFCCF6B
:1033A0008B8180688093E300C5C0863009F07CC0C3
:1033B0001C81EF80F8841230C1F51092E900109260
:1033C000F8021092F7021092FA021092F9020E948B
:1033D0006A1999E0FE013996DF01292F1D922A957D
:1033E000E9F799871A8791E09E8790E8988B9AEF82
:1033F000998B2091F7023091F802275F3F4F3C876D
:103400002B878D871092E9001092F8021092F70234
:10341000F092FA02E092F90280E0BF0149E050E048
:103420000E94F7170E946A1985C01092E900109255
:10343000F8021092F702F092FA02E092F9021232C8
:1034400041F482E290E00E948B1E892B09F476C041
:1034500071C0113079F488E0E816F10419F481E0C4
:103460008093FB028091FB02882309F06BC0E6E1A8
:10347000F1E013C0133009F061C08B81882319F487
:10348000E8EDF0E00AC0823019F4ECEDF0E005C0A0
:10349000813009F053C0EEEFF0E0449180E8BF01C5
:1034A00050E00E94F71746C0873009F447C08830C3
:1034B00021F481E08093F1003DC08930D9F523707B
:1034C0003070232BD9F5EBE3F1E091E031E026E316
:1034D0009093E9003093EB0084918093EC0020936B
:1034E000ED009F5F3196953099F78EE78093EA0063
:1034F0001092EA008B818093F6021CC08F81988520
:103500001092E9001092F8021092F7029093FA02DA
:103510008093F9028D81882329F4CE0101960E94BF
:103520000D1D06C0823051F4CE0101960E94631D2C
:10353000882321F08EEF8093E80007C081E280931A
:10354000EB0003C0E8E2F1E0A8CF6196DEBFCDBF9B
:10355000CF91DF91FF91EF91BF91AF919F918F91AB
:103560007F916F915F914F913F912F911F91FF90AC
:10357000EF900F900FBE0F901F9018951F920F9213
:103580000FB60F9211242F933F938F939F93AF9376
:10359000BF938091010390910203A0910303B09126
:1035A0000403309105030196A11DB11D232F2D5F4A
:1035B0002D3720F02D570196A11DB11D2093050335
:1035C0008093010390930203A0930303B093040339
:1035D0008091FD029091FE02A091FF02B091000344
:1035E0000196A11DB11D8093FD029093FE02A09350
:1035F000FF02B0930003BF91AF919F918F913F91D4
:103600002F910F900FBE0F901F9018959FB7F894B1
:103610002091FD023091FE024091FF025091000383
:1036200086B5A89B06C08F3F21F02F5F3F4F4F4FBD
:103630005F4F9FBF542F432F322F2227280F311D5A
:10364000411D511D82E0220F331F441F551F8A95D3
:10365000D1F7B901CA010895EF92FF920F931F931A
:10366000CF93DF937B018C010E94061BEB010EC000
:103670000E94061B6C1B7D0B685E7340C8F30894A8
:10368000E108F10801091109C851DC4FE114F10406
:103690000105110569F7CDB7DEB7E6E00C94471FC9
:1036A000789484B5826084BD84B5816084BD85B51D
:1036B000826085BD85B5816085BDEEE6F0E08081E4
:1036C00081608083E1E8F0E0108280818260808305
:1036D000808181608083E0E8F0E080818160808388
:1036E000E1E9F0E080818260808380818160808375
:1036F000E0E9F0E0808181608083E1ECF0E08081AE
:103700008460808380818260808380818160808307
:10371000E3ECF0E0808181608083E0ECF0E0808188
:1037200082608083E2ECF0E0808181608083EAE760
:10373000F0E08081846080838081826080838081EA
:10374000816080838081806880830895CF93DF9338
:10375000482F50E0CA0189579E4FFC0134914759C8
:103760005E4FFA018491882369F190E0880F991FD8
:10377000FC01E15CFE4FA591B491FC01E35BFE4FBF
:10378000C591D491662351F42FB7F8948C91932F5F
:10379000909589238C93888189230BC0623061F4D2
:1037A0002FB7F8948C91932F909589238C938881CF
:1037B000832B88832FBF06C09FB7F8948C91832BEF
:1037C0008C939FBFDF91CF91089590E0FC013197DA
:1037D000EE30F10590F5E25AFF4F0C94561F8091A0
:1037E00080008F7703C0809180008F7D8093800060
:1037F000089584B58F7702C084B58F7D84BD089508
:10380000809190008F7707C0809190008F7D03C0DA
:1038100080919000877F8093900008958091C000F0
:103820008F7703C08091C0008F7D8093C000089582
:103830008091C200877F8093C2000895FF920F930A
:103840001F93F62E482F50E0CA018B559E4FFC0166
:103850002491CA0189579E4FFC01149147595E4F2C
:10386000FA0104910023C9F0222319F0822F0E944B
:10387000E51BE02FF0E0EE0FFF1FE35BFE4FA5918D
:10388000B4919FB7F894FF2021F48C911095812377
:1038900002C08C91812B8C939FBF1F910F91FF9041
:1038A00008952091460330914703809148039091F9
:1038B0004903281B390B2F733070C90108952091DB
:1038C000460330914703809148039091490328179C
:1038D000390719F42FEF3FEF09C0E0914803F09149
:1038E0004903EA5FFC4F8081282F30E0C901089529
:1038F00020914603309147038091480390914903FA
:103900002817390719F42FEF3FEF13C0E091480350
:10391000F0914903EA5FFC4F208180914803909128
:10392000490301968F7390709093490380934803E5
:1039300030E0C901089510924D0310924C0388EEB7
:1039400093E0A0E0B0E080934E0390934F03A093E8
:103950005003B093510385E991E090934B0380931A
:103960004A030895A1E0B0E0E8EBFCE10C942D1FC0
:103970008C01698380915501882369F083E0BE0141
:103980006F5F7F4F41E050E00E94791818161906CA
:1039900014F49C0107C081E090E0F80193838283D6
:1039A00020E030E0C9012196E4E00C94491F83E057
:1039B0000E9450180895CF93DF9312C082E00E94B6
:1039C000CB172FEF8F3F9207C9F0E0914603F0919C
:1039D0004703EA5FFC4F8083D0934703C0934603BD
:1039E000C0914603D09147032196CF73D070809148
:1039F000480390914903C817D90701F7DF91CF9188
:103A00000895FC0180818E5F808380E86FEC71E017
:103A100042E450E00E94F7170895FC0181819081F3
:103A2000913A59F4813209F04CC080E06EE471E0C3
:103A300047E050E00E94F71742C0913209F041C0C0
:103A4000803239F48EE491E067E070E00E943B1828
:103A500036C0823209F035C0828180935501809151
:103A60004E0190914F01A0915001B0915101805BA6
:103A70009440A040B04019F58091550180FD12C0DE
:103A800087E797E790930108809300082BE088E18F
:103A900090E00FB6F894A895809360000FBE209335
:103AA00060000DC088E10FB6F8948093600010921A
:103AB00060000FBEA895109201081092000881E0E6
:103AC000089580E00895FC0191818081813A31F46C
:103AD000913089F080E0933089F40DC0813269F42F
:103AE0009B3021F482818093560105C09A3029F4DD
:103AF00082818093570181E0089580E00895EF92DC
:103B0000FF920F931F938C01E62EDC01ED91FC9147
:103B10000480F581E02D0995F82ED801ED91FC91F6
:103B20000680F781E02DC8016E2D09958F2D90E05C
:103B30001F910F91FF90EF900895109258031092EB
:103B40005C0310925B0387EA91E090935A038093A1
:103B500059030895A1E0B0E0E0EBFDE10C942B1FC8
:103B600089838B017A0184E0BE016F5F7F4F41E062
:103B700050E00E94791884E4B801A7010E947918E6
:103B80002196E6E00C94471F82E048E050E00E9456
:103B9000AA1D0895FC0116821782108611861286CE
:103BA000138614823496BF010E94C41D0895DC015F
:103BB000683810F0685829C0E62FF0E067FF13C09E
:103BC000E058F04081E090E002C0880F991FEA952C
:103BD000E2F7809514962C911497282314962C9331
:103BE000149760E012C0E157FD4F6491662319F409
:103BF00020E030E01DC067FF08C014968C91149738
:103C00008D7F14968C9314976F77FD0190E0662357
:103C100021F08681861709F416829F5F31969630CF
:103C2000B1F7CD011496BD010E94C41D21E030E022
:103C3000C9010895CF93DF93DC01683810F068580C
:103C400025C0E62FF0E067FF12C0E058F04081E0A9
:103C500090E002C0880F991FEA95E2F714962C9124
:103C60001497282B14962C93149760E00FC0E157FB
:103C7000FD4F64916623D9F167FF08C014968C91BB
:103C80001497826014968C9314976F7716968C9184
:103C900016978617A9F117968C911797861781F1B9
:103CA00018968C911897861759F119968C91199737
:103CB000861731F11A968C911A97861709F11B967F
:103CC0008C911B978617E1F0ED01E0E0F0E09E2F6C
:103CD0008E81882321F4EA0FFB1F668306C09F5F55
:103CE00031962196E630F10591F7963049F481E05E
:103CF00090E013969C938E93129720E030E007C0DB
:103D0000CD011496BD010E94C41D21E030E0C9011F
:103D1000DF91CF91089580E861E172E045E650E0DF
:103D20000E94F7170895FC0180818F5F808380E8EF
:103D300066E772E049E150E00E94F7170895A0E0BD
:103D4000B0E0E5EAFEE10C94291F7C016B018A01D9
:103D5000C0E0D0E00FC0D6016D916D01D701ED91AB
:103D6000FC910190F081E02DC7010995C80FD91F82
:103D7000015010400115110571F7CE01CDB7DEB726
:103D8000E8E00C94451F629FD001739FF001829F71
:103D9000E00DF11D649FE00DF11D929FF00D839FDA
:103DA000F00D749FF00D659FF00D9927729FB00D77
:103DB000E11DF91F639FB00DE11DF91FBD01CF018A
:103DC00011240895A1E21A2EAA1BBB1BFD010DC0F0
:103DD000AA1FBB1FEE1FFF1FA217B307E407F507BB
:103DE00020F0A21BB30BE40BF50B661F771F881F97
:103DF000991F1A9469F760957095809590959B012D
:103E0000AC01BD01CF01089597FB092E05260ED008
:103E100057FD04D0D7DF0AD0001C38F450954095E8
:103E2000309521953F4F4F4F5F4F0895F6F790958E
:103E30008095709561957F4F8F4F9F4F08952F927A
:103E40003F924F925F926F927F928F929F92AF922A
:103E5000BF92CF92DF92EF92FF920F931F93CF9377
:103E6000DF93CDB7DEB7CA1BDB0B0FB6F894DEBF0E
:103E70000FBECDBF09942A88398848885F846E8434
:103E80007D848C849B84AA84B984C884DF80EE807E
:103E9000FD800C811B81AA81B981CE0FD11D0FB687
:103EA000F894DEBF0FBECDBFED010895EE0FFF1FEA
:103EB0000590F491E02D0994DC01CB01FC01F99906
:103EC000FECF06C0F2BDE1BDF89A319600B40D9266
:103ED00041505040B8F70895DC01CB0103C02D914B
:103EE0000E94771F41505040D0F70895262FF9992E
:103EF000FECF1FBA92BD81BD20BD0FB6F894FA9ACD
:0C3F0000F99A0FBE01960895F894FFCFC7
:103F0C00FFFFFFDC05DC05DC05DC05E803DC05E870
:103F1C0003DC05DC05DC05DC05DC05DC050607013E
:103F2C0005010F0103010B0109010D011101CE0166
:103F3C00CC01D201CA010000D001D601D4010B0A78
:103F4C00FF09FF0DFFFF0B0A0509FF0DFF0600E13E
:103F5C000000000000000101788998877889988713
:103F6C00FF0000000000000001020304050607A08A
:103F7C00860100801A0600050405030402020201F2
:103F8C0001010101010101D801DA01DC01DE01E2CC
:103F9C000100000000B21C9F1E511C781C5F1CD736
:103FAC001CDB1C000000007F1D9F1E1A1ED71DCAA3
:023FBC001D00E6
:00000001FF
