:100000000C9469000C9486000C9486000C949B035D
:100010000C9486000C9425040C9486000C948600A5
:100020000C9486000C9486000C9486000C94E513C6
:100030000C9486000C9488000C9486000C94860026
:100040000C9435170C9486000C9486000C94860052
:100050000C9486000C94BA020C9486000C948600D2
:100060000C9486000C9486005E087D0836095E08B4
:100070007D0836098609F0090000000024002700E9
:100080002A0000000000250028002B0000000000CE
:1000900023002600290004040404040404040202CA
:1000A00002020202030303030303010204081020F7
:1000B0004080010204081020010204081020000002
:1000C0000007000201000003040600000000000019
:1000D000000011241FBECFEFD4E0DEBFCDBF11E082
:1000E000A0E0B1E0E8ECF2E302C005900D92AC3A7A
:1000F000B107D9F713E0ACEAB1E001C01D92A53019
:10010000B107E1F70E9426170C9462190C940000C5
:100110001F920F920FB60F9211248F939F9380918D
:10012000560290915702019690935702809356027F
:100130008091560290915702892B29F480915802A0
:100140008F5F809358029F918F910F900FBE0F90F9
:100150001F9018956091840070918500209156023F
:1001600030915702E091580280918400909185006F
:100170008627972797FDEECF8091560290915702E0
:100180002817390739F780915802E81719F740E026
:1001900050E0FFE0220F331F441F551FFA95D1F79F
:1001A0008E2F90E0A0E0B0E0BB278695B795AA27F8
:1001B00099278827282B392B4A2B5B2B7695679517
:1001C000CB01A0E0B0E0282B392B4A2B5B2BB901E7
:1001D000CA010895AF92BF92CF92DF92EF92FF9241
:1001E0000F931F9328EE33E040E050E00E94A118E7
:1001F0005B016C010E94AA007B018C010E94AA0095
:100200006E197F09800B910B6A157B058C059D0586
:10021000A8F31F910F91FF90EF90DF90CF90BF90C8
:10022000AF900895882321F0813021F45B9A0895DE
:100230005B9808958BB198E089278BB90895EF9268
:10024000FF920F931F937B018C018091F20290919A
:10025000F302A091F402B091F5028E199F09A00B50
:10026000B10B181619061A061B060CF450C0809123
:10027000F602882321F5E091F702EF5FE370E09347
:10028000F702FF27E7FDF095E75AFD4F8081992798
:1002900087FD9095880F991F8093F60280E492E481
:1002A000AFE0B0E0E80EF91E0A1F1B1FE092F20259
:1002B000F092F3020093F4021093F50228C08150EB
:1002C0008093F60281700E941201E091F702FF27ED
:1002D000E7FDF095EE0FFF1FE35AFD4F80819181FE
:1002E000AA2797FDA095BA2F2AE0880F991FAA1F69
:1002F000BB1F2A95D1F78E0D9F1DA01FB11F8093A4
:10030000F2029093F302A093F402B093F5021F91CE
:100310000F91FF90EF9008959A01AB01882311F09F
:10032000459A449A1092B90060E074E284EF90E03C
:100330000E94C0182051304040405040569547958B
:10034000379527952093B80008952FEF30E011C01E
:100350002115310561F41092BC00809165029091E5
:10036000660201969093660280936502089521507B
:1003700030408091BC0087FFEBCF0895FF920F9330
:100380001F93F82E0CEB10E084EAF80180830E94A2
:10039000A501F092BB0084E8F80180830E94A501CA
:1003A0001F910F91FF9008958093BB0084E8809384
:1003B000BC000E94A50108951F93182F882311F4F3
:1003C00084E801C084EC8093BC000E94A501909158
:1003D000BB00112319F484E98093BC00892F1F917D
:1003E00008950F931F93162F042F880F0E94BE01AC
:1003F000812F0E94D401802F0E94D40184E9809330
:10040000BC001F910F9108950F931F93182F062F73
:10041000880F0E94BE01802F0E94D401110F812FEE
:1004200081600E94BE0180E00E94DC011F910F915B
:1004300008951F93CF93DF93EB01142F880F8160F2
:100440000E94BE0108C0115080E011160CF481E03A
:100450000E94DC0189931123B1F7DF91CF911F91A5
:100460000895DF92EF92FF920F931F93E82EF62EDE
:100470008A01D22E880F0E94BE018F2D0E94D401C6
:100480008E2DB8014D2D0E9419021F910F91FF90E2
:10049000EF90DF90089589E66EE340E80E94F10155
:1004A00062E370E080E090E00E94EA0089E66EE39B
:1004B00043E00E94F10140911D014150486189E6ED
:1004C00066E10E94F10189E660E00E94040290E08A
:1004D0008E77883609F491E0892F0895A6E0B0E080
:1004E000E4E7F2E00C9407198C017B016A0189E6CC
:1004F0006DE1AE014F5F5F4F26E00E9431029981AE
:1005000080E02A8130E0822B932BF8019183808355
:100510009B8180E02C8130E0822B932BF70191832B
:1005200080839D8180E02E8130E0822B932BF60129
:10053000918380832696E8E00C942319282F17C016
:10054000E22FF0E0EE0FFF1FE25DFE4F8081918110
:10055000892B61F080917C00887F822B80937C00C6
:1005600080917A00806480937A0008952F5F26300E
:1005700038F308951F920F920FB60F9211242F9304
:100580003F934F935F936F937F938F939F93AF931B
:10059000BF93EF93FF9380917C008770E82FF0E08A
:1005A000EE0FFF1FE25DFE4F0190F081E02D909174
:1005B000790090838F5F0E949E02FF91EF91BF911F
:1005C000AF919F918F917F916F915F914F913F91EB
:1005D0002F910F900FBE0F901F901895EEE2F1E053
:1005E00040E050E061E070E080819181892B79F0FA
:1005F00087B1DB01042E02C0AA0FBB1F0A94E2F7E9
:100600009D012095822387B988B1282328B94F5F9F
:100610005F4F32964630510539F780E680937C0073
:1006200010927B008FE880937A0080E00E949E0207
:100630000895CF93DF93EB01DA01FC0140E050E035
:1006400061E070E080819181892B79F03881CB0164
:10065000042E02C0880F991F0A94E2F7282F2095D4
:10066000232328832C91822B8C934F5F5F4F3296EC
:100670004830510539F7DF91CF91089587E692E030
:1006800064E270E045E250E00E94190387E792E0DF
:1006900067E270E048E250E00E9419038AE391E0CB
:1006A0006AE270E04BE250E00E941903089560E0B6
:1006B00070E040E050E0A1E0B0E0362FFA01E959E7
:1006C000FD4F0190F081E02D309751F023B1CD0125
:1006D000062E02C0880F991F0A94E2F72823208370
:1006E000FA01E958FD4F0190F081E02D309751F06B
:1006F00026B1CD01032E02C0880F991F0A94E2F79C
:1007000028232083FA01E65CFE4F0190F081E02D62
:10071000309749F029B1CD0102C0880F991F3A9551
:10072000E2F7282320836F5F7F4F4E5F5F4F40319A
:10073000510519F608951F920F920FB60F921124CA
:10074000AF92BF92CF92DF92EF92FF920F931F93DF
:100750002F933F934F935F936F937F938F939F93C9
:10076000AF93BF93CF93DF93EF93FF9300918400F8
:10077000109185008091E10293B19093E102789409
:10078000292F282780958923AAE4B1E0E2EEF2E040
:1007900060E070E0C22EDD24E82EFF2421E0CD9140
:1007A000DC911197209779F1C601062E02C095952C
:1007B00087950A94E2F780FF26C0C701062E02C083
:1007C000959587950A94E2F780FF03C01183008313
:1007D0001AC080819181A801481B590B56954795F5
:1007E0008CE7A82E8CEFB82EA40EB51E81EBA816B0
:1007F00084E0B80640F459834883809198026817D2
:1008000011F4209387026F5F7F4F12963296683003
:10081000710529F6FF91EF91DF91CF91BF91AF91D3
:100820009F918F917F916F915F914F913F912F9108
:100830001F910F91FF90EF90DF90CF90BF90AF90FE
:100840000F900FBE0F901F9018951F920F920FB62A
:100850000F921124CF92DF92EF92FF920F931F938A
:100860002F933F934F935F936F937F938F939F93B8
:10087000AF93BF93CF93DF93EF93FF93E090840008
:10088000F09085008091D00299B19093D002789435
:10089000292F282780958923A8E8B2E0E1EDF2E02E
:1008A00060E070E0C22EDD24082F10E0CD91DC91D5
:1008B0001197209721F1C601062E02C095958795C4
:1008C0000A94E2F780FF1BC0C801062E02C095956E
:1008D00087950A94E2F780FF03C0F182E0820FC09F
:1008E00080819181A701481B590B56954795CA01F4
:1008F00084589340815B944010F4598348836F5F20
:100900007F4F129632966830710581F6FF91EF9114
:10091000DF91CF91BF91AF919F918F917F916F9117
:100920005F914F913F912F911F910F91FF90EF9009
:10093000DF90CF900F900FBE0F901F901895809171
:100940006800816080936800EAE4F1E040E050E0F4
:1009500061E070E080819181892BA1F020916B0092
:10096000CB01042E02C0880F991F0A94E2F7282BAE
:1009700020936B0034B1282F2095232324B925B16F
:10098000822B85B94F5F5F4F32964830510511F782
:1009900081E0809398028091680084608093680071
:1009A000E8E8F2E040E050E061E070E080819181B1
:1009B000892BA1F020916D00CB01042E02C0880F7D
:1009C000991F0A94E2F7282B20936D003AB1282F43
:1009D000209523232AB92BB1822B8BB94F5F5F4F10
:1009E00032964830510511F70895A6E0B0E0EBEFDC
:1009F000F4E00C94FD187A8369831C012B019E831B
:100A00008D839B012A5F3F4F3C832B83ED81FE81C9
:100A10000681178180819181081B190B3801882478
:100A200077FC8094982CF10182899389A489B589F7
:100A3000860D971DA81DB91D268D378D40A151A18A
:100A4000AA24BB246501A21AB30AC40AD50A8A15CE
:100A50009B05AC05BD054CF05C016D0128173907FD
:100A60004A075B0714F459016A01F101A28AB38AAB
:100A7000C48AD58AED81FE8184859585AA2797FD54
:100A8000A095BA2FA4019301281B390B4A0B5B0BCD
:100A9000CA01B90115870487F201248535854427E9
:100AA00037FD4095542F0E94A1187B018C0152E024
:100AB00015950795F794E7945A95D1F7F20120819F
:100AC0003181442737FD4095542FC401B3010E9462
:100AD000A11843E095958795779567954A95D1F745
:100AE000E60EF71E081F191FF201268137814427E1
:100AF00037FD4095542FC601B5010E94A11836E07C
:100B000095958795779567953A95D1F7E60EF71EF7
:100B1000081F191FE981FA81028804C015950795FD
:100B2000F794E7940A94D2F7ED81FE81F3A6E2A64A
:100B30003296FE83ED8324E030E0220E331E42E045
:100B400050E0440E551E8B819C814816590609F0D1
:100B50005DCF2696E2E10C941919A6E0B0E0E3EB34
:100B6000F5E00C940D19CE010196BE016D5F7F4F2B
:100B7000AE014B5F5F4F0E946E026B817C81709370
:100B8000EA016093E90149815A815093EC01409355
:100B9000EB012D813E813093EE012093ED01809198
:100BA000190290911A0283309105C9F084309105A1
:100BB0001CF40297D1F506C084309105E9F0059741
:100BC000A1F527C03093EC012093EB0188279927EA
:100BD000841B950B9093EE018093ED0126C088272E
:100BE0009927821B930B9093EC018093EB01509318
:100BF000EE014093ED0119C05093EA014093E901E1
:100C000088279927861B970B9093EC018093EB0123
:100C10000CC088279927841B950B9093EA01809339
:100C2000E9017093EC016093EB012696E2E00C94ED
:100C3000291981E040E85AE166E070E00E948C01E9
:100C40000E944B02882349F485E080935B0288EC84
:100C500090E0909362028093610208950F931F9336
:100C6000CF93DF93FC011082772767FD7095728325
:100C70006183DC01EC0140E050E00FEF1FE760E032
:100C800070E80CC012961C930E9311971A967C93E1
:100C90006E9319971F86188A198A1A8A9A014F5FCC
:100CA0005F4F12962496818192812817390754F359
:100CB00014A613A6DF91CF911F910F910895A0E084
:100CC000B0E0E5E6F6E00C9405197C018C01EB013F
:100CD000F70160E070E02BC0218132818881998129
:100CE000281739070CF4C901928381832185328545
:100CF00088819981821793070CF4C90192878187B3
:100D000029913991442737FD4095542FD8011F96DA
:100D1000AD90BD90CD90DC905297A20EB31EC41E34
:100D2000D51E1F96AD92BD92CD92DC9252979B013B
:100D30006F5F7F4F32960C5F1F4FD70111968D91D9
:100D40009C911297281739073CF2CDB7DEB7EAE03D
:100D50000C942119A0E0B0E0E0EBF6E00C94071948
:100D6000EC017C0163E2C62ED12CC80ED91E00E036
:100D700010E011C02BA53CA5442737FD4095542F0A
:100D8000F70167857089818992890E94E218F601CE
:100D9000219331936F0198010F5F1F4F84E090E022
:100DA000E80EF91E89819A81281739071CF3CDB7FF
:100DB000DEB7E8E00C942319CF93DF93FC01EB013D
:100DC00061817281A0E040E050E00DC08385948590
:100DD00023813481821B930B8C179D070CF4AF5F2A
:100DE0004F5F5F4F32964617570784F320E08A2FF4
:100DF000992787FD90958617970709F421E0822FA0
:100E0000DF91CF910895AAE0B0E0E9E0F7E00C941B
:100E10000B198C018091AC019091AD019A8389836B
:100E20008091B0019091B1019C838B838091B2013C
:100E30009091B3019E838D838091AE019091AF011B
:100E400098878F838091BA019091BB019A87898797
:100E5000C801BE016F5F7F4F0E945F06F80183A546
:100E600094A5019694A783A78436910581F5C801BE
:100E700064E170E00E94DC06882329F1C8010E9429
:100E8000AA06F80183A194A1909314018093130101
:100E900085A196A1909316018093150187A190A535
:100EA000909318018093170181A592A590931A0140
:100EB0008093190183A594A590931C0180931B0135
:100EC00081E0808304C0C80164E00E942E062A9657
:100ED000E4E00C942719A6E0B0E0E1E7F7E00C9419
:100EE0000B198C018091E9019091EA019A83898321
:100EF0008091EB019091EC019C838B838091ED01BB
:100F00009091EE019E838D83C801BE016F5F7F4F7C
:100F10000E945F06F80183A594A5019694A783A774
:100F20008C52914021F5C80162E370E00E94DC061A
:100F30008823C9F0C8010E94AA06F80183A194A1E0
:100F40009093E4018093E30185A196A19093E6013B
:100F50008093E50187A190A59093E8018093E70134
:100F600081E0808304C0C80163E00E942E062696BB
:100F7000E4E00C9427192091030130910401809141
:100F80000301909104012817390721F43093AD0132
:100F90002093AC012091050130910601809105015B
:100FA000909106012817390721F43093B10120935D
:100FB000B0012091070130910801809107019091C3
:100FC00008012817390721F43093B3012093B201A7
:100FD00020910B0130910C0180910B0190910C013B
:100FE0002817390721F43093B5012093B4012091DB
:100FF0000D0130910E0180910D0190910E01281785
:10100000390721F43093B7012093B60120910F01E5
:101010003091100180910F0190911001281739072C
:1010200021F43093B9012093B8012091110130913E
:10103000120180911101909112012817390721F4B2
:101040003093BB012093BA0180914E0290914F02E0
:1010500005974CF48091AC019091AD019093AF0154
:101060008093AE0108952091090130910A01809189
:10107000090190910A012817390721F43093AF0133
:101080002093AE010895A0E0B0E0E9E4F8E00C940C
:101090000319EC0180904E0290904F02F4013297B8
:1010A000E830F10508F0D2C1EC5CFF4F688179812E
:1010B0004091AC015091AD010C943419640F751F2F
:1010C0007093D6016093D501888199812091AE01FA
:1010D0003091AF01820F931F9093DC018093DB016D
:1010E0008A819B812091B0013091B101820F931FC1
:1010F0009093D8018093D7019DC17A01E60EF71E27
:10110000F092D601E092D501A090AE01B090AF016F
:10111000088119810A0D1B1D1093DC010093DB016E
:10112000A0911301B09114016A01CA1ADB0A488127
:1011300059814C0D5D1DE0911501F09116018091D2
:10114000B0019091B1018E1B9F0B2A813B81820FD0
:10115000931FBA017595679523E0559547952A9594
:10116000E1F7640F751F9C013595279543E0959530
:1011700087954A95E1F7280F391FE60FF71FE20F11
:10118000F31FF093D801E093D7016A0F7B1F621B16
:10119000730B7093DA016093D9012091B201309101
:1011A000B30186E08816910409F059C0E4E0223EBC
:1011B0003E0774F029573540273C310518F082E08E
:1011C00090E002C081E090E0029709F03FC11CC0AE
:1011D000C6018A199B092091190130911A01820FC9
:1011E000931F9595879584529A4F9093D60180933B
:1011F000D5018C5D95402CED35E0281B390B3093E3
:10120000DC012093DB0122C1209102016A817B81F4
:10121000E091BE01F091BF016E0F7F1F882777FD1F
:101220008095982F30E020583040442737FD409576
:10123000542F0E94A11847E095958795779567955B
:101240004A95D1F7E60EF71EF092D601E092D5014D
:10125000061B170B1093DC010093DB01F7C07093A2
:10126000D6016093D5018C819D81EAC0640F751F02
:101270007093D6016093D501888199812091AE0148
:101280003091AF01820F931F9093DC018093DB01BB
:10129000A0911501B09116014091B0015091B1019A
:1012A0004A1B5B0B8A819B81480F591FE0911701F4
:1012B000F09118018091B2019091B3018E1B9F0BA8
:1012C0002C813D81820F931FBC017595679523E0AA
:1012D000959587952A95E1F7680F791F9A013595BD
:1012E000279583E0559547958A95E1F7240F351F9B
:1012F000CB01820F931F8A0F9B1F9093D80180937D
:10130000D7012E0F3F1F261B370B65C020911301FD
:10131000309114010A811B818091BE019091BF011F
:10132000080F191FAC81BD818091C0019091C1014E
:10133000A80FB91F8091090190910A018C54944023
:1013400097FF03C0E0E0F0E016C0809109019091A2
:101350000A018C54944095958795855F91401CF0C7
:10136000E4EFF1E008C0E0910901F0910A01EC54CA
:10137000F440F595E79544525A4F421B530B460FE4
:10138000571FB801640F751F9F012A1B3B0B37FFC6
:1013900002C020E030E0CB01821B930B9093D6017A
:1013A0008093D501260F371F3093D8012093D701A2
:1013B0009A01201B310BAF014A0F5B1F57FF02C080
:1013C00040E050E0CA01820F931F9093DC018093AC
:1013D000DB01241B350B3093DA012093D90136C091
:1013E000640F751F7093D6016093D5018881998130
:1013F0002091AE013091AF01820F931F9093DC01D9
:101400008093DB018A819B812091B0013091B101F1
:10141000820F931F9093D8018093D7018091BA01D6
:101420009091BB012A813B81821B930B9093E00139
:101430008093DF018C819D812091B2013091B301B5
:10144000820F931F9093DA018093D9018091B801A4
:101450009091B9019093DE018093DD0189E08816B7
:10146000910441F08091BA019091BB019093E00109
:101470008093DF018091B6019091B7019093E201D2
:101480008093E101CDB7DEB7ECE00C941F19AAE020
:10149000B0E0EDE4FAE00C940B1980910C0290910D
:1014A0000D020397A9F5FE0131968AE0DF011D9236
:1014B0008A95E9F7CF010E944308A1EAB1E005EF60
:1014C00011E04FEF51E06D917C911197F80120816F
:1014D0003181FB0180819181281739070CF4C90102
:1014E000F80191838083FA0120813181FB018081A1
:1014F0009181821793070CF4C901FA0181939193AA
:10150000AF0112960E5F1F4FF1E0AB3ABF07D9F65D
:101510008FEE91E00E94430880914E0290914F021D
:10152000099711F074E001C075E060E080E090E0A0
:10153000FC01EF55FE4FA081B1814D915C91119757
:10154000FC01EB50FE4F0190F081E02D4E175F073C
:1015500054F0FC01E150FE4F20813181FA01241743
:1015600035070CF4F901ED93FC936F5F0296671752
:10157000FCF22A96E4E00C94271980919A028823C1
:1015800009F050C081E080939A028FEF8093990216
:101590002FB7F8948091D5019091D6019093C8010E
:1015A0008093C7018091D7019091D8019093CA018F
:1015B0008093C9018091D9019091DA019093CC0177
:1015C0008093CB018091DB019091DC019093CE015F
:1015D0008093CD018091DD019091DE019093D00147
:1015E0008093CF018091DF019091E0019093D2012F
:1015F0008093D1018091E1019091E2019093D40117
:101600008093D30180916F00826080936F00B19AC4
:101610008091840090918500049690938900809336
:1016200088002FBF0895FC0181E08183808385E0DD
:101630008283168215821086178208959C0144E0E9
:10164000813B940714F490E00DC08451954081597A
:10165000914010F491E006C02850374014F49FEFF9
:1016600006C092E0662319F082E0891B982F892F2B
:101670000895CF93DF93EC018A818B838091AC0135
:101680009091AD016D810E941E0B87FF8883809130
:10169000B0019091B1016E810E941E0B87FF89837A
:1016A0008F81882351F48881882329F0823029F49E
:1016B00081E08D83188281E08F838885882361F49F
:1016C0008981882319F0823039F404C081E08E8347
:1016D00082E0898381E0888738813F5F898123E0C8
:1016E0008202C0011124380F3A839B8180E03917B0
:1016F00029F081E09295907F932B9C83DF91CF918D
:101700000895282F30E03F6F220F331FEFB7F89472
:101710008091840090918500AC01405C5F4FBC01DA
:101720006D5D7A4F8091840090918500DA01A81B4D
:10173000B90B1A161B06B4F320FF02C0579801C05C
:10174000579A4617570729F03695279545575F4F03
:10175000E9CFEFBF0895EFB7F8944F9B49C016C08B
:1017600020918400309185002058314C04C08FEFC7
:101770009FEF4F9B0BC08091840090918500B90131
:10178000681B790B1616170614F4F1CFAC01415003
:101790005040CA0101961816190614F34F5F5F4FA7
:1017A00019F420E030E826C08091840090918500F3
:1017B000AC0140565F4F20E030E0BC0163597B4FE5
:1017C0008091840090918500DA01A81BB90B1A164C
:1017D0001B06B4F389B13695279590E08078907018
:1017E000282B392B4617570729F045575F4FE8CF6D
:1017F00020E030E4EFBFC9010895EF92FF920F930C
:101800001F93CF93DF93E82E192F062FF62E84E235
:101810000E94810B802F0E94810B2E2D312FC90138
:10182000EC0104C08991F80E0E94810B9E012E19D3
:101830002017C4F38F2D81950E94810BCDB7DEB7A1
:10184000E6E00C9425198F929F92AF92BF92CF92AF
:10185000DF92FF920F931F93CF93DF934C015A01B6
:10186000C0E0D0E0C62EDD24C7FCD09402C0812F9A
:10187000182FC5010E94AB0B9C018070907C892BB6
:1018800069F5822FC130D10559F0C230D105A1F0E0
:10189000209779F7243259F7812FC1E0D0E0E8CFC3
:1018A00090E0C816D90614F4812F15C0822FF22EAD
:1018B000C2E0D0E000E0DCCFF20E812F8150112396
:1018C00031F0F401E00FF11D20830F5FD1CFFF2035
:1018D00011F481E004C0C0E0D0E0CACF80E0DF9125
:1018E000CF911F910F91FF90DF90CF90BF90AF905D
:1018F0009F908F9008951F93CF93DF93EC01142F47
:1019000045E450E00E943A198881811711F08FEF69
:1019100012C090E020E030E0FE01E20FF31F808172
:10192000980F2F5F3F4F25343105B1F7992311F4FC
:1019300080E001C08EEFDF91CF911F910895DC010F
:1019400090E020E030E0FD01E20FF31F8081980F6E
:101950002F5F3F4F24343105B1F7AC5BBF4F9195FA
:101960009C93A454B040CD0145E450E00E944A1934
:101970000895A1E1B0E0EFEBFCE00C94FD181C0130
:1019800081E089838AE092E09B838A8302969D832B
:101990008C830D969F838E83029699878887029603
:1019A0009B878A8702969D878C8702969F878E8762
:1019B000CE010196998B888BD0900A02DD0CCC2445
:1019C0006624EE24FF248701F0E88F2EFAE19F2E93
:1019D000F6E0AF2EB12CE2E07E2E2C010E94AA0090
:1019E0009B01AC01DC01CB018E199F09A00BB10B4F
:1019F00088169906AA06BB060CF051C0171424F5E8
:101A0000872D992787FD9095FC01E170F07080FD8E
:101A100003C088E097E002C08CED95E09093D80178
:101A20008093D7018CED95E09093D6018093D501FA
:101A3000EE0FFF1FEE0FFF1FE757FE4F80809180D4
:101A4000A280B3807A9429C0DD2039F11D1424F4DA
:101A50006CE271E0A1E003C064ED7EEFAFEF8D2D8D
:101A6000992787FD9095FC01E170F07080FF03C01D
:101A70008CED95E003C0CB0184529A4F9093D60130
:101A80008093D501EE0FFF1FEE0FFF1FE757FE4FAC
:101A900080809180A280B380DA1A79018A018091D6
:101AA0008702882329F0109287020E94BB0702C098
:101AB000662041F080919A02882309F08CC00E9430
:101AC000BD0A6624772009F089CFC1010E94390B35
:101AD000882309F483CFF1018481843561F0853551
:101AE00020F4823509F063C013C0863559F088357B
:101AF00009F05DC02AC0F1E0FC1514F0CC2470C0E0
:101B0000CA946EC085E08C150CF468C0C39468C09C
:101B1000AC2DBB27A7FDB095FD01EE0FFF1FE40D17
:101B2000F51D0180F281E02D8081282F332727FDCC
:101B300030952F5F3F4FAF56BE4F8C91992787FD51
:101B4000909582179307F4F41CC0AC2DBB27A7FD1A
:101B5000B095FD01EE0FFF1FE40DF51D0180F28130
:101B6000E02D8081282F332727FD309521503040EC
:101B7000A756BE4F8C91992787FD90952817390756
:101B80000CF49C01208320E08C2D992787FD9095F3
:101B9000FC01EE0FFF1FE40DF51D0180F281E02D29
:101BA000D080DD0C222319F00196782E770C8981E4
:101BB000823009F013CF89E092E060E070E00E948B
:101BC0009F0C89E092E060E071E00E949F0C6196BA
:101BD000E2E10C9419196624639474CF87E0C82E4F
:101BE00021E0D2CFA1E9B0E0E8EFFDE00C94FD18D0
:101BF0000E94AA001B012C01DE011196EBE6F1E028
:101C000086E001900D928150E1F78E010D5E1F4F2D
:101C1000C8010E94130B4CE1E42EF12CEC0EFD1ECA
:101C2000C70164E00E942E0639E4C32ED12CCC0EED
:101C3000DD1EC60163E00E942E062092CC02309287
:101C4000CD024092CE025092CF02C657DF4F28827B
:101C500039824A825B82CA58D040CA57DF4F2882F5
:101C600039824A825B82C658D040CE57DF4F2882E5
:101C700039824A825B82C258D04042013101C25847
:101C8000DF4F288239824A825B82CE57D040EB9662
:101C90002CAE3DAE4EAE5FAEEB97EE961FAEEE971E
:101CA000ED961FAEED9721E0EC962FAFEC97C25763
:101CB000DF4FE882CE58D040C157DF4FF882CF586F
:101CC000D040C057DF4F0883C059D040CF56DF4FB8
:101CD0001883C159D0400E94AA005B016C010E9488
:101CE0001F01809187028823A1F4D601C501C65740
:101CF000DF4F488159816A817B81CA58D040841B5B
:101D0000950BA60BB70B81539547A040B0400CF440
:101D100042C0109287020E94BB078C8D882369F015
:101D2000C657DF4FA882B982CA82DB82CA58D04028
:101D300061E0EE966FAFEE972EC0C257DF4F8881FD
:101D4000CE58D040C157DF4F9881CF58D0400E9425
:101D500003072A968FAD2A97882311F492E001C0D9
:101D600090E020E08C8D882309F421E0920F90937D
:101D70005A0288EC90E09093600280935F02C6570D
:101D8000DF4FA882B982CA82DB82CA58D04091E074
:101D9000EE969FAFEE9780919A02882379F5EE96A2
:101DA000AFADEE97AA2351F1A6019501CA57DF4FB7
:101DB000688179818A819B81C658D040261B370B68
:101DC000480B590B8091520290915302A0915402FA
:101DD000B091550282179307A407B5077CF40E94BF
:101DE000470A0E94BD0ACA57DF4FA882B982CA8239
:101DF000DB82C658D040EE961FAEEE97D601C501E5
:101E0000CE57DF4F288139814A815B81C258D0404B
:101E1000821B930BA40BB50B81519742A040B0409D
:101E200054F10E94AD052A968FAD2A978823D9F4E4
:101E3000CE01875B9F4F0E946B072A968FAD2A9732
:101E4000882311F492E001C090E020E08C8D88237B
:101E500009F421E0920F90935A0248EC50E050931D
:101E6000600240935F02CE57DF4FA882B982CA82D8
:101E7000DB82C258D040EC965FADEC97552309F455
:101E800056C0C057DF4F8881C059D040CF56DF4F72
:101E90009881C159D0400E94390B882309F447C06A
:101EA000ED966FADED97E62FFF27E7FDF095EE5924
:101EB000FE4F9F898081981721F0ED961FAEED9718
:101EC00007C0ED967FADED977F5FED967FAFED9705
:101ED000ED968FADED97E82FFF27E7FDF095EE59D2
:101EE000FE4F80818F3F81F4CE0143960E94B90C52
:101EF0002EE088E190E00FB6F894A89580936000FA
:101F00000FBE20936000FFCFD601C501821993094F
:101F1000A409B509815C914EA44EB04024F0EC9622
:101F20001FAEEC9704C0F1E0EC96FFAFEC978C8D00
:101F3000882329F02A968FAD2A978823C9F58091A6
:101F4000AE019091AF012091AC013091AD01820FB3
:101F5000931F2091190130911A01821B930B20913C
:101F6000130130911401821B930B959587959093E3
:101F7000BD018093BC018091B0019091B10120918D
:101F8000150130911601821B930B9093BF01809332
:101F9000BE018091B2019091B3012091170130915F
:101FA0001801821B930B9093C1018093C00193CEC3
:101FB000D601C50186199709A809B9098151974227
:101FC000A040B0400CF434C3809150029091510273
:101FD0008130910559F48091B4019091B501865FEB
:101FE00095400CF0A3C080E090E00DC0892B09F073
:101FF0009DC08091B4019091B501875296400CF438
:1020000095C081E090E09093510280935002892B1B
:1020100011F084E001C080E080935A0268EC70E027
:102020007093600260935F021092AD021092AE0254
:102030001092AF021092B0021092B9021092BA023E
:102040001092BB021092BC021092B1021092B20226
:102050001092B3021092B4021092BD021092BE020E
:102060001092BF021092C0021092B5021092B602F6
:102070001092B7021092B8021092C1021092C202DE
:102080001092C3021092C402809121029091220208
:10209000029709F04BC0D601C501EB962CAD3DADC2
:1020A0004EAD5FADEB97821B930BA40BB50B81522A
:1020B000914AA740B0401CF0E7961FAEE797E7961D
:1020C0004FADE7974F5FE7964FAFE797433044F147
:1020D0008091AC019091AD01909314018093130114
:1020E0008091B0019091B1019093160180931501F8
:1020F0008091B2019091B3019093180180931701E0
:102100008091AE019091AF0190931A0180931901D3
:102110008091BA019091BB0190931C0180931B01A7
:10212000EB96ACAEBDAECEAEDFAEEB974091AE015E
:102130005091AF018091AC019091AD01480F591FB2
:102140008091190190911A01481B590B809113013C
:1021500090911401481B590B559547955093BD011B
:102160004093BC01E091B001F091B1018091150163
:1021700090911601E81BF90BF093BF01E093BE01AB
:10218000A091B201B091B301809117019091180113
:10219000A81BB90BB093C101A093C0018091BA01F3
:1021A0009091BB0120911B0130911C01821B930B6C
:1021B0009093C3018093C20180911B028150282F0C
:1021C000332727FD3095CA0157FF04C08827992778
:1021D000841B950B022E02C0880F991F0A94E2F708
:1021E00061E08139960714F080E991E060E971E0DF
:1021F000681B790B78876F83CF01F7FF04C08827AE
:1022000099278E1B9F0B022E02C0880F991F0A94DC
:10221000E2F771E08139970714F080E991E060E915
:1022200071E0681B790B7A876987CD01B7FF04C01D
:10223000882799278A1B9B0BBC0102C0660F771F5A
:102240002A95E2F781E06139780714F060E971E0DE
:1022500010E9612E11E0712E661A770A7C866B8672
:102260008091B4019091B50125E0833C92074CF434
:1022700003EC15E0081B190B31E00139130794F04A
:102280000BC066E0883296071CF400E010E00AC03C
:1022900077E0863897071CF000E911E003C08C0155
:1022A000055F1540809050029090510281E08816A1
:1022B000910459F08114910409F050C080911F02DB
:1022C00090912002029709F049C080911D029A0165
:1022D000082E02C0220F331F0A94E2F73E872D8793
:1022E000082E02C0EE0FFF1F0A94E2F7F88BEF876B
:1022F000AD0102C0440F551F8A95E2F75A8B498BF6
:1023000089819A8197FD05C088279927821B930BA5
:1023100001C0C90190939C0280939B028B819C8198
:102320002F85388997FD05C088279927821B930B35
:1023300001C0C90190939E0280939D028D819E8170
:1023400097FD03C0509541955F4F5093A002409375
:102350009F0291E08916910471F055C010929C0281
:1023600010929B0210929E0210929D021092A00267
:1023700010929F0248C06F817885882777FD8095ED
:10238000982F24EF3FEB40E050E00E94A118F9E0C5
:102390009595879577956795FA95D1F76093B902EA
:1023A0007093BA028093BB029093BC0269857A85D0
:1023B000882777FD8095982F0E94A118E9E09595D0
:1023C000879577956795EA95D1F76093BD027093ED
:1023D000BE028093BF029093C002B301882777FDAD
:1023E0008095982F0E94A11839E09595879577954B
:1023F00067953A95D1F76093C1027093C2028093BA
:10240000C3029093C4022091E9013091EA018091C6
:10241000E3019091E401281B390BA0E220303A0738
:1024200014F02FEF3FE1C901B0EE20303B0714F468
:1024300080E090EE9093A2028093A1022091EB01A4
:102440003091EC018091E5019091E601281B390B58
:10245000E0E220303E0714F02FEF3FE1C901F0EE3B
:1024600020303F0714F480E090EE9093A402809314
:10247000A3022091ED013091EE018091E70190914E
:10248000E801281B390B40E22030340714F02FEF0D
:102490003FE1C90150EE2030350714F480E090EEA2
:1024A0009093A6028093A502892819F069E372E04F
:1024B00002C066E272E08BE992E00E94F504EE242D
:1024C000FF243801882477FC8094982C87010151DF
:1024D0001E4FE1E0F0E0EC0FFD1FEE0DFF1D6081EF
:1024E0007181882777FD8095982FF701E556FD4F7C
:1024F00022A533A5442737FD4095542F0E94A118EB
:1025000027E095958795779567952A95D1F7E7E028
:10251000F0E0EC0FFD1FEE0DFF1D208131814427FF
:1025200037FD4095542F0E94A1189B01AC01B9E0E2
:102530005595479537952795BA95D1F7C401B301BD
:102540000E94A118A9E09595879577956795AA951A
:10255000D1F7D8016D937C93E2E0F0E0EE0EFF1E20
:10256000F6E0EF16F10409F0B1CF2091CB0212167C
:102570000CF05CC08091CC029091CD02A091CE0273
:10258000B091CF02B601A501481B590B6A0B7B0B1A
:10259000DB01CA0181549D40A340B0405CF0215052
:1025A0002093CB02A092CC02B092CD02C092CE0278
:1025B000D092CF028091CB02992787FD90954091D0
:1025C000EF015091F001BC016170707080FF03C099
:1025D00026E930E002C02AE63FEF240F351F309392
:1025E000F0012093EF014091F1015091F20161154A
:1025F000710519F026E930E002C02AE63FEF240F0A
:10260000351F3093F2012093F1012091F3013091B5
:10261000F401672B19F48AE69FEF02C086E990E087
:10262000820F931F9093F4018093F30135014601CB
:10263000D601C501C258DF4F288139814A815B81AB
:10264000CE57D040821B930BA40BB50B8C59914AEB
:10265000A740B0400CF43FCB80912302803839F47E
:1026600080910001282F30E02058304004C0282FEE
:10267000332727FD309580912402803839F48091EA
:102680000101482F50E04058504004C0482F5527C2
:1026900047FD509580912502803831F480910201E8
:1026A00090E08058904003C0992787FD90953A8329
:1026B00029835C834B839E838D83295F3F4F2F301B
:1026C000310510F41A8219828B819C8107960F972D
:1026D00010F41C821B828D819E8107960F9710F447
:1026E0001E821D8280E00E949E02C258DF4FA88297
:1026F000B982CA82DB82CE57D040EDCAA6E6B0E0EE
:10270000E4E8F3E10C9407191092800081E08093D3
:10271000810057985F9848E552E000E06E01089408
:10272000C11CD11C62E0E62EF12CEC0EFD1EC60190
:1027300066E60E94230C882309F441C08981823017
:10274000A9F0833018F4813029F406C08330B1F049
:102750008430E9F010E026C0C70160E870E048E08E
:1027600050E00E943A1910E069E01DC0C70160E81E
:1027700070E048E050E00E944A1913C0C70160E0D1
:1027800070E04CE00E947B0C10E066E40CC0C701D6
:1027900060E070E00E949F0CC70160E071E00E9461
:1027A0009F0C11E061E0898180688983C6010E94E5
:1027B000FD0B01E044EF51E0112309F4B8CF802F65
:1027C000CA59DF4FE8E00C9423191F920F920FB6FD
:1027D0000F9211240F931F932F933F934F935F9367
:1027E0006F937F938F939F93AF93BF93EF93FF93D9
:1027F0008091990287FD42C0E0919902FF27E7FD91
:10280000F095E65AFE4F808160E00E946E1836C057
:10281000809199028F5F80939902E0919902FF273E
:10282000E7FDF095E65AFE4F808187FD27C00091B5
:10283000840010918500E0919902FF27E7FDF09553
:10284000E65AFE4F808161E00E946E18E091990285
:10285000FF27E7FDF095EE0FFF1FE25EFE4F0190B0
:10286000F081E02D808191810297880F991F800F60
:10287000911F90938900809388000BC080919902EA
:10288000873034F210929A0280916F008D7F80938E
:102890006F00FF91EF91BF91AF919F918F917F91C9
:1028A0006F915F914F913F912F911F910F910F90D9
:1028B0000FBE0F901F9018950F931F93CF93DF9328
:1028C00000E010E0E801C65ADE4F888187FD08C0AD
:1028D000888160E00E946E18888161E00E94021881
:1028E0000F5F1F4F0830110569F7DF91CF911F91DE
:1028F0000F910895A0E0B0E0E0E8F4E10C9407192E
:10290000182F062F862F61E00E940218812F60E0A9
:102910000E940218812F61E00E946E186AE070E048
:1029200080E090E00E94EA00C0E0D0E0812F99278B
:1029300087FD9095FC01EA56FF4FE491F0E0EE0F21
:10294000FF1FE457FF4FC590D49086559F4FFC0161
:102950008491E82EFF24CE018170182F802F612FE3
:102960000E946E18F601808120E030E090E08E2118
:102970009F21892B11F021E030E0812F992787FDDD
:1029800090952817390711F010E005C02196C8303E
:10299000D10509F711E0802F60E00E940218812F15
:1029A000CDB7DEB7E8E00C942319A4E9B0E0EBED75
:1029B000F4E10C940919539A809101039091020358
:1029C000009711F09C0102C025E033E0CE01019692
:1029D000821B930B803891054CF484E180935B0259
:1029E0008EE190E0909362028093610284B7877FCA
:1029F00084BF88E10FB6F894809360001092600065
:102A00000FBE21E030E030930B0220930A0280E8F1
:102A100080932302809324028093250230930D0239
:102A200020930C0287E080934C0210920E02E1E7A3
:102A3000F1E0AFE0B2E081918D9321E0E937F20758
:102A4000D1F742E050E0509318024093170221E082
:102A500030E030931A022093190230931C02209325
:102A60001B0283E090E090931E0280931D0230933E
:102A7000200220931F02509322024093210284EFF0
:102A800091E0909327028093260210922D021092DB
:102A90002C02909333028093320290932902809308
:102AA000280210922F0210922E02909335028093EA
:102AB000340290932B0280932A02109231021092DA
:102AC0003002909337028093360228E02093380238
:102AD00090933A02809339029093400280933F0290
:102AE000909346028093450290933C0280933B0270
:102AF0009093420280934102909348028093470250
:102B000090933E0280933D0290934402809343024F
:102B100090934A028093490220934B0286E065E03D
:102B20000E947A14882311F400E001C007E0CE016E
:102B3000039660E870E048E050E00E943A190023F4
:102B400061F48B81843049F48C819D81AE81BF8199
:102B50008E549146AC4BB04071F084E08B838EE490
:102B600091E6ACEBB0E08C839D83AE83BF83188687
:102B700019861A860860CE010B9660E070E04CE082
:102B80000E947B0C87FD0260CE01805B9F4F60E05E
:102B900071E04CE00E947B0C87FD046083E0809331
:102BA000CB02E02EFF24C701867090708230910521
:102BB00031F08430910579F0892B81F119C08E01B3
:102BC000005B1F4FC80160E070E00E949F0C888589
:102BD0008F5F88870BC08E01055F1F4FC80160E0C3
:102BE00071E00E949F0C89858F5F8987C80118C09A
:102BF0008CE08093090289E092E060E070E00E943E
:102C00009F0C89E092E060E071E00E949F0C8A8551
:102C10008F5F8A8789E08093CB020AC0CE010B9632
:102C2000A9E0B2E0FC0185E401900D928150E1F74A
:102C3000C7018E709070892B41F0CE01039660E839
:102C400070E048E050E00E944A19E0FE0AC082E0CD
:102C50000E94120164E670E080E090E00E94A317F9
:102C6000F6CF0E947E13882361F02EE088E190E089
:102C70000FB6F894A895809360000FBE2093600073
:102C8000FFCF1092800082E08093810081E08093EA
:102C90006F0085B5887F85BD80910C0290910D02F3
:102CA0008230910519F18330910524F4019709F0E0
:102CB0005BC007C08330910571F1049709F054C0DF
:102CC0003FC080E090E048EE53E020ED37E0FC01AB
:102CD000EB50FE4F51834083FC01E150FE4F3183A6
:102CE000208302968A30910591F73EC080E090E003
:102CF0004CE454E02CE637E0FC01EB50FE4F5183EE
:102D00004083FC01E150FE4F3183208302968A30DC
:102D1000910591F729C080E090E042EE54E026ED65
:102D200036E0FC01EB50FE4F51834083FC01E15043
:102D3000FE4F3183208302968A30910591F714C0AB
:102D400080E090E044E853E024E338E0FC01EB50FD
:102D5000FE4F51834083FC01E150FE4F31832083BD
:102D600002968A30910591F780910E02992787FD8E
:102D7000909528EE33E0AC01429FC001439F900D37
:102D8000529F900D1124AA2797FDA095BA2F8093EA
:102D9000520290935302A0935402B0935502809133
:102DA0004C02877080931D010E943E030E945703CE
:102DB00080910A0290910B0290934F0280934E02F1
:102DC0000197E9F48091C501882319F4E2E0F0E06D
:102DD00002C0E0E0F0E020E030E08091C60188230E
:102DE00011F421E030E0E22BF32BEE0FFF1FE75848
:102DF000FE4F8081918190934F0280934E0280918B
:102E00004E0290914F02019731F482E090E090934E
:102E10004F0280934E0280914E028093590288E5C2
:102E200092E090935E0280935D020E94EE020E9407
:102E30009F040E945C140E9419060E94BB070E9416
:102E4000470ACC56DF4FE6E00C942519CF93DF9369
:102E50000E94C7170E94D514C0E0D0E00E94F20D76
:102E60002097E1F30E940000F9CF1F920F920FB656
:102E70000F9211242F933F938F939F93AF93BF9300
:102E80008091FC029091FD02A091FE02B091FF02A0
:102E9000309100030196A11DB11D232F2D5F2D3709
:102EA00020F02D570196A11DB11D209300038093A2
:102EB000FC029093FD02A093FE02B093FF0280916A
:102EC000F8029091F902A091FA02B091FB020196EA
:102ED000A11DB11D8093F8029093F902A093FA020C
:102EE000B093FB02BF91AF919F918F913F912F9132
:102EF0000F900FBE0F901F9018959FB7F8942091D8
:102F0000F8023091F9024091FA025091FB0286B525
:102F1000A89B06C08F3F21F02F5F3F4F4F4F5F4F61
:102F20009FBF542F432F322F2227280F311D411DC1
:102F3000511D82E0220F331F441F551F8A95D1F780
:102F4000B901CA010895EF92FF920F931F93CF9397
:102F5000DF937B018C010E947D17EB010EC00E9464
:102F60007D176C1B7D0B685E7340C8F30894E10805
:102F7000F10801091109C851DC4FE114F104010500
:102F8000110569F7CDB7DEB7E6E00C942519789402
:102F900084B5826084BD84B5816084BD85B582605E
:102FA00085BD85B5816085BDEEE6F0E080818160FC
:102FB0008083E1E8F0E010828081826080838081FC
:102FC00081608083E0E8F0E0808181608083E1EBD4
:102FD000F0E0808184608083E0EBF0E080818160BC
:102FE0008083EAE7F0E08081846080838081826072
:102FF000808380818160808380818068808310925B
:10300000C1000895CF93DF93482F50E0CA01865541
:103010009F4FFC0134914A565F4FFA0184918823F7
:1030200069F190E0880F991FFC01E858FF4FA591C6
:10303000B491FC01EE57FF4FC591D491662351F432
:103040002FB7F8948C91932F909589238C93888136
:1030500089230BC0623061F42FB7F8948C91932FC1
:10306000909589238C938881832B88832FBF06C0FA
:103070009FB7F8948C91832B8C939FBFDF91CF9156
:103080000895833071F0843028F48130A1F08230CB
:1030900021F514C08630B1F08730D1F08430E9F4E6
:1030A00004C0809180008F7703C0809180008F7D65
:1030B00080938000089584B58F7702C084B58F7D9A
:1030C00084BD08958091B0008F778093B0000895FB
:1030D0008091B0008F7D8093B0000895FF920F9390
:1030E0001F93F62E482F50E0CA0182549F4FFC01D7
:1030F0002491CA0186559F4FFC0114914A565F4F97
:10310000FA0104910023C9F0222319F0822F0E94B2
:103110004118E02FF0E0EE0FFF1FEE57FF4FA59193
:10312000B4919FB7F894FF2021F48C9110958123DE
:1031300002C08C91812B8C939FBF1F910F91FF90A8
:103140000895629FD001739FF001829FE00DF11DF1
:10315000649FE00DF11D929FF00D839FF00D749F11
:10316000F00D659FF00D9927729FB00DE11DF91FBD
:10317000639FB00DE11DF91FBD01CF01112408951A
:10318000A1E21A2EAA1BBB1BFD010DC0AA1FBB1F6B
:10319000EE1FFF1FA217B307E407F50720F0A21BDD
:1031A000B30BE40BF50B661F771F881F991F1A944A
:1031B00069F760957095809590959B01AC01BD0174
:1031C000CF01089597FB092E05260ED057FD04D098
:1031D000D7DF0AD0001C38F45095409530952195E2
:1031E0003F4F4F4F5F4F0895F6F79095809570953C
:1031F00061957F4F8F4F9F4F08952F923F924F922F
:103200005F926F927F928F929F92AF92BF92CF9276
:10321000DF92EF92FF920F931F93CF93DF93CDB77F
:10322000DEB7CA1BDB0B0FB6F894DEBF0FBECDBFF7
:1032300009942A88398848885F846E847D848C84C8
:103240009B84AA84B984C884DF80EE80FD800C81D1
:103250001B81AA81B981CE0FD11D0FB6F894DEBFB4
:103260000FBECDBFED010895EE0FFF1F0590F49145
:10327000E02D0994DC01CB01FC01F999FECF06C0D9
:10328000F2BDE1BDF89A319600B40D924150504024
:10329000B8F70895DC01CB0103C02D910E945519A8
:1032A00041505040D0F70895262FF999FECF1FBA0C
:1032B00092BD81BD20BD0FB6F894FA9AF99A0FBE5F
:0832C00001960895F894FFCF78
:1032C800FFFFFFDC05DC05DC05DC05E803DC05E8C1
:1032D80003DC05DC05DC05DC05DC05DC0506CB01CB
:1032E800C901CF01C7010000CD01D301D1010001FF
:1032F80001010201000000000000C401C501C6016F
:1033080000000000000000000000030105010701A3
:103318000B0109010000000000000706FF05FF047B
:10332800FFFF7889988778899887FF000000000058
:10333800000001020304050607020003000400055B
:10334800000800060007000200A0860100801A0697
:103358000005040503040202020101010101010143
:0C33680001D501D701D901DB01DF010014
:00000001FF
