:100000000C948B010C94B3010C94B3010C94B301C8
:100010000C94B3010C94B3010C94B3010C945705E8
:100020000C94B3010C94CD040C9449190C94CD1983
:100030000C94B3010C94B3010C94B3010C94B30170
:100040000C94B3010C94B1140C94B3010C94B3014F
:100050000C94B5010C94B3010C94B3010C940B1BDC
:100060000C94B3010C94B3010C94B3010C94B30140
:100070000C94B3010C94EC030C94B3010C94B301F5
:100080000C94B3010C94B3010C94B3010C94B30120
:100090000C94B3010C94B3010C94B3010C94B30110
:1000A0000C94B3010C94B3010C94B3012A094909CF
:1000B000020A2A094909020A520ABC0A461C491CBA
:1000C0003C1C401C6A1C6A1C6A1C4D1C511C551CA3
:1000D0005B1C5F1C6A1C651C0403090422034100AD
:1000E00072006400750069006E006F0020004C0013
:1000F00065006F006E006100720064006F001803FD
:10010000410072006400750069006E006F002000FD
:100110004C004C004300120100020000004041234B
:1001200036800001010200011201000202000040BD
:100130004123368000010102000100C18081C1001D
:10014000000000240027002A002D003000000000DD
:1001500000250028002B002E0031000000000023A5
:1001600000260029002C002F0004040404040304CA
:100170000502020202040302020202060606060645
:100180000604040202020404080201104080401028
:1001900020408040800802040180402010020110AD
:1001A00080102040400000000200080E0000030400
:1001B00001000B0000000000000000000000000033
:1001C000000000070605040100080A0B0C0D0908D1
:1001D0000B000202020100090400000102020000FB
:1001E0000524001001052401010104240206052450
:1001F0000600010705810310004009040100020AFE
:1002000000000007050202400000070583024000CD
:100210000005010902A1010901A1008501050919D3
:1002200001290315002501950375018102950175CA
:1002300005810305010930093109381581257F75CC
:100240000895038106C0C005010906A101850205C4
:100250000719E029E7150025017501950881029528
:1002600001750881039506750815002565050719B0
:100270000029658100C00904020001030000000993
:1002800021010100012265000705840340000100EF
:10029000000000000000002A2B28000000000000E1
:1002A0000000000000000000000000000000002C22
:1002B0009EB4A0A1A2A434A6A7A5AE362D37382798
:1002C0001E1F20212223242526B333B62EB7B89F24
:1002D0008485868788898A8B8C8D8E8F9091929366
:1002E0009495969798999A9B9C9D2F3130A3AD3504
:1002F0000405060708090A0B0C0D0E0F1011121346
:100300001415161718191A1B1C1DAFB1B0B5000033
:10031000A718E81CEA1D11241FBECFEFDAE0DEBFEC
:10032000CDBF11E0A0E0B1E0E6EAFFE302C0059036
:100330000D92AA3AB107D9F713E0AAEAB1E001C0D9
:100340001D92A636B107E1F713E0C6E1D3E004C081
:100350002297FE010E94A51FC031D107C9F70E9454
:10036000C4170C94D11F0C9400001F920F920FB66B
:100370000F9211248F939F9380915102909152027A
:100380000196909352028093510280915102909174
:100390005202892B29F4809153028F5F809353027C
:1003A0009F918F910F900FBE0F901F9018956091A5
:1003B0008400709185002091510230915202E091A9
:1003C000530280918400909185008627972797FD9E
:1003D000EECF80915102909152022817390739F7D8
:1003E00080915302E81719F740E050E0FFE0220F38
:1003F000331F441F551FFA95D1F78E2F90E0A0E0D0
:10040000B0E0BB278695B795AA2799278827282B80
:10041000392B4A2B5B2B76956795CB01A0E0B0E09A
:10042000282B392B4A2B5B2BB901CA010895AF92B7
:10043000BF92CF92DF92EF92FF920F931F9328EE1D
:1004400033E040E050E00E94101F5B016C010E940D
:10045000D7017B018C010E94D7016E197F09800BA7
:10046000910B6A157B058C059D05A8F31F910F91D3
:10047000FF90EF90DF90CF90BF90AF90089591E004
:10048000982721F0913021F45D9A08955D980895A0
:100490008BB190E289278BB90895EF92FF920F9369
:1004A0001F937B018C018091EB029091EC02A09153
:1004B000ED02B091EE028E199F09A00BB10B181638
:1004C00019061A061B060CF450C08091EF0288230F
:1004D00021F5E091F002EF5FE370E093F002FF2777
:1004E000E7FDF095EC5AFD4F8081992787FD9095A7
:1004F000880F991F8093EF0280E492E4AFE0B0E0B0
:10050000E80EF91E0A1F1B1FE092EB02F092EC02AC
:100510000093ED021093EE0228C081508093EF0209
:1005200081700E943F02E091F002FF27E7FDF09505
:10053000EE0FFF1FE85AFD4F80819181AA2797FD9A
:10054000A095BA2F2AE0880F991FAA1FBB1F2A95D2
:10055000D1F78E0D9F1DA01FB11F8093EB029093CA
:10056000EC02A093ED02B093EE021F910F91FF9069
:10057000EF9008959A01AB01882311F0589A599A87
:100580001092B90060E074E284EF90E00E942F1FA7
:10059000205130404040504056954795379527951B
:1005A0002093B80008952FEF30E011C021153105D8
:1005B00061F41092BC0080916002909161020196FA
:1005C00090936102809360020895215030408091A1
:1005D000BC0087FFEBCF0895FF920F931F93F82E77
:1005E0000CEB10E084EAF80180830E94D302F092C1
:1005F000BB0084E8F80180830E94D3021F910F9111
:10060000FF9008958093BB0084E88093BC000E9413
:10061000D30208951F93182F882311F484E801C092
:1006200084EC8093BC000E94D3029091BB00112304
:1006300019F484E98093BC00892F1F9108950F93CA
:100640001F93162F042F880F0E94EC02812F0E9407
:100650000203802F0E94020384E98093BC001F9153
:100660000F9108950F931F93182F062F880F0E9444
:10067000EC02802F0E940203110F812F81600E94E3
:10068000EC0280E00E940A031F910F9108951F93CE
:10069000CF93DF93EB01142F880F81600E94EC024F
:1006A00008C0115080E011160CF481E00E940A038A
:1006B00089931123B1F7DF91CF911F910895DF92B4
:1006C000EF92FF920F931F93E82EF62E8A01D22EFF
:1006D000880F0E94EC028F2D0E9402038E2DB8011C
:1006E0004D2D0E9447031F910F91FF90EF90DF90D7
:1006F000089588E66BE640E80E941F0362E370E01D
:1007000080E090E00E94170288E66BE643E00E94DA
:100710001F0340911D01415088E66AE10E941F03BA
:1007200088E66BE148E10E941F0388E665E70E94C6
:10073000320390E08E77883609F491E0892F08958E
:10074000A6E0B0E0E6EAF3E00C94761F8C017B01B2
:100750006A0188E663E4AE014F5F5F4F26E00E94C6
:100760005F03998180E02A8130E0822B932BF8018E
:10077000918380839B8180E02C8130E0822B932BBE
:10078000F701918380839D8180E02E8130E0822B70
:10079000932BF601918380832696E8E00C94921FB8
:1007A000282F17C0E22FF0E0EE0FFF1FEE59FD4F8C
:1007B00080819181892B61F080917C00887F822BE0
:1007C00080937C0080917A00806480937A00089501
:1007D0002F5F263038F308951F920F920FB60F92B5
:1007E00011242F933F934F935F936F937F938F9336
:1007F0009F93AF93BF93EF93FF9380917C0087709B
:10080000E82FF0E0EE0FFF1FEE59FD4F0190F08151
:10081000E02D9091790090838F5F0E94D003FF912B
:10082000EF91BF91AF919F918F917F916F915F9168
:100830004F913F912F910F900FBE0F901F901895E1
:10084000E2E6F2E040E050E061E070E0808191811A
:10085000892B79F087B1DB01042E02C0AA0FBB1FE0
:100860000A94E2F79D012095822387B988B1282355
:1008700028B94F5F5F4F32964630510539F780E611
:1008800080937C0010927B008FE880937A0080E058
:100890000E94D0030895CF93DF93EB01DA01FC01AE
:1008A00040E050E061E070E080819181892B79F037
:1008B0003881CB01042E02C0880F991F0A94E2F7F9
:1008C000282F2095232328832C91822B8C934F5FF4
:1008D0005F4F32964830510539F7DF91CF91089537
:1008E0008EE692E064E270E045E250E00E944B0444
:1008F0008EE792E067E270E048E250E00E944B042D
:100900008EE892E06AE270E04BE250E00E944B0415
:10091000089560E070E040E050E0A1E0B0E0362FE4
:10092000FA01E259FD4F0190F081E02D309751F02E
:1009300023B1CD01062E02C0880F991F0A94E2F759
:1009400028232083FA01E258FD4F0190F081E02D29
:10095000309751F026B1CD01032E02C0880F991FA8
:100960000A94E2F728232083FA01E257FD4F019011
:10097000F081E02D309749F029B1CD0102C0880FF8
:10098000991F3A95E2F7282320836F5F7F4F4E5FD0
:100990005F4F4031510519F608951F920F920FB61F
:1009A0000F921124AF92BF92CF92DF92EF92FF92FB
:1009B0000F931F932F933F934F935F936F937F9367
:1009C0008F939F93AF93BF93CF93DF93EF93FF9357
:1009D00000918400109185008091DA0293B1909388
:1009E000DA027894292F282780958923AEE2B1E096
:1009F000EBEDF2E060E070E0C22EDD24E82EFF2493
:100A000021E0CD91DC911197209779F1C601062E56
:100A100002C0959587950A94E2F780FF26C0C7012A
:100A2000062E02C0959587950A94E2F780FF03C0D1
:100A3000118300831AC080819181A801481B590B42
:100A4000569547958CE7A82E8CEFB82EA40EB51EB0
:100A500081EBA81684E0B80640F45983488380915E
:100A60009F02681711F420939E026F5F7F4F1296CA
:100A700032966830710529F6FF91EF91DF91CF91A1
:100A8000BF91AF919F918F917F916F915F914F91A6
:100A90003F912F911F910F91FF90EF90DF90CF909A
:100AA000BF90AF900F900FBE0F901F9018951F92A0
:100AB0000F920FB60F9211242F933F934F938F9362
:100AC0009F9320918400309185008091D7029CB142
:100AD0009093D70278948095892386FF05C0309340
:100AE000D9022093D80212C08091D8029091D902E5
:100AF000281B390B36952795C90184589340815B93
:100B0000944020F430930A01209309019F918F9122
:100B10004F913F912F910F900FBE0F901F901895FE
:100B200080916800816080936800EEE2F1E040E02F
:100B300050E061E070E080819181892BA1F02091EB
:100B40006B00CB01042E02C0880F991F0A94E2F7B4
:100B5000282B20936B0034B1282F2095232324B910
:100B600025B1822B85B94F5F5F4F329648305105D2
:100B700011F783E080939F0280916A0080618093E7
:100B80006A00EE9A6E98769A0895A6E0B0E0EBECD3
:100B9000F5E00C946C1F7A8369831C012B019E8302
:100BA0008D839B012A5F3F4F3C832B83ED81FE8128
:100BB0000681178180819181081B190B38018824D7
:100BC00077FC8094982CF10182899389A489B58956
:100BD000860D971DA81DB91D268D378D40A151A1E9
:100BE000AA24BB246501A21AB30AC40AD50A8A152D
:100BF0009B05AC05BD054CF05C016D01281739075C
:100C00004A075B0714F459016A01F101A28AB38A09
:100C1000C48AD58AED81FE8184859585AA2797FDB2
:100C2000A095BA2FA4019301281B390B4A0B5B0B2B
:100C3000CA01B90115870487F20124853585442747
:100C400037FD4095542F0E94101F7B018C01F2E06C
:100C500015950795F794E794FA95D1F7F20120815D
:100C60003181442737FD4095542FC401B3010E94C0
:100C7000101FE3E09595879577956795EA95D1F7ED
:100C8000E60EF71E081F191FF2012681378144273F
:100C900037FD4095542FC601B5010E94101F56E044
:100CA00095958795779567955A95D1F7E60EF71E36
:100CB000081F191FE981FA81028804C0159507955C
:100CC000F794E7940A94D2F7ED81FE81F3A6E2A6A9
:100CD0003296FE83ED8324E030E0220E331E42E0A4
:100CE00050E0440E551E8B819C814816590609F030
:100CF0005DCF2696E2E10C94881FA6E0B0E0E3E821
:100D0000F6E00C947C1FCE010196BE016D5F7F4F13
:100D1000AE014B5F5F4F0E94A003EB81FC81AA27CD
:100D2000BB27AE1BBF0BB093E501A093E401698123
:100D30007A8144275527461B570B5093E701409370
:100D4000E6012D813E813093E9012093E8018091F5
:100D500014029091150283309105A9F08430910519
:100D60001CF4029771F506C084309105C9F005970F
:100D700041F51FC03093E7012093E6017093E9012C
:100D80006093E8011EC088279927821B930B9093DC
:100D9000E7018093E6015093E9014093E80111C017
:100DA0005093E5014093E401F093E701E093E601FD
:100DB00008C07093E5016093E401B093E701A0934C
:100DC000E6012696E2E00C94981F81E040E85AE1A3
:100DD00066E070E00E94BA020E947903882349F419
:100DE00085E08093560288EC90E090935D028093BA
:100DF0005C0208950F931F93CF93DF93FC01108241
:100E0000772767FD709572836183DC01EC0140E018
:100E100050E00FEF1FE760E070E80CC012961C93E3
:100E20000E9311971A967C936E9319971F86188AC2
:100E3000198A1A8A9A014F5F5F4F12962496818110
:100E400092812817390754F314A613A6DF91CF9186
:100E50001F910F910895A0E0B0E0E1E3F7E00C945A
:100E6000741F7C018C01EB01F70160E070E02BC086
:100E70002181328188819981281739070CF4C901B1
:100E80009283818321853285888199818217930796
:100E90000CF4C9019287818729913991442737FD44
:100EA0004095542FD8011F96AD90BD90CD90DC9009
:100EB0005297A20EB31EC41ED51E1F96AD92BD92B0
:100EC000CD92DC9252979B016F5F7F4F32960C5F01
:100ED0001F4FD70111968D919C91129728173907B2
:100EE0003CF2CDB7DEB7EAE00C94901FA0E0B0E092
:100EF000ECE7F7E00C94761FEC017C01A3E2CA2E2C
:100F0000D12CC80ED91E00E010E011C02BA53CA5C5
:100F1000442737FD4095542FF701678570898189F3
:100F200092890E94511FF601219331936F0198011C
:100F30000F5F1F4F84E090E0E80EF91E89819A81CF
:100F4000281739071CF3CDB7DEB7E8E00C94921FE1
:100F5000CF93DF93FC01EB0161817281A0E040E05F
:100F600050E00DC08385948523813481821B930BCF
:100F70008C179D070CF4AF5F4F5F5F4F329646179B
:100F8000570784F320E08A2F992787FD90958617CD
:100F9000970709F421E0822FDF91CF910895AAE00D
:100FA000B0E0E5EDF7E00C947A1F8C018091AA0186
:100FB0009091AB019A8389838091AE019091AF01AA
:100FC0009C838B838091B0019091B1019E838D832E
:100FD0008091AC019091AD0198878F838091B80189
:100FE0009091B9019A878987C801BE016F5F7F4FD1
:100FF0000E942B07F80183A594A5019694A783A7C7
:101000008436910581F5C80164E170E00E94A8076B
:10101000882329F1C8010E947607F80183A194A1D1
:10102000909314018093130185A196A190931601CA
:101030008093150187A190A59093180180931701C3
:1010400081A592A590931A018093190183A594A577
:1010500090931C0180931B0181E0808304C0C80130
:1010600064E00E94FA062A96E4E00C94961FA6E03B
:10107000B0E0EDE3F8E00C947A1F8C018091E4017C
:101080009091E5019A8389838091E6019091E7012F
:101090009C838B838091E8019091E9019E838D83ED
:1010A000C801BE016F5F7F4F0E942B07F80183A527
:1010B00094A5019694A783A78C52914021F5C8016D
:1010C00062E370E00E94A8078823C9F0C8010E946B
:1010D0007607F80183A194A19093DF018093DE014C
:1010E00085A196A19093E1018093E00187A190A54D
:1010F0009093E3018093E20181E0808304C0C80102
:1011000063E00E94FA062696E4E00C94961F209174
:10111000030130910401809103019091040128178B
:10112000390721F43093AB012093AA0120910501E6
:101130003091060180910501909106012817390729
:1011400021F43093AF012093AE012091070130913B
:10115000080180910701909108012817390721F4AF
:101160003093B1012093B00120910B0130910C011B
:1011700080910B0190910C012817390721F43093CD
:10118000B3012093B20120910D0130910E018091A5
:101190000D0190910E012817390721F43093B50104
:1011A0002093B40120910F013091100180910F0123
:1011B000909110012817390721F43093B70120933B
:1011C000B60120911101309112018091110190918D
:1011D00012012817390721F43093B9012093B8017F
:1011E0008091490290914A0205974CF48091AA019E
:1011F0009091AB019093AD018093AC010895209143
:10120000090130910A018091090190910A01281782
:10121000390721F43093AD012093AC010895A0E08B
:10122000B0E0E5E1F9E00C94721FEC018090490216
:1012300090904A02F4013297E830F10508F0D2C1EB
:10124000EA5AFF4F688179814091AA015091AB0120
:101250000C94A31F640F751F7093D1016093D0018C
:10126000888199812091AC013091AD01820F931F4B
:101270009093D7018093D6018A819B812091AE0102
:101280003091AF01820F931F9093D3018093D201CD
:101290009DC17A01E60EF71EF092D101E092D001D5
:1012A000A090AC01B090AD01088119810A0D1B1D01
:1012B0001093D7010093D601A0911301B0911401AE
:1012C0006A01CA1ADB0A488159814C0D5D1DE09103
:1012D0001501F09116018091AE019091AF018E1B26
:1012E0009F0B2A813B81820F931FBA0175956795E9
:1012F00023E0559547952A95E1F7640F751F9C01EA
:101300003595279543E0959587954A95E1F7280F00
:10131000391FE60FF71FE20FF31FF093D301E0939D
:10132000D2016A0F7B1F621B730B7093D501609310
:10133000D4012091B0013091B10186E0881691046A
:1013400009F059C0E4E0223E3E0774F029573540C9
:10135000273C310518F082E090E002C081E090E087
:10136000029709F03FC11CC0C6018A199B09209150
:10137000190130911A01820F931F95958795845218
:101380009A4F9093D1018093D0018C5D95402CEDC4
:1013900035E0281B390B3093D7012093D60122C1A9
:1013A000209102016A817B81E091BC01F091BD0135
:1013B0006E0F7F1F882777FD8095982F30E020588B
:1013C0003040442737FD4095542F0E94101F47E0BE
:1013D00095958795779567954A95D1F7E60EF71E0F
:1013E000F092D101E092D001061B170B1093D701A8
:1013F0000093D601F7C07093D1016093D0018C8126
:101400009D81EAC0640F751F7093D1016093D00174
:10141000888199812091AC013091AD01820F931F99
:101420009093D7018093D601A0911501B091160138
:101430004091AE015091AF014A1B5B0B8A819B81A9
:10144000480F591FE0911701F09118018091B001E8
:101450009091B1018E1B9F0B2C813D81820F931FB8
:10146000BC017595679523E0959587952A95E1F7D9
:10147000680F791F9A013595279583E05595479513
:101480008A95E1F7240F351FCB01820F931F8A0F36
:101490009B1F9093D3018093D2012E0F3F1F261BD9
:1014A000370B65C020911301309114010A811B8113
:1014B0008091BC019091BD01080F191FAC81BD81C5
:1014C0008091BE019091BF01A80FB91F80910901C1
:1014D00090910A018C54944097FF03C0E0E0F0E043
:1014E00016C08091090190910A018C549440959501
:1014F0008795855F91401CF0E4EFF1E008C0E09132
:101500000901F0910A01EC54F440F595E795445235
:101510005A4F421B530B460F571FB801640F751FDC
:101520009F012A1B3B0B37FF02C020E030E0CB01BC
:10153000821B930B9093D1018093D001260F371F0C
:101540003093D3012093D2019A01201B310BAF01BC
:101550004A0F5B1F57FF02C040E050E0CA01820FF4
:10156000931F9093D7018093D601241B350B3093A2
:10157000D5012093D40136C0640F751F7093D1013B
:101580006093D001888199812091AC013091AD01A7
:10159000820F931F9093D7018093D6018A819B81FC
:1015A0002091AE013091AF01820F931F9093D30130
:1015B0008093D2018091B8019091B9012A813B8139
:1015C000821B930B9093DB018093DA018C819D81C8
:1015D0002091B0013091B101820F931F9093D501FA
:1015E0008093D4018091B6019091B7019093D90175
:1015F0008093D80189E08816910441F08091B80168
:101600009091B9019093DB018093DA018091B4014C
:101610009091B5019093DD018093DC01CDB7DEB7E9
:10162000ECE00C948E1FAAE0B0E0E9E1FBE00C9442
:101630007A1F80910702909108020397A9F5FE0195
:1016400031968AE0DF011D928A95E9F7CF010E9469
:101650000F09AFE7B1E000EF11E04AEF51E06D9103
:101660007C911197F80120813181FB01808191816A
:10167000281739070CF4C901F80191838083FA0116
:1016800020813181FB0180819181821793070CF4C5
:10169000C901FA0181939193AF0112960E5F1F4F1A
:1016A000F1E0A938BF07D9F68AEE91E00E940F0950
:1016B0008091490290914A02099711F074E001C0AB
:1016C00075E060E080E090E0FC01E158FE4FA08111
:1016D000B1814D915C911197FC01E051FE4F019059
:1016E000F081E02D4E175F0754F0FC01E650FE4FED
:1016F00020813181FA01241735070CF4F901ED93AB
:10170000FC936F5F02966717FCF22A96E4E00C9454
:10171000961F8091A102882309F050C081E0809338
:10172000A1028FEF8093A0022FB7F8948091D0018F
:101730009091D1019093C3018093C2018091D20115
:101740009091D3019093C5018093C4018091D401FD
:101750009091D5019093C7018093C6018091D601E5
:101760009091D7019093C9018093C8018091D801CD
:101770009091D9019093CB018093CA018091DA01B5
:101780009091DB019093CD018093CC018091DC019D
:101790009091DD019093CF018093CE0180916F00F5
:1017A000826080936F00B19A80918400909185004F
:1017B000049690938900809388002FBF0895FC01C0
:1017C00081E08183808385E0828316821582108682
:1017D000178208959C0144E0813B940714F490E043
:1017E0000DC0845195408159914010F491E006C09C
:1017F0002850374014F49FEF06C092E0662319F09A
:1018000082E0891B982F892F0895CF93DF93EC01F5
:101810008A818B838091AA019091AB016D810E9496
:10182000EA0B87FF88838091AE019091AF016E81B2
:101830000E94EA0B87FF89838F81882351F4888176
:10184000882329F0823029F481E08D83188281E099
:101850008F838885882361F48981882319F08230F9
:1018600039F404C081E08E8382E0898381E0888737
:1018700038813F5F898123E08202C0011124380F43
:101880003A839B8180E0391729F081E09295907F1F
:10189000932B9C83DF91CF910895282F30E03F6FE9
:1018A000220F331FEFB7F894809184009091850048
:1018B000AC01405C5F4FBC016D5D7A4F809184004C
:1018C00090918500DA01A81BB90B1A161B06B4F318
:1018D00020FF02C03F9801C03F9A4617570729F0E2
:1018E0003695279545575F4FE9CFEFBF0895EFB77E
:1018F000F894379B49C016C0209184003091850030
:101900002058314C04C08FEF9FEF379B0BC0809164
:10191000840090918500B901681B790B1616170693
:1019200014F4F1CFAC0141505040CA010196181691
:10193000190614F34F5F5F4F19F420E030E826C01A
:101940008091840090918500AC0140565F4F20E06B
:1019500030E0BC0163597B4F8091840090918500F9
:10196000DA01A81BB90B1A161B06B4F386B136951B
:10197000279590E080789070282B392B46175707D1
:1019800029F045575F4FE8CF20E030E4EFBFC901B1
:101990000895EF92FF920F931F93CF93DF93E82E5A
:1019A000192F062FF62E84E20E944D0C802F0E94E4
:1019B0004D0C2E2D312FC901EC0104C08991F80E78
:1019C0000E944D0C9E012E192017C4F38F2D819576
:1019D0000E944D0CCDB7DEB7E6E00C94941F8F92B9
:1019E0009F92AF92BF92CF92DF92FF920F931F937D
:1019F000CF93DF934C015A01C0E0D0E0C62EDD2426
:101A0000C7FCD09402C0812F182FC5010E94770C0B
:101A10009C018070907C892B69F5822FC130D105A3
:101A200059F0C230D105A1F0209779F7243259F747
:101A3000812FC1E0D0E0E8CF90E0C816D90614F4B9
:101A4000812F15C0822FF22EC2E0D0E000E0DCCF63
:101A5000F20E812F8150112331F0F401E00FF11DBE
:101A600020830F5FD1CFFF2011F481E004C0C0E0DC
:101A7000D0E0CACF80E0DF91CF911F910F91FF900E
:101A8000DF90CF90BF90AF909F908F9008951F935D
:101A9000CF93DF93EC01142F45E450E00E94A91F7F
:101AA0008881811711F08FEF12C090E020E030E0C4
:101AB000FE01E20FF31F8081980F2F5F3F4F253407
:101AC0003105B1F7992311F480E001C08EEFDF9169
:101AD000CF911F910895DC0190E020E030E0FD01FE
:101AE000E20FF31F8081980F2F5F3F4F24343105A1
:101AF000B1F7AC5BBF4F91959C93A454B040CD011E
:101B000045E450E00E94B91F0895A1E1B0E0EBE880
:101B1000FDE00C946C1F1C0181E0898385E092E05C
:101B20009B838A8302969D838C830D969F838E83ED
:101B300002969987888702969B878A8702969D8757
:101B40008C8702969F878E87CE010196998B888B12
:101B5000D0900502DD0CCC246624EE24FF248701FE
:101B6000F0E88F2EFAE19F2EF6E0AF2EB12CE2E0E6
:101B70007E2E2C010E94D7019B01AC01DC01CB0120
:101B80008E199F09A00BB10B88169906AA06BB06F1
:101B90000CF051C0171424F5872D992787FD9095D7
:101BA000FC01E170F07080FD03C088E097E002C0A6
:101BB0008CED95E09093D3018093D2018CED95E06C
:101BC0009093D1018093D001EE0FFF1FEE0FFF1F06
:101BD000E959FE4F80809180A280B3807A9429C019
:101BE000DD2039F11D1424F46CE271E0A1E003C0A2
:101BF00064ED7EEFAFEF8D2D992787FD9095FC0169
:101C0000E170F07080FF03C08CED95E003C0CB0164
:101C100084529A4F9093D1018093D001EE0FFF1F11
:101C2000EE0FFF1FE959FE4F80809180A280B380A4
:101C3000DA1A79018A0180919E02882329F0109294
:101C40009E020E94870802C0662041F08091A10296
:101C5000882309F08CC00E94890B6624772009F044
:101C600089CFC1010E94050C882309F483CFF101BB
:101C70008481843561F0853520F4823509F063C0B4
:101C800013C0863559F0883509F05DC02AC0F1E0EF
:101C9000FC1514F0CC2470C0CA946EC085E08C157D
:101CA0000CF468C0C39468C0AC2DBB27A7FDB095E9
:101CB000FD01EE0FFF1FE40DF51D0180F281E02D07
:101CC0008081282F332727FD30952F5F3F4FA15963
:101CD000BE4F8C91992787FD909582179307F4F456
:101CE0001CC0AC2DBB27A7FDB095FD01EE0FFF1F5B
:101CF000E40DF51D0180F281E02D8081282F33272E
:101D000027FD309521503040A958BE4F8C9199271E
:101D100087FD9095281739070CF49C01208320E05B
:101D20008C2D992787FD9095FC01EE0FFF1FE40D88
:101D3000F51D0180F281E02DD080DD0C222319F009
:101D40000196782E770C8981823009F013CF84E0D8
:101D500092E060E070E00E946B0D84E092E060E051
:101D600071E00E946B0D6196E2E10C94881F66247D
:101D7000639474CF87E0C82E21E0D2CFA1E9B0E010
:101D8000E4ECFEE00C946C1F0E94D7011B012C01B7
:101D9000DE011196E9E5F1E086E001900D928150B7
:101DA000E1F78E010D5E1F4FC8010E94DF0B4CE171
:101DB000E42EF12CEC0EFD1EC70164E00E94FA0631
:101DC00039E4C32ED12CCC0EDD1EC60163E00E9487
:101DD000FA062092D3023092D4024092D502509259
:101DE000D602C657DF4F288239824A825B82CA58A0
:101DF000D040CA57DF4F288239824A825B82C65858
:101E0000D040CE57DF4F288239824A825B82C25847
:101E1000D04042013101C258DF4F288239824A82C4
:101E20005B82CE57D040EB962CAE3DAE4EAE5FAE51
:101E3000EB97EE961FAEEE97ED961FAEED9721E075
:101E4000EC962FAFEC97C257DF4FE882CE58D040C8
:101E5000C157DF4FF882CF58D040C057DF4F0883BB
:101E6000C059D040CF56DF4F1883C159D0400E948F
:101E7000D7015B016C010E944D0280919E02882374
:101E8000A1F4D601C501C657DF4F488159816A8147
:101E90007B81CA58D040841B950BA60BB70B81538E
:101EA0009547A040B0400CF442C010929E020E94A0
:101EB00087088C8D882369F0C657DF4FA882B982C6
:101EC000CA82DB82CA58D04061E0EE966FAFEE97CF
:101ED0002EC0C257DF4F8881CE58D040C157DF4F48
:101EE0009881CF58D0400E94CF072A968FAD2A976D
:101EF000882311F492E001C090E020E08C8D8823CB
:101F000009F421E0920F9093550288EC90E09093B1
:101F10005B0280935A02C657DF4FA882B982CA82F9
:101F2000DB82CA58D04091E0EE969FAFEE97809149
:101F3000A102882379F5EE96AFADEE97AA2351F171
:101F4000A6019501CA57DF4F688179818A819B81FB
:101F5000C658D040261B370B480B590B80914D02B9
:101F600090914E02A0914F02B091500282179307B8
:101F7000A407B5077CF40E94130B0E94890BCA5773
:101F8000DF4FA882B982CA82DB82C658D040EE9663
:101F90001FAEEE97D601C501CE57DF4F288139819C
:101FA0004A815B81C258D040821B930BA40BB50BB6
:101FB00081519742A040B04054F10E947D062A967C
:101FC0008FAD2A978823D9F4CE01875B9F4F0E945B
:101FD00037082A968FAD2A97882311F492E001C022
:101FE00090E020E08C8D882309F421E0920F9093FB
:101FF000550248EC50E050935B0240935A02CE5792
:10200000DF4FA882B982CA82DB82C258D040EC96E8
:102010005FADEC97552309F456C0C057DF4F888158
:10202000C059D040CF56DF4F9881C159D0400E944F
:10203000050C882309F447C0ED966FADED97E62FA8
:10204000FF27E7FDF095E05BFE4F9F8980819817A1
:1020500021F0ED961FAEED9707C0ED967FADED97A1
:102060007F5FED967FAFED97ED968FADED97E82F03
:10207000FF27E7FDF095E05BFE4F80818F3F81F405
:10208000CE0143960E94850D2EE088E190E00FB6C8
:10209000F894A895809360000FBE20936000FFCF56
:1020A000D601C50182199309A409B509815C914E35
:1020B000A44EB04024F0EC961FAEEC9704C0F1E0C3
:1020C000EC96FFAFEC978C8D882329F02A968FAD84
:1020D0002A978823C9F58091AC019091AD01209198
:1020E000AA013091AB01820F931F20911901309109
:1020F0001A01821B930B2091130130911401821B52
:10210000930B959587959093BB018093BA0180912D
:10211000AE019091AF012091150130911601821B03
:10212000930B9093BD018093BC018091B00190917D
:10213000B1012091170130911801821B930B9093EC
:10214000BF018093BE0193CED601C50186199709C0
:10215000A809B90981519742A040B0400CF434C39A
:1021600080914B0290914C028130910559F48091FD
:10217000B2019091B301865F95400CF0A3C080E05E
:1021800090E00DC0892B09F09DC08091B201909123
:10219000B301875296400CF495C081E090E0909393
:1021A0004C0280934B02892B11F084E001C080E047
:1021B0008093550268EC70E070935B0260935A0262
:1021C0001092B4021092B5021092B6021092B702A9
:1021D0001092C0021092C1021092C2021092C30269
:1021E0001092B8021092B9021092BA021092BB0279
:1021F0001092C4021092C5021092C6021092C70239
:102200001092BC021092BD021092BE021092BF0248
:102210001092C8021092C9021092CA021092CB0208
:1022200080911C0290911D02029709F04BC0D601CB
:10223000C501EB962CAD3DAD4EAD5FADEB97821B6E
:10224000930BA40BB50B8152914AA740B0401CF0F0
:10225000E7961FAEE797E7964FADE7974F5FE79694
:102260004FAFE797433044F18091AA019091AB01C1
:1022700090931401809313018091AE019091AF016E
:1022800090931601809315018091B0019091B10156
:1022900090931801809317018091AC019091AD014A
:1022A00090931A01809319018091B8019091B9011E
:1022B00090931C0180931B01EB96ACAEBDAECEAEED
:1022C000DFAEEB974091AC015091AD018091AA0136
:1022D0009091AB01480F591F809113019091140107
:1022E000481B590B8091190190911A01481B590BF9
:1022F000559547955093BB014093BA01E091AE01CB
:10230000F091AF018091150190911601E81BF90B36
:10231000F093BD01E093BC01A091B001B091B10177
:102320008091170190911801A81BB90BB093BF01C0
:10233000A093BE018091B8019091B90120911B0139
:1023400030911C01821B930B9093C1018093C001BB
:10235000809116028150282F332727FD3095CA011E
:1023600057FF04C088279927841B950B022E02C0B3
:10237000880F991F0A94E2F761E08139960714F0FB
:1023800080E991E060E971E0681B790B78876F83E1
:10239000CF01F7FF04C0882799278E1B9F0B022EC1
:1023A00002C0880F991F0A94E2F771E081399707FC
:1023B00014F080E991E060E971E0681B790B7A879D
:1023C0006987CD01B7FF04C0882799278A1B9B0B1B
:1023D000BC0102C0660F771F2A95E2F781E06139E0
:1023E000780714F060E971E010E9612E11E0712EB8
:1023F000661A770A7C866B868091B2019091B30150
:1024000025E0833C92074CF403EC15E0081B190B04
:1024100031E00139130794F00BC066E0883296076B
:102420001CF400E010E00AC077E0863897071CF043
:1024300000E911E003C08C01055F154080904B025C
:1024400090904C0281E08816910459F08114910417
:1024500009F050C080911A0290911B02029709F076
:1024600049C0809118029A01082E02C0220F331F22
:102470000A94E2F73E872D87082E02C0EE0FFF1F59
:102480000A94E2F7F88BEF87AD0102C0440F551FA5
:102490008A95E2F75A8B498B89819A8197FD05C00D
:1024A00088279927821B930B01C0C9019093A3022F
:1024B0008093A2028B819C812F85388997FD05C06E
:1024C00088279927821B930B01C0C9019093A5020D
:1024D0008093A4028D819E8197FD03C05095419504
:1024E0005F4F5093A7024093A60291E08916910492
:1024F00071F055C01092A3021092A2021092A50290
:102500001092A4021092A7021092A60248C06F81F6
:102510007885882777FD8095982F24EF3FEB40E062
:1025200050E00E94101FF9E0959587957795679583
:10253000FA95D1F76093C0027093C1028093C202F2
:102540009093C30269857A85882777FD8095982FB7
:102550000E94101FE9E09595879577956795EA9514
:10256000D1F76093C4027093C5028093C602909322
:10257000C702B301882777FD8095982F0E94101F0E
:1025800039E095958795779567953A95D1F760935A
:10259000C8027093C9028093CA029093CB02209123
:1025A000E4013091E5018091DE019091DF01281B6B
:1025B000390BA0E220303A0714F02FEF3FE1C901B8
:1025C000B0EE20303B0714F480E090EE9093A90227
:1025D0008093A8022091E6013091E7018091E0010B
:1025E0009091E101281B390BE0E220303E0714F006
:1025F0002FEF3FE1C901F0EE20303F0714F480E0F7
:1026000090EE9093AB028093AA022091E801309162
:10261000E9018091E2019091E301281B390B40E22E
:102620002030340714F02FEF3FE1C90150EE203085
:10263000350714F480E090EE9093AD028093AC02E5
:10264000892819F064E372E002C061E272E082EA74
:1026500092E00E94C505EE24FF243801882477FC0F
:102660008094982C870106511E4FE1E0F0E0EC0FBA
:10267000FD1FEE0DFF1D60817181882777FD80951C
:10268000982FF701EE55FD4F22A533A5442737FDBE
:102690004095542F0E94101F27E0959587957795B8
:1026A00067952A95D1F7E7E0F0E0EC0FFD1FEE0DFE
:1026B000FF1D20813181442737FD4095542F0E9412
:1026C000101F9B01AC01B9E05595479537952795AB
:1026D000BA95D1F7C401B3010E94101FA9E09595E6
:1026E000879577956795AA95D1F7D8016D937C93D7
:1026F000E2E0F0E0EE0EFF1EF6E0EF16F10409F066
:10270000B1CF2091D20212160CF05CC08091D3029E
:102710009091D402A091D502B091D602B601A50144
:10272000481B590B6A0B7B0BDB01CA0181549D408E
:10273000A340B0405CF021502093D202A092D3027B
:10274000B092D402C092D502D092D6028091D20229
:10275000992787FD90954091EA015091EB01BC01CA
:102760006170707080FF03C026E930E002C02AE685
:102770003FEF240F351F3093EB012093EA01409186
:10278000EC015091ED016115710519F026E930E079
:1027900002C02AE63FEF240F351F3093ED0120934E
:1027A000EC012091EE013091EF01672B19F48AE6DC
:1027B0009FEF02C086E990E0820F931F9093EF0194
:1027C0008093EE0135014601D601C501C258DF4FA5
:1027D000288139814A815B81CE57D040821B930B7F
:1027E000A40BB50B8C59914AA740B0400CF43FCBD9
:1027F00080911E02803839F480910001282F30E04A
:102800002058304004C0282F332727FD3095809171
:102810001F02803839F480910101482F50E0405860
:10282000504004C0482F552747FD50958091200205
:10283000803831F48091020190E08058904003C0CC
:10284000992787FD90953A8329835C834B839E83E8
:102850008D83295F3F4F2F30310510F41A82198282
:102860008B819C8107960F9710F41C821B828D81AF
:102870009E8107960F9710F41E821D8280E00E94B1
:10288000D003C258DF4FA882B982CA82DB82CE57FA
:10289000D040EDCAA6E6B0E0E0E5F4E10C94761F86
:1028A0001092800081E0809381003F98479848E52E
:1028B00052E000E06E010894C11CD11C62E0E62EDB
:1028C000F12CEC0EFD1EC60166E60E94EF0C88237B
:1028D00009F441C089818230A9F0833018F4813035
:1028E00029F406C08330B1F08430E9F010E026C04E
:1028F000C70160E870E048E050E00E94A91F10E0C6
:1029000069E01DC0C70160E870E048E050E00E9447
:10291000B91F13C0C70160E070E04CE00E94470D92
:1029200010E066E40CC0C70160E070E00E946B0D2F
:10293000C70160E071E00E946B0D11E061E08981E8
:1029400080688983C6010E94C90C01E044EF51E010
:10295000112309F4B8CF802FCA59DF4FE8E00C9457
:10296000921F1F920F920FB60F9211240F931F9375
:102970002F933F934F935F936F937F938F939F9387
:10298000AF93BF93EF93FF938091A00287FD42C066
:10299000E091A002FF27E7FDF095E25CFE4F808109
:1029A00060E00E946B1C36C08091A0028F5F809314
:1029B000A002E091A002FF27E7FDF095E25CFE4F48
:1029C000808187FD27C00091840010918500E091EF
:1029D000A002FF27E7FDF095E25CFE4F808161E0F9
:1029E0000E946B1CE091A002FF27E7FDF095EE0F1F
:1029F000FF1FE25EFE4F0190F081E02D808191810A
:102A00000297880F991F800F911F909389008093E0
:102A100088000BC08091A002873034F21092A1028E
:102A200080916F008D7F80936F00FF91EF91BF9138
:102A3000AF919F918F917F916F915F914F913F9156
:102A40002F911F910F910F900FBE0F901F9018950F
:102A50000F931F93CF93DF9300E010E0E801C25C77
:102A6000DE4F888187FD08C0888160E00E946B1C72
:102A7000888161E00E94F31B0F5F1F4F0830110532
:102A800069F7DF91CF911F910F910895A0E0B0E019
:102A9000ECE4F5E10C94761F182F062F862F61E0E9
:102AA0000E94F31B812F60E00E94F31B812F61E0E5
:102AB0000E946B1C6AE070E080E090E00E941702C8
:102AC000C0E0D0E0812F992787FD9095FC01E75960
:102AD000FE4FE491F0E0EE0FFF1FE55AFE4FC59068
:102AE000D49089579E4FFC018491E82EFF24CE019B
:102AF0008170182F802F612F0E946B1CF60180813E
:102B000020E030E090E08E219F21892B11F021E020
:102B100030E0812F992787FD90952817390711F00C
:102B200010E005C02196C830D10509F711E0802FCB
:102B300060E00E94F31B812FCDB7DEB7E8E00C9474
:102B4000921FA4E9B0E0E7EAF5E10C94781F559AEA
:102B50008091620390916303009711F09C0102C081
:102B600026E633E0CE010196821B930B8038910557
:102B70004CF484E1809356028EE190E090935D02E4
:102B800080935C0281E090E09093060280930502BE
:102B900020E820931E0220931F022093200290938E
:102BA00008028093070287E080934702109209028F
:102BB000EFE5F1E0AAE0B2E081918D9321E0E73604
:102BC000F207D1F742E050E0509313024093120213
:102BD00021E030E030931502209314023093170265
:102BE0002093160283E090E09093190280931802DC
:102BF00030931B0220931A0250931D0240931C0233
:102C000084EF91E090932202809321021092280297
:102C10001092270290932E0280932D02909324020B
:102C20008093230210922A0210922902909330027C
:102C300080932F02909326028093250210922C02FB
:102C400010922B02909332028093310228E020935D
:102C50003302909335028093340290933B02809329
:102C60003A029093410280934002909337028093FE
:102C7000360290933D0280933C02909343028093EE
:102C80004202909339028093380290933F028093DE
:102C90003E0290934502809344022093460285E0D1
:102CA00066E00E944615882311F400E001C007E0A9
:102CB000CE01039660E870E048E050E00E94A91F52
:102CC000002361F48B81833049F48C819D81AE8136
:102CD000BF818E549146AC4BB04071F083E08B8342
:102CE0008EE491E6ACEBB0E08C839D83AE83BF8332
:102CF000188619861A860860CE010B9660E070E08F
:102D00004CE00E94470D87FD0260CE01805B9F4F23
:102D100060E071E04CE00E94470D87FD046083E0B5
:102D20008093D202E02EFF24C7018670907082301B
:102D3000910531F08430910579F0892B81F119C02A
:102D40008E01005B1F4FC80160E070E00E946B0DB8
:102D500088858F5F88870BC08E01055F1F4FC80174
:102D600060E071E00E946B0D89858F5F8987C801E3
:102D700018C08CE08093040284E092E060E070E090
:102D80000E946B0D84E092E060E071E00E946B0DA8
:102D90008A858F5F8A8789E08093D2020AC0CE013C
:102DA0000B96A4E0B2E0FC0185E401900D92815005
:102DB000E1F7C7018E709070892B41F0CE01039628
:102DC00060E870E048E050E00E94B91FE0FE0AC0F1
:102DD00082E00E943F0264E670E080E090E00E94A2
:102DE000791BF6CF0E944A14882361F02EE088E117
:102DF00090E00FB6F894A895809360000FBE2093E2
:102E00006000FFCF1092800082E08093810081E01B
:102E100080936F0085B5887F85BD80910702909172
:102E200008028230910519F18330910524F401974D
:102E300009F05BC007C08330910571F1049709F078
:102E400054C03FC080E090E048EE53E020ED37E012
:102E5000FC01E051FE4F51834083FC01E650FE4FE0
:102E60003183208302968A30910591F73EC080E03D
:102E700090E04CE454E02CE637E0FC01E051FE4FDA
:102E800051834083FC01E650FE4F3183208302963C
:102E90008A30910591F729C080E090E042EE54E03D
:102EA00026ED36E0FC01E051FE4F51834083FC01EA
:102EB000E650FE4F3183208302968A30910591F7C8
:102EC00014C080E090E044E853E024E338E0FC01E3
:102ED000E051FE4F51834083FC01E650FE4F3183A9
:102EE000208302968A30910591F7809109029927F3
:102EF00087FD909528EE33E0AC01429FC001439FCF
:102F0000900D529F900D1124AA2797FDA095BA2FDE
:102F100080934D0290934E02A0934F02B0935002C3
:102F200080914702877080931D010E9470040E9467
:102F30008904809105029091060290934A02809341
:102F40004902019731F482E090E090934A02809325
:102F50004902809149028093540288E592E090935F
:102F60005902809358020E9420040E9490050E94FA
:102F700028150E94E5060E9487080E94130BCC5674
:102F8000DF4FE6E00C94941FCF93DF930E949D1BCC
:102F900089EF92E00E94A8180E94A115C0E0D0E03D
:102FA0000E94BE0E2097E1F30E940000F9CFFC01C1
:102FB00004C08091F100819361506623D1F7289875
:102FC00084E68093F2020895282F8091F3028823EB
:102FD000C1F057FF1AC015C028989093F202809153
:102FE000F1008193E217F307B9F74115510539F064
:102FF0008091F200882319F48BE68093E800AFBF3C
:1030000002C04FEF5FEFCA010895AFB7F894277081
:103010002093E9008091F200282F30E02417350733
:103020000CF4A901FB019B01240F311D94E6DACFBA
:10303000A1E0B0E0EEE1F8E10C947C1FBE016F5F0F
:103040007F4F41E050E00E94E417019719F02FEF05
:103050003FEF03C08981282F30E0C9012196E2E0CB
:103060000C94981F2FB7F89487708093E900809193
:10307000E80085FD02C090E004C08091F20090E479
:10308000981B2FBF892F0895FF920F931F93F82E3F
:10309000142F052F4091F6025091F702212F302F67
:1030A000C901DC01FB016EEF29C0F7FE02C094915B
:1030B00001C090812091F4023091F5022417350768
:1030C000ACF48091E8008570E1F38091E80082FF24
:1030D00003C02FEF3FEF17C09093F100C901019695
:1030E0008F739070892B11F46093E8002F5F3F4F2E
:1030F0003093F5022093F402119731961097A9F6B8
:10310000812F902F9C01C9011F910F91FF9008956D
:103110000F931F939C01162F072F8091E80082FFC9
:10312000FCCFC901612F0E94D7178BEF8093E80075
:10313000812F902F1F910F9108958093E900809126
:10314000F200882319F08AE38093E8000895089537
:103150001092F30281E08093D70080EA8093D80038
:1031600082E189BD09B400FEFDCF61E070E080E03E
:1031700090E00E94791B80E98093D8008CE08093D6
:10318000E2001092E000559A209A0895A0E0B0E085
:10319000ECECF8E10C94701FE82E942E852E8091B3
:1031A000F302882309F18B01242F352FC901EC018B
:1031B0006AEFF62E57E0752E7E208E2D90E040E2CD
:1031C000A42EB12CA822B9223AE3632E20E4C22E09
:1031D000D12CC822D9224CC08E2D0E943218282F03
:1031E000882361F4FA9419F42FEF3FEF4CC061E0AB
:1031F00070E080E090E00E94791B3AC090E0C81730
:10320000D9070CF42C2FC21BD1094FB7F894709238
:10321000E900A114B10421F406C01092F10021507C
:103220002223D9F719C0E7FC03C0F801922F10C080
:10323000C801322F06C0FC010196E491E093F10031
:1032400031503323C1F706C081918093F100915032
:103250009923D1F7020F111D8091E80085FF05C069
:10326000209729F4C114D10411F06092E8004FBFF7
:10327000209709F0B1CF5D9884E68093F102292D63
:10328000382DC9019C01C901CDB7DEB7EEE00C9421
:103290008C1F1F920F920FB60F9211242F933F9302
:1032A0004F935F936F937F938F939F93AF93BF934E
:1032B000EF93FF938091E1001092E100982F83FF3C
:1032C0000FC01092E90081E08093EB001092EC00B7
:1032D00082E38093ED001092F30288E08093F00087
:1032E00092FF34C083E08093E9008091F20088234C
:1032F00019F08AE38093E8008FB7F89492E09093F6
:10330000E9009091F2008FBF992321F087E493E0C8
:103310000E94281D8091F102882351F08091F102D2
:1033200081508093F1028091F102882309F45D9A23
:103330008091F202882351F08091F20281508093B3
:10334000F2028091F202882309F4289AFF91EF910A
:10335000BF91AF919F918F917F916F915F914F91AD
:103360003F912F910F900FBE0F901F901895A1E0E5
:10337000B0E0EDEBF9E10C947A1F19828E010F5F3A
:103380001F4FC8010E944E1DC8010E94E01E898186
:1033900090E02196E4E00C94961F1F920F920FB6D6
:1033A0000F921124EF92FF921F932F933F934F930D
:1033B0005F936F937F938F939F93AF93BF93EF939D
:1033C000FF93DF93CF93CDB7DEB76197DEBFCDBF5D
:1033D0001092E9008091E80083FF04C1CE010196BC
:1033E00068E00E94D71782EF8093E800998197FFE9
:1033F00005C08091E80080FFFCCF03C08EEF809372
:10340000E800292F30E0C90180769070892B09F0FF
:10341000C2C08A81882329F41092F1001092F10031
:10342000D6C0813009F4D3C0833009F4D0C08530D0
:1034300049F48091E80080FFFCCF8B818068809305
:10344000E300C5C0863009F07CC01C81EF80F884A1
:103450001230C1F51092E9001092F5021092F402B8
:103460001092F7021092F6020E94B71999E0FE013D
:103470003996DF01292F1D922A95E9F799871A8736
:1034800091E09E8790E8988B9AEF998B2091F402B7
:103490003091F502275F3F4F3C872B878D87109235
:1034A000E9001092F5021092F402F092F702E09215
:1034B000F60280E0BF0149E050E00E9444180E94FB
:1034C000B71985C01092E9001092F5021092F4022B
:1034D000F092F702E092F602123241F482E290E0BA
:1034E0000E94D81E892B09F476C071C0113079F47E
:1034F00088E0E816F10419F481E08093F8028091E5
:10350000F802882309F06BC0E6E1F1E013C0133044
:1035100009F061C08B81882319F4E8EDF0E00AC05E
:10352000823019F4ECEDF0E005C0813009F053C0B1
:10353000EEEFF0E0449180E8BF0150E00E944418B3
:1035400046C0873009F447C0883021F481E0809379
:10355000F1003DC08930D9F523703070232BD9F5A7
:10356000EBE3F1E091E031E026E39093E900309362
:10357000EB0084918093EC002093ED009F5F3196E7
:10358000953099F78EE78093EA001092EA008B81DC
:103590008093F3021CC08F8198851092E9001092ED
:1035A000F5021092F4029093F7028093F6028D8157
:1035B000882329F4CE0101960E945A1D06C082304C
:1035C00051F4CE0101960E94B01D882321F08EEFA8
:1035D0008093E80007C081E28093EB0003C0E8E23B
:1035E000F1E0A8CF6196DEBFCDBFCF91DF91FF9113
:1035F000EF91BF91AF919F918F917F916F915F916B
:103600004F913F912F911F91FF90EF900F900FBE20
:103610000F901F9018951F920F920FB60F921124C2
:103620002F933F938F939F93AF93BF938091FE020D
:103630009091FF02A0910003B09101033091020329
:103640000196A11DB11D232F2D5F2D3720F02D5781
:103650000196A11DB11D209302038093FE02909359
:10366000FF02A0930003B09301038091FA029091AE
:10367000FB02A091FC02B091FD020196A11DB11DBB
:103680008093FA029093FB02A093FC02B093FD0298
:10369000BF91AF919F918F913F912F910F900FBE4E
:1036A0000F901F9018959FB7F8942091FA023091CF
:1036B000FB024091FC025091FD0286B5A89B06C01A
:1036C0008F3F21F02F5F3F4F4F4F5F4F9FBF542FD2
:1036D000432F322F2227280F311D411D511D82E01B
:1036E000220F331F441F551F8A95D1F7B901CA0114
:1036F0000895EF92FF920F931F93CF93DF937B0177
:103700008C010E94531BEB010EC00E94531B6C1BCB
:103710007D0B685E7340C8F30894E108F108010965
:103720001109C851DC4FE114F1040105110569F7D5
:10373000CDB7DEB7E6E00C94941F789484B5826030
:1037400084BD84B5816084BD85B5826085BD85B545
:10375000816085BDEEE6F0E0808181608083E1E8F4
:10376000F0E010828081826080838081816080832C
:10377000E0E8F0E0808181608083E1E9F0E0808131
:1037800082608083808181608083E0E9F0E08081D5
:1037900081608083E1ECF0E08081846080838081BF
:1037A00082608083808181608083E3ECF0E08081AF
:1037B00081608083E0ECF0E0808182608083E2ECD5
:1037C000F0E0808181608083EAE7F0E080818460BE
:1037D000808380818260808380818160808380811A
:1037E000806880830895CF93DF93482F50E0CA010B
:1037F00089579E4FFC01349147595E4FFA018491DD
:10380000882369F190E0880F991FFC01E15CFE4F6D
:10381000A591B491FC01E35BFE4FC591D491662361
:1038200051F42FB7F8948C91932F909589238C9312
:10383000888189230BC0623061F42FB7F8948C9192
:10384000932F909589238C938881832B88832FBF16
:1038500006C09FB7F8948C91832B8C939FBFDF9108
:10386000CF91089590E0FC013197EE30F10590F58D
:10387000E25AFF4F0C94A31F809180008F7703C002
:10388000809180008F7D80938000089584B58F772C
:1038900002C084B58F7D84BD0895809190008F779C
:1038A00007C0809190008F7D03C080919000877F3A
:1038B0008093900008958091C0008F7703C080911D
:1038C000C0008F7D8093C00008958091C200877FE3
:1038D0008093C2000895FF920F931F93F62E482FF6
:1038E00050E0CA018B559E4FFC012491CA018957B3
:1038F0009E4FFC01149147595E4FFA010491002339
:10390000C9F0222319F0822F0E94321CE02FF0E030
:10391000EE0FFF1FE35BFE4FA591B4919FB7F894A4
:10392000FF2021F48C911095812302C08C91812B72
:103930008C939FBF1F910F91FF9008952091430397
:10394000309144038091450390914603281B390B25
:103950002F733070C90108952091430330914403BF
:1039600080914503909146032817390719F42FEFEA
:103970003FEF09C0E0914503F0914603ED5FFC4F36
:103980008081282F30E0C9010895209143033091B0
:10399000440380914503909146032817390719F491
:1039A0002FEF3FEF13C0E0914503F0914603ED5F29
:1039B000FC4F2081809145039091460301968F73BF
:1039C0009070909346038093450330E0C9010895B9
:1039D00010924A031092490388EE93E0A0E0B0E011
:1039E00080934B0390934C03A0934D03B0934E03ED
:1039F0008DE891E090934803809347030895A1E0F8
:103A0000B0E0E5E0FDE10C947A1F8C0169838091C0
:103A10004D01882369F083E0BE016F5F7F4F41E075
:103A200050E00E94C6181816190614F49C0107C02D
:103A300081E090E0F8019383828320E030E0C901C7
:103A40002196E4E00C94961F83E00E949D1808954F
:103A5000CF93DF9312C082E00E9418182FEF8F3FA0
:103A60009207C9F0E0914303F0914403ED5FFC4FEE
:103A70008083D0934403C0934303C0914303D09108
:103A800044032196CF73D0708091450390914603F3
:103A9000C817D90701F7DF91CF910895FC01808104
:103AA0008E5F808380E86FEC71E042E450E00E941A
:103AB00044180895FC0181819081913A59F4813232
:103AC00009F04CC080E066E471E047E050E00E94FD
:103AD000441842C0913209F041C0803239F486E482
:103AE00091E067E070E00E94881836C0823209F0E9
:103AF00035C0828180934D018091460190914701AC
:103B0000A0914801B0914901805B9440A040B04031
:103B100019F580914D0180FD12C087E797E79093DA
:103B20000108809300082BE088E190E00FB6F8943C
:103B3000A895809360000FBE209360000DC088E1BF
:103B40000FB6F89480936000109260000FBEA895A5
:103B5000109201081092000881E0089580E0089515
:103B6000FC0191818081813A31F4913089F080E0CB
:103B7000933089F40DC0813269F49B3021F4828145
:103B800080934E0105C09A3029F4828180934F01C1
:103B900081E0089580E00895EF92FF920F931F93C4
:103BA0008C01E62EDC01ED91FC910480F581E02D85
:103BB0000995F82ED801ED91FC910680F781E02D52
:103BC000C8016E2D09958F2D90E01F910F91FF90E8
:103BD000EF900895109255031092590310925803D4
:103BE0008FE991E090935703809356030895A1E0E5
:103BF000B0E0EDEFFDE10C94781F89838B017A0131
:103C000084E0BE016F5F7F4F41E050E00E94C61824
:103C100084E4B801A7010E94C6182196E6E00C943E
:103C2000941F82E048E050E00E94F71D0895FC01D7
:103C30001682178210861186128613861482349695
:103C4000BF010E94111E0895DC01683810F0685809
:103C500029C0E62FF0E067FF13C0E058F04081E094
:103C600090E002C0880F991FEA95E2F780951496BC
:103C70002C911497282314962C93149760E012C06B
:103C8000E157FD4F6491662319F420E030E01DC038
:103C900067FF08C014968C9114978D7F14968C93AF
:103CA00014976F77FD0190E0662321F086818617D7
:103CB00009F416829F5F31969630B1F7CD011496C4
:103CC000BD010E94111E21E030E0C9010895CF938B
:103CD000DF93DC01683810F0685825C0E62FF0E06B
:103CE00067FF12C0E058F04081E090E002C0880F0A
:103CF000991FEA95E2F714962C911497282B1496A5
:103D00002C93149760E00FC0E157FD4F6491662338
:103D1000D9F167FF08C014968C91149782601496AD
:103D20008C9314976F7716968C9116978617A9F136
:103D300017968C911797861781F118968C91189782
:103D4000861759F119968C911997861731F11A96A1
:103D50008C911A97861709F11B968C911B978617E1
:103D6000E1F0ED01E0E0F0E09E2F8E81882321F468
:103D7000EA0FFB1F668306C09F5F31962196E630EF
:103D8000F10591F7963049F481E090E013969C9309
:103D90008E93129720E030E007C0CD011496BD014C
:103DA0000E94111E21E030E0C901DF91CF910895FA
:103DB00080E861E172E045E650E00E944418089511
:103DC000FC0180818F5F808380E866E772E049E1D3
:103DD00050E00E9444180895A0E0B0E0E2EFFEE158
:103DE0000C94761F7C016B018A01C0E0D0E00FC00B
:103DF000D6016D916D01D701ED91FC910190F0819B
:103E0000E02DC7010995C80FD91F015010400115B9
:103E1000110571F7CE01CDB7DEB7E8E00C94921F23
:103E2000629FD001739FF001829FE00DF11D649F9E
:103E3000E00DF11D929FF00D839FF00D749FF00D2A
:103E4000659FF00D9927729FB00DE11DF91F639FCB
:103E5000B00DE11DF91FBD01CF0111240895A1E2AC
:103E60001A2EAA1BBB1BFD010DC0AA1FBB1FEE1FF4
:103E7000FF1FA217B307E407F50720F0A21BB30B3F
:103E8000E40BF50B661F771F881F991F1A9469F7BB
:103E900060957095809590959B01AC01BD01CF0117
:103EA000089597FB092E05260ED057FD04D0D7DFC5
:103EB0000AD0001C38F450954095309521953F4F1D
:103EC0004F4F5F4F0895F6F79095809570956195E7
:103ED0007F4F8F4F9F4F08952F923F924F925F9247
:103EE0006F927F928F929F92AF92BF92CF92DF920A
:103EF000EF92FF920F931F93CF93DF93CDB7DEB76F
:103F0000CA1BDB0B0FB6F894DEBF0FBECDBF099402
:103F10002A88398848885F846E847D848C849B8459
:103F2000AA84B984C884DF80EE80FD800C811B8167
:103F3000AA81B981CE0FD11D0FB6F894DEBF0FBE96
:103F4000CDBFED010895EE0FFF1F0590F491E02D18
:103F50000994DC01CB01FC01F999FECF06C0F2BD4A
:103F6000E1BDF89A319600B40D9241505040B8F737
:103F70000895DC01CB0103C02D910E94C41F415064
:103F80005040D0F70895262FF999FECF1FBA92BD61
:103F900081BD20BD0FB6F894FA9AF99A0FBE01962A
:063FA0000895F894FFCF24
:103FA600FFFFFFDC05DC05DC05DC05E803DC05E8D6
:103FB60003DC05DC05DC05DC05DC05DC0506C601E5
:103FC600C401CA01C2010000C801CE01CC01000033
:103FD6000701030105010B010000000000000B0AA8
:103FE600FF09FF0DFFFF00E10000000000000101D6
:103FF6007889988778899887FF000000000000007C
:1040060001020304050607A0860100801A060005C2
:10401600040503040202020101010101010101D0AC
:1040260001D201D401D601DA0100000000FF1CEC28
:104036001E9E1CC51CAC1C241D281D00000000CCA7
:0A4046001DEC1E671E241E171E004D
:00000001FF
